{
  "contractName": "ActivistContract",
  "abi": [
    {
      "inputs": [],
      "name": "activistsCount",
      "outputs": [
        {
          "internalType": "uint256",
          "name": "",
          "type": "uint256"
        }
      ],
      "stateMutability": "view",
      "type": "function"
    },
    {
      "inputs": [
        {
          "internalType": "address",
          "name": "addr",
          "type": "address"
        }
      ],
      "name": "getUser",
      "outputs": [
        {
          "internalType": "enum UserContract.UserType",
          "name": "",
          "type": "uint8"
        }
      ],
      "stateMutability": "view",
      "type": "function"
    },
    {
      "inputs": [],
      "name": "getUserTypes",
      "outputs": [
        {
          "internalType": "string",
          "name": "",
          "type": "string"
        },
        {
          "internalType": "string",
          "name": "",
          "type": "string"
        },
        {
          "internalType": "string",
          "name": "",
          "type": "string"
        }
      ],
      "stateMutability": "pure",
      "type": "function"
    },
    {
      "inputs": [],
      "name": "usersCount",
      "outputs": [
        {
          "internalType": "uint256",
          "name": "",
          "type": "uint256"
        }
      ],
      "stateMutability": "view",
      "type": "function"
    },
    {
      "inputs": [
        {
          "internalType": "string",
          "name": "name",
          "type": "string"
        },
        {
          "internalType": "string",
          "name": "document",
          "type": "string"
        },
        {
          "internalType": "string",
          "name": "documentType",
          "type": "string"
        },
        {
          "internalType": "string",
          "name": "country",
          "type": "string"
        },
        {
          "internalType": "string",
          "name": "state",
          "type": "string"
        },
        {
          "internalType": "string",
          "name": "city",
          "type": "string"
        },
        {
          "internalType": "string",
          "name": "cep",
          "type": "string"
        }
      ],
      "name": "addActivist",
      "outputs": [
        {
          "components": [
            {
              "internalType": "uint256",
              "name": "id",
              "type": "uint256"
            },
            {
              "internalType": "address",
              "name": "activistWallet",
              "type": "address"
            },
            {
              "internalType": "enum UserContract.UserType",
              "name": "userType",
              "type": "uint8"
            },
            {
              "internalType": "string",
              "name": "name",
              "type": "string"
            },
            {
              "internalType": "string",
              "name": "document",
              "type": "string"
            },
            {
              "internalType": "string",
              "name": "documentType",
              "type": "string"
            },
            {
              "internalType": "bool",
              "name": "recentInspection",
              "type": "bool"
            },
            {
              "internalType": "uint256",
              "name": "totalInspections",
              "type": "uint256"
            },
            {
              "components": [
                {
                  "internalType": "string",
                  "name": "country",
                  "type": "string"
                },
                {
                  "internalType": "string",
                  "name": "state",
                  "type": "string"
                },
                {
                  "internalType": "string",
                  "name": "city",
                  "type": "string"
                },
                {
                  "internalType": "string",
                  "name": "cep",
                  "type": "string"
                }
              ],
              "internalType": "struct ActivistContract.ActivistAddress",
              "name": "activistAddress",
              "type": "tuple"
            }
          ],
          "internalType": "struct ActivistContract.Activist",
          "name": "",
          "type": "tuple"
        }
      ],
      "stateMutability": "nonpayable",
      "type": "function"
    },
    {
      "inputs": [],
      "name": "getActivists",
      "outputs": [
        {
          "components": [
            {
              "internalType": "uint256",
              "name": "id",
              "type": "uint256"
            },
            {
              "internalType": "address",
              "name": "activistWallet",
              "type": "address"
            },
            {
              "internalType": "enum UserContract.UserType",
              "name": "userType",
              "type": "uint8"
            },
            {
              "internalType": "string",
              "name": "name",
              "type": "string"
            },
            {
              "internalType": "string",
              "name": "document",
              "type": "string"
            },
            {
              "internalType": "string",
              "name": "documentType",
              "type": "string"
            },
            {
              "internalType": "bool",
              "name": "recentInspection",
              "type": "bool"
            },
            {
              "internalType": "uint256",
              "name": "totalInspections",
              "type": "uint256"
            },
            {
              "components": [
                {
                  "internalType": "string",
                  "name": "country",
                  "type": "string"
                },
                {
                  "internalType": "string",
                  "name": "state",
                  "type": "string"
                },
                {
                  "internalType": "string",
                  "name": "city",
                  "type": "string"
                },
                {
                  "internalType": "string",
                  "name": "cep",
                  "type": "string"
                }
              ],
              "internalType": "struct ActivistContract.ActivistAddress",
              "name": "activistAddress",
              "type": "tuple"
            }
          ],
          "internalType": "struct ActivistContract.Activist[]",
          "name": "",
          "type": "tuple[]"
        }
      ],
      "stateMutability": "view",
      "type": "function"
    },
    {
      "inputs": [
        {
          "internalType": "address",
          "name": "addr",
          "type": "address"
        }
      ],
      "name": "getActivist",
      "outputs": [
        {
          "components": [
            {
              "internalType": "uint256",
              "name": "id",
              "type": "uint256"
            },
            {
              "internalType": "address",
              "name": "activistWallet",
              "type": "address"
            },
            {
              "internalType": "enum UserContract.UserType",
              "name": "userType",
              "type": "uint8"
            },
            {
              "internalType": "string",
              "name": "name",
              "type": "string"
            },
            {
              "internalType": "string",
              "name": "document",
              "type": "string"
            },
            {
              "internalType": "string",
              "name": "documentType",
              "type": "string"
            },
            {
              "internalType": "bool",
              "name": "recentInspection",
              "type": "bool"
            },
            {
              "internalType": "uint256",
              "name": "totalInspections",
              "type": "uint256"
            },
            {
              "components": [
                {
                  "internalType": "string",
                  "name": "country",
                  "type": "string"
                },
                {
                  "internalType": "string",
                  "name": "state",
                  "type": "string"
                },
                {
                  "internalType": "string",
                  "name": "city",
                  "type": "string"
                },
                {
                  "internalType": "string",
                  "name": "cep",
                  "type": "string"
                }
              ],
              "internalType": "struct ActivistContract.ActivistAddress",
              "name": "activistAddress",
              "type": "tuple"
            }
          ],
          "internalType": "struct ActivistContract.Activist",
          "name": "",
          "type": "tuple"
        }
      ],
      "stateMutability": "view",
      "type": "function"
    },
    {
      "inputs": [
        {
          "internalType": "address",
          "name": "addr",
          "type": "address"
        }
      ],
      "name": "activistExists",
      "outputs": [
        {
          "internalType": "bool",
          "name": "",
          "type": "bool"
        }
      ],
      "stateMutability": "view",
      "type": "function"
    }
  ],
  "bytecode": "0x608060405234801561001057600080fd5b506115e8806100206000396000f3fe608060405234801561001057600080fd5b50600436106100885760003560e01c80636337dc1a1161005b5780636337dc1a146100f15780636ba13a821461015a5780636f77926b146101635780638c4772fc1461019c57610088565b806309e1b1d11461008d57806340f52841146100a957806342e187dd146100c957806362efeff7146100de575b600080fd5b61009660045481565b6040519081526020015b60405180910390f35b6100bc6100b73660046111a8565b6101bf565b6040516100a09190611505565b6100d1610589565b6040516100a09190611458565b6100bc6100ec36600461117a565b610a86565b604080518082018252600880825267282927a22aa1a2a960c11b60208084019190915283518085018552918252671050d512559254d560c21b8282015283518085018552600a8152692922a9a2a0a921a422a960b11b9181019190915292516100a093906114cc565b61009660015481565b61018f61017136600461117a565b6001600160a01b031660009081526020819052604090205460ff1690565b6040516100a091906114b8565b6101af6101aa36600461117a565b610f50565b60405190151581526020016100a0565b6101c7610fe4565b600060045460016101d89190611518565b604080516080810182528881526020808201899052818301889052606082018790528251610120810184528481523391810191909152929350600292909160009190810184815260208082018f905260408083018f9052606083018e905260006080840181905260a0840181905260c09093018690526002805460018101825593528351600b9093027f405787fa12a823e0f2b7631cc41b3ba8828b3321ca811111fa75cd3aa3bb5ace8101938455918401517f405787fa12a823e0f2b7631cc41b3ba8828b3321ca811111fa75cd3aa3bb5acf90920180546001600160a01b039093166001600160a01b031990931692909217808355908401519394508493919060ff60a01b1916600160a01b83600381111561030657634e487b7160e01b600052602160045260246000fd5b02179055506060820151805161032691600284019160209091019061105a565b506080820151805161034291600384019160209091019061105a565b5060a0820151805161035e91600484019160209091019061105a565b5060c082015160058201805460ff191691151591909117905560e0820151600682015561010082015180518051600784019161039f9183916020019061105a565b5060208281015180516103b8926001850192019061105a565b50604082015180516103d491600284019160209091019061105a565b50606082015180516103f091600384019160209091019061105a565b50503360009081526003602081815260409283902087518155908701516001820180546001600160a01b0319166001600160a01b0390921691909117808255938801518897509195509093509160ff60a01b191690600160a01b90849081111561046a57634e487b7160e01b600052602160045260246000fd5b02179055506060820151805161048a91600284019160209091019061105a565b50608082015180516104a691600384019160209091019061105a565b5060a082015180516104c291600484019160209091019061105a565b5060c082015160058201805460ff191691151591909117905560e082015160068201556101008201518051805160078401916105039183916020019061105a565b50602082810151805161051c926001850192019061105a565b506040820151805161053891600284019160209091019061105a565b506060820151805161055491600384019160209091019061105a565b505060048054935091506000905061056b8361156b565b919050555061057a3384610f83565b9b9a5050505050505050505050565b60606002805480602002602001604051908101604052809291908181526020016000905b82821015610a7d5760008481526020908190206040805161012081018252600b86029092018054835260018101546001600160a01b03811694840194909452919290830190600160a01b900460ff16600381111561061b57634e487b7160e01b600052602160045260246000fd5b600381111561063a57634e487b7160e01b600052602160045260246000fd5b815260200160028201805461064e90611530565b80601f016020809104026020016040519081016040528092919081815260200182805461067a90611530565b80156106c75780601f1061069c576101008083540402835291602001916106c7565b820191906000526020600020905b8154815290600101906020018083116106aa57829003601f168201915b505050505081526020016003820180546106e090611530565b80601f016020809104026020016040519081016040528092919081815260200182805461070c90611530565b80156107595780601f1061072e57610100808354040283529160200191610759565b820191906000526020600020905b81548152906001019060200180831161073c57829003601f168201915b5050505050815260200160048201805461077290611530565b80601f016020809104026020016040519081016040528092919081815260200182805461079e90611530565b80156107eb5780601f106107c0576101008083540402835291602001916107eb565b820191906000526020600020905b8154815290600101906020018083116107ce57829003601f168201915b5050509183525050600582015460ff161515602082015260068201546040808301919091528051608081019091526007830180546060909301928290829061083290611530565b80601f016020809104026020016040519081016040528092919081815260200182805461085e90611530565b80156108ab5780601f10610880576101008083540402835291602001916108ab565b820191906000526020600020905b81548152906001019060200180831161088e57829003601f168201915b505050505081526020016001820180546108c490611530565b80601f01602080910402602001604051908101604052809291908181526020018280546108f090611530565b801561093d5780601f106109125761010080835404028352916020019161093d565b820191906000526020600020905b81548152906001019060200180831161092057829003601f168201915b5050505050815260200160028201805461095690611530565b80601f016020809104026020016040519081016040528092919081815260200182805461098290611530565b80156109cf5780601f106109a4576101008083540402835291602001916109cf565b820191906000526020600020905b8154815290600101906020018083116109b257829003601f168201915b505050505081526020016003820180546109e890611530565b80601f0160208091040260200160405190810160405280929190818152602001828054610a1490611530565b8015610a615780601f10610a3657610100808354040283529160200191610a61565b820191906000526020600020905b815481529060010190602001808311610a4457829003601f168201915b50505050508152505081525050815260200190600101906105ad565b50505050905090565b610a8e610fe4565b6001600160a01b038281166000908152600360208181526040928390208351610120810185528154815260018201549586169281019290925290939092840191600160a01b90910460ff1690811115610af757634e487b7160e01b600052602160045260246000fd5b6003811115610b1657634e487b7160e01b600052602160045260246000fd5b8152602001600282018054610b2a90611530565b80601f0160208091040260200160405190810160405280929190818152602001828054610b5690611530565b8015610ba35780601f10610b7857610100808354040283529160200191610ba3565b820191906000526020600020905b815481529060010190602001808311610b8657829003601f168201915b50505050508152602001600382018054610bbc90611530565b80601f0160208091040260200160405190810160405280929190818152602001828054610be890611530565b8015610c355780601f10610c0a57610100808354040283529160200191610c35565b820191906000526020600020905b815481529060010190602001808311610c1857829003601f168201915b50505050508152602001600482018054610c4e90611530565b80601f0160208091040260200160405190810160405280929190818152602001828054610c7a90611530565b8015610cc75780601f10610c9c57610100808354040283529160200191610cc7565b820191906000526020600020905b815481529060010190602001808311610caa57829003601f168201915b5050509183525050600582015460ff1615156020820152600682015460408083019190915280516080810190915260078301805460609093019282908290610d0e90611530565b80601f0160208091040260200160405190810160405280929190818152602001828054610d3a90611530565b8015610d875780601f10610d5c57610100808354040283529160200191610d87565b820191906000526020600020905b815481529060010190602001808311610d6a57829003601f168201915b50505050508152602001600182018054610da090611530565b80601f0160208091040260200160405190810160405280929190818152602001828054610dcc90611530565b8015610e195780601f10610dee57610100808354040283529160200191610e19565b820191906000526020600020905b815481529060010190602001808311610dfc57829003601f168201915b50505050508152602001600282018054610e3290611530565b80601f0160208091040260200160405190810160405280929190818152602001828054610e5e90611530565b8015610eab5780601f10610e8057610100808354040283529160200191610eab565b820191906000526020600020905b815481529060010190602001808311610e8e57829003601f168201915b50505050508152602001600382018054610ec490611530565b80601f0160208091040260200160405190810160405280929190818152602001828054610ef090611530565b8015610f3d5780601f10610f1257610100808354040283529160200191610f3d565b820191906000526020600020905b815481529060010190602001808311610f2057829003601f168201915b5050509190925250505090525092915050565b6001600160a01b03811660009081526003602052604081206002018054829190610f7990611530565b9050119050919050565b6001600160a01b0382166000908152602081905260409020805482919060ff19166001836003811115610fc657634e487b7160e01b600052602160045260246000fd5b021790555060018054906000610fdb8361156b565b91905055505050565b604080516101208101825260008082526020820181905290918201908152602001606081526020016060815260200160608152602001600015158152602001600081526020016110556040518060800160405280606081526020016060815260200160608152602001606081525090565b905290565b82805461106690611530565b90600052602060002090601f01602090048101928261108857600085556110ce565b82601f106110a157805160ff19168380011785556110ce565b828001600101855582156110ce579182015b828111156110ce5782518255916020019190600101906110b3565b506110da9291506110de565b5090565b5b808211156110da57600081556001016110df565b600082601f830112611103578081fd5b813567ffffffffffffffff8082111561111e5761111e61159c565b604051601f8301601f19908116603f011681019082821181831017156111465761114661159c565b8160405283815286602085880101111561115e578485fd5b8360208701602083013792830160200193909352509392505050565b60006020828403121561118b578081fd5b81356001600160a01b03811681146111a1578182fd5b9392505050565b600080600080600080600060e0888a0312156111c2578283fd5b873567ffffffffffffffff808211156111d9578485fd5b6111e58b838c016110f3565b985060208a01359150808211156111fa578485fd5b6112068b838c016110f3565b975060408a013591508082111561121b578485fd5b6112278b838c016110f3565b965060608a013591508082111561123c578485fd5b6112488b838c016110f3565b955060808a013591508082111561125d578485fd5b6112698b838c016110f3565b945060a08a013591508082111561127e578384fd5b61128a8b838c016110f3565b935060c08a013591508082111561129f578283fd5b506112ac8a828b016110f3565b91505092959891949750929550565b600481106112d957634e487b7160e01b600052602160045260246000fd5b9052565b60008151808452815b81811015611302576020818501810151868301820152016112e6565b818111156113135782602083870101525b50601f01601f19169290920160200192915050565b600081516080845261133d60808501826112dd565b90506020830151848203602086015261135682826112dd565b9150506040830151848203604086015261137082826112dd565b9150506060830151848203606086015261138a82826112dd565b95945050505050565b60006101208251845260208301516113b660208601826001600160a01b03169052565b5060408301516113c960408601826112bb565b5060608301518160608601526113e1828601826112dd565b915050608083015184820360808601526113fb82826112dd565b91505060a083015184820360a086015261141582826112dd565b91505060c083015161142b60c086018215159052565b5060e083015160e0850152610100808401518583038287015261144e8382611328565b9695505050505050565b6000602080830181845280855180835260408601915060408482028701019250838701855b828110156114ab57603f19888603018452611499858351611393565b9450928501929085019060010161147d565b5092979650505050505050565b602081016114c682846112bb565b92915050565b6000606082526114df60608301866112dd565b82810360208401526114f181866112dd565b9050828103604084015261144e81856112dd565b6000602082526111a16020830184611393565b6000821982111561152b5761152b611586565b500190565b60028104600182168061154457607f821691505b6020821081141561156557634e487b7160e01b600052602260045260246000fd5b50919050565b600060001982141561157f5761157f611586565b5060010190565b634e487b7160e01b600052601160045260246000fd5b634e487b7160e01b600052604160045260246000fdfea264697066735822122091aa4b70eb81a247296e314ddc0757e7a896dee2299e80f10805de015d92d08a64736f6c63430008020033",
  "immutableReferences": {},
  "source": "// SPDX-License-Identifier: GPL-3.0\npragma solidity >=0.7.0 <=0.9.0;\n\nimport \"./UserContract.sol\";\n\ncontract ActivistContract is UserContract {\n    struct Activist {\n        uint id;\n        address activistWallet; // Hash of wallet\n        UserType userType;\n        string name;\n        string document;\n        string documentType;\n        bool recentInspection;\n        uint totalInspections;\n        ActivistAddress activistAddress;\n    }\n    \n    struct ActivistAddress {\n        string country;\n        string state;\n        string city;\n        string cep;\n    }\n    \n    Activist[] internal activistsList;\n    mapping(address => Activist) internal activists;\n    uint public activistsCount;\n    \n    /**\n   * @dev Allow a new register of activist\n   * @param name the name of the activist\n   * @param document the document of activist\n   * @param documentType the document type type of activist. CPF/CNPJ\n   * @param country the country where the activist is\n   * @param state the state of the activist\n   * @param city the of the activist\n   * @param cep the cep of the activist\n   * @return a Activist\n   */\n    function addActivist( \n        string memory name, \n        string memory document, \n        string memory documentType, \n        string memory country, \n        string memory state, \n        string memory city, \n        string memory cep) public returns(Activist memory) {           \n            uint id = activistsCount + 1;\n            UserType userType = UserType.ACTIVIST;\n            \n            ActivistAddress memory activistAddress = ActivistAddress(country, state, city, cep);\n            Activist memory activist = Activist(id, msg.sender, userType, name, document, documentType, false, 0, activistAddress);\n            \n            activistsList.push(activist);\n            activists[msg.sender] = activist;\n            activistsCount++;\n            addUser(msg.sender, userType);\n            \n            return activist;\n    }\n    \n    /**\n   * @dev Returns all registered activists\n   * @return Activist struct array\n   */\n    function getActivists() public view returns(Activist[] memory) {\n        return activistsList;\n    }\n\n    /**\n   * @dev Return a specific activist\n   * @param addr the address of the activist.\n   */\n    function getActivist(address addr) public view returns(Activist memory) {\n        return activists[addr];\n    }\n    \n    /**\n   * @dev Check if a specific activist exists\n   * @return a bool that represent if a activist exists or not\n   */\n    function activistExists(address addr) public view returns(bool) {\n        return bytes(activists[addr].name).length > 0;\n    }\n}",
  "sourcePath": "/home/everson/projetos/afiliart/SAT-core-contracts/contracts/ActivistContract.sol",
  "compiler": {
    "name": "solc",
    "version": "0.8.2+commit.661d1103.Emscripten.clang"
  },
  "schemaVersion": "3.4.4",
  "updatedAt": "2022-02-04T00:33:35.106Z",
  "devdoc": {
    "kind": "dev",
    "methods": {
      "activistExists(address)": {
        "details": "Check if a specific activist exists",
        "returns": {
          "_0": "a bool that represent if a activist exists or not"
        }
      },
      "addActivist(string,string,string,string,string,string,string)": {
        "details": "Allow a new register of activist",
        "params": {
          "cep": "the cep of the activist",
          "city": "the of the activist",
          "country": "the country where the activist is",
          "document": "the document of activist",
          "documentType": "the document type type of activist. CPF/CNPJ",
          "name": "the name of the activist",
          "state": "the state of the activist"
        },
        "returns": {
          "_0": "a Activist"
        }
      },
      "getActivist(address)": {
        "details": "Return a specific activist",
        "params": {
          "addr": "the address of the activist."
        }
      },
      "getActivists()": {
        "details": "Returns all registered activists",
        "returns": {
          "_0": "Activist struct array"
        }
      },
      "getUser(address)": {
        "details": "Returns the user type if the user is registered",
        "params": {
          "addr": "the user address that want check if exists"
        }
      },
      "getUserTypes()": {
        "details": "Returns the enum UserType of the system"
      }
    },
    "version": 1
  },
  "userdoc": {
    "kind": "user",
    "methods": {},
    "version": 1
  }
}