{
  "contractName": "ActivistContract",
  "abi": [
    {
      "inputs": [],
      "name": "activistsCount",
      "outputs": [
        {
          "internalType": "uint256",
          "name": "",
          "type": "uint256"
        }
      ],
      "stateMutability": "view",
      "type": "function"
    },
    {
      "inputs": [
        {
          "internalType": "address",
          "name": "addr",
          "type": "address"
        }
      ],
      "name": "getUser",
      "outputs": [
        {
          "internalType": "enum UserContract.UserType",
          "name": "",
          "type": "uint8"
        }
      ],
      "stateMutability": "view",
      "type": "function"
    },
    {
      "inputs": [],
      "name": "getUserTypes",
      "outputs": [
        {
          "internalType": "string",
          "name": "",
          "type": "string"
        },
        {
          "internalType": "string",
          "name": "",
          "type": "string"
        },
        {
          "internalType": "string",
          "name": "",
          "type": "string"
        }
      ],
      "stateMutability": "pure",
      "type": "function"
    },
    {
      "inputs": [],
      "name": "usersCount",
      "outputs": [
        {
          "internalType": "uint256",
          "name": "",
          "type": "uint256"
        }
      ],
      "stateMutability": "view",
      "type": "function"
    },
    {
      "inputs": [
        {
          "internalType": "string",
          "name": "name",
          "type": "string"
        },
        {
          "internalType": "string",
          "name": "document",
          "type": "string"
        },
        {
          "internalType": "string",
          "name": "documentType",
          "type": "string"
        },
        {
          "internalType": "string",
          "name": "country",
          "type": "string"
        },
        {
          "internalType": "string",
          "name": "state",
          "type": "string"
        },
        {
          "internalType": "string",
          "name": "city",
          "type": "string"
        },
        {
          "internalType": "string",
          "name": "cep",
          "type": "string"
        }
      ],
      "name": "addActivist",
      "outputs": [
        {
          "components": [
            {
              "internalType": "uint256",
              "name": "id",
              "type": "uint256"
            },
            {
              "internalType": "address",
              "name": "activistWallet",
              "type": "address"
            },
            {
              "internalType": "enum UserContract.UserType",
              "name": "userType",
              "type": "uint8"
            },
            {
              "internalType": "string",
              "name": "name",
              "type": "string"
            },
            {
              "internalType": "string",
              "name": "document",
              "type": "string"
            },
            {
              "internalType": "string",
              "name": "documentType",
              "type": "string"
            },
            {
              "internalType": "bool",
              "name": "recentInspection",
              "type": "bool"
            },
            {
              "internalType": "uint256",
              "name": "totalInspections",
              "type": "uint256"
            },
            {
              "components": [
                {
                  "internalType": "string",
                  "name": "country",
                  "type": "string"
                },
                {
                  "internalType": "string",
                  "name": "state",
                  "type": "string"
                },
                {
                  "internalType": "string",
                  "name": "city",
                  "type": "string"
                },
                {
                  "internalType": "string",
                  "name": "cep",
                  "type": "string"
                }
              ],
              "internalType": "struct ActivistContract.ActivistAddress",
              "name": "activistAddress",
              "type": "tuple"
            }
          ],
          "internalType": "struct ActivistContract.Activist",
          "name": "",
          "type": "tuple"
        }
      ],
      "stateMutability": "nonpayable",
      "type": "function"
    },
    {
      "inputs": [],
      "name": "getActivists",
      "outputs": [
        {
          "components": [
            {
              "internalType": "uint256",
              "name": "id",
              "type": "uint256"
            },
            {
              "internalType": "address",
              "name": "activistWallet",
              "type": "address"
            },
            {
              "internalType": "enum UserContract.UserType",
              "name": "userType",
              "type": "uint8"
            },
            {
              "internalType": "string",
              "name": "name",
              "type": "string"
            },
            {
              "internalType": "string",
              "name": "document",
              "type": "string"
            },
            {
              "internalType": "string",
              "name": "documentType",
              "type": "string"
            },
            {
              "internalType": "bool",
              "name": "recentInspection",
              "type": "bool"
            },
            {
              "internalType": "uint256",
              "name": "totalInspections",
              "type": "uint256"
            },
            {
              "components": [
                {
                  "internalType": "string",
                  "name": "country",
                  "type": "string"
                },
                {
                  "internalType": "string",
                  "name": "state",
                  "type": "string"
                },
                {
                  "internalType": "string",
                  "name": "city",
                  "type": "string"
                },
                {
                  "internalType": "string",
                  "name": "cep",
                  "type": "string"
                }
              ],
              "internalType": "struct ActivistContract.ActivistAddress",
              "name": "activistAddress",
              "type": "tuple"
            }
          ],
          "internalType": "struct ActivistContract.Activist[]",
          "name": "",
          "type": "tuple[]"
        }
      ],
      "stateMutability": "view",
      "type": "function"
    },
    {
      "inputs": [
        {
          "internalType": "address",
          "name": "addr",
          "type": "address"
        }
      ],
      "name": "getActivist",
      "outputs": [
        {
          "components": [
            {
              "internalType": "uint256",
              "name": "id",
              "type": "uint256"
            },
            {
              "internalType": "address",
              "name": "activistWallet",
              "type": "address"
            },
            {
              "internalType": "enum UserContract.UserType",
              "name": "userType",
              "type": "uint8"
            },
            {
              "internalType": "string",
              "name": "name",
              "type": "string"
            },
            {
              "internalType": "string",
              "name": "document",
              "type": "string"
            },
            {
              "internalType": "string",
              "name": "documentType",
              "type": "string"
            },
            {
              "internalType": "bool",
              "name": "recentInspection",
              "type": "bool"
            },
            {
              "internalType": "uint256",
              "name": "totalInspections",
              "type": "uint256"
            },
            {
              "components": [
                {
                  "internalType": "string",
                  "name": "country",
                  "type": "string"
                },
                {
                  "internalType": "string",
                  "name": "state",
                  "type": "string"
                },
                {
                  "internalType": "string",
                  "name": "city",
                  "type": "string"
                },
                {
                  "internalType": "string",
                  "name": "cep",
                  "type": "string"
                }
              ],
              "internalType": "struct ActivistContract.ActivistAddress",
              "name": "activistAddress",
              "type": "tuple"
            }
          ],
          "internalType": "struct ActivistContract.Activist",
          "name": "",
          "type": "tuple"
        }
      ],
      "stateMutability": "view",
      "type": "function"
    },
    {
      "inputs": [
        {
          "internalType": "address",
          "name": "addr",
          "type": "address"
        }
      ],
      "name": "activistExists",
      "outputs": [
        {
          "internalType": "bool",
          "name": "",
          "type": "bool"
        }
      ],
      "stateMutability": "view",
      "type": "function"
    }
  ],
  "bytecode": "0x608060405234801561001057600080fd5b50611642806100206000396000f3fe608060405234801561001057600080fd5b50600436106100885760003560e01c80636337dc1a1161005b5780636337dc1a146100f15780636ba13a821461015a5780636f77926b146101635780638c4772fc1461019c57610088565b806309e1b1d11461008d57806340f52841146100a957806342e187dd146100c957806362efeff7146100de575b600080fd5b61009660045481565b6040519081526020015b60405180910390f35b6100bc6100b7366004611202565b6101bf565b6040516100a0919061155f565b6100d16105e3565b6040516100a091906114b2565b6100bc6100ec3660046111d4565b610ae0565b604080518082018252600880825267282927a22aa1a2a960c11b60208084019190915283518085018552918252671050d512559254d560c21b8282015283518085018552600a8152692922a9a2a0a921a422a960b11b9181019190915292516100a09390611526565b61009660015481565b61018f6101713660046111d4565b6001600160a01b031660009081526020819052604090205460ff1690565b6040516100a09190611512565b6101af6101aa3660046111d4565b610faa565b60405190151581526020016100a0565b6101c761103e565b6101d033610faa565b156102215760405162461bcd60e51b815260206004820152601b60248201527f5468697320616374697669737420616c72656164792065786973740000000000604482015260640160405180910390fd5b600060045460016102329190611572565b604080516080810182528881526020808201899052818301889052606082018790528251610120810184528481523391810191909152929350600292909160009190810184815260208082018f905260408083018f9052606083018e905260006080840181905260a0840181905260c09093018690526002805460018101825593528351600b9093027f405787fa12a823e0f2b7631cc41b3ba8828b3321ca811111fa75cd3aa3bb5ace8101938455918401517f405787fa12a823e0f2b7631cc41b3ba8828b3321ca811111fa75cd3aa3bb5acf90920180546001600160a01b039093166001600160a01b031990931692909217808355908401519394508493919060ff60a01b1916600160a01b83600381111561036057634e487b7160e01b600052602160045260246000fd5b0217905550606082015180516103809160028401916020909101906110b4565b506080820151805161039c9160038401916020909101906110b4565b5060a082015180516103b89160048401916020909101906110b4565b5060c082015160058201805460ff191691151591909117905560e082015160068201556101008201518051805160078401916103f9918391602001906110b4565b50602082810151805161041292600185019201906110b4565b506040820151805161042e9160028401916020909101906110b4565b506060820151805161044a9160038401916020909101906110b4565b50503360009081526003602081815260409283902087518155908701516001820180546001600160a01b0319166001600160a01b0390921691909117808255938801518897509195509093509160ff60a01b191690600160a01b9084908111156104c457634e487b7160e01b600052602160045260246000fd5b0217905550606082015180516104e49160028401916020909101906110b4565b50608082015180516105009160038401916020909101906110b4565b5060a0820151805161051c9160048401916020909101906110b4565b5060c082015160058201805460ff191691151591909117905560e0820151600682015561010082015180518051600784019161055d918391602001906110b4565b50602082810151805161057692600185019201906110b4565b50604082015180516105929160028401916020909101906110b4565b50606082015180516105ae9160038401916020909101906110b4565b50506004805493509150600090506105c5836115c5565b91905055506105d43384610fdd565b9b9a5050505050505050505050565b60606002805480602002602001604051908101604052809291908181526020016000905b82821015610ad75760008481526020908190206040805161012081018252600b86029092018054835260018101546001600160a01b03811694840194909452919290830190600160a01b900460ff16600381111561067557634e487b7160e01b600052602160045260246000fd5b600381111561069457634e487b7160e01b600052602160045260246000fd5b81526020016002820180546106a89061158a565b80601f01602080910402602001604051908101604052809291908181526020018280546106d49061158a565b80156107215780601f106106f657610100808354040283529160200191610721565b820191906000526020600020905b81548152906001019060200180831161070457829003601f168201915b5050505050815260200160038201805461073a9061158a565b80601f01602080910402602001604051908101604052809291908181526020018280546107669061158a565b80156107b35780601f10610788576101008083540402835291602001916107b3565b820191906000526020600020905b81548152906001019060200180831161079657829003601f168201915b505050505081526020016004820180546107cc9061158a565b80601f01602080910402602001604051908101604052809291908181526020018280546107f89061158a565b80156108455780601f1061081a57610100808354040283529160200191610845565b820191906000526020600020905b81548152906001019060200180831161082857829003601f168201915b5050509183525050600582015460ff161515602082015260068201546040808301919091528051608081019091526007830180546060909301928290829061088c9061158a565b80601f01602080910402602001604051908101604052809291908181526020018280546108b89061158a565b80156109055780601f106108da57610100808354040283529160200191610905565b820191906000526020600020905b8154815290600101906020018083116108e857829003601f168201915b5050505050815260200160018201805461091e9061158a565b80601f016020809104026020016040519081016040528092919081815260200182805461094a9061158a565b80156109975780601f1061096c57610100808354040283529160200191610997565b820191906000526020600020905b81548152906001019060200180831161097a57829003601f168201915b505050505081526020016002820180546109b09061158a565b80601f01602080910402602001604051908101604052809291908181526020018280546109dc9061158a565b8015610a295780601f106109fe57610100808354040283529160200191610a29565b820191906000526020600020905b815481529060010190602001808311610a0c57829003601f168201915b50505050508152602001600382018054610a429061158a565b80601f0160208091040260200160405190810160405280929190818152602001828054610a6e9061158a565b8015610abb5780601f10610a9057610100808354040283529160200191610abb565b820191906000526020600020905b815481529060010190602001808311610a9e57829003601f168201915b5050505050815250508152505081526020019060010190610607565b50505050905090565b610ae861103e565b6001600160a01b038281166000908152600360208181526040928390208351610120810185528154815260018201549586169281019290925290939092840191600160a01b90910460ff1690811115610b5157634e487b7160e01b600052602160045260246000fd5b6003811115610b7057634e487b7160e01b600052602160045260246000fd5b8152602001600282018054610b849061158a565b80601f0160208091040260200160405190810160405280929190818152602001828054610bb09061158a565b8015610bfd5780601f10610bd257610100808354040283529160200191610bfd565b820191906000526020600020905b815481529060010190602001808311610be057829003601f168201915b50505050508152602001600382018054610c169061158a565b80601f0160208091040260200160405190810160405280929190818152602001828054610c429061158a565b8015610c8f5780601f10610c6457610100808354040283529160200191610c8f565b820191906000526020600020905b815481529060010190602001808311610c7257829003601f168201915b50505050508152602001600482018054610ca89061158a565b80601f0160208091040260200160405190810160405280929190818152602001828054610cd49061158a565b8015610d215780601f10610cf657610100808354040283529160200191610d21565b820191906000526020600020905b815481529060010190602001808311610d0457829003601f168201915b5050509183525050600582015460ff1615156020820152600682015460408083019190915280516080810190915260078301805460609093019282908290610d689061158a565b80601f0160208091040260200160405190810160405280929190818152602001828054610d949061158a565b8015610de15780601f10610db657610100808354040283529160200191610de1565b820191906000526020600020905b815481529060010190602001808311610dc457829003601f168201915b50505050508152602001600182018054610dfa9061158a565b80601f0160208091040260200160405190810160405280929190818152602001828054610e269061158a565b8015610e735780601f10610e4857610100808354040283529160200191610e73565b820191906000526020600020905b815481529060010190602001808311610e5657829003601f168201915b50505050508152602001600282018054610e8c9061158a565b80601f0160208091040260200160405190810160405280929190818152602001828054610eb89061158a565b8015610f055780601f10610eda57610100808354040283529160200191610f05565b820191906000526020600020905b815481529060010190602001808311610ee857829003601f168201915b50505050508152602001600382018054610f1e9061158a565b80601f0160208091040260200160405190810160405280929190818152602001828054610f4a9061158a565b8015610f975780601f10610f6c57610100808354040283529160200191610f97565b820191906000526020600020905b815481529060010190602001808311610f7a57829003601f168201915b5050509190925250505090525092915050565b6001600160a01b03811660009081526003602052604081206002018054829190610fd39061158a565b9050119050919050565b6001600160a01b0382166000908152602081905260409020805482919060ff1916600183600381111561102057634e487b7160e01b600052602160045260246000fd5b021790555060018054906000611035836115c5565b91905055505050565b604080516101208101825260008082526020820181905290918201908152602001606081526020016060815260200160608152602001600015158152602001600081526020016110af6040518060800160405280606081526020016060815260200160608152602001606081525090565b905290565b8280546110c09061158a565b90600052602060002090601f0160209004810192826110e25760008555611128565b82601f106110fb57805160ff1916838001178555611128565b82800160010185558215611128579182015b8281111561112857825182559160200191906001019061110d565b50611134929150611138565b5090565b5b808211156111345760008155600101611139565b600082601f83011261115d578081fd5b813567ffffffffffffffff80821115611178576111786115f6565b604051601f8301601f19908116603f011681019082821181831017156111a0576111a06115f6565b816040528381528660208588010111156111b8578485fd5b8360208701602083013792830160200193909352509392505050565b6000602082840312156111e5578081fd5b81356001600160a01b03811681146111fb578182fd5b9392505050565b600080600080600080600060e0888a03121561121c578283fd5b873567ffffffffffffffff80821115611233578485fd5b61123f8b838c0161114d565b985060208a0135915080821115611254578485fd5b6112608b838c0161114d565b975060408a0135915080821115611275578485fd5b6112818b838c0161114d565b965060608a0135915080821115611296578485fd5b6112a28b838c0161114d565b955060808a01359150808211156112b7578485fd5b6112c38b838c0161114d565b945060a08a01359150808211156112d8578384fd5b6112e48b838c0161114d565b935060c08a01359150808211156112f9578283fd5b506113068a828b0161114d565b91505092959891949750929550565b6004811061133357634e487b7160e01b600052602160045260246000fd5b9052565b60008151808452815b8181101561135c57602081850181015186830182015201611340565b8181111561136d5782602083870101525b50601f01601f19169290920160200192915050565b60008151608084526113976080850182611337565b9050602083015184820360208601526113b08282611337565b915050604083015184820360408601526113ca8282611337565b915050606083015184820360608601526113e48282611337565b95945050505050565b600061012082518452602083015161141060208601826001600160a01b03169052565b5060408301516114236040860182611315565b50606083015181606086015261143b82860182611337565b915050608083015184820360808601526114558282611337565b91505060a083015184820360a086015261146f8282611337565b91505060c083015161148560c086018215159052565b5060e083015160e085015261010080840151858303828701526114a88382611382565b9695505050505050565b6000602080830181845280855180835260408601915060408482028701019250838701855b8281101561150557603f198886030184526114f38583516113ed565b945092850192908501906001016114d7565b5092979650505050505050565b602081016115208284611315565b92915050565b6000606082526115396060830186611337565b828103602084015261154b8186611337565b905082810360408401526114a88185611337565b6000602082526111fb60208301846113ed565b60008219821115611585576115856115e0565b500190565b60028104600182168061159e57607f821691505b602082108114156115bf57634e487b7160e01b600052602260045260246000fd5b50919050565b60006000198214156115d9576115d96115e0565b5060010190565b634e487b7160e01b600052601160045260246000fd5b634e487b7160e01b600052604160045260246000fdfea2646970667358221220e0e2da490f60e3708b71848b32b1fc1d2c20f3a9684a4f5085dc26d939a9be7764736f6c63430008020033",
  "immutableReferences": {},
  "source": "// SPDX-License-Identifier: GPL-3.0\npragma solidity >=0.7.0 <=0.9.0;\n\nimport \"./UserContract.sol\";\n\ncontract ActivistContract is UserContract {\n    struct Activist {\n        uint id;\n        address activistWallet; // Hash of wallet\n        UserType userType;\n        string name;\n        string document;\n        string documentType;\n        bool recentInspection;\n        uint totalInspections;\n        ActivistAddress activistAddress;\n    }\n    \n    struct ActivistAddress {\n        string country;\n        string state;\n        string city;\n        string cep;\n    }\n    \n    Activist[] internal activistsList;\n    mapping(address => Activist) internal activists;\n    uint public activistsCount;\n    \n    /**\n   * @dev Allow a new register of activist\n   * @param name the name of the activist\n   * @param document the document of activist\n   * @param documentType the document type type of activist. CPF/CNPJ\n   * @param country the country where the activist is\n   * @param state the state of the activist\n   * @param city the of the activist\n   * @param cep the cep of the activist\n   * @return a Activist\n   */\n    function addActivist( \n        string memory name, \n        string memory document, \n        string memory documentType, \n        string memory country, \n        string memory state, \n        string memory city, \n        string memory cep) public returns(Activist memory) {   \n            require(!activistExists(msg.sender), \"This activist already exist\");        \n            uint id = activistsCount + 1;\n            UserType userType = UserType.ACTIVIST;\n            \n            ActivistAddress memory activistAddress = ActivistAddress(country, state, city, cep);\n            Activist memory activist = Activist(id, msg.sender, userType, name, document, documentType, false, 0, activistAddress);\n            \n            activistsList.push(activist);\n            activists[msg.sender] = activist;\n            activistsCount++;\n            addUser(msg.sender, userType);\n            \n            return activist;\n    }\n    \n    /**\n   * @dev Returns all registered activists\n   * @return Activist struct array\n   */\n    function getActivists() public view returns(Activist[] memory) {\n        return activistsList;\n    }\n\n    /**\n   * @dev Return a specific activist\n   * @param addr the address of the activist.\n   */\n    function getActivist(address addr) public view returns(Activist memory) {\n        return activists[addr];\n    }\n    \n    /**\n   * @dev Check if a specific activist exists\n   * @return a bool that represent if a activist exists or not\n   */\n    function activistExists(address addr) public view returns(bool) {\n        return bytes(activists[addr].name).length > 0;\n    }\n}",
  "sourcePath": "/home/everson/projetos/afiliart/SAT-core-contracts/contracts/ActivistContract.sol",
  "compiler": {
    "name": "solc",
    "version": "0.8.2+commit.661d1103.Emscripten.clang"
  },
  "schemaVersion": "3.4.4",
  "updatedAt": "2022-02-26T13:04:56.575Z",
  "devdoc": {
    "kind": "dev",
    "methods": {
      "activistExists(address)": {
        "details": "Check if a specific activist exists",
        "returns": {
          "_0": "a bool that represent if a activist exists or not"
        }
      },
      "addActivist(string,string,string,string,string,string,string)": {
        "details": "Allow a new register of activist",
        "params": {
          "cep": "the cep of the activist",
          "city": "the of the activist",
          "country": "the country where the activist is",
          "document": "the document of activist",
          "documentType": "the document type type of activist. CPF/CNPJ",
          "name": "the name of the activist",
          "state": "the state of the activist"
        },
        "returns": {
          "_0": "a Activist"
        }
      },
      "getActivist(address)": {
        "details": "Return a specific activist",
        "params": {
          "addr": "the address of the activist."
        }
      },
      "getActivists()": {
        "details": "Returns all registered activists",
        "returns": {
          "_0": "Activist struct array"
        }
      },
      "getUser(address)": {
        "details": "Returns the user type if the user is registered",
        "params": {
          "addr": "the user address that want check if exists"
        }
      },
      "getUserTypes()": {
        "details": "Returns the enum UserType of the system"
      }
    },
    "version": 1
  },
  "userdoc": {
    "kind": "user",
    "methods": {},
    "version": 1
  }
}