{
  "contractName": "ActivistContract",
  "abi": [
    {
      "inputs": [
        {
          "internalType": "address",
          "name": "userContractAddress",
          "type": "address"
        }
      ],
      "stateMutability": "nonpayable",
      "type": "constructor"
    },
    {
      "anonymous": false,
      "inputs": [
        {
          "indexed": true,
          "internalType": "address",
          "name": "previousOwner",
          "type": "address"
        },
        {
          "indexed": true,
          "internalType": "address",
          "name": "newOwner",
          "type": "address"
        }
      ],
      "name": "OwnershipTransferred",
      "type": "event"
    },
    {
      "inputs": [],
      "name": "activistsCount",
      "outputs": [
        {
          "internalType": "uint256",
          "name": "",
          "type": "uint256"
        }
      ],
      "stateMutability": "view",
      "type": "function"
    },
    {
      "inputs": [
        {
          "internalType": "address",
          "name": "",
          "type": "address"
        }
      ],
      "name": "allowedCaller",
      "outputs": [
        {
          "internalType": "bool",
          "name": "",
          "type": "bool"
        }
      ],
      "stateMutability": "view",
      "type": "function"
    },
    {
      "inputs": [
        {
          "internalType": "address",
          "name": "allowed",
          "type": "address"
        }
      ],
      "name": "newAllowedCaller",
      "outputs": [],
      "stateMutability": "nonpayable",
      "type": "function"
    },
    {
      "inputs": [],
      "name": "owner",
      "outputs": [
        {
          "internalType": "address",
          "name": "",
          "type": "address"
        }
      ],
      "stateMutability": "view",
      "type": "function"
    },
    {
      "inputs": [],
      "name": "renounceOwnership",
      "outputs": [],
      "stateMutability": "nonpayable",
      "type": "function"
    },
    {
      "inputs": [
        {
          "internalType": "address",
          "name": "newOwner",
          "type": "address"
        }
      ],
      "name": "transferOwnership",
      "outputs": [],
      "stateMutability": "nonpayable",
      "type": "function"
    },
    {
      "inputs": [
        {
          "internalType": "string",
          "name": "name",
          "type": "string"
        },
        {
          "internalType": "string",
          "name": "document",
          "type": "string"
        },
        {
          "internalType": "string",
          "name": "documentType",
          "type": "string"
        },
        {
          "internalType": "string",
          "name": "country",
          "type": "string"
        },
        {
          "internalType": "string",
          "name": "state",
          "type": "string"
        },
        {
          "internalType": "string",
          "name": "city",
          "type": "string"
        },
        {
          "internalType": "string",
          "name": "cep",
          "type": "string"
        }
      ],
      "name": "addActivist",
      "outputs": [
        {
          "components": [
            {
              "internalType": "uint256",
              "name": "id",
              "type": "uint256"
            },
            {
              "internalType": "address",
              "name": "activistWallet",
              "type": "address"
            },
            {
              "internalType": "enum UserType",
              "name": "userType",
              "type": "uint8"
            },
            {
              "internalType": "string",
              "name": "name",
              "type": "string"
            },
            {
              "internalType": "string",
              "name": "document",
              "type": "string"
            },
            {
              "internalType": "string",
              "name": "documentType",
              "type": "string"
            },
            {
              "internalType": "bool",
              "name": "recentInspection",
              "type": "bool"
            },
            {
              "internalType": "uint256",
              "name": "totalInspections",
              "type": "uint256"
            },
            {
              "components": [
                {
                  "internalType": "string",
                  "name": "country",
                  "type": "string"
                },
                {
                  "internalType": "string",
                  "name": "state",
                  "type": "string"
                },
                {
                  "internalType": "string",
                  "name": "city",
                  "type": "string"
                },
                {
                  "internalType": "string",
                  "name": "cep",
                  "type": "string"
                }
              ],
              "internalType": "struct ActivistAddress",
              "name": "activistAddress",
              "type": "tuple"
            }
          ],
          "internalType": "struct Activist",
          "name": "",
          "type": "tuple"
        }
      ],
      "stateMutability": "nonpayable",
      "type": "function"
    },
    {
      "inputs": [],
      "name": "getActivists",
      "outputs": [
        {
          "components": [
            {
              "internalType": "uint256",
              "name": "id",
              "type": "uint256"
            },
            {
              "internalType": "address",
              "name": "activistWallet",
              "type": "address"
            },
            {
              "internalType": "enum UserType",
              "name": "userType",
              "type": "uint8"
            },
            {
              "internalType": "string",
              "name": "name",
              "type": "string"
            },
            {
              "internalType": "string",
              "name": "document",
              "type": "string"
            },
            {
              "internalType": "string",
              "name": "documentType",
              "type": "string"
            },
            {
              "internalType": "bool",
              "name": "recentInspection",
              "type": "bool"
            },
            {
              "internalType": "uint256",
              "name": "totalInspections",
              "type": "uint256"
            },
            {
              "components": [
                {
                  "internalType": "string",
                  "name": "country",
                  "type": "string"
                },
                {
                  "internalType": "string",
                  "name": "state",
                  "type": "string"
                },
                {
                  "internalType": "string",
                  "name": "city",
                  "type": "string"
                },
                {
                  "internalType": "string",
                  "name": "cep",
                  "type": "string"
                }
              ],
              "internalType": "struct ActivistAddress",
              "name": "activistAddress",
              "type": "tuple"
            }
          ],
          "internalType": "struct Activist[]",
          "name": "",
          "type": "tuple[]"
        }
      ],
      "stateMutability": "view",
      "type": "function"
    },
    {
      "inputs": [
        {
          "internalType": "address",
          "name": "addr",
          "type": "address"
        }
      ],
      "name": "getActivist",
      "outputs": [
        {
          "components": [
            {
              "internalType": "uint256",
              "name": "id",
              "type": "uint256"
            },
            {
              "internalType": "address",
              "name": "activistWallet",
              "type": "address"
            },
            {
              "internalType": "enum UserType",
              "name": "userType",
              "type": "uint8"
            },
            {
              "internalType": "string",
              "name": "name",
              "type": "string"
            },
            {
              "internalType": "string",
              "name": "document",
              "type": "string"
            },
            {
              "internalType": "string",
              "name": "documentType",
              "type": "string"
            },
            {
              "internalType": "bool",
              "name": "recentInspection",
              "type": "bool"
            },
            {
              "internalType": "uint256",
              "name": "totalInspections",
              "type": "uint256"
            },
            {
              "components": [
                {
                  "internalType": "string",
                  "name": "country",
                  "type": "string"
                },
                {
                  "internalType": "string",
                  "name": "state",
                  "type": "string"
                },
                {
                  "internalType": "string",
                  "name": "city",
                  "type": "string"
                },
                {
                  "internalType": "string",
                  "name": "cep",
                  "type": "string"
                }
              ],
              "internalType": "struct ActivistAddress",
              "name": "activistAddress",
              "type": "tuple"
            }
          ],
          "internalType": "struct Activist",
          "name": "",
          "type": "tuple"
        }
      ],
      "stateMutability": "view",
      "type": "function"
    },
    {
      "inputs": [
        {
          "internalType": "address",
          "name": "addr",
          "type": "address"
        }
      ],
      "name": "activistExists",
      "outputs": [
        {
          "internalType": "bool",
          "name": "",
          "type": "bool"
        }
      ],
      "stateMutability": "view",
      "type": "function"
    },
    {
      "inputs": [
        {
          "internalType": "address",
          "name": "addr",
          "type": "address"
        },
        {
          "internalType": "bool",
          "name": "state",
          "type": "bool"
        }
      ],
      "name": "recentInspection",
      "outputs": [],
      "stateMutability": "nonpayable",
      "type": "function"
    },
    {
      "inputs": [
        {
          "internalType": "address",
          "name": "addr",
          "type": "address"
        }
      ],
      "name": "incrementRequests",
      "outputs": [],
      "stateMutability": "nonpayable",
      "type": "function"
    }
  ],
  "bytecode": "0x60806040523480156200001157600080fd5b50604051620027b0380380620027b0833981810160405281019062000037919062000182565b620000576200004b6200009f60201b60201c565b620000a760201b60201c565b80600360006101000a81548173ffffffffffffffffffffffffffffffffffffffff021916908373ffffffffffffffffffffffffffffffffffffffff16021790555050620001fc565b600033905090565b60008060009054906101000a900473ffffffffffffffffffffffffffffffffffffffff169050816000806101000a81548173ffffffffffffffffffffffffffffffffffffffff021916908373ffffffffffffffffffffffffffffffffffffffff1602179055508173ffffffffffffffffffffffffffffffffffffffff168173ffffffffffffffffffffffffffffffffffffffff167f8be0079c531659141344cd1fd0a4f28419497f9722a3daafe3b4186f6b6457e060405160405180910390a35050565b6000815190506200017c81620001e2565b92915050565b6000602082840312156200019557600080fd5b6000620001a5848285016200016b565b91505092915050565b6000620001bb82620001c2565b9050919050565b600073ffffffffffffffffffffffffffffffffffffffff82169050919050565b620001ed81620001ae565b8114620001f957600080fd5b50565b6125a4806200020c6000396000f3fe608060405234801561001057600080fd5b50600436106100b45760003560e01c806372eb8caf1161007157806372eb8caf1461017b5780638c4772fc146101ab5780638da5cb5b146101db5780638f93716f146101f9578063c19c903714610215578063f2fde38b14610231576100b4565b806309e1b1d1146100b9578063360912ab146100d757806340f52841146100f357806342e187dd1461012357806362efeff714610141578063715018a614610171575b600080fd5b6100c161024d565b6040516100ce919061210d565b60405180910390f35b6100f160048036038101906100ec9190611a76565b610253565b005b61010d60048036038101906101089190611ab2565b61033d565b60405161011a91906120eb565b60405180910390f35b61012b610769565b604051610138919061202e565b60405180910390f35b61015b60048036038101906101569190611a4d565b610e2a565b60405161016891906120eb565b60405180910390f35b6101796113a2565b005b61019560048036038101906101909190611a4d565b61142a565b6040516101a29190612050565b60405180910390f35b6101c560048036038101906101c09190611a4d565b61144a565b6040516101d29190612050565b60405180910390f35b6101e36114a4565b6040516101f09190611fea565b60405180910390f35b610213600480360381019061020e9190611a4d565b6114cd565b005b61022f600480360381019061022a9190611a4d565b6115a3565b005b61024b60048036038101906102469190611a4d565b61168a565b005b60055481565b600160003373ffffffffffffffffffffffffffffffffffffffff1673ffffffffffffffffffffffffffffffffffffffff16815260200190815260200160002060009054906101000a900460ff166102df576040517f08c379a00000000000000000000000000000000000000000000000000000000081526004016102d6906120ab565b60405180910390fd5b80600260008473ffffffffffffffffffffffffffffffffffffffff1673ffffffffffffffffffffffffffffffffffffffff16815260200190815260200160002060050160006101000a81548160ff0219169083151502179055505050565b61034561184e565b61034e3361144a565b1561038e576040517f08c379a0000000000000000000000000000000000000000000000000000000008152600401610385906120cb565b60405180910390fd5b6000600160055461039f91906121e4565b90506000600190506000604051806080016040528089815260200188815260200187815260200186815250905060006040518061012001604052808581526020013373ffffffffffffffffffffffffffffffffffffffff168152602001846006811115610435577f4e487b7100000000000000000000000000000000000000000000000000000000600052602160045260246000fd5b81526020018d81526020018c81526020018b81526020016000151581526020016000815260200183815250905080600260003373ffffffffffffffffffffffffffffffffffffffff1673ffffffffffffffffffffffffffffffffffffffff1681526020019081526020016000206000820151816000015560208201518160010160006101000a81548173ffffffffffffffffffffffffffffffffffffffff021916908373ffffffffffffffffffffffffffffffffffffffff16021790555060408201518160010160146101000a81548160ff02191690836006811115610544577f4e487b7100000000000000000000000000000000000000000000000000000000600052602160045260246000fd5b021790555060608201518160020190805190602001906105659291906118f0565b5060808201518160030190805190602001906105829291906118f0565b5060a082015181600401908051906020019061059f9291906118f0565b5060c08201518160050160006101000a81548160ff02191690831515021790555060e082015181600601556101008201518160070160008201518160000190805190602001906105f09291906118f0565b50602082015181600101908051906020019061060d9291906118f0565b50604082015181600201908051906020019061062a9291906118f0565b5060608201518160030190805190602001906106479291906118f0565b5050509050506004339080600181540180825580915050600190039060005260206000200160009091909190916101000a81548173ffffffffffffffffffffffffffffffffffffffff021916908373ffffffffffffffffffffffffffffffffffffffff160217905550600560008154809291906106c39061234c565b9190505550600360009054906101000a900473ffffffffffffffffffffffffffffffffffffffff1673ffffffffffffffffffffffffffffffffffffffff16639c3eead933856040518363ffffffff1660e01b8152600401610725929190612005565b600060405180830381600087803b15801561073f57600080fd5b505af1158015610753573d6000803e3d6000fd5b5050505080945050505050979650505050505050565b6060600060055467ffffffffffffffff8111156107af577f4e487b7100000000000000000000000000000000000000000000000000000000600052604160045260246000fd5b6040519080825280602002602001820160405280156107e857816020015b6107d561184e565b8152602001906001900390816107cd5790505b50905060005b600554811015610e2257600060048281548110610834577f4e487b7100000000000000000000000000000000000000000000000000000000600052603260045260246000fd5b9060005260206000200160009054906101000a900473ffffffffffffffffffffffffffffffffffffffff169050600260008273ffffffffffffffffffffffffffffffffffffffff1673ffffffffffffffffffffffffffffffffffffffff16815260200190815260200160002060405180610120016040529081600082015481526020016001820160009054906101000a900473ffffffffffffffffffffffffffffffffffffffff1673ffffffffffffffffffffffffffffffffffffffff1673ffffffffffffffffffffffffffffffffffffffff1681526020016001820160149054906101000a900460ff166006811115610957577f4e487b7100000000000000000000000000000000000000000000000000000000600052602160045260246000fd5b600681111561098f577f4e487b7100000000000000000000000000000000000000000000000000000000600052602160045260246000fd5b81526020016002820180546109a3906122e9565b80601f01602080910402602001604051908101604052809291908181526020018280546109cf906122e9565b8015610a1c5780601f106109f157610100808354040283529160200191610a1c565b820191906000526020600020905b8154815290600101906020018083116109ff57829003601f168201915b50505050508152602001600382018054610a35906122e9565b80601f0160208091040260200160405190810160405280929190818152602001828054610a61906122e9565b8015610aae5780601f10610a8357610100808354040283529160200191610aae565b820191906000526020600020905b815481529060010190602001808311610a9157829003601f168201915b50505050508152602001600482018054610ac7906122e9565b80601f0160208091040260200160405190810160405280929190818152602001828054610af3906122e9565b8015610b405780601f10610b1557610100808354040283529160200191610b40565b820191906000526020600020905b815481529060010190602001808311610b2357829003601f168201915b505050505081526020016005820160009054906101000a900460ff161515151581526020016006820154815260200160078201604051806080016040529081600082018054610b8e906122e9565b80601f0160208091040260200160405190810160405280929190818152602001828054610bba906122e9565b8015610c075780601f10610bdc57610100808354040283529160200191610c07565b820191906000526020600020905b815481529060010190602001808311610bea57829003601f168201915b50505050508152602001600182018054610c20906122e9565b80601f0160208091040260200160405190810160405280929190818152602001828054610c4c906122e9565b8015610c995780601f10610c6e57610100808354040283529160200191610c99565b820191906000526020600020905b815481529060010190602001808311610c7c57829003601f168201915b50505050508152602001600282018054610cb2906122e9565b80601f0160208091040260200160405190810160405280929190818152602001828054610cde906122e9565b8015610d2b5780601f10610d0057610100808354040283529160200191610d2b565b820191906000526020600020905b815481529060010190602001808311610d0e57829003601f168201915b50505050508152602001600382018054610d44906122e9565b80601f0160208091040260200160405190810160405280929190818152602001828054610d70906122e9565b8015610dbd5780601f10610d9257610100808354040283529160200191610dbd565b820191906000526020600020905b815481529060010190602001808311610da057829003601f168201915b50505050508152505081525050838381518110610e03577f4e487b7100000000000000000000000000000000000000000000000000000000600052603260045260246000fd5b6020026020010181905250508080610e1a9061234c565b9150506107ee565b508091505090565b610e3261184e565b600260008373ffffffffffffffffffffffffffffffffffffffff1673ffffffffffffffffffffffffffffffffffffffff16815260200190815260200160002060405180610120016040529081600082015481526020016001820160009054906101000a900473ffffffffffffffffffffffffffffffffffffffff1673ffffffffffffffffffffffffffffffffffffffff1673ffffffffffffffffffffffffffffffffffffffff1681526020016001820160149054906101000a900460ff166006811115610f28577f4e487b7100000000000000000000000000000000000000000000000000000000600052602160045260246000fd5b6006811115610f60577f4e487b7100000000000000000000000000000000000000000000000000000000600052602160045260246000fd5b8152602001600282018054610f74906122e9565b80601f0160208091040260200160405190810160405280929190818152602001828054610fa0906122e9565b8015610fed5780601f10610fc257610100808354040283529160200191610fed565b820191906000526020600020905b815481529060010190602001808311610fd057829003601f168201915b50505050508152602001600382018054611006906122e9565b80601f0160208091040260200160405190810160405280929190818152602001828054611032906122e9565b801561107f5780601f106110545761010080835404028352916020019161107f565b820191906000526020600020905b81548152906001019060200180831161106257829003601f168201915b50505050508152602001600482018054611098906122e9565b80601f01602080910402602001604051908101604052809291908181526020018280546110c4906122e9565b80156111115780601f106110e657610100808354040283529160200191611111565b820191906000526020600020905b8154815290600101906020018083116110f457829003601f168201915b505050505081526020016005820160009054906101000a900460ff16151515158152602001600682015481526020016007820160405180608001604052908160008201805461115f906122e9565b80601f016020809104026020016040519081016040528092919081815260200182805461118b906122e9565b80156111d85780601f106111ad576101008083540402835291602001916111d8565b820191906000526020600020905b8154815290600101906020018083116111bb57829003601f168201915b505050505081526020016001820180546111f1906122e9565b80601f016020809104026020016040519081016040528092919081815260200182805461121d906122e9565b801561126a5780601f1061123f5761010080835404028352916020019161126a565b820191906000526020600020905b81548152906001019060200180831161124d57829003601f168201915b50505050508152602001600282018054611283906122e9565b80601f01602080910402602001604051908101604052809291908181526020018280546112af906122e9565b80156112fc5780601f106112d1576101008083540402835291602001916112fc565b820191906000526020600020905b8154815290600101906020018083116112df57829003601f168201915b50505050508152602001600382018054611315906122e9565b80601f0160208091040260200160405190810160405280929190818152602001828054611341906122e9565b801561138e5780601f106113635761010080835404028352916020019161138e565b820191906000526020600020905b81548152906001019060200180831161137157829003601f168201915b505050505081525050815250509050919050565b6113aa611782565b73ffffffffffffffffffffffffffffffffffffffff166113c86114a4565b73ffffffffffffffffffffffffffffffffffffffff161461141e576040517f08c379a00000000000000000000000000000000000000000000000000000000081526004016114159061208b565b60405180910390fd5b611428600061178a565b565b60016020528060005260406000206000915054906101000a900460ff1681565b600080600260008473ffffffffffffffffffffffffffffffffffffffff1673ffffffffffffffffffffffffffffffffffffffff168152602001908152602001600020600201805461149a906122e9565b9050119050919050565b60008060009054906101000a900473ffffffffffffffffffffffffffffffffffffffff16905090565b6114d5611782565b73ffffffffffffffffffffffffffffffffffffffff166114f36114a4565b73ffffffffffffffffffffffffffffffffffffffff1614611549576040517f08c379a00000000000000000000000000000000000000000000000000000000081526004016115409061208b565b60405180910390fd5b60018060008373ffffffffffffffffffffffffffffffffffffffff1673ffffffffffffffffffffffffffffffffffffffff16815260200190815260200160002060006101000a81548160ff02191690831515021790555050565b600160003373ffffffffffffffffffffffffffffffffffffffff1673ffffffffffffffffffffffffffffffffffffffff16815260200190815260200160002060009054906101000a900460ff1661162f576040517f08c379a0000000000000000000000000000000000000000000000000000000008152600401611626906120ab565b60405180910390fd5b600260008273ffffffffffffffffffffffffffffffffffffffff1673ffffffffffffffffffffffffffffffffffffffff16815260200190815260200160002060060160008154809291906116829061234c565b919050555050565b611692611782565b73ffffffffffffffffffffffffffffffffffffffff166116b06114a4565b73ffffffffffffffffffffffffffffffffffffffff1614611706576040517f08c379a00000000000000000000000000000000000000000000000000000000081526004016116fd9061208b565b60405180910390fd5b600073ffffffffffffffffffffffffffffffffffffffff168173ffffffffffffffffffffffffffffffffffffffff161415611776576040517f08c379a000000000000000000000000000000000000000000000000000000000815260040161176d9061206b565b60405180910390fd5b61177f8161178a565b50565b600033905090565b60008060009054906101000a900473ffffffffffffffffffffffffffffffffffffffff169050816000806101000a81548173ffffffffffffffffffffffffffffffffffffffff021916908373ffffffffffffffffffffffffffffffffffffffff1602179055508173ffffffffffffffffffffffffffffffffffffffff168173ffffffffffffffffffffffffffffffffffffffff167f8be0079c531659141344cd1fd0a4f28419497f9722a3daafe3b4186f6b6457e060405160405180910390a35050565b60405180610120016040528060008152602001600073ffffffffffffffffffffffffffffffffffffffff168152602001600060068111156118b8577f4e487b7100000000000000000000000000000000000000000000000000000000600052602160045260246000fd5b8152602001606081526020016060815260200160608152602001600015158152602001600081526020016118ea611976565b81525090565b8280546118fc906122e9565b90600052602060002090601f01602090048101928261191e5760008555611965565b82601f1061193757805160ff1916838001178555611965565b82800160010185558215611965579182015b82811115611964578251825591602001919060010190611949565b5b509050611972919061199e565b5090565b6040518060800160405280606081526020016060815260200160608152602001606081525090565b5b808211156119b757600081600090555060010161199f565b5090565b60006119ce6119c98461214d565b612128565b9050828152602081018484840111156119e657600080fd5b6119f18482856122a7565b509392505050565b600081359050611a0881612540565b92915050565b600081359050611a1d81612557565b92915050565b600082601f830112611a3457600080fd5b8135611a448482602086016119bb565b91505092915050565b600060208284031215611a5f57600080fd5b6000611a6d848285016119f9565b91505092915050565b60008060408385031215611a8957600080fd5b6000611a97858286016119f9565b9250506020611aa885828601611a0e565b9150509250929050565b600080600080600080600060e0888a031215611acd57600080fd5b600088013567ffffffffffffffff811115611ae757600080fd5b611af38a828b01611a23565b975050602088013567ffffffffffffffff811115611b1057600080fd5b611b1c8a828b01611a23565b965050604088013567ffffffffffffffff811115611b3957600080fd5b611b458a828b01611a23565b955050606088013567ffffffffffffffff811115611b6257600080fd5b611b6e8a828b01611a23565b945050608088013567ffffffffffffffff811115611b8b57600080fd5b611b978a828b01611a23565b93505060a088013567ffffffffffffffff811115611bb457600080fd5b611bc08a828b01611a23565b92505060c088013567ffffffffffffffff811115611bdd57600080fd5b611be98a828b01611a23565b91505092959891949750929550565b6000611c048383611e18565b905092915050565b611c158161223a565b82525050565b611c248161223a565b82525050565b6000611c358261218e565b611c3f81856121b1565b935083602082028501611c518561217e565b8060005b85811015611c8d5784840389528151611c6e8582611bf8565b9450611c79836121a4565b925060208a01995050600181019050611c55565b50829750879550505050505092915050565b611ca88161224c565b82525050565b611cb78161224c565b82525050565b611cc681612295565b82525050565b611cd581612295565b82525050565b6000611ce682612199565b611cf081856121c2565b9350611d008185602086016122b6565b611d0981612451565b840191505092915050565b6000611d216026836121d3565b9150611d2c82612462565b604082019050919050565b6000611d446020836121d3565b9150611d4f826124b1565b602082019050919050565b6000611d676012836121d3565b9150611d72826124da565b602082019050919050565b6000611d8a601b836121d3565b9150611d9582612503565b602082019050919050565b60006080830160008301518482036000860152611dbd8282611cdb565b91505060208301518482036020860152611dd78282611cdb565b91505060408301518482036040860152611df18282611cdb565b91505060608301518482036060860152611e0b8282611cdb565b9150508091505092915050565b600061012083016000830151611e316000860182611fcc565b506020830151611e446020860182611c0c565b506040830151611e576040860182611cbd565b5060608301518482036060860152611e6f8282611cdb565b91505060808301518482036080860152611e898282611cdb565b91505060a083015184820360a0860152611ea38282611cdb565b91505060c0830151611eb860c0860182611c9f565b5060e0830151611ecb60e0860182611fcc565b50610100830151848203610100860152611ee58282611da0565b9150508091505092915050565b600061012083016000830151611f0b6000860182611fcc565b506020830151611f1e6020860182611c0c565b506040830151611f316040860182611cbd565b5060608301518482036060860152611f498282611cdb565b91505060808301518482036080860152611f638282611cdb565b91505060a083015184820360a0860152611f7d8282611cdb565b91505060c0830151611f9260c0860182611c9f565b5060e0830151611fa560e0860182611fcc565b50610100830151848203610100860152611fbf8282611da0565b9150508091505092915050565b611fd58161228b565b82525050565b611fe48161228b565b82525050565b6000602082019050611fff6000830184611c1b565b92915050565b600060408201905061201a6000830185611c1b565b6120276020830184611ccc565b9392505050565b600060208201905081810360008301526120488184611c2a565b905092915050565b60006020820190506120656000830184611cae565b92915050565b6000602082019050818103600083015261208481611d14565b9050919050565b600060208201905081810360008301526120a481611d37565b9050919050565b600060208201905081810360008301526120c481611d5a565b9050919050565b600060208201905081810360008301526120e481611d7d565b9050919050565b600060208201905081810360008301526121058184611ef2565b905092915050565b60006020820190506121226000830184611fdb565b92915050565b6000612132612143565b905061213e828261231b565b919050565b6000604051905090565b600067ffffffffffffffff82111561216857612167612422565b5b61217182612451565b9050602081019050919050565b6000819050602082019050919050565b600081519050919050565b600081519050919050565b6000602082019050919050565b600082825260208201905092915050565b600082825260208201905092915050565b600082825260208201905092915050565b60006121ef8261228b565b91506121fa8361228b565b9250827fffffffffffffffffffffffffffffffffffffffffffffffffffffffffffffffff0382111561222f5761222e612395565b5b828201905092915050565b60006122458261226b565b9050919050565b60008115159050919050565b60008190506122668261252c565b919050565b600073ffffffffffffffffffffffffffffffffffffffff82169050919050565b6000819050919050565b60006122a082612258565b9050919050565b82818337600083830152505050565b60005b838110156122d45780820151818401526020810190506122b9565b838111156122e3576000848401525b50505050565b6000600282049050600182168061230157607f821691505b60208210811415612315576123146123f3565b5b50919050565b61232482612451565b810181811067ffffffffffffffff8211171561234357612342612422565b5b80604052505050565b60006123578261228b565b91507fffffffffffffffffffffffffffffffffffffffffffffffffffffffffffffffff82141561238a57612389612395565b5b600182019050919050565b7f4e487b7100000000000000000000000000000000000000000000000000000000600052601160045260246000fd5b7f4e487b7100000000000000000000000000000000000000000000000000000000600052602160045260246000fd5b7f4e487b7100000000000000000000000000000000000000000000000000000000600052602260045260246000fd5b7f4e487b7100000000000000000000000000000000000000000000000000000000600052604160045260246000fd5b6000601f19601f8301169050919050565b7f4f776e61626c653a206e6577206f776e657220697320746865207a65726f206160008201527f6464726573730000000000000000000000000000000000000000000000000000602082015250565b7f4f776e61626c653a2063616c6c6572206973206e6f7420746865206f776e6572600082015250565b7f4e6f7420616c6c6f7765642063616c6c65720000000000000000000000000000600082015250565b7f5468697320616374697669737420616c72656164792065786973740000000000600082015250565b6007811061253d5761253c6123c4565b5b50565b6125498161223a565b811461255457600080fd5b50565b6125608161224c565b811461256b57600080fd5b5056fea2646970667358221220839d0aa5659b1f857bdca05c84777e4f1acf8ba8534d5147167264b4c729f27d64736f6c63430008020033",
  "immutableReferences": {},
  "source": "// SPDX-License-Identifier: GPL-3.0\npragma solidity >=0.7.0 <=0.9.0;\n\nimport \"./UserContract.sol\";\nimport \"./types/ActivistTypes.sol\";\nimport \"./Callable.sol\";\n\ncontract ActivistContract is Callable {\n  mapping(address => Activist) internal activists;\n\n  UserContract internal userContract;\n  address[] internal activistsAddress;\n  uint256 public activistsCount;\n\n  constructor(address userContractAddress) {\n    userContract = UserContract(userContractAddress);\n  }\n\n  /**\n   * @dev Allow a new register of activist\n   * @param name the name of the activist\n   * @param document the document of activist\n   * @param documentType the document type type of activist. CPF/CNPJ\n   * @param country the country where the activist is\n   * @param state the state of the activist\n   * @param city the of the activist\n   * @param cep the cep of the activist\n   * @return a Activist\n   */\n  // TODO Add mustBeAllowedCaller\n  function addActivist(\n    string memory name,\n    string memory document,\n    string memory documentType,\n    string memory country,\n    string memory state,\n    string memory city,\n    string memory cep\n  ) public uniqueActivist returns (Activist memory) {\n    uint256 id = activistsCount + 1;\n    UserType userType = UserType.ACTIVIST;\n\n    ActivistAddress memory activistAddress = ActivistAddress(country, state, city, cep);\n\n    Activist memory activist = Activist(\n      id,\n      msg.sender,\n      userType,\n      name,\n      document,\n      documentType,\n      false,\n      0,\n      activistAddress\n    );\n\n    activists[msg.sender] = activist;\n    activistsAddress.push(msg.sender);\n    activistsCount++;\n    userContract.addUser(msg.sender, userType);\n\n    return activist;\n  }\n\n  /**\n   * @dev Returns all registered activists\n   * @return Activist struct array\n   */\n  function getActivists() public view returns (Activist[] memory) {\n    Activist[] memory activistList = new Activist[](activistsCount);\n\n    for (uint256 i = 0; i < activistsCount; i++) {\n      address acAddress = activistsAddress[i];\n      activistList[i] = activists[acAddress];\n    }\n\n    return activistList;\n  }\n\n  /**\n   * @dev Return a specific activist\n   * @param addr the address of the activist.\n   */\n  function getActivist(address addr) public view returns (Activist memory) {\n    return activists[addr];\n  }\n\n  /**\n   * @dev Check if a specific activist exists\n   * @return a bool that represent if a activist exists or not\n   */\n  function activistExists(address addr) public view returns (bool) {\n    return bytes(activists[addr].name).length > 0;\n  }\n\n  function recentInspection(address addr, bool state) public mustBeAllowedCaller {\n    activists[addr].recentInspection = state;\n  }\n\n  function incrementRequests(address addr) public mustBeAllowedCaller {\n    activists[addr].totalInspections++;\n  }\n\n  // MODIFIERS\n\n  modifier uniqueActivist() {\n    require(!activistExists(msg.sender), \"This activist already exist\");\n    _;\n  }\n}\n",
  "sourcePath": "/home/everson/Documents/projetos/sintrop/SAT-core-contracts/contracts/ActivistContract.sol",
  "compiler": {
    "name": "solc",
    "version": "0.8.2+commit.661d1103.Emscripten.clang"
  },
  "schemaVersion": "3.4.6",
  "updatedAt": "2022-05-14T21:17:42.130Z",
  "devdoc": {
    "kind": "dev",
    "methods": {
      "activistExists(address)": {
        "details": "Check if a specific activist exists",
        "returns": {
          "_0": "a bool that represent if a activist exists or not"
        }
      },
      "addActivist(string,string,string,string,string,string,string)": {
        "details": "Allow a new register of activist",
        "params": {
          "cep": "the cep of the activist",
          "city": "the of the activist",
          "country": "the country where the activist is",
          "document": "the document of activist",
          "documentType": "the document type type of activist. CPF/CNPJ",
          "name": "the name of the activist",
          "state": "the state of the activist"
        },
        "returns": {
          "_0": "a Activist"
        }
      },
      "getActivist(address)": {
        "details": "Return a specific activist",
        "params": {
          "addr": "the address of the activist."
        }
      },
      "getActivists()": {
        "details": "Returns all registered activists",
        "returns": {
          "_0": "Activist struct array"
        }
      },
      "owner()": {
        "details": "Returns the address of the current owner."
      },
      "renounceOwnership()": {
        "details": "Leaves the contract without owner. It will not be possible to call `onlyOwner` functions anymore. Can only be called by the current owner. NOTE: Renouncing ownership will leave the contract without an owner, thereby removing any functionality that is only available to the owner."
      },
      "transferOwnership(address)": {
        "details": "Transfers ownership of the contract to a new account (`newOwner`). Can only be called by the current owner."
      }
    },
    "version": 1
  },
  "userdoc": {
    "kind": "user",
    "methods": {},
    "version": 1
  }
}