{
  "contractName": "CategoryContract",
  "abi": [
    {
      "inputs": [],
      "name": "category",
      "outputs": [
        {
          "internalType": "uint256",
          "name": "id",
          "type": "uint256"
        },
        {
          "internalType": "address",
          "name": "createdBy",
          "type": "address"
        },
        {
          "internalType": "string",
          "name": "name",
          "type": "string"
        },
        {
          "internalType": "string",
          "name": "description",
          "type": "string"
        },
        {
          "internalType": "string",
          "name": "totallySustainable",
          "type": "string"
        },
        {
          "internalType": "string",
          "name": "partiallySustainable",
          "type": "string"
        },
        {
          "internalType": "string",
          "name": "neutro",
          "type": "string"
        },
        {
          "internalType": "string",
          "name": "partiallyNotSustainable",
          "type": "string"
        },
        {
          "internalType": "string",
          "name": "totallyNotSustainable",
          "type": "string"
        },
        {
          "internalType": "uint256",
          "name": "votesCount",
          "type": "uint256"
        },
        {
          "internalType": "uint256",
          "name": "index",
          "type": "uint256"
        }
      ],
      "stateMutability": "view",
      "type": "function"
    },
    {
      "inputs": [],
      "name": "categoryCounts",
      "outputs": [
        {
          "internalType": "uint256",
          "name": "",
          "type": "uint256"
        }
      ],
      "stateMutability": "view",
      "type": "function"
    },
    {
      "inputs": [],
      "name": "getCategories",
      "outputs": [
        {
          "components": [
            {
              "internalType": "uint256",
              "name": "id",
              "type": "uint256"
            },
            {
              "internalType": "address",
              "name": "createdBy",
              "type": "address"
            },
            {
              "internalType": "string",
              "name": "name",
              "type": "string"
            },
            {
              "internalType": "string",
              "name": "description",
              "type": "string"
            },
            {
              "internalType": "string",
              "name": "totallySustainable",
              "type": "string"
            },
            {
              "internalType": "string",
              "name": "partiallySustainable",
              "type": "string"
            },
            {
              "internalType": "string",
              "name": "neutro",
              "type": "string"
            },
            {
              "internalType": "string",
              "name": "partiallyNotSustainable",
              "type": "string"
            },
            {
              "internalType": "string",
              "name": "totallyNotSustainable",
              "type": "string"
            },
            {
              "internalType": "uint256",
              "name": "votesCount",
              "type": "uint256"
            },
            {
              "internalType": "uint256",
              "name": "index",
              "type": "uint256"
            }
          ],
          "internalType": "struct CategoryContract.Category[]",
          "name": "",
          "type": "tuple[]"
        }
      ],
      "stateMutability": "view",
      "type": "function"
    },
    {
      "inputs": [
        {
          "internalType": "string",
          "name": "name",
          "type": "string"
        },
        {
          "internalType": "string",
          "name": "description",
          "type": "string"
        },
        {
          "internalType": "string",
          "name": "totallySustainable",
          "type": "string"
        },
        {
          "internalType": "string",
          "name": "partiallySustainable",
          "type": "string"
        },
        {
          "internalType": "string",
          "name": "neutro",
          "type": "string"
        },
        {
          "internalType": "string",
          "name": "partiallyNotSustainable",
          "type": "string"
        },
        {
          "internalType": "string",
          "name": "totallyNotSustainable",
          "type": "string"
        }
      ],
      "name": "addCategory",
      "outputs": [
        {
          "internalType": "bool",
          "name": "",
          "type": "bool"
        }
      ],
      "stateMutability": "nonpayable",
      "type": "function"
    },
    {
      "inputs": [
        {
          "internalType": "uint256",
          "name": "id",
          "type": "uint256"
        }
      ],
      "name": "vote",
      "outputs": [
        {
          "internalType": "bool",
          "name": "",
          "type": "bool"
        }
      ],
      "stateMutability": "nonpayable",
      "type": "function"
    }
  ],
  "bytecode": "0x608060405234801561001057600080fd5b5061149b806100206000396000f3fe608060405234801561001057600080fd5b50600436106100575760003560e01c80630121b93f1461005c5780634db0412c146100845780637333afcf14610099578063a1c24d64146100b0578063ef430aa6146100c3575b600080fd5b61006f61006a366004611155565b6100e2565b60405190151581526020015b60405180910390f35b61008c6101c8565b60405161007b91906111b8565b6100a2600b5481565b60405190815260200161007b565b61006f6100be366004611042565b61065a565b6100cb610aa2565b60405161007b9b9a999897969594939291906112fb565b6000818152600d602052604081205482906101435760405162461bcd60e51b815260206004820152601a60248201527f546869732063617465676f727920646f6e277420657869737473000000000000604482015260640160405180910390fd5b6000838152600d602052604081206009018054916101608361141e565b90915550506000838152600d60205260409020600a0154600c8054909190811061019a57634e487b7160e01b600052603260045260246000fd5b6000918252602082206009600b90920201018054916101b88361141e565b9190505550600191505b50919050565b6060600c805480602002602001604051908101604052809291908181526020016000905b828210156106515760008481526020908190206040805161016081018252600b86029092018054835260018101546001600160a01b03169383019390935260028301805492939291840191610240906113e9565b80601f016020809104026020016040519081016040528092919081815260200182805461026c906113e9565b80156102b95780601f1061028e576101008083540402835291602001916102b9565b820191906000526020600020905b81548152906001019060200180831161029c57829003601f168201915b505050505081526020016003820180546102d2906113e9565b80601f01602080910402602001604051908101604052809291908181526020018280546102fe906113e9565b801561034b5780601f106103205761010080835404028352916020019161034b565b820191906000526020600020905b81548152906001019060200180831161032e57829003601f168201915b50505050508152602001600482018054610364906113e9565b80601f0160208091040260200160405190810160405280929190818152602001828054610390906113e9565b80156103dd5780601f106103b2576101008083540402835291602001916103dd565b820191906000526020600020905b8154815290600101906020018083116103c057829003601f168201915b505050505081526020016005820180546103f6906113e9565b80601f0160208091040260200160405190810160405280929190818152602001828054610422906113e9565b801561046f5780601f106104445761010080835404028352916020019161046f565b820191906000526020600020905b81548152906001019060200180831161045257829003601f168201915b50505050508152602001600682018054610488906113e9565b80601f01602080910402602001604051908101604052809291908181526020018280546104b4906113e9565b80156105015780601f106104d657610100808354040283529160200191610501565b820191906000526020600020905b8154815290600101906020018083116104e457829003601f168201915b5050505050815260200160078201805461051a906113e9565b80601f0160208091040260200160405190810160405280929190818152602001828054610546906113e9565b80156105935780601f1061056857610100808354040283529160200191610593565b820191906000526020600020905b81548152906001019060200180831161057657829003601f168201915b505050505081526020016008820180546105ac906113e9565b80601f01602080910402602001604051908101604052809291908181526020018280546105d8906113e9565b80156106255780601f106105fa57610100808354040283529160200191610625565b820191906000526020600020905b81548152906001019060200180831161060857829003601f168201915b5050505050815260200160098201548152602001600a82015481525050815260200190600101906101ec565b50505050905090565b600080600b54600161066c91906113ba565b9050600061067b6001836113d2565b60408051610160810182528481523360208083018290529282018e9052606082018d9052608082018c905260a082018b905260c082018a905260e082018990526101008201889052600061012083018190526101408301859052868155600180546001600160a01b0319169092179091558d5193945090929091610704916002918f0190610ea7565b5060608201518051610720916003840191602090910190610ea7565b506080820151805161073c916004840191602090910190610ea7565b5060a08201518051610758916005840191602090910190610ea7565b5060c08201518051610774916006840191602090910190610ea7565b5060e08201518051610790916007840191602090910190610ea7565b5061010082015180516107ad916008840191602090910190610ea7565b50610120820151600982015561014090910151600a90910155600c80546001818101835560009283528254600b9092027fdf6966c971051c3d54ec59162606531493a51404a002842f56009d7e5cf4a8c7810192835590547fdf6966c971051c3d54ec59162606531493a51404a002842f56009d7e5cf4a8c8820180546001600160a01b0319166001600160a01b03909216919091179055600280547fdf6966c971051c3d54ec59162606531493a51404a002842f56009d7e5cf4a8c990920191610877906113e9565b610882929190610f2b565b506003820181600301908054610897906113e9565b6108a2929190610f2b565b5060048201816004019080546108b7906113e9565b6108c2929190610f2b565b5060058201816005019080546108d7906113e9565b6108e2929190610f2b565b5060068201816006019080546108f7906113e9565b610902929190610f2b565b506007820181600701908054610917906113e9565b610922929190610f2b565b506008820181600801908054610937906113e9565b610942929190610f2b565b5060098281015490820155600a918201549101556000828152600d60205260408120815481556001805490820180546001600160a01b0319166001600160a01b0390921691909117905560028054818301919061099e906113e9565b6109a9929190610f2b565b5060038201816003019080546109be906113e9565b6109c9929190610f2b565b5060048201816004019080546109de906113e9565b6109e9929190610f2b565b5060058201816005019080546109fe906113e9565b610a09929190610f2b565b506006820181600601908054610a1e906113e9565b610a29929190610f2b565b506007820181600701908054610a3e906113e9565b610a49929190610f2b565b506008820181600801908054610a5e906113e9565b610a69929190610f2b565b5060098281015490820155600a91820154910155600b8054906000610a8d8361141e565b9091555060019b9a5050505050505050505050565b600080546001546002805492936001600160a01b0390921692610ac4906113e9565b80601f0160208091040260200160405190810160405280929190818152602001828054610af0906113e9565b8015610b3d5780601f10610b1257610100808354040283529160200191610b3d565b820191906000526020600020905b815481529060010190602001808311610b2057829003601f168201915b505050505090806003018054610b52906113e9565b80601f0160208091040260200160405190810160405280929190818152602001828054610b7e906113e9565b8015610bcb5780601f10610ba057610100808354040283529160200191610bcb565b820191906000526020600020905b815481529060010190602001808311610bae57829003601f168201915b505050505090806004018054610be0906113e9565b80601f0160208091040260200160405190810160405280929190818152602001828054610c0c906113e9565b8015610c595780601f10610c2e57610100808354040283529160200191610c59565b820191906000526020600020905b815481529060010190602001808311610c3c57829003601f168201915b505050505090806005018054610c6e906113e9565b80601f0160208091040260200160405190810160405280929190818152602001828054610c9a906113e9565b8015610ce75780601f10610cbc57610100808354040283529160200191610ce7565b820191906000526020600020905b815481529060010190602001808311610cca57829003601f168201915b505050505090806006018054610cfc906113e9565b80601f0160208091040260200160405190810160405280929190818152602001828054610d28906113e9565b8015610d755780601f10610d4a57610100808354040283529160200191610d75565b820191906000526020600020905b815481529060010190602001808311610d5857829003601f168201915b505050505090806007018054610d8a906113e9565b80601f0160208091040260200160405190810160405280929190818152602001828054610db6906113e9565b8015610e035780601f10610dd857610100808354040283529160200191610e03565b820191906000526020600020905b815481529060010190602001808311610de657829003601f168201915b505050505090806008018054610e18906113e9565b80601f0160208091040260200160405190810160405280929190818152602001828054610e44906113e9565b8015610e915780601f10610e6657610100808354040283529160200191610e91565b820191906000526020600020905b815481529060010190602001808311610e7457829003601f168201915b50505050509080600901549080600a015490508b565b828054610eb3906113e9565b90600052602060002090601f016020900481019282610ed55760008555610f1b565b82601f10610eee57805160ff1916838001178555610f1b565b82800160010185558215610f1b579182015b82811115610f1b578251825591602001919060010190610f00565b50610f27929150610fa6565b5090565b828054610f37906113e9565b90600052602060002090601f016020900481019282610f595760008555610f1b565b82601f10610f6a5780548555610f1b565b82800160010185558215610f1b57600052602060002091601f016020900482015b82811115610f1b578254825591600101919060010190610f8b565b5b80821115610f275760008155600101610fa7565b600082601f830112610fcb578081fd5b813567ffffffffffffffff80821115610fe657610fe661144f565b604051601f8301601f19908116603f0116810190828211818310171561100e5761100e61144f565b81604052838152866020858801011115611026578485fd5b8360208701602083013792830160200193909352509392505050565b600080600080600080600060e0888a03121561105c578283fd5b873567ffffffffffffffff80821115611073578485fd5b61107f8b838c01610fbb565b985060208a0135915080821115611094578485fd5b6110a08b838c01610fbb565b975060408a01359150808211156110b5578485fd5b6110c18b838c01610fbb565b965060608a01359150808211156110d6578485fd5b6110e28b838c01610fbb565b955060808a01359150808211156110f7578485fd5b6111038b838c01610fbb565b945060a08a0135915080821115611118578384fd5b6111248b838c01610fbb565b935060c08a0135915080821115611139578283fd5b506111468a828b01610fbb565b91505092959891949750929550565b600060208284031215611166578081fd5b5035919050565b60008151808452815b8181101561119257602081850181015186830182015201611176565b818111156111a35782602083870101525b50601f01601f19169290920160200192915050565b60208082528251828201819052600091906040908185019080840286018301878501865b838110156112ed57603f19898403018552815180518452878101516001600160a01b031688850152868101516101608886018190529061121e8287018261116d565b91505060608083015186830382880152611238838261116d565b9250505060808083015186830382880152611253838261116d565b9250505060a0808301518683038288015261126e838261116d565b9250505060c08083015186830382880152611289838261116d565b9250505060e080830151868303828801526112a4838261116d565b9250505061010080830151868303828801526112c0838261116d565b610120858101519089015261014094850151949097019390935250505093860193908601906001016111dc565b509098975050505050505050565b8b81526001600160a01b038b16602082015260006101608060408401526113248184018d61116d565b90508281036060840152611338818c61116d565b9050828103608084015261134c818b61116d565b905082810360a0840152611360818a61116d565b905082810360c0840152611374818961116d565b905082810360e0840152611388818861116d565b905082810361010084015261139d818761116d565b610120840195909552505061014001529998505050505050505050565b600082198211156113cd576113cd611439565b500190565b6000828210156113e4576113e4611439565b500390565b6002810460018216806113fd57607f821691505b602082108114156101c257634e487b7160e01b600052602260045260246000fd5b600060001982141561143257611432611439565b5060010190565b634e487b7160e01b600052601160045260246000fd5b634e487b7160e01b600052604160045260246000fdfea26469706673582212201be6a28a87768c87ec3d296e53800ee30f6c6e8ba583d6ff6a5e9d700cf0cf4964736f6c63430008020033",
  "immutableReferences": {},
  "source": "// SPDX-License-Identifier: GPL-3.0\npragma solidity >=0.7.0 <=0.9.0;\n\n\n   /**\n    * @title CategoryContract\n   * @dev Category resource that is a part of Sintrop business\n   */\n   contract CategoryContract {\n    enum isas { TOTALLY_SUSTAINABLE, PARTIAL_SUSTAINABLE, NEUTRO, PARTIAL_NOT_SUSTAINABLE, TOTALLY_NOT_SUSTAINABLE }\n       \n    struct Category {\n        uint256 id;\n        address createdBy;\n        string name;\n        string description;\n        string totallySustainable;\n        string partiallySustainable;\n        string neutro;\n        string partiallyNotSustainable;\n        string totallyNotSustainable;\n        uint votesCount;\n        uint index;\n    }\n    Category public category;\n    uint public categoryCounts;\n    Category[] categoriesList;\n    mapping(uint => Category) categories;\n\n    \n    /**\n   * @dev Returns all added categories\n   * @return category struc array\n   */\n    function getCategories() public view returns(Category[] memory) {\n        return categoriesList;\n    }\n    \n    /**\n   * @dev add a new category\n   * @param name the name of category\n   * @param description the description of category\n   * @param totallySustainable the description text to this metric\n   * @param partiallySustainable the description text to this metric\n   * @param neutro the description text to this metric\n   * @param partiallyNotSustainable the description text to this metric\n   * @param totallyNotSustainable the description text to this metric\n   * @return bool\n   */\n    function addCategory(\n        string memory name, \n        string memory description, \n        string memory totallySustainable, \n        string memory partiallySustainable, \n        string memory neutro, \n        string memory partiallyNotSustainable, \n        string memory totallyNotSustainable) public returns(bool) {\n        uint256 id = categoryCounts + 1;\n        uint index = id - 1;\n        \n        category = Category(id, msg.sender, name, description, totallySustainable, partiallySustainable, neutro, partiallyNotSustainable, totallyNotSustainable, 0, index);\n        \n        categoriesList.push(category);\n        categories[id] = category;\n        categoryCounts++;\n        \n        return true;\n    }\n    \n    /**\n   * @dev Allow a user vote in a category\n   * @param id the id of a category that receives a vote.\n   * @return category struc array\n   */\n    function vote(uint id) categoryMustExists(id) public returns (bool) {\n        categories[id].votesCount++;\n        categoriesList[categories[id].index].votesCount++;\n        \n        return true;\n    }\n    \n    // Modifiers\n    modifier categoryMustExists(uint id) {\n        require(categories[id].id > 0, \"This category don't exists\");     \n        _;\n    }\n}",
  "sourcePath": "/home/everson/projetos/afiliart/SAT-core-contracts/contracts/CategoryContract.sol",
  "compiler": {
    "name": "solc",
    "version": "0.8.2+commit.661d1103.Emscripten.clang"
  },
  "schemaVersion": "3.4.4",
  "updatedAt": "2022-02-04T00:33:35.113Z",
  "devdoc": {
    "details": "Category resource that is a part of Sintrop business",
    "kind": "dev",
    "methods": {
      "addCategory(string,string,string,string,string,string,string)": {
        "details": "add a new category",
        "params": {
          "description": "the description of category",
          "name": "the name of category",
          "neutro": "the description text to this metric",
          "partiallyNotSustainable": "the description text to this metric",
          "partiallySustainable": "the description text to this metric",
          "totallyNotSustainable": "the description text to this metric",
          "totallySustainable": "the description text to this metric"
        },
        "returns": {
          "_0": "bool"
        }
      },
      "getCategories()": {
        "details": "Returns all added categories",
        "returns": {
          "_0": "category struc array"
        }
      },
      "vote(uint256)": {
        "details": "Allow a user vote in a category",
        "params": {
          "id": "the id of a category that receives a vote."
        },
        "returns": {
          "_0": "category struc array"
        }
      }
    },
    "title": "CategoryContract",
    "version": 1
  },
  "userdoc": {
    "kind": "user",
    "methods": {},
    "version": 1
  }
}