{
  "contractName": "CategoryContract",
  "abi": [
    {
      "inputs": [
        {
          "internalType": "address",
          "name": "_isaPoolAddress",
          "type": "address"
        }
      ],
      "stateMutability": "nonpayable",
      "type": "constructor"
    },
    {
      "inputs": [
        {
          "internalType": "uint256",
          "name": "",
          "type": "uint256"
        }
      ],
      "name": "categories",
      "outputs": [
        {
          "internalType": "uint256",
          "name": "id",
          "type": "uint256"
        },
        {
          "internalType": "address",
          "name": "createdBy",
          "type": "address"
        },
        {
          "internalType": "string",
          "name": "name",
          "type": "string"
        },
        {
          "internalType": "string",
          "name": "description",
          "type": "string"
        },
        {
          "internalType": "string",
          "name": "totallySustainable",
          "type": "string"
        },
        {
          "internalType": "string",
          "name": "partiallySustainable",
          "type": "string"
        },
        {
          "internalType": "string",
          "name": "neutro",
          "type": "string"
        },
        {
          "internalType": "string",
          "name": "partiallyNotSustainable",
          "type": "string"
        },
        {
          "internalType": "string",
          "name": "totallyNotSustainable",
          "type": "string"
        },
        {
          "internalType": "uint256",
          "name": "votesCount",
          "type": "uint256"
        }
      ],
      "stateMutability": "view",
      "type": "function"
    },
    {
      "inputs": [],
      "name": "category",
      "outputs": [
        {
          "internalType": "uint256",
          "name": "id",
          "type": "uint256"
        },
        {
          "internalType": "address",
          "name": "createdBy",
          "type": "address"
        },
        {
          "internalType": "string",
          "name": "name",
          "type": "string"
        },
        {
          "internalType": "string",
          "name": "description",
          "type": "string"
        },
        {
          "internalType": "string",
          "name": "totallySustainable",
          "type": "string"
        },
        {
          "internalType": "string",
          "name": "partiallySustainable",
          "type": "string"
        },
        {
          "internalType": "string",
          "name": "neutro",
          "type": "string"
        },
        {
          "internalType": "string",
          "name": "partiallyNotSustainable",
          "type": "string"
        },
        {
          "internalType": "string",
          "name": "totallyNotSustainable",
          "type": "string"
        },
        {
          "internalType": "uint256",
          "name": "votesCount",
          "type": "uint256"
        }
      ],
      "stateMutability": "view",
      "type": "function"
    },
    {
      "inputs": [],
      "name": "categoryCounts",
      "outputs": [
        {
          "internalType": "uint256",
          "name": "",
          "type": "uint256"
        }
      ],
      "stateMutability": "view",
      "type": "function"
    },
    {
      "inputs": [
        {
          "internalType": "address",
          "name": "",
          "type": "address"
        },
        {
          "internalType": "uint256",
          "name": "",
          "type": "uint256"
        }
      ],
      "name": "voted",
      "outputs": [
        {
          "internalType": "uint256",
          "name": "",
          "type": "uint256"
        }
      ],
      "stateMutability": "view",
      "type": "function"
    },
    {
      "inputs": [
        {
          "internalType": "uint256",
          "name": "",
          "type": "uint256"
        }
      ],
      "name": "votes",
      "outputs": [
        {
          "internalType": "uint256",
          "name": "",
          "type": "uint256"
        }
      ],
      "stateMutability": "view",
      "type": "function"
    },
    {
      "inputs": [
        {
          "internalType": "string",
          "name": "name",
          "type": "string"
        },
        {
          "internalType": "string",
          "name": "description",
          "type": "string"
        },
        {
          "internalType": "string",
          "name": "totallySustainable",
          "type": "string"
        },
        {
          "internalType": "string",
          "name": "partiallySustainable",
          "type": "string"
        },
        {
          "internalType": "string",
          "name": "neutro",
          "type": "string"
        },
        {
          "internalType": "string",
          "name": "partiallyNotSustainable",
          "type": "string"
        },
        {
          "internalType": "string",
          "name": "totallyNotSustainable",
          "type": "string"
        }
      ],
      "name": "addCategory",
      "outputs": [
        {
          "internalType": "bool",
          "name": "",
          "type": "bool"
        }
      ],
      "stateMutability": "nonpayable",
      "type": "function"
    },
    {
      "inputs": [],
      "name": "getCategories",
      "outputs": [
        {
          "components": [
            {
              "internalType": "uint256",
              "name": "id",
              "type": "uint256"
            },
            {
              "internalType": "address",
              "name": "createdBy",
              "type": "address"
            },
            {
              "internalType": "string",
              "name": "name",
              "type": "string"
            },
            {
              "internalType": "string",
              "name": "description",
              "type": "string"
            },
            {
              "internalType": "string",
              "name": "totallySustainable",
              "type": "string"
            },
            {
              "internalType": "string",
              "name": "partiallySustainable",
              "type": "string"
            },
            {
              "internalType": "string",
              "name": "neutro",
              "type": "string"
            },
            {
              "internalType": "string",
              "name": "partiallyNotSustainable",
              "type": "string"
            },
            {
              "internalType": "string",
              "name": "totallyNotSustainable",
              "type": "string"
            },
            {
              "internalType": "uint256",
              "name": "votesCount",
              "type": "uint256"
            }
          ],
          "internalType": "struct CategoryContract.Category[]",
          "name": "",
          "type": "tuple[]"
        }
      ],
      "stateMutability": "view",
      "type": "function"
    },
    {
      "inputs": [
        {
          "internalType": "uint256",
          "name": "id",
          "type": "uint256"
        },
        {
          "internalType": "uint256",
          "name": "tokens",
          "type": "uint256"
        }
      ],
      "name": "vote",
      "outputs": [
        {
          "internalType": "bool",
          "name": "",
          "type": "bool"
        }
      ],
      "stateMutability": "nonpayable",
      "type": "function"
    },
    {
      "inputs": [
        {
          "internalType": "uint256",
          "name": "id",
          "type": "uint256"
        }
      ],
      "name": "unvote",
      "outputs": [
        {
          "internalType": "uint256",
          "name": "",
          "type": "uint256"
        }
      ],
      "stateMutability": "nonpayable",
      "type": "function"
    }
  ],
  "bytecode": "0x608060405234801561001057600080fd5b5060405161194738038061194783398101604081905261002f91610054565b600e80546001600160a01b0319166001600160a01b0392909216919091179055610082565b600060208284031215610065578081fd5b81516001600160a01b038116811461007b578182fd5b9392505050565b6118b6806100916000396000f3fe608060405234801561001057600080fd5b50600436106100935760003560e01c8063a1c24d6411610066578063a1c24d6414610100578063b384abef14610123578063c591aa9814610136578063c6cdbe5e14610161578063ef430aa61461018a57610093565b80634db0412c1461009857806351ec4285146100b65780635df81330146100d75780637333afcf146100f7575b600080fd5b6100a0610192565b6040516100ad91906115c2565b60405180910390f35b6100c96100c4366004611526565b6106f3565b6040519081526020016100ad565b6100c96100e5366004611526565b600c6020526000908152604090205481565b6100c9600a5481565b61011361010e366004611413565b6108c6565b60405190151581526020016100ad565b610113610131366004611556565b610b60565b6100c96101443660046113b6565b600d60209081526000928352604080842090915290825290205481565b61017461016f366004611526565b610dea565b6040516100ad9a999897969594939291906116fb565b6101746111f9565b60606000600a5467ffffffffffffffff8111156101bf57634e487b7160e01b600052604160045260246000fd5b60405190808252806020026020018201604052801561024f57816020015b61023c6040518061014001604052806000815260200160006001600160a01b0316815260200160608152602001606081526020016060815260200160608152602001606081526020016060815260200160608152602001600081525090565b8152602001906001900390816101dd5790505b50905060005b600a548110156106ed57600b600061026e8360016117b8565b815260208082019290925260409081016000208151610140810183528154815260018201546001600160a01b03169381019390935260028101805491928401916102b7906117fe565b80601f01602080910402602001604051908101604052809291908181526020018280546102e3906117fe565b80156103305780601f1061030557610100808354040283529160200191610330565b820191906000526020600020905b81548152906001019060200180831161031357829003601f168201915b50505050508152602001600382018054610349906117fe565b80601f0160208091040260200160405190810160405280929190818152602001828054610375906117fe565b80156103c25780601f10610397576101008083540402835291602001916103c2565b820191906000526020600020905b8154815290600101906020018083116103a557829003601f168201915b505050505081526020016004820180546103db906117fe565b80601f0160208091040260200160405190810160405280929190818152602001828054610407906117fe565b80156104545780601f1061042957610100808354040283529160200191610454565b820191906000526020600020905b81548152906001019060200180831161043757829003601f168201915b5050505050815260200160058201805461046d906117fe565b80601f0160208091040260200160405190810160405280929190818152602001828054610499906117fe565b80156104e65780601f106104bb576101008083540402835291602001916104e6565b820191906000526020600020905b8154815290600101906020018083116104c957829003601f168201915b505050505081526020016006820180546104ff906117fe565b80601f016020809104026020016040519081016040528092919081815260200182805461052b906117fe565b80156105785780601f1061054d57610100808354040283529160200191610578565b820191906000526020600020905b81548152906001019060200180831161055b57829003601f168201915b50505050508152602001600782018054610591906117fe565b80601f01602080910402602001604051908101604052809291908181526020018280546105bd906117fe565b801561060a5780601f106105df5761010080835404028352916020019161060a565b820191906000526020600020905b8154815290600101906020018083116105ed57829003601f168201915b50505050508152602001600882018054610623906117fe565b80601f016020809104026020016040519081016040528092919081815260200182805461064f906117fe565b801561069c5780601f106106715761010080835404028352916020019161069c565b820191906000526020600020905b81548152906001019060200180831161067f57829003601f168201915b505050505081526020016009820154815250508282815181106106cf57634e487b7160e01b600052603260045260246000fd5b602002602001018190525080806106e590611839565b915050610255565b50905090565b6000818152600b602052604081205482906107555760405162461bcd60e51b815260206004820152601a60248201527f546869732063617465676f727920646f6e27742065786973747300000000000060448201526064015b60405180910390fd5b336000908152600d6020908152604080832086845290915290205483906107be5760405162461bcd60e51b815260206004820181905260248201527f596f7520646f6e277420766f74656420746f20746869732063617465676f7279604482015260640161074c565b336000818152600d602090815260408083208884529091529081902054600e5491516333ff8bd360e11b8152600481019390935260248301819052916001600160a01b03909116906367ff17a690604401602060405180830381600087803b15801561082957600080fd5b505af115801561083d573d6000803e3d6000fd5b505050506040513d601f19601f8201168201806040525081019061086191906113ec565b506000858152600c6020526040812080548392906108809084906117d0565b9091555050336000908152600d602090815260408083208884528252808320839055600b90915281206009018054916108b8836117e7565b909155509095945050505050565b6000604051806101400160405280600a5460016108e391906117b8565b81523360208083019190915260408083018c9052606083018b9052608083018a905260a0830189905260c0830188905260e08301879052610100830186905260006101209093018390528351835583820151600180546001600160a01b0319166001600160a01b03909216919091179055830151805161096792600292019061121b565b506060820151805161098391600384019160209091019061121b565b506080820151805161099f91600484019160209091019061121b565b5060a082015180516109bb91600584019160209091019061121b565b5060c082015180516109d791600684019160209091019061121b565b5060e082015180516109f391600784019160209091019061121b565b506101008201518051610a1091600884019160209091019061121b565b50610120919091015160099091015560008054808252600b602052604082209081556001805490820180546001600160a01b0319166001600160a01b03909216919091179055600280548183019190610a68906117fe565b610a7392919061129f565b506003820181600301908054610a88906117fe565b610a9392919061129f565b506004820181600401908054610aa8906117fe565b610ab392919061129f565b506005820181600501908054610ac8906117fe565b610ad392919061129f565b506006820181600601908054610ae8906117fe565b610af392919061129f565b506007820181600701908054610b08906117fe565b610b1392919061129f565b506008820181600801908054610b28906117fe565b610b3392919061129f565b50600991820154910155600a8054906000610b4d83611839565b9091555060019998505050505050505050565b6000828152600b60205260408120548390610bbd5760405162461bcd60e51b815260206004820152601a60248201527f546869732063617465676f727920646f6e277420657869737473000000000000604482015260640161074c565b600e546040516370a0823160e01b8152336004820152849182916001600160a01b03909116906370a082319060240160206040518083038186803b158015610c0457600080fd5b505afa158015610c18573d6000803e3d6000fd5b505050506040513d601f19601f82011682018060405250810190610c3c919061153e565b11610c895760405162461bcd60e51b815260206004820152601d60248201527f596f7520646f6e2774206861766520746f6b656e7320746f20766f7465000000604482015260640161074c565b8360008111610ce55760405162461bcd60e51b815260206004820152602260248201527f596f75206d7573742073656e64206174206c6561737420312053414320546f6b60448201526132b760f11b606482015260840161074c565b600e546040516344edffbb60e01b8152336004820152602481018790526001600160a01b03909116906344edffbb90604401602060405180830381600087803b158015610d3157600080fd5b505af1158015610d45573d6000803e3d6000fd5b505050506040513d601f19601f82011682018060405250810190610d6991906113ec565b506000868152600c602052604081208054879290610d889084906117b8565b9091555050336000908152600d6020908152604080832089845290915281208054879290610db79084906117b8565b90915550506000868152600b60205260408120600901805491610dd983611839565b909155506001979650505050505050565b600b6020526000908152604090208054600182015460028301805492936001600160a01b0390921692610e1c906117fe565b80601f0160208091040260200160405190810160405280929190818152602001828054610e48906117fe565b8015610e955780601f10610e6a57610100808354040283529160200191610e95565b820191906000526020600020905b815481529060010190602001808311610e7857829003601f168201915b505050505090806003018054610eaa906117fe565b80601f0160208091040260200160405190810160405280929190818152602001828054610ed6906117fe565b8015610f235780601f10610ef857610100808354040283529160200191610f23565b820191906000526020600020905b815481529060010190602001808311610f0657829003601f168201915b505050505090806004018054610f38906117fe565b80601f0160208091040260200160405190810160405280929190818152602001828054610f64906117fe565b8015610fb15780601f10610f8657610100808354040283529160200191610fb1565b820191906000526020600020905b815481529060010190602001808311610f9457829003601f168201915b505050505090806005018054610fc6906117fe565b80601f0160208091040260200160405190810160405280929190818152602001828054610ff2906117fe565b801561103f5780601f106110145761010080835404028352916020019161103f565b820191906000526020600020905b81548152906001019060200180831161102257829003601f168201915b505050505090806006018054611054906117fe565b80601f0160208091040260200160405190810160405280929190818152602001828054611080906117fe565b80156110cd5780601f106110a2576101008083540402835291602001916110cd565b820191906000526020600020905b8154815290600101906020018083116110b057829003601f168201915b5050505050908060070180546110e2906117fe565b80601f016020809104026020016040519081016040528092919081815260200182805461110e906117fe565b801561115b5780601f106111305761010080835404028352916020019161115b565b820191906000526020600020905b81548152906001019060200180831161113e57829003601f168201915b505050505090806008018054611170906117fe565b80601f016020809104026020016040519081016040528092919081815260200182805461119c906117fe565b80156111e95780601f106111be576101008083540402835291602001916111e9565b820191906000526020600020905b8154815290600101906020018083116111cc57829003601f168201915b505050505090806009015490508a565b600080546001546002805492936001600160a01b0390921692610e1c906117fe565b828054611227906117fe565b90600052602060002090601f016020900481019282611249576000855561128f565b82601f1061126257805160ff191683800117855561128f565b8280016001018555821561128f579182015b8281111561128f578251825591602001919060010190611274565b5061129b92915061131a565b5090565b8280546112ab906117fe565b90600052602060002090601f0160209004810192826112cd576000855561128f565b82601f106112de578054855561128f565b8280016001018555821561128f57600052602060002091601f016020900482015b8281111561128f5782548255916001019190600101906112ff565b5b8082111561129b576000815560010161131b565b600082601f83011261133f578081fd5b813567ffffffffffffffff8082111561135a5761135a61186a565b604051601f8301601f19908116603f011681019082821181831017156113825761138261186a565b8160405283815286602085880101111561139a578485fd5b8360208701602083013792830160200193909352509392505050565b600080604083850312156113c8578182fd5b82356001600160a01b03811681146113de578283fd5b946020939093013593505050565b6000602082840312156113fd578081fd5b8151801515811461140c578182fd5b9392505050565b600080600080600080600060e0888a03121561142d578283fd5b873567ffffffffffffffff80821115611444578485fd5b6114508b838c0161132f565b985060208a0135915080821115611465578485fd5b6114718b838c0161132f565b975060408a0135915080821115611486578485fd5b6114928b838c0161132f565b965060608a01359150808211156114a7578485fd5b6114b38b838c0161132f565b955060808a01359150808211156114c8578485fd5b6114d48b838c0161132f565b945060a08a01359150808211156114e9578384fd5b6114f58b838c0161132f565b935060c08a013591508082111561150a578283fd5b506115178a828b0161132f565b91505092959891949750929550565b600060208284031215611537578081fd5b5035919050565b60006020828403121561154f578081fd5b5051919050565b60008060408385031215611568578182fd5b50508035926020909101359150565b60008151808452815b8181101561159c57602081850181015186830182015201611580565b818111156115ad5782602083870101525b50601f01601f19169290920160200192915050565b60208082528251828201819052600091906040908185019080840286018301878501865b838110156116ed57603f19898403018552815180518452878101516001600160a01b031688850152868101516101408886018190529061162882870182611577565b915050606080830151868303828801526116428382611577565b925050506080808301518683038288015261165d8382611577565b9250505060a080830151868303828801526116788382611577565b9250505060c080830151868303828801526116938382611577565b9250505060e080830151868303828801526116ae8382611577565b9250505061010080830151868303828801526116ca8382611577565b6101209485015197909401969096525050948701949250908601906001016115e6565b509098975050505050505050565b8a81526001600160a01b038a166020820152610140604082018190526000906117268382018c611577565b9050828103606084015261173a818b611577565b9050828103608084015261174e818a611577565b905082810360a08401526117628189611577565b905082810360c08401526117768188611577565b905082810360e084015261178a8187611577565b905082810361010084015261179f8186611577565b915050826101208301529b9a5050505050505050505050565b600082198211156117cb576117cb611854565b500190565b6000828210156117e2576117e2611854565b500390565b6000816117f6576117f6611854565b506000190190565b60028104600182168061181257607f821691505b6020821081141561183357634e487b7160e01b600052602260045260246000fd5b50919050565b600060001982141561184d5761184d611854565b5060010190565b634e487b7160e01b600052601160045260246000fd5b634e487b7160e01b600052604160045260246000fdfea26469706673582212208d1413f08119f38c3a5e67c7dc06a9f1eaa2e981190d3b5ee61f2baa3be5552264736f6c63430008020033",
  "immutableReferences": {},
  "source": "// SPDX-License-Identifier: GPL-3.0\npragma solidity >=0.7.0 <=0.9.0;\n\nimport \"./PoolPassiveInterface.sol\";\n\n/**\n * @author Sintrop\n * @title CategoryContract\n * @dev Category resource that is a part of Sintrop business\n */\ncontract CategoryContract {\n    enum isas {\n        TOTALLY_SUSTAINABLE,\n        PARTIAL_SUSTAINABLE,\n        NEUTRO,\n        PARTIAL_NOT_SUSTAINABLE,\n        TOTALLY_NOT_SUSTAINABLE\n    }\n\n    struct Category {\n        uint256 id;\n        address createdBy;\n        string name;\n        string description;\n        string totallySustainable;\n        string partiallySustainable;\n        string neutro;\n        string partiallyNotSustainable;\n        string totallyNotSustainable;\n        uint256 votesCount;\n    }\n    Category public category;\n    uint256 public categoryCounts;\n    mapping(uint256 => Category) public categories;\n    mapping(uint256 => uint256) public votes;\n    mapping(address => mapping(uint256 => uint256)) public voted;\n\n    PoolPassiveInterface internal isaPool;\n\n    constructor(address _isaPoolAddress) {\n        isaPool = PoolPassiveInterface(_isaPoolAddress);\n    }\n\n    /**\n     * @dev add a new category\n     * @param name the name of category\n     * @param description the description of category\n     * @param totallySustainable the description text to this metric\n     * @param partiallySustainable the description text to this metric\n     * @param neutro the description text to this metric\n     * @param partiallyNotSustainable the description text to this metric\n     * @param totallyNotSustainable the description text to this metric\n     * @return bool\n     */\n    function addCategory(\n        string memory name,\n        string memory description,\n        string memory totallySustainable,\n        string memory partiallySustainable,\n        string memory neutro,\n        string memory partiallyNotSustainable,\n        string memory totallyNotSustainable\n    ) public returns (bool) {\n        category = Category(\n            categoryCounts + 1,\n            msg.sender,\n            name,\n            description,\n            totallySustainable,\n            partiallySustainable,\n            neutro,\n            partiallyNotSustainable,\n            totallyNotSustainable,\n            0\n        );\n\n        categories[category.id] = category;\n        categoryCounts++;\n\n        return true;\n    }\n\n    /**\n     * @dev Returns all added categories\n     * @return category struc array\n     */\n    function getCategories() public view returns (Category[] memory) {\n        Category[] memory categoriesList = new Category[](categoryCounts);\n\n        for (uint256 i = 0; i < categoryCounts; i++) {\n            categoriesList[i] = categories[i + 1];\n        }\n\n        return categoriesList;\n    }\n\n    /**\n     * @dev Allow a user vote in a category sending tokens amount to this\n     * @param id the id of a category that receives a vote.\n     * @param tokens the tokens amount that the use want use to vote.\n     * @return boolean\n     */\n    function vote(uint256 id, uint256 tokens)\n        public\n        categoryMustExists(id)\n        mustHaveSacToken(tokens)\n        mustSendSomeSacToken(tokens)\n        returns (bool)\n    {\n        isaPool.transferWith(msg.sender, tokens);\n\n        votes[id] += tokens;\n        voted[msg.sender][id] += tokens;\n\n        categories[id].votesCount++;\n        return true;\n    }\n\n    /**\n     * @dev Allow a user unvote in a category and get your tokens again\n     * @param id the id of a category that receives a vote.\n     * @return uint256\n     */\n    function unvote(uint256 id)\n        public\n        categoryMustExists(id)\n        mustHaveVoted(id)\n        returns (uint256)\n    {\n        uint256 tokens = voted[msg.sender][id];\n\n        isaPool.approveWith(msg.sender, tokens);\n\n        votes[id] -= tokens;\n        voted[msg.sender][id] = 0;\n        categories[id].votesCount--;\n\n        return tokens;\n    }\n\n    // Modifiers\n    modifier categoryMustExists(uint256 id) {\n        require(categories[id].id > 0, \"This category don't exists\");\n        _;\n    }\n\n    modifier mustHaveSacToken(uint256 tokens) {\n        require(\n            isaPool.balanceOf(msg.sender) > tokens,\n            \"You don't have tokens to vote\"\n        );\n        _;\n    }\n\n    modifier mustSendSomeSacToken(uint256 tokens) {\n        require(tokens > 0, \"You must send at least 1 SAC Token\");\n        _;\n    }\n\n    modifier mustHaveVoted(uint256 id) {\n        require(voted[msg.sender][id] > 0, \"You don't voted to this category\");\n        _;\n    }\n}\n",
  "sourcePath": "/home/everson/Documents/projetos/sintrop/SAT-core-contracts/contracts/CategoryContract.sol",
  "compiler": {
    "name": "solc",
    "version": "0.8.2+commit.661d1103.Emscripten.clang"
  },
  "schemaVersion": "3.4.6",
  "updatedAt": "2022-04-02T18:06:16.832Z",
  "devdoc": {
    "author": "Sintrop",
    "details": "Category resource that is a part of Sintrop business",
    "kind": "dev",
    "methods": {
      "addCategory(string,string,string,string,string,string,string)": {
        "details": "add a new category",
        "params": {
          "description": "the description of category",
          "name": "the name of category",
          "neutro": "the description text to this metric",
          "partiallyNotSustainable": "the description text to this metric",
          "partiallySustainable": "the description text to this metric",
          "totallyNotSustainable": "the description text to this metric",
          "totallySustainable": "the description text to this metric"
        },
        "returns": {
          "_0": "bool"
        }
      },
      "getCategories()": {
        "details": "Returns all added categories",
        "returns": {
          "_0": "category struc array"
        }
      },
      "unvote(uint256)": {
        "details": "Allow a user unvote in a category and get your tokens again",
        "params": {
          "id": "the id of a category that receives a vote."
        },
        "returns": {
          "_0": "uint256"
        }
      },
      "vote(uint256,uint256)": {
        "details": "Allow a user vote in a category sending tokens amount to this",
        "params": {
          "id": "the id of a category that receives a vote.",
          "tokens": "the tokens amount that the use want use to vote."
        },
        "returns": {
          "_0": "boolean"
        }
      }
    },
    "title": "CategoryContract",
    "version": 1
  },
  "userdoc": {
    "kind": "user",
    "methods": {},
    "version": 1
  }
}