{
  "contractName": "CategoryContract",
  "abi": [
    {
      "constant": true,
      "inputs": [],
      "name": "categoryCounts",
      "outputs": [
        {
          "internalType": "uint256",
          "name": "",
          "type": "uint256"
        }
      ],
      "payable": false,
      "stateMutability": "view",
      "type": "function"
    },
    {
      "constant": true,
      "inputs": [],
      "name": "getCategories",
      "outputs": [
        {
          "components": [
            {
              "internalType": "address",
              "name": "createdBy",
              "type": "address"
            },
            {
              "internalType": "string",
              "name": "name",
              "type": "string"
            },
            {
              "internalType": "string",
              "name": "description",
              "type": "string"
            },
            {
              "internalType": "int16",
              "name": "votesCount",
              "type": "int16"
            }
          ],
          "internalType": "struct CategoryContract.Category[]",
          "name": "",
          "type": "tuple[]"
        }
      ],
      "payable": false,
      "stateMutability": "view",
      "type": "function"
    },
    {
      "constant": false,
      "inputs": [
        {
          "internalType": "string",
          "name": "name",
          "type": "string"
        },
        {
          "internalType": "string",
          "name": "description",
          "type": "string"
        }
      ],
      "name": "addCategory",
      "outputs": [
        {
          "internalType": "bool",
          "name": "",
          "type": "bool"
        }
      ],
      "payable": false,
      "stateMutability": "nonpayable",
      "type": "function"
    },
    {
      "constant": true,
      "inputs": [],
      "name": "getLastCategory",
      "outputs": [
        {
          "components": [
            {
              "internalType": "address",
              "name": "createdBy",
              "type": "address"
            },
            {
              "internalType": "string",
              "name": "name",
              "type": "string"
            },
            {
              "internalType": "string",
              "name": "description",
              "type": "string"
            },
            {
              "internalType": "int16",
              "name": "votesCount",
              "type": "int16"
            }
          ],
          "internalType": "struct CategoryContract.Category",
          "name": "",
          "type": "tuple"
        }
      ],
      "payable": false,
      "stateMutability": "view",
      "type": "function"
    },
    {
      "constant": false,
      "inputs": [
        {
          "internalType": "string",
          "name": "categoryName",
          "type": "string"
        }
      ],
      "name": "vote",
      "outputs": [
        {
          "internalType": "bool",
          "name": "",
          "type": "bool"
        }
      ],
      "payable": false,
      "stateMutability": "nonpayable",
      "type": "function"
    }
  ],
  "bytecode": "0x608060405234801561001057600080fd5b50610ffd806100206000396000f3fe608060405234801561001057600080fd5b50600436106100575760003560e01c80631bf703b21461005c5780634db0412c1461008c5780637333afcf146100aa5780638269df9b146100c8578063fc36e15b146100e6575b600080fd5b61007660048036036100719190810190610bac565b610116565b6040516100839190610e0c565b60405180910390f35b610094610336565b6040516100a19190610dea565b60405180910390f35b6100b261054c565b6040516100bf9190610e49565b60405180910390f35b6100d0610552565b6040516100dd9190610e27565b60405180910390f35b61010060048036036100fb9190810190610b6b565b610723565b60405161010d9190610e0c565b60405180910390f35b600060405180608001604052803373ffffffffffffffffffffffffffffffffffffffff168152602001848152602001838152602001600060010b8152506000808201518160000160006101000a81548173ffffffffffffffffffffffffffffffffffffffff021916908373ffffffffffffffffffffffffffffffffffffffff16021790555060208201518160010190805190602001906101b79291906109aa565b5060408201518160020190805190602001906101d49291906109aa565b5060608201518160030160006101000a81548161ffff021916908360010b61ffff16021790555090505060056000908060018154018082558091505090600182039060005260206000209060040201600090919290919091506000820160009054906101000a900473ffffffffffffffffffffffffffffffffffffffff168160000160006101000a81548173ffffffffffffffffffffffffffffffffffffffff021916908373ffffffffffffffffffffffffffffffffffffffff160217905550600182018160010190805460018160011615610100020316600290046102bb929190610a2a565b50600282018160020190805460018160011615610100020316600290046102e3929190610a2a565b506003820160009054906101000a900460010b8160030160006101000a81548161ffff021916908360010b61ffff1602179055505050506004600081548092919060010191905055506001905092915050565b60606005805480602002602001604051908101604052809291908181526020016000905b8282101561054357838290600052602060002090600402016040518060800160405290816000820160009054906101000a900473ffffffffffffffffffffffffffffffffffffffff1673ffffffffffffffffffffffffffffffffffffffff1673ffffffffffffffffffffffffffffffffffffffff168152602001600182018054600181600116156101000203166002900480601f01602080910402602001604051908101604052809291908181526020018280546001816001161561010002031660029004801561046c5780601f106104415761010080835404028352916020019161046c565b820191906000526020600020905b81548152906001019060200180831161044f57829003601f168201915b50505050508152602001600282018054600181600116156101000203166002900480601f01602080910402602001604051908101604052809291908181526020018280546001816001161561010002031660029004801561050e5780601f106104e35761010080835404028352916020019161050e565b820191906000526020600020905b8154815290600101906020018083116104f157829003601f168201915b505050505081526020016003820160009054906101000a900460010b60010b60010b815250508152602001906001019061035a565b50505050905090565b60045481565b61055a610ab1565b60006040518060800160405290816000820160009054906101000a900473ffffffffffffffffffffffffffffffffffffffff1673ffffffffffffffffffffffffffffffffffffffff1673ffffffffffffffffffffffffffffffffffffffff168152602001600182018054600181600116156101000203166002900480601f0160208091040260200160405190810160405280929190818152602001828054600181600116156101000203166002900480156106565780601f1061062b57610100808354040283529160200191610656565b820191906000526020600020905b81548152906001019060200180831161063957829003601f168201915b50505050508152602001600282018054600181600116156101000203166002900480601f0160208091040260200160405190810160405280929190818152602001828054600181600116156101000203166002900480156106f85780601f106106cd576101008083540402835291602001916106f8565b820191906000526020600020905b8154815290600101906020018083116106db57829003601f168201915b505050505081526020016003820160009054906101000a900460010b60010b60010b81525050905090565b600080600090505b6005805490508110156109a057610740610ab1565b6005828154811061074d57fe5b90600052602060002090600402016040518060800160405290816000820160009054906101000a900473ffffffffffffffffffffffffffffffffffffffff1673ffffffffffffffffffffffffffffffffffffffff1673ffffffffffffffffffffffffffffffffffffffff168152602001600182018054600181600116156101000203166002900480601f0160208091040260200160405190810160405280929190818152602001828054600181600116156101000203166002900480156108555780601f1061082a57610100808354040283529160200191610855565b820191906000526020600020905b81548152906001019060200180831161083857829003601f168201915b50505050508152602001600282018054600181600116156101000203166002900480601f0160208091040260200160405190810160405280929190818152602001828054600181600116156101000203166002900480156108f75780601f106108cc576101008083540402835291602001916108f7565b820191906000526020600020905b8154815290600101906020018083116108da57829003601f168201915b505050505081526020016003820160009054906101000a900460010b60010b60010b81525050905080602001518051906020012084805190602001201415610992576005828154811061094657fe5b9060005260206000209060040201600301600081819054906101000a900460010b8092919060010191906101000a81548161ffff021916908360010b61ffff16021790555050506109a0565b50808060010191505061072b565b5060019050919050565b828054600181600116156101000203166002900490600052602060002090601f016020900481019282601f106109eb57805160ff1916838001178555610a19565b82800160010185558215610a19579182015b82811115610a185782518255916020019190600101906109fd565b5b509050610a269190610af2565b5090565b828054600181600116156101000203166002900490600052602060002090601f016020900481019282601f10610a635780548555610aa0565b82800160010185558215610aa057600052602060002091601f016020900482015b82811115610a9f578254825591600101919060010190610a84565b5b509050610aad9190610af2565b5090565b6040518060800160405280600073ffffffffffffffffffffffffffffffffffffffff1681526020016060815260200160608152602001600060010b81525090565b610b1491905b80821115610b10576000816000905550600101610af8565b5090565b90565b600082601f830112610b2857600080fd5b8135610b3b610b3682610e91565b610e64565b91508082526020830160208301858383011115610b5757600080fd5b610b62838284610f67565b50505092915050565b600060208284031215610b7d57600080fd5b600082013567ffffffffffffffff811115610b9757600080fd5b610ba384828501610b17565b91505092915050565b60008060408385031215610bbf57600080fd5b600083013567ffffffffffffffff811115610bd957600080fd5b610be585828601610b17565b925050602083013567ffffffffffffffff811115610c0257600080fd5b610c0e85828601610b17565b9150509250929050565b6000610c248383610d71565b905092915050565b610c3581610f12565b82525050565b6000610c4682610ecd565b610c508185610ef0565b935083602082028501610c6285610ebd565b8060005b85811015610c9e5784840389528151610c7f8582610c18565b9450610c8a83610ee3565b925060208a01995050600181019050610c66565b50829750879550505050505092915050565b610cb981610f24565b82525050565b610cc881610f30565b82525050565b6000610cd982610ed8565b610ce38185610f01565b9350610cf3818560208601610f76565b610cfc81610fa9565b840191505092915050565b6000608083016000830151610d1f6000860182610c2c565b5060208301518482036020860152610d378282610cce565b91505060408301518482036040860152610d518282610cce565b9150506060830151610d666060860182610cbf565b508091505092915050565b6000608083016000830151610d896000860182610c2c565b5060208301518482036020860152610da18282610cce565b91505060408301518482036040860152610dbb8282610cce565b9150506060830151610dd06060860182610cbf565b508091505092915050565b610de481610f5d565b82525050565b60006020820190508181036000830152610e048184610c3b565b905092915050565b6000602082019050610e216000830184610cb0565b92915050565b60006020820190508181036000830152610e418184610d07565b905092915050565b6000602082019050610e5e6000830184610ddb565b92915050565b6000604051905081810181811067ffffffffffffffff82111715610e8757600080fd5b8060405250919050565b600067ffffffffffffffff821115610ea857600080fd5b601f19601f8301169050602081019050919050565b6000819050602082019050919050565b600081519050919050565b600081519050919050565b6000602082019050919050565b600082825260208201905092915050565b600082825260208201905092915050565b6000610f1d82610f3d565b9050919050565b60008115159050919050565b60008160010b9050919050565b600073ffffffffffffffffffffffffffffffffffffffff82169050919050565b6000819050919050565b82818337600083830152505050565b60005b83811015610f94578082015181840152602081019050610f79565b83811115610fa3576000848401525b50505050565b6000601f19601f830116905091905056fea365627a7a723158203f6eabc6d34632c26fd7e6dba7c43e28958d8d64c6787fde8768935dd9640deb6c6578706572696d656e74616cf564736f6c63430005100040",
  "source": "// SPDX-License-Identifier: GPL-3.0\n\npragma solidity >=0.5.0 <=0.9.0;\npragma experimental ABIEncoderV2;\n\ncontract CategoryContract {\n    struct Category {\n        address createdBy;\n        string name;\n        string description;\n        int16 votesCount;\n    }\n    Category category;\n    uint public categoryCounts;\n    Category[] categories;\n  \n    function getCategories() public view returns( Category[] memory) {\n        return categories;\n    }\n  \n    function addCategory(string memory name, string memory description) public returns(bool) {\n        category = Category(msg.sender, name, description, 0);\n        \n        categories.push(category);\n        categoryCounts++;\n        \n        return true;\n    }\n    \n    function getLastCategory() public view returns(Category memory) {\n        return category;\n    }\n    \n    function vote(string memory categoryName) public returns (bool) {\n        for (uint i = 0; i < categories.length; i++) {\n            Category memory categoryVoted = categories[i];\n            if (keccak256(bytes(categoryName)) == keccak256(bytes(categoryVoted.name))) {\n                categories[i].votesCount++;\n                break;\n            }\n        }\n        \n        return true;\n    }\n    \n    // modifier requireCategoryname(string memory name) {\n    //     require( bytes(name).length > 0);\n    //     _;\n    // };\n    // modifier requireUniqueCampaignName(string memory name) {\n    //     bool nameExists = true\n    //     require( !nameExists );\n    //     _;\n    // }\n}",
  "sourcePath": "/Users/andreravagnani/Desktop/Sintrop/Breno/Sintrop-Contract/contracts/CategoryContract.sol",
  "compiler": {
    "name": "solc",
    "version": "0.5.16+commit.9c3226ce.Emscripten.clang"
  },
  "schemaVersion": "3.4.1",
  "updatedAt": "2021-10-25T20:38:08.388Z",
  "networkType": "ethereum",
  "devdoc": {
    "methods": {}
  },
  "userdoc": {
    "methods": {}
  }
}