{
  "contractName": "CategoryContract",
  "abi": [
    {
      "inputs": [
        {
          "internalType": "uint256",
          "name": "",
          "type": "uint256"
        }
      ],
      "name": "categories",
      "outputs": [
        {
          "internalType": "uint256",
          "name": "id",
          "type": "uint256"
        },
        {
          "internalType": "address",
          "name": "createdBy",
          "type": "address"
        },
        {
          "internalType": "string",
          "name": "name",
          "type": "string"
        },
        {
          "internalType": "string",
          "name": "description",
          "type": "string"
        },
        {
          "internalType": "string",
          "name": "totallySustainable",
          "type": "string"
        },
        {
          "internalType": "string",
          "name": "partiallySustainable",
          "type": "string"
        },
        {
          "internalType": "string",
          "name": "neutro",
          "type": "string"
        },
        {
          "internalType": "string",
          "name": "partiallyNotSustainable",
          "type": "string"
        },
        {
          "internalType": "string",
          "name": "totallyNotSustainable",
          "type": "string"
        },
        {
          "internalType": "uint256",
          "name": "votesCount",
          "type": "uint256"
        },
        {
          "internalType": "uint256",
          "name": "index",
          "type": "uint256"
        }
      ],
      "stateMutability": "view",
      "type": "function"
    },
    {
      "inputs": [],
      "name": "category",
      "outputs": [
        {
          "internalType": "uint256",
          "name": "id",
          "type": "uint256"
        },
        {
          "internalType": "address",
          "name": "createdBy",
          "type": "address"
        },
        {
          "internalType": "string",
          "name": "name",
          "type": "string"
        },
        {
          "internalType": "string",
          "name": "description",
          "type": "string"
        },
        {
          "internalType": "string",
          "name": "totallySustainable",
          "type": "string"
        },
        {
          "internalType": "string",
          "name": "partiallySustainable",
          "type": "string"
        },
        {
          "internalType": "string",
          "name": "neutro",
          "type": "string"
        },
        {
          "internalType": "string",
          "name": "partiallyNotSustainable",
          "type": "string"
        },
        {
          "internalType": "string",
          "name": "totallyNotSustainable",
          "type": "string"
        },
        {
          "internalType": "uint256",
          "name": "votesCount",
          "type": "uint256"
        },
        {
          "internalType": "uint256",
          "name": "index",
          "type": "uint256"
        }
      ],
      "stateMutability": "view",
      "type": "function"
    },
    {
      "inputs": [],
      "name": "categoryCounts",
      "outputs": [
        {
          "internalType": "uint256",
          "name": "",
          "type": "uint256"
        }
      ],
      "stateMutability": "view",
      "type": "function"
    },
    {
      "inputs": [],
      "name": "getCategories",
      "outputs": [
        {
          "components": [
            {
              "internalType": "uint256",
              "name": "id",
              "type": "uint256"
            },
            {
              "internalType": "address",
              "name": "createdBy",
              "type": "address"
            },
            {
              "internalType": "string",
              "name": "name",
              "type": "string"
            },
            {
              "internalType": "string",
              "name": "description",
              "type": "string"
            },
            {
              "internalType": "string",
              "name": "totallySustainable",
              "type": "string"
            },
            {
              "internalType": "string",
              "name": "partiallySustainable",
              "type": "string"
            },
            {
              "internalType": "string",
              "name": "neutro",
              "type": "string"
            },
            {
              "internalType": "string",
              "name": "partiallyNotSustainable",
              "type": "string"
            },
            {
              "internalType": "string",
              "name": "totallyNotSustainable",
              "type": "string"
            },
            {
              "internalType": "uint256",
              "name": "votesCount",
              "type": "uint256"
            },
            {
              "internalType": "uint256",
              "name": "index",
              "type": "uint256"
            }
          ],
          "internalType": "struct CategoryContract.Category[]",
          "name": "",
          "type": "tuple[]"
        }
      ],
      "stateMutability": "view",
      "type": "function"
    },
    {
      "inputs": [
        {
          "internalType": "string",
          "name": "name",
          "type": "string"
        },
        {
          "internalType": "string",
          "name": "description",
          "type": "string"
        },
        {
          "internalType": "string",
          "name": "totallySustainable",
          "type": "string"
        },
        {
          "internalType": "string",
          "name": "partiallySustainable",
          "type": "string"
        },
        {
          "internalType": "string",
          "name": "neutro",
          "type": "string"
        },
        {
          "internalType": "string",
          "name": "partiallyNotSustainable",
          "type": "string"
        },
        {
          "internalType": "string",
          "name": "totallyNotSustainable",
          "type": "string"
        }
      ],
      "name": "addCategory",
      "outputs": [
        {
          "internalType": "bool",
          "name": "",
          "type": "bool"
        }
      ],
      "stateMutability": "nonpayable",
      "type": "function"
    },
    {
      "inputs": [
        {
          "internalType": "uint256",
          "name": "id",
          "type": "uint256"
        }
      ],
      "name": "vote",
      "outputs": [
        {
          "internalType": "bool",
          "name": "",
          "type": "bool"
        }
      ],
      "stateMutability": "nonpayable",
      "type": "function"
    }
  ],
  "bytecode": "0x608060405234801561001057600080fd5b506114eb806100206000396000f3fe608060405234801561001057600080fd5b50600436106100625760003560e01c80630121b93f146100675780634db0412c1461008f5780637333afcf146100a4578063a1c24d64146100bb578063c6cdbe5e146100ce578063ef430aa6146100f8575b600080fd5b61007a6100753660046111a5565b610100565b60405190151581526020015b60405180910390f35b6100976101e6565b6040516100869190611208565b6100ad600b5481565b604051908152602001610086565b61007a6100c9366004611092565b610678565b6100e16100dc3660046111a5565b610ac0565b6040516100869b9a9998979695949392919061134b565b6100e1610ed5565b6000818152600d602052604081205482906101615760405162461bcd60e51b815260206004820152601a60248201527f546869732063617465676f727920646f6e277420657869737473000000000000604482015260640160405180910390fd5b6000838152600d6020526040812060090180549161017e8361146e565b90915550506000838152600d60205260409020600a0154600c805490919081106101b857634e487b7160e01b600052603260045260246000fd5b6000918252602082206009600b90920201018054916101d68361146e565b9190505550600191505b50919050565b6060600c805480602002602001604051908101604052809291908181526020016000905b8282101561066f5760008481526020908190206040805161016081018252600b86029092018054835260018101546001600160a01b0316938301939093526002830180549293929184019161025e90611439565b80601f016020809104026020016040519081016040528092919081815260200182805461028a90611439565b80156102d75780601f106102ac576101008083540402835291602001916102d7565b820191906000526020600020905b8154815290600101906020018083116102ba57829003601f168201915b505050505081526020016003820180546102f090611439565b80601f016020809104026020016040519081016040528092919081815260200182805461031c90611439565b80156103695780601f1061033e57610100808354040283529160200191610369565b820191906000526020600020905b81548152906001019060200180831161034c57829003601f168201915b5050505050815260200160048201805461038290611439565b80601f01602080910402602001604051908101604052809291908181526020018280546103ae90611439565b80156103fb5780601f106103d0576101008083540402835291602001916103fb565b820191906000526020600020905b8154815290600101906020018083116103de57829003601f168201915b5050505050815260200160058201805461041490611439565b80601f016020809104026020016040519081016040528092919081815260200182805461044090611439565b801561048d5780601f106104625761010080835404028352916020019161048d565b820191906000526020600020905b81548152906001019060200180831161047057829003601f168201915b505050505081526020016006820180546104a690611439565b80601f01602080910402602001604051908101604052809291908181526020018280546104d290611439565b801561051f5780601f106104f45761010080835404028352916020019161051f565b820191906000526020600020905b81548152906001019060200180831161050257829003601f168201915b5050505050815260200160078201805461053890611439565b80601f016020809104026020016040519081016040528092919081815260200182805461056490611439565b80156105b15780601f10610586576101008083540402835291602001916105b1565b820191906000526020600020905b81548152906001019060200180831161059457829003601f168201915b505050505081526020016008820180546105ca90611439565b80601f01602080910402602001604051908101604052809291908181526020018280546105f690611439565b80156106435780601f1061061857610100808354040283529160200191610643565b820191906000526020600020905b81548152906001019060200180831161062657829003601f168201915b5050505050815260200160098201548152602001600a820154815250508152602001906001019061020a565b50505050905090565b600080600b54600161068a919061140a565b90506000610699600183611422565b60408051610160810182528481523360208083018290529282018e9052606082018d9052608082018c905260a082018b905260c082018a905260e082018990526101008201889052600061012083018190526101408301859052868155600180546001600160a01b0319169092179091558d5193945090929091610722916002918f0190610ef7565b506060820151805161073e916003840191602090910190610ef7565b506080820151805161075a916004840191602090910190610ef7565b5060a08201518051610776916005840191602090910190610ef7565b5060c08201518051610792916006840191602090910190610ef7565b5060e082015180516107ae916007840191602090910190610ef7565b5061010082015180516107cb916008840191602090910190610ef7565b50610120820151600982015561014090910151600a90910155600c80546001818101835560009283528254600b9092027fdf6966c971051c3d54ec59162606531493a51404a002842f56009d7e5cf4a8c7810192835590547fdf6966c971051c3d54ec59162606531493a51404a002842f56009d7e5cf4a8c8820180546001600160a01b0319166001600160a01b03909216919091179055600280547fdf6966c971051c3d54ec59162606531493a51404a002842f56009d7e5cf4a8c99092019161089590611439565b6108a0929190610f7b565b5060038201816003019080546108b590611439565b6108c0929190610f7b565b5060048201816004019080546108d590611439565b6108e0929190610f7b565b5060058201816005019080546108f590611439565b610900929190610f7b565b50600682018160060190805461091590611439565b610920929190610f7b565b50600782018160070190805461093590611439565b610940929190610f7b565b50600882018160080190805461095590611439565b610960929190610f7b565b5060098281015490820155600a918201549101556000828152600d60205260408120815481556001805490820180546001600160a01b0319166001600160a01b039092169190911790556002805481830191906109bc90611439565b6109c7929190610f7b565b5060038201816003019080546109dc90611439565b6109e7929190610f7b565b5060048201816004019080546109fc90611439565b610a07929190610f7b565b506005820181600501908054610a1c90611439565b610a27929190610f7b565b506006820181600601908054610a3c90611439565b610a47929190610f7b565b506007820181600701908054610a5c90611439565b610a67929190610f7b565b506008820181600801908054610a7c90611439565b610a87929190610f7b565b5060098281015490820155600a91820154910155600b8054906000610aab8361146e565b9091555060019b9a5050505050505050505050565b600d6020526000908152604090208054600182015460028301805492936001600160a01b0390921692610af290611439565b80601f0160208091040260200160405190810160405280929190818152602001828054610b1e90611439565b8015610b6b5780601f10610b4057610100808354040283529160200191610b6b565b820191906000526020600020905b815481529060010190602001808311610b4e57829003601f168201915b505050505090806003018054610b8090611439565b80601f0160208091040260200160405190810160405280929190818152602001828054610bac90611439565b8015610bf95780601f10610bce57610100808354040283529160200191610bf9565b820191906000526020600020905b815481529060010190602001808311610bdc57829003601f168201915b505050505090806004018054610c0e90611439565b80601f0160208091040260200160405190810160405280929190818152602001828054610c3a90611439565b8015610c875780601f10610c5c57610100808354040283529160200191610c87565b820191906000526020600020905b815481529060010190602001808311610c6a57829003601f168201915b505050505090806005018054610c9c90611439565b80601f0160208091040260200160405190810160405280929190818152602001828054610cc890611439565b8015610d155780601f10610cea57610100808354040283529160200191610d15565b820191906000526020600020905b815481529060010190602001808311610cf857829003601f168201915b505050505090806006018054610d2a90611439565b80601f0160208091040260200160405190810160405280929190818152602001828054610d5690611439565b8015610da35780601f10610d7857610100808354040283529160200191610da3565b820191906000526020600020905b815481529060010190602001808311610d8657829003601f168201915b505050505090806007018054610db890611439565b80601f0160208091040260200160405190810160405280929190818152602001828054610de490611439565b8015610e315780601f10610e0657610100808354040283529160200191610e31565b820191906000526020600020905b815481529060010190602001808311610e1457829003601f168201915b505050505090806008018054610e4690611439565b80601f0160208091040260200160405190810160405280929190818152602001828054610e7290611439565b8015610ebf5780601f10610e9457610100808354040283529160200191610ebf565b820191906000526020600020905b815481529060010190602001808311610ea257829003601f168201915b50505050509080600901549080600a015490508b565b600080546001546002805492936001600160a01b0390921692610af290611439565b828054610f0390611439565b90600052602060002090601f016020900481019282610f255760008555610f6b565b82601f10610f3e57805160ff1916838001178555610f6b565b82800160010185558215610f6b579182015b82811115610f6b578251825591602001919060010190610f50565b50610f77929150610ff6565b5090565b828054610f8790611439565b90600052602060002090601f016020900481019282610fa95760008555610f6b565b82601f10610fba5780548555610f6b565b82800160010185558215610f6b57600052602060002091601f016020900482015b82811115610f6b578254825591600101919060010190610fdb565b5b80821115610f775760008155600101610ff7565b600082601f83011261101b578081fd5b813567ffffffffffffffff808211156110365761103661149f565b604051601f8301601f19908116603f0116810190828211818310171561105e5761105e61149f565b81604052838152866020858801011115611076578485fd5b8360208701602083013792830160200193909352509392505050565b600080600080600080600060e0888a0312156110ac578283fd5b873567ffffffffffffffff808211156110c3578485fd5b6110cf8b838c0161100b565b985060208a01359150808211156110e4578485fd5b6110f08b838c0161100b565b975060408a0135915080821115611105578485fd5b6111118b838c0161100b565b965060608a0135915080821115611126578485fd5b6111328b838c0161100b565b955060808a0135915080821115611147578485fd5b6111538b838c0161100b565b945060a08a0135915080821115611168578384fd5b6111748b838c0161100b565b935060c08a0135915080821115611189578283fd5b506111968a828b0161100b565b91505092959891949750929550565b6000602082840312156111b6578081fd5b5035919050565b60008151808452815b818110156111e2576020818501810151868301820152016111c6565b818111156111f35782602083870101525b50601f01601f19169290920160200192915050565b60208082528251828201819052600091906040908185019080840286018301878501865b8381101561133d57603f19898403018552815180518452878101516001600160a01b031688850152868101516101608886018190529061126e828701826111bd565b9150506060808301518683038288015261128883826111bd565b92505050608080830151868303828801526112a383826111bd565b9250505060a080830151868303828801526112be83826111bd565b9250505060c080830151868303828801526112d983826111bd565b9250505060e080830151868303828801526112f483826111bd565b92505050610100808301518683038288015261131083826111bd565b6101208581015190890152610140948501519490970193909352505050938601939086019060010161122c565b509098975050505050505050565b8b81526001600160a01b038b16602082015260006101608060408401526113748184018d6111bd565b90508281036060840152611388818c6111bd565b9050828103608084015261139c818b6111bd565b905082810360a08401526113b0818a6111bd565b905082810360c08401526113c481896111bd565b905082810360e08401526113d881886111bd565b90508281036101008401526113ed81876111bd565b610120840195909552505061014001529998505050505050505050565b6000821982111561141d5761141d611489565b500190565b60008282101561143457611434611489565b500390565b60028104600182168061144d57607f821691505b602082108114156101e057634e487b7160e01b600052602260045260246000fd5b600060001982141561148257611482611489565b5060010190565b634e487b7160e01b600052601160045260246000fd5b634e487b7160e01b600052604160045260246000fdfea2646970667358221220b5edee76e94e58e57ca55b8b6667f83e38574d6a14ff97c3a1337af0afcbfcc964736f6c63430008020033",
  "immutableReferences": {},
  "source": "// SPDX-License-Identifier: GPL-3.0\npragma solidity >=0.7.0 <=0.9.0;\n\n\n   /**\n    * @title CategoryContract\n   * @dev Category resource that is a part of Sintrop business\n   */\ncontract CategoryContract {\n    enum isas { TOTALLY_SUSTAINABLE, PARTIAL_SUSTAINABLE, NEUTRO, PARTIAL_NOT_SUSTAINABLE, TOTALLY_NOT_SUSTAINABLE }\n       \n    struct Category {\n        uint256 id;\n        address createdBy;\n        string name;\n        string description;\n        string totallySustainable;\n        string partiallySustainable;\n        string neutro;\n        string partiallyNotSustainable;\n        string totallyNotSustainable;\n        uint votesCount;\n        uint index;\n    }\n    Category public category;\n    uint public categoryCounts;\n    Category[] categoriesList;\n    mapping(uint => Category) public categories;\n\n    \n    /**\n   * @dev Returns all added categories\n   * @return category struc array\n   */\n    function getCategories() public view returns(Category[] memory) {\n        return categoriesList;\n    }\n    \n    /**\n   * @dev add a new category\n   * @param name the name of category\n   * @param description the description of category\n   * @param totallySustainable the description text to this metric\n   * @param partiallySustainable the description text to this metric\n   * @param neutro the description text to this metric\n   * @param partiallyNotSustainable the description text to this metric\n   * @param totallyNotSustainable the description text to this metric\n   * @return bool\n   */\n    function addCategory(\n        string memory name, \n        string memory description, \n        string memory totallySustainable, \n        string memory partiallySustainable, \n        string memory neutro, \n        string memory partiallyNotSustainable, \n        string memory totallyNotSustainable) public returns(bool) {\n        uint256 id = categoryCounts + 1;\n        uint index = id - 1;\n        \n        category = Category(id, msg.sender, name, description, totallySustainable, partiallySustainable, neutro, partiallyNotSustainable, totallyNotSustainable, 0, index);\n        \n        categoriesList.push(category);\n        categories[id] = category;\n        categoryCounts++;\n        \n        return true;\n    }\n    \n    /**\n   * @dev Allow a user vote in a category\n   * @param id the id of a category that receives a vote.\n   * @return category struc array\n   */\n    function vote(uint id) categoryMustExists(id) public returns (bool) {\n        categories[id].votesCount++;\n        categoriesList[categories[id].index].votesCount++;\n        \n        return true;\n    }\n    \n    // Modifiers\n    modifier categoryMustExists(uint id) {\n        require(categories[id].id > 0, \"This category don't exists\");     \n        _;\n    }\n}",
  "sourcePath": "/home/everson/projetos/afiliart/SAT-core-contracts/contracts/CategoryContract.sol",
  "compiler": {
    "name": "solc",
    "version": "0.8.2+commit.661d1103.Emscripten.clang"
  },
  "schemaVersion": "3.4.4",
  "updatedAt": "2022-02-26T13:04:56.600Z",
  "devdoc": {
    "details": "Category resource that is a part of Sintrop business",
    "kind": "dev",
    "methods": {
      "addCategory(string,string,string,string,string,string,string)": {
        "details": "add a new category",
        "params": {
          "description": "the description of category",
          "name": "the name of category",
          "neutro": "the description text to this metric",
          "partiallyNotSustainable": "the description text to this metric",
          "partiallySustainable": "the description text to this metric",
          "totallyNotSustainable": "the description text to this metric",
          "totallySustainable": "the description text to this metric"
        },
        "returns": {
          "_0": "bool"
        }
      },
      "getCategories()": {
        "details": "Returns all added categories",
        "returns": {
          "_0": "category struc array"
        }
      },
      "vote(uint256)": {
        "details": "Allow a user vote in a category",
        "params": {
          "id": "the id of a category that receives a vote."
        },
        "returns": {
          "_0": "category struc array"
        }
      }
    },
    "title": "CategoryContract",
    "version": 1
  },
  "userdoc": {
    "kind": "user",
    "methods": {},
    "version": 1
  }
}