{
  "contractName": "DeveloperPool",
  "abi": [
    {
      "inputs": [
        {
          "internalType": "address",
          "name": "_satTokenAddress",
          "type": "address"
        },
        {
          "internalType": "uint256",
          "name": "_tokensPerEra",
          "type": "uint256"
        },
        {
          "internalType": "uint256",
          "name": "_blocksPerEra",
          "type": "uint256"
        },
        {
          "internalType": "uint256",
          "name": "_eraMax",
          "type": "uint256"
        }
      ],
      "stateMutability": "nonpayable",
      "type": "constructor"
    },
    {
      "anonymous": false,
      "inputs": [
        {
          "indexed": true,
          "internalType": "address",
          "name": "previousOwner",
          "type": "address"
        },
        {
          "indexed": true,
          "internalType": "address",
          "name": "newOwner",
          "type": "address"
        }
      ],
      "name": "OwnershipTransferred",
      "type": "event"
    },
    {
      "inputs": [],
      "name": "blocksPerEra",
      "outputs": [
        {
          "internalType": "uint256",
          "name": "",
          "type": "uint256"
        }
      ],
      "stateMutability": "view",
      "type": "function"
    },
    {
      "inputs": [],
      "name": "blocksPrecision",
      "outputs": [
        {
          "internalType": "uint256",
          "name": "",
          "type": "uint256"
        }
      ],
      "stateMutability": "view",
      "type": "function"
    },
    {
      "inputs": [],
      "name": "deployedAt",
      "outputs": [
        {
          "internalType": "uint256",
          "name": "",
          "type": "uint256"
        }
      ],
      "stateMutability": "view",
      "type": "function"
    },
    {
      "inputs": [],
      "name": "developersCount",
      "outputs": [
        {
          "internalType": "uint256",
          "name": "",
          "type": "uint256"
        }
      ],
      "stateMutability": "view",
      "type": "function"
    },
    {
      "inputs": [],
      "name": "eraMax",
      "outputs": [
        {
          "internalType": "uint256",
          "name": "",
          "type": "uint256"
        }
      ],
      "stateMutability": "view",
      "type": "function"
    },
    {
      "inputs": [
        {
          "internalType": "uint256",
          "name": "",
          "type": "uint256"
        }
      ],
      "name": "eras",
      "outputs": [
        {
          "internalType": "uint256",
          "name": "era",
          "type": "uint256"
        },
        {
          "internalType": "uint256",
          "name": "tokens",
          "type": "uint256"
        },
        {
          "internalType": "uint256",
          "name": "developers",
          "type": "uint256"
        }
      ],
      "stateMutability": "view",
      "type": "function"
    },
    {
      "inputs": [
        {
          "internalType": "uint256",
          "name": "",
          "type": "uint256"
        }
      ],
      "name": "levelsSumPerEra",
      "outputs": [
        {
          "internalType": "uint256",
          "name": "",
          "type": "uint256"
        }
      ],
      "stateMutability": "view",
      "type": "function"
    },
    {
      "inputs": [],
      "name": "owner",
      "outputs": [
        {
          "internalType": "address",
          "name": "",
          "type": "address"
        }
      ],
      "stateMutability": "view",
      "type": "function"
    },
    {
      "inputs": [],
      "name": "renounceOwnership",
      "outputs": [],
      "stateMutability": "nonpayable",
      "type": "function"
    },
    {
      "inputs": [],
      "name": "tokensPerEra",
      "outputs": [
        {
          "internalType": "uint256",
          "name": "",
          "type": "uint256"
        }
      ],
      "stateMutability": "view",
      "type": "function"
    },
    {
      "inputs": [
        {
          "internalType": "address",
          "name": "newOwner",
          "type": "address"
        }
      ],
      "name": "transferOwnership",
      "outputs": [],
      "stateMutability": "nonpayable",
      "type": "function"
    },
    {
      "inputs": [
        {
          "internalType": "address",
          "name": "_address",
          "type": "address"
        }
      ],
      "name": "getDeveloper",
      "outputs": [
        {
          "components": [
            {
              "internalType": "address",
              "name": "_address",
              "type": "address"
            },
            {
              "internalType": "uint256",
              "name": "level",
              "type": "uint256"
            },
            {
              "internalType": "uint256",
              "name": "currentEra",
              "type": "uint256"
            },
            {
              "internalType": "uint256",
              "name": "createdAt",
              "type": "uint256"
            }
          ],
          "internalType": "struct DeveloperPool.Developer",
          "name": "",
          "type": "tuple"
        }
      ],
      "stateMutability": "view",
      "type": "function"
    },
    {
      "inputs": [],
      "name": "getDevelopersAddress",
      "outputs": [
        {
          "internalType": "address[]",
          "name": "",
          "type": "address[]"
        }
      ],
      "stateMutability": "view",
      "type": "function"
    },
    {
      "inputs": [
        {
          "internalType": "address",
          "name": "_address",
          "type": "address"
        }
      ],
      "name": "addDeveloper",
      "outputs": [],
      "stateMutability": "nonpayable",
      "type": "function"
    },
    {
      "inputs": [],
      "name": "currentContractEra",
      "outputs": [
        {
          "internalType": "uint256",
          "name": "",
          "type": "uint256"
        }
      ],
      "stateMutability": "view",
      "type": "function"
    },
    {
      "inputs": [
        {
          "internalType": "address",
          "name": "_address",
          "type": "address"
        }
      ],
      "name": "addLevel",
      "outputs": [],
      "stateMutability": "nonpayable",
      "type": "function"
    },
    {
      "inputs": [
        {
          "internalType": "address",
          "name": "_address",
          "type": "address"
        }
      ],
      "name": "undoLevel",
      "outputs": [],
      "stateMutability": "nonpayable",
      "type": "function"
    },
    {
      "inputs": [],
      "name": "approve",
      "outputs": [
        {
          "internalType": "bool",
          "name": "",
          "type": "bool"
        }
      ],
      "stateMutability": "nonpayable",
      "type": "function"
    },
    {
      "inputs": [],
      "name": "withDraw",
      "outputs": [
        {
          "internalType": "bool",
          "name": "",
          "type": "bool"
        }
      ],
      "stateMutability": "nonpayable",
      "type": "function"
    },
    {
      "inputs": [],
      "name": "allowance",
      "outputs": [
        {
          "internalType": "uint256",
          "name": "",
          "type": "uint256"
        }
      ],
      "stateMutability": "view",
      "type": "function"
    },
    {
      "inputs": [],
      "name": "nextApproveTime",
      "outputs": [
        {
          "internalType": "int256",
          "name": "",
          "type": "int256"
        }
      ],
      "stateMutability": "view",
      "type": "function"
    },
    {
      "inputs": [],
      "name": "canApproveTimes",
      "outputs": [
        {
          "internalType": "uint256",
          "name": "",
          "type": "uint256"
        }
      ],
      "stateMutability": "view",
      "type": "function"
    }
  ],
  "bytecode": "0x60806040523480156200001157600080fd5b50604051620015c6380380620015c683398101604081905262000034916200017d565b6200003f336200009a565b600480546001600160a01b0319166001600160a01b038616179055620000624390565b6018556200008583670de0b6b3a7640000620000ea602090811b620009e817901c565b601955601a91909155601b5550620002159050565b600080546001600160a01b038381166001600160a01b0319831681178455604051919092169283917f8be0079c531659141344cd1fd0a4f28419497f9722a3daafe3b4186f6b6457e09190a35050565b600082620000fb5750600062000177565b6000620001098385620001e9565b905082620001188583620001c8565b14620001745760405162461bcd60e51b815260206004820152602160248201527f536166654d6174683a206d756c7469706c69636174696f6e206f766572666c6f6044820152607760f81b606482015260840160405180910390fd5b90505b92915050565b6000806000806080858703121562000193578384fd5b84516001600160a01b0381168114620001aa578485fd5b60208601516040870151606090970151919890975090945092505050565b600082620001e457634e487b7160e01b81526012600452602481fd5b500490565b60008160001904831182151516156200021057634e487b7160e01b81526011600452602481fd5b500290565b6113a180620002256000396000f3fe608060405234801561001057600080fd5b50600436106101425760003560e01c80638ff9b8ac116100b8578063d32ae64b1161007c578063d32ae64b146102b7578063de242ff4146102cc578063eae4c19f146102d4578063ed0df79e146102dd578063f1272b6a146102e5578063f2fde38b146102ed57610142565b80638ff9b8ac1461027757806393fd498c1461028a57806396831f6c14610292578063b4897e171461029b578063c3cca0cc146102a457610142565b806322fbf1e81161010a57806322fbf1e81461019e57806367e13ee0146101b3578063715018a614610202578063720a70bd1461020a578063757dbe2b146102535780638da5cb5b1461025c57610142565b80630fd07d98146101475780630fdb1c101461016357806311d64d4a1461017b57806312424e3f1461018e5780631f652c2314610196575b600080fd5b610150601a5481565b6040519081526020015b60405180910390f35b61016b610300565b604051901515815260200161015a565b610150610189366004610f96565b6103ae565b61016b6103c5565b6101506104fb565b6101b16101ac366004610f4f565b61054c565b005b6101c66101c1366004610f4f565b610672565b60405161015a919081516001600160a01b0316815260208083015190820152604080830151908201526060918201519181019190915260800190565b6101b16106f3565b610238610218366004610f96565b600260208190526000918252604090912080546001820154919092015483565b6040805193845260208401929092529082015260600161015a565b61015060195481565b6000546040516001600160a01b03909116815260200161015a565b6101b1610285366004610f4f565b610729565b610150600581565b610150601b5481565b61015060055481565b6101b16102b2366004610f4f565b61078c565b6102bf610801565b60405161015a9190610fc6565b610150610863565b61015060185481565b6101506108ef565b610150610915565b6101b16102fb366004610f4f565b61094d565b6004546000906001600160a01b03166323b872dd303361031e610863565b6040516001600160e01b031960e086901b1681526001600160a01b0393841660048201529290911660248301526044820152606401602060405180830381600087803b15801561036d57600080fd5b505af1158015610381573d6000803e3d6000fd5b505050506040513d601f19601f820116820180604052508101906103a59190610f76565b50600190505b90565b600681601281106103be57600080fd5b0154905081565b60006103cf610a70565b6104195760405162461bcd60e51b8152602060048201526016602482015275165bdd4818d85b89dd081dda5d1a191c985dc81e595d60521b60448201526064015b60405180910390fd5b600061042433610672565b9050600061043a82602001518360400151610ab9565b600480546040516333ff8bd360e11b81523392810192909252602482018390529192506001600160a01b03909116906367ff17a690604401602060405180830381600087803b15801561048c57600080fd5b505af11580156104a0573d6000803e3d6000fd5b505050506040513d601f19601f820116820180604052508101906104c49190610fae565b506104d3826040015182610b1a565b6104db610bb0565b6104e3610a70565b156104f2576104f06103c5565b505b60019250505090565b600080610506610915565b9050600081131561051b5760009150506103ab565b601a54610546906105406105316005600a61115a565b61053a8561133b565b906109e8565b90610bd5565b91505090565b6000546001600160a01b031633146105765760405162461bcd60e51b815260040161041090611066565b60006105806108ef565b90506040518060800160405280836001600160a01b03168152602001600181526020018281526020016105b04290565b90526001600160a01b03838116600090815260016020818152604092839020855181546001600160a01b031916951694909417845584015190830155820151600282015560609091015160039091015561060981610c17565b6005805490600061061983611320565b9091555050600380546001810182556000919091527fc2575a0e9e593c00f959f8c92f12db2869c3395a3b0502d05e2516446f71f85b0180546001600160a01b0319166001600160a01b03939093169290921790915550565b6106a6604051806080016040528060006001600160a01b031681526020016000815260200160008152602001600081525090565b506001600160a01b03908116600090815260016020818152604092839020835160808101855281549095168552918201549084015260028101549183019190915260030154606082015290565b6000546001600160a01b0316331461071d5760405162461bcd60e51b815260040161041090611066565b6107276000610cc2565b565b6000546001600160a01b031633146107535760405162461bcd60e51b815260040161041090611066565b600061075e82610672565b905061076e816040015182610d12565b506001600160a01b0316600090815260016020819052604082200155565b6000546001600160a01b031633146107b65760405162461bcd60e51b815260040161041090611066565b60006107c182610672565b6001600160a01b03831660009081526001602081905260408220018054929350906107eb83611320565b91905055506107fd8160400151610c17565b5050565b6060600380548060200260200160405190810160405280929190818152602001828054801561085957602002820191906000526020600020905b81546001600160a01b0316815260019091019060200180831161083b575b5050505050905090565b60048054604051636eb1769f60e11b815230928101929092523360248301526000916001600160a01b039091169063dd62ed3e9060440160206040518083038186803b1580156108b257600080fd5b505afa1580156108c6573d6000803e3d6000fd5b505050506040513d601f19601f820116820180604052508101906108ea9190610fae565b905090565b60006108ea600161090f601a546105406018546109094390565b90610dc4565b90610e06565b60008061092133610672565b9050438160400151601a546109369190611228565b601854610943919061109b565b61054691906112ca565b6000546001600160a01b031633146109775760405162461bcd60e51b815260040161041090611066565b6001600160a01b0381166109dc5760405162461bcd60e51b815260206004820152602660248201527f4f776e61626c653a206e6577206f776e657220697320746865207a65726f206160448201526564647265737360d01b6064820152608401610410565b6109e581610cc2565b50565b6000826109f757506000610a6a565b6000610a0383856112ab565b905082610a1085836110f4565b14610a675760405162461bcd60e51b815260206004820152602160248201527f536166654d6174683a206d756c7469706c69636174696f6e206f766572666c6f6044820152607760f81b6064820152608401610410565b90505b92915050565b600080610a7c33610672565b9050806020015160001415610a955760009150506103ab565b610aa3438260400151610e65565b801561054657506040810151601b541015610546565b6000806006610ac9600185611309565b60128110610ae757634e487b7160e01b600052603260045260246000fd5b0154905080610afa576000915050610a6a565b601954610b1290610b0b9083610bd5565b85906109e8565b949350505050565b60006001905060006040518060600160405280858152602001610b5c600260008881526020019081526020016000206001015486610e0690919063ffffffff16565b815260008681526002602081815260409092200154910190610b7f908590610e06565b9052600094855260026020818152604096879020835181559083015160018201559590910151940193909355505050565b336000908152600160205260408120600201805491610bce83611320565b9190505550565b6000610a6783836040518060400160405280601a81526020017f536166654d6174683a206469766973696f6e206279207a65726f000000000000815250610e92565b6040805161024081019182905260009160069060129082845b815481526020019060010190808311610c30575050601b5493945060009250610c5e91506001905085611309565b90505b81811015610cae57828160128110610c8957634e487b7160e01b600052603260045260246000fd5b60200201805190610c9982611320565b90525080610ca681611320565b915050610c61565b50610cbc6006836012610efc565b50505050565b600080546001600160a01b038381166001600160a01b0319831681178455604051919092169283917f8be0079c531659141344cd1fd0a4f28419497f9722a3daafe3b4186f6b6457e09190a35050565b6040805161024081019182905260009160069060129082845b815481526020019060010190808311610d2b575050601b5493945060009250610d5991506001905086611309565b90505b81811015610daf578360200151838260128110610d8957634e487b7160e01b600052603260045260246000fd5b60200201818151610d9a9190611309565b90525080610da781611320565b915050610d5c565b50610dbd6006836012610efc565b5050505050565b6000610a6783836040518060400160405280601e81526020017f536166654d6174683a207375627472616374696f6e206f766572666c6f770000815250610ecb565b600080610e1383856110dc565b905083811015610a675760405162461bcd60e51b815260206004820152601b60248201527f536166654d6174683a206164646974696f6e206f766572666c6f7700000000006044820152606401610410565b600082610e89610e8084601a546109e890919063ffffffff16565b60185490610e06565b11159392505050565b60008183610eb35760405162461bcd60e51b81526004016104109190611013565b506000610ec084866110f4565b9150505b9392505050565b60008184841115610eef5760405162461bcd60e51b81526004016104109190611013565b506000610ec08486611309565b8260128101928215610f2a579160200282015b82811115610f2a578251825591602001919060010190610f0f565b50610f36929150610f3a565b5090565b5b80821115610f365760008155600101610f3b565b600060208284031215610f60578081fd5b81356001600160a01b0381168114610a67578182fd5b600060208284031215610f87578081fd5b81518015158114610a67578182fd5b600060208284031215610fa7578081fd5b5035919050565b600060208284031215610fbf578081fd5b5051919050565b6020808252825182820181905260009190848201906040850190845b818110156110075783516001600160a01b031683529284019291840191600101610fe2565b50909695505050505050565b6000602080835283518082850152825b8181101561103f57858101830151858201604001528201611023565b818111156110505783604083870101525b50601f01601f1916929092016040019392505050565b6020808252818101527f4f776e61626c653a2063616c6c6572206973206e6f7420746865206f776e6572604082015260600190565b600080821280156001600160ff1b03849003851316156110bd576110bd611355565b600160ff1b83900384128116156110d6576110d6611355565b50500190565b600082198211156110ef576110ef611355565b500190565b60008261110f57634e487b7160e01b81526012600452602481fd5b500490565b80825b60018086116111265750611151565b81870482111561113857611138611355565b8086161561114557918102915b9490941c938002611117565b94509492505050565b6000610a67600019848460008261117357506001610ec4565b8161118057506000610ec4565b816001811461119657600281146111a0576111cd565b6001915050610ec4565b60ff8411156111b1576111b1611355565b6001841b9150848211156111c7576111c7611355565b50610ec4565b5060208310610133831016604e8410600b8410161715611200575081810a838111156111fb576111fb611355565b610ec4565b61120d8484846001611114565b80860482111561121f5761121f611355565b02949350505050565b60006001600160ff1b038184138284138082168684048611161561124e5761124e611355565b600160ff1b8487128281168783058912161561126c5761126c611355565b85871292508782058712848416161561128757611287611355565b8785058712818416161561129d5761129d611355565b505050929093029392505050565b60008160001904831182151516156112c5576112c5611355565b500290565b60008083128015600160ff1b8501841216156112e8576112e8611355565b6001600160ff1b038401831381161561130357611303611355565b50500390565b60008282101561131b5761131b611355565b500390565b600060001982141561133457611334611355565b5060010190565b6000600160ff1b82141561135157611351611355565b0390565b634e487b7160e01b600052601160045260246000fdfea2646970667358221220b28806ed4cc7d8f25e81b5f83ac48ba38b02180a1222fe0f10ba75adb839419064736f6c63430008020033",
  "immutableReferences": {},
  "source": "// SPDX-License-Identifier: GPL-3.0\npragma solidity >=0.7.0 <=0.9.0;\n\nimport \"./PoolInterface.sol\";\n\nimport \"./SatTokenInterface.sol\";\nimport \"@openzeppelin/contracts/access/Ownable.sol\";\n\nimport \"./SafeMath.sol\";\n\n/**\n * @author Everson B. Silva\n * @title DeveloperContract\n * @dev DeveloperPool is a contract to reward developers\n */\ncontract DeveloperPool is Ownable, PoolInterface {\n    using SafeMath for uint256;\n\n    struct Developer {\n        address _address;\n        uint256 level;\n        uint256 currentEra;\n        uint256 createdAt;\n    }\n\n    struct Era {\n        uint256 era;\n        uint256 tokens;\n        uint256 developers;\n    }\n\n    mapping(address => Developer) internal developers;\n    mapping(uint256 => Era) public eras;\n\n    address[] internal developersAddress;\n\n    SatTokenInterface internal satToken;\n\n    uint256 public developersCount;\n\n    uint256[18] public levelsSumPerEra;\n\n    uint256 public deployedAt;\n\n    uint256 public tokensPerEra;\n\n    uint256 public blocksPerEra;\n\n    uint256 public eraMax;\n\n    uint256 public constant blocksPrecision = 5;\n\n    constructor(\n        address _satTokenAddress,\n        uint256 _tokensPerEra,\n        uint256 _blocksPerEra,\n        uint256 _eraMax\n    ) {\n        satToken = SatTokenInterface(_satTokenAddress);\n        deployedAt = currentBlockNumber();\n        tokensPerEra = _tokensPerEra.mul(10**18);\n        blocksPerEra = _blocksPerEra;\n        eraMax = _eraMax;\n    }\n\n    /**\n     * @dev Return a specific developer\n     * @param _address the address of the developer\n     */\n    function getDeveloper(address _address)\n        public\n        view\n        returns (Developer memory)\n    {\n        return developers[_address];\n    }\n\n    /**\n     * @dev Return the developers address of the system\n     */\n    function getDevelopersAddress() public view returns (address[] memory) {\n        return developersAddress;\n    }\n\n    /**\n     * @dev Add a new develop to the pool\n     * @param _address the address of the developer\n     */\n    function addDeveloper(address _address) public onlyOwner {\n        uint256 _currentEra = currentContractEra();\n        developers[_address] = Developer(_address, 1, _currentEra, timestamp());\n        upLevels(_currentEra);\n        developersCount++;\n        developersAddress.push(_address);\n    }\n\n    /**\n     * @dev Increment the levels + 1 per era always that a developer is added or the level is up\n     * @param _fromEra the era of developer\n     */\n    function upLevels(uint256 _fromEra) internal {\n        uint256[18] memory _levels = levelsSumPerEra;\n        uint256 _eraMax = eraMax;\n\n        for (uint256 i = _fromEra - 1; i < _eraMax; i++) {\n            _levels[i]++;\n        }\n\n        levelsSumPerEra = _levels;\n    }\n\n    /**\n     * @dev Decrement the levels of the undo developer\n     * @param _fromEra the era of developer\n     */\n    function downLevels(uint256 _fromEra, Developer memory developer) internal {\n        uint256[18] memory _levels = levelsSumPerEra;\n        uint256 _eraMax = eraMax;\n\n        for (uint256 i = _fromEra - 1; i < _eraMax; i++) {\n            _levels[i] -= developer.level;\n        }\n\n        levelsSumPerEra = _levels;\n    }\n\n    /**\n     * @dev Return the current era of the contract\n     */\n    function currentContractEra() public view returns (uint256) {\n        return currentBlockNumber().sub(deployedAt).div(blocksPerEra).add(1);\n    }\n\n    /**\n     * @dev Increment the level of the develop\n     * @param _address the address of the developer\n     */\n    function addLevel(address _address) public onlyOwner {\n        Developer memory developer = getDeveloper(_address);\n\n        developers[_address].level++;\n        upLevels(developer.currentEra);\n    }\n\n    /**\n     * @dev Set to zero the level of the develop\n     * @param _address the address of the developer\n     */\n    function undoLevel(address _address) public onlyOwner {\n        Developer memory developer = getDeveloper(_address);\n        downLevels(developer.currentEra, developer);\n        developers[_address].level = 0;\n    }\n\n    /**\n     * @dev Allow the developer to approve tokens from DeveloperPool address. DeveloperPool address must have tokens in SAT TOKEN\n     * TODO Check external code call - EXTCALL\n     */\n    function approve() public override returns (bool) {\n        require(canApprove(), \"You can't withdraw yet\");\n\n        Developer memory developer = getDeveloper(msg.sender);\n\n        uint256 tokens = calcTokens(developer.level, developer.currentEra);\n\n        satToken.approveWith(msg.sender, tokens);\n\n        setEraMetrics(developer.currentEra, tokens);\n\n        developerNextEra();\n\n        if (canApprove()) approve();\n\n        return true;\n    }\n\n    /**\n     * @dev Add metrics actions to eras. The metrics are numbers of tokens and developers.\n     * @param _era The current era that the develop approve() tokens\n     * @param _tokens How much tokens the win to this era\n     */\n    function setEraMetrics(uint256 _era, uint256 _tokens) internal {\n        uint256 oneDev = 1;\n        Era memory newEra = Era(\n            _era,\n            _tokens.add(eras[_era].tokens),\n            oneDev.add(eras[_era].developers)\n        );\n        eras[_era] = newEra;\n    }\n\n    /**\n     * @dev Allow the dev withdraw tokens from DeveloperPool address to his address\n     * TODO Check external code call - EXTCALL\n     */\n    function withDraw() public override returns (bool) {\n        satToken.transferFrom(address(this), msg.sender, allowance());\n        return true;\n    }\n\n    /**\n     * @dev Show how much tokens the developer can withdraw from DeveloperPool address\n     * TODO Check external code call - EXTCALL\n     */\n    function allowance() public view override returns (uint256) {\n        return satToken.allowance(address(this), msg.sender);\n    }\n\n    /**\n     * @dev Check if the developer can approve tokens\n     */\n    function canApprove() internal view returns (bool) {\n        Developer memory developer = getDeveloper(msg.sender);\n\n        if (developer.level == 0) return false;\n\n        return\n            canApproveFromPresent(currentBlockNumber(), developer.currentEra) &&\n            eraLimit(developer.currentEra);\n    }\n\n    /**\n     * @dev Check if the limit of eras is the maximum. The state eraMax is the limit\n     */\n    function eraLimit(uint256 _currentEra) internal view returns (bool) {\n        return _currentEra <= eraMax;\n    }\n\n    /**\n     * @dev Check if the developer can approve. This funcion check the initial block deploy with the current block\n     */\n    function canApproveFromPresent(uint256 _currentBlock, uint256 _currentEra)\n        internal\n        view\n        returns (bool)\n    {\n        return deployedAt.add(blocksPerEra.mul(_currentEra)) <= _currentBlock;\n    }\n\n    /**\n     * @dev Increment a new era to a developer. This funcions called when the developer approve tokens\n     */\n    function developerNextEra() internal {\n        developers[msg.sender].currentEra++;\n    }\n\n    /**\n     * @dev Calc how much tokens the dev can approve in some era\n     * @param _level The level of the developer\n     * @param _era Era to calc in\n     */\n    function calcTokens(uint256 _level, uint256 _era)\n        internal\n        view\n        returns (uint256)\n    {\n        uint256 _levelsSum = levelsSumPerEra[_era - 1];\n        if (_levelsSum == 0) return 0;\n        return _level.mul((tokensPerEra.div(_levelsSum)));\n    }\n\n    /**\n     * @dev Show how much block missing to approve new tokens\n     */\n    function nextApproveTime() public view returns (int256) {\n        Developer memory developer = getDeveloper(msg.sender);\n        return\n            int256(deployedAt) +\n            (int256(blocksPerEra) * int256(developer.currentEra)) -\n            int256(currentBlockNumber());\n    }\n\n    /**\n     * @dev Show how much times the developer can approve tokens. How much eras passed.\n     * @return A uint with precision of blocksPrecision state. The real return can be get by return/blocksPrecision and Math.ceil\n     */\n    function canApproveTimes() public view returns (uint256) {\n        int256 approvesTimes = nextApproveTime();\n        if (approvesTimes > 0) return 0;\n\n        return\n            uint256(-approvesTimes).mul(10**blocksPrecision).div(blocksPerEra);\n    }\n\n    /**\n     * @dev Returns the timestamp\n     */\n    function timestamp() internal view returns (uint256) {\n        return block.timestamp;\n    }\n\n    /**\n     * @dev Returns the current block number\n     */\n    function currentBlockNumber() internal view returns (uint256) {\n        return block.number;\n    }\n}\n",
  "sourcePath": "/home/everson/Documents/projetos/sintrop/SAT-core-contracts/contracts/DeveloperPool.sol",
  "compiler": {
    "name": "solc",
    "version": "0.8.2+commit.661d1103.Emscripten.clang"
  },
  "schemaVersion": "3.4.6",
  "updatedAt": "2022-04-02T18:06:16.841Z",
  "devdoc": {
    "author": "Everson B. Silva",
    "details": "DeveloperPool is a contract to reward developers",
    "kind": "dev",
    "methods": {
      "addDeveloper(address)": {
        "details": "Add a new develop to the pool",
        "params": {
          "_address": "the address of the developer"
        }
      },
      "addLevel(address)": {
        "details": "Increment the level of the develop",
        "params": {
          "_address": "the address of the developer"
        }
      },
      "allowance()": {
        "details": "Show how much tokens the developer can withdraw from DeveloperPool address TODO Check external code call - EXTCALL"
      },
      "approve()": {
        "details": "Allow the developer to approve tokens from DeveloperPool address. DeveloperPool address must have tokens in SAT TOKEN TODO Check external code call - EXTCALL"
      },
      "canApproveTimes()": {
        "details": "Show how much times the developer can approve tokens. How much eras passed.",
        "returns": {
          "_0": "A uint with precision of blocksPrecision state. The real return can be get by return/blocksPrecision and Math.ceil"
        }
      },
      "currentContractEra()": {
        "details": "Return the current era of the contract"
      },
      "getDeveloper(address)": {
        "details": "Return a specific developer",
        "params": {
          "_address": "the address of the developer"
        }
      },
      "getDevelopersAddress()": {
        "details": "Return the developers address of the system"
      },
      "nextApproveTime()": {
        "details": "Show how much block missing to approve new tokens"
      },
      "owner()": {
        "details": "Returns the address of the current owner."
      },
      "renounceOwnership()": {
        "details": "Leaves the contract without owner. It will not be possible to call `onlyOwner` functions anymore. Can only be called by the current owner. NOTE: Renouncing ownership will leave the contract without an owner, thereby removing any functionality that is only available to the owner."
      },
      "transferOwnership(address)": {
        "details": "Transfers ownership of the contract to a new account (`newOwner`). Can only be called by the current owner."
      },
      "undoLevel(address)": {
        "details": "Set to zero the level of the develop",
        "params": {
          "_address": "the address of the developer"
        }
      },
      "withDraw()": {
        "details": "Allow the dev withdraw tokens from DeveloperPool address to his address TODO Check external code call - EXTCALL"
      }
    },
    "title": "DeveloperContract",
    "version": 1
  },
  "userdoc": {
    "kind": "user",
    "methods": {},
    "version": 1
  }
}