{
  "contractName": "DeveloperPool",
  "abi": [
    {
      "inputs": [
        {
          "internalType": "address",
          "name": "_satTokenAddress",
          "type": "address"
        },
        {
          "internalType": "uint256",
          "name": "_tokensPerEra",
          "type": "uint256"
        },
        {
          "internalType": "uint256",
          "name": "_blocksPerEra",
          "type": "uint256"
        },
        {
          "internalType": "uint256",
          "name": "_eraMax",
          "type": "uint256"
        }
      ],
      "stateMutability": "nonpayable",
      "type": "constructor"
    },
    {
      "inputs": [],
      "name": "blocksPerEra",
      "outputs": [
        {
          "internalType": "uint256",
          "name": "",
          "type": "uint256"
        }
      ],
      "stateMutability": "view",
      "type": "function",
      "constant": true
    },
    {
      "inputs": [],
      "name": "blocksPrecision",
      "outputs": [
        {
          "internalType": "uint256",
          "name": "",
          "type": "uint256"
        }
      ],
      "stateMutability": "view",
      "type": "function",
      "constant": true
    },
    {
      "inputs": [],
      "name": "deployedAt",
      "outputs": [
        {
          "internalType": "uint256",
          "name": "",
          "type": "uint256"
        }
      ],
      "stateMutability": "view",
      "type": "function",
      "constant": true
    },
    {
      "inputs": [],
      "name": "developersCount",
      "outputs": [
        {
          "internalType": "uint256",
          "name": "",
          "type": "uint256"
        }
      ],
      "stateMutability": "view",
      "type": "function",
      "constant": true
    },
    {
      "inputs": [],
      "name": "eraMax",
      "outputs": [
        {
          "internalType": "uint256",
          "name": "",
          "type": "uint256"
        }
      ],
      "stateMutability": "view",
      "type": "function",
      "constant": true
    },
    {
      "inputs": [
        {
          "internalType": "uint256",
          "name": "",
          "type": "uint256"
        }
      ],
      "name": "eras",
      "outputs": [
        {
          "internalType": "uint256",
          "name": "era",
          "type": "uint256"
        },
        {
          "internalType": "uint256",
          "name": "tokens",
          "type": "uint256"
        },
        {
          "internalType": "uint256",
          "name": "developers",
          "type": "uint256"
        }
      ],
      "stateMutability": "view",
      "type": "function",
      "constant": true
    },
    {
      "inputs": [
        {
          "internalType": "uint256",
          "name": "",
          "type": "uint256"
        }
      ],
      "name": "levelsSumPerEra",
      "outputs": [
        {
          "internalType": "uint256",
          "name": "",
          "type": "uint256"
        }
      ],
      "stateMutability": "view",
      "type": "function",
      "constant": true
    },
    {
      "inputs": [],
      "name": "tokensPerEra",
      "outputs": [
        {
          "internalType": "uint256",
          "name": "",
          "type": "uint256"
        }
      ],
      "stateMutability": "view",
      "type": "function",
      "constant": true
    },
    {
      "inputs": [
        {
          "internalType": "address",
          "name": "_address",
          "type": "address"
        }
      ],
      "name": "getDeveloper",
      "outputs": [
        {
          "components": [
            {
              "internalType": "address",
              "name": "_address",
              "type": "address"
            },
            {
              "internalType": "uint256",
              "name": "level",
              "type": "uint256"
            },
            {
              "internalType": "uint256",
              "name": "currentEra",
              "type": "uint256"
            },
            {
              "internalType": "uint256",
              "name": "createdAt",
              "type": "uint256"
            }
          ],
          "internalType": "struct DeveloperPool.Developer",
          "name": "",
          "type": "tuple"
        }
      ],
      "stateMutability": "view",
      "type": "function",
      "constant": true
    },
    {
      "inputs": [],
      "name": "getDevelopersAddress",
      "outputs": [
        {
          "internalType": "address[]",
          "name": "",
          "type": "address[]"
        }
      ],
      "stateMutability": "view",
      "type": "function",
      "constant": true
    },
    {
      "inputs": [
        {
          "internalType": "address",
          "name": "_address",
          "type": "address"
        }
      ],
      "name": "addDeveloper",
      "outputs": [],
      "stateMutability": "nonpayable",
      "type": "function"
    },
    {
      "inputs": [],
      "name": "currentContractEra",
      "outputs": [
        {
          "internalType": "uint256",
          "name": "",
          "type": "uint256"
        }
      ],
      "stateMutability": "view",
      "type": "function",
      "constant": true
    },
    {
      "inputs": [
        {
          "internalType": "address",
          "name": "_address",
          "type": "address"
        }
      ],
      "name": "addLevel",
      "outputs": [],
      "stateMutability": "nonpayable",
      "type": "function"
    },
    {
      "inputs": [
        {
          "internalType": "address",
          "name": "_address",
          "type": "address"
        }
      ],
      "name": "undoLevel",
      "outputs": [],
      "stateMutability": "nonpayable",
      "type": "function"
    },
    {
      "inputs": [],
      "name": "approve",
      "outputs": [
        {
          "internalType": "bool",
          "name": "",
          "type": "bool"
        }
      ],
      "stateMutability": "nonpayable",
      "type": "function"
    },
    {
      "inputs": [],
      "name": "withDraw",
      "outputs": [
        {
          "internalType": "bool",
          "name": "",
          "type": "bool"
        }
      ],
      "stateMutability": "nonpayable",
      "type": "function"
    },
    {
      "inputs": [],
      "name": "allowance",
      "outputs": [
        {
          "internalType": "uint256",
          "name": "",
          "type": "uint256"
        }
      ],
      "stateMutability": "view",
      "type": "function",
      "constant": true
    },
    {
      "inputs": [],
      "name": "nextApproveTime",
      "outputs": [
        {
          "internalType": "int256",
          "name": "",
          "type": "int256"
        }
      ],
      "stateMutability": "view",
      "type": "function",
      "constant": true
    },
    {
      "inputs": [],
      "name": "canApproveTimes",
      "outputs": [
        {
          "internalType": "uint256",
          "name": "",
          "type": "uint256"
        }
      ],
      "stateMutability": "view",
      "type": "function",
      "constant": true
    }
  ],
  "bytecode": "0x60806040523480156200001157600080fd5b506040516200132c3803806200132c833981016040819052620000349162000122565b600380546001600160a01b0319166001600160a01b038616179055620000574390565b6017556200007a83670de0b6b3a76400006200008f602090811b6200083917901c565b601855601991909155601a5550620001ba9050565b600082620000a0575060006200011c565b6000620000ae83856200018e565b905082620000bd85836200016d565b14620001195760405162461bcd60e51b815260206004820152602160248201527f536166654d6174683a206d756c7469706c69636174696f6e206f766572666c6f6044820152607760f81b606482015260840160405180910390fd5b90505b92915050565b6000806000806080858703121562000138578384fd5b84516001600160a01b03811681146200014f578485fd5b60208601516040870151606090970151919890975090945092505050565b6000826200018957634e487b7160e01b81526012600452602481fd5b500490565b6000816000190483118215151615620001b557634e487b7160e01b81526011600452602481fd5b500290565b61116280620001ca6000396000f3fe608060405234801561001057600080fd5b50600436106101215760003560e01c80638ff9b8ac116100ad578063d32ae64b11610071578063d32ae64b14610273578063de242ff414610288578063eae4c19f14610290578063ed0df79e14610299578063f1272b6a146102a157610121565b80638ff9b8ac1461023357806393fd498c1461024657806396831f6c1461024e578063b4897e1714610257578063c3cca0cc1461026057610121565b80631f652c23116100f45780631f652c231461017557806322fbf1e81461017d57806367e13ee014610192578063720a70bd146101e1578063757dbe2b1461022a57610121565b80630fd07d98146101265780630fdb1c101461014257806311d64d4a1461015a57806312424e3f1461016d575b600080fd5b61012f60195481565b6040519081526020015b60405180910390f35b61014a6102a9565b6040519015158152602001610139565b61012f610168366004610d8c565b610357565b61014a61036e565b61012f61049f565b61019061018b366004610d45565b6104f0565b005b6101a56101a0366004610d45565b6105eb565b604051610139919081516001600160a01b0316815260208083015190820152604080830151908201526060918201519181019190915260800190565b61020f6101ef366004610d8c565b600160208190526000918252604090912080549181015460029091015483565b60408051938452602084019290925290820152606001610139565b61012f60185481565b610190610241366004610d45565b61066e565b61012f600581565b61012f601a5481565b61012f60045481565b61019061026e366004610d45565b6106a7565b61027b6106f2565b6040516101399190610dbc565b61012f610754565b61012f60175481565b61012f6107db565b61012f610801565b6003546000906001600160a01b03166323b872dd30336102c7610754565b6040516001600160e01b031960e086901b1681526001600160a01b0393841660048201529290911660248301526044820152606401602060405180830381600087803b15801561031657600080fd5b505af115801561032a573d6000803e3d6000fd5b505050506040513d601f19601f8201168201806040525081019061034e9190610d6c565b50600190505b90565b6005816012811061036757600080fd5b0154905081565b60006103786108c1565b6103c25760405162461bcd60e51b8152602060048201526016602482015275165bdd4818d85b89dd081dda5d1a191c985dc81e595d60521b60448201526064015b60405180910390fd5b60006103cd336105eb565b905060006103e38260200151836040015161090a565b6003546040516333ff8bd360e11b8152336004820152602481018390529192506001600160a01b0316906367ff17a690604401602060405180830381600087803b15801561043057600080fd5b505af1158015610444573d6000803e3d6000fd5b505050506040513d601f19601f820116820180604052508101906104689190610da4565b5061047782604001518261096b565b61047f6109f6565b6104876108c1565b156104965761049461036e565b505b60019250505090565b6000806104aa610801565b905060008113156104bf576000915050610354565b6019546104ea906104e46104d56005600a610f1b565b6104de856110fc565b90610839565b90610a1b565b91505090565b60006104fa6107db565b90506040518060800160405280836001600160a01b031681526020016001815260200182815260200161052a4290565b90526001600160a01b0383811660009081526020818152604091829020845181546001600160a01b03191694169390931783558301516001830155820151600282015560609091015160039091015561058281610a5d565b60048054906000610592836110e1565b9091555050600280546001810182556000919091527f405787fa12a823e0f2b7631cc41b3ba8828b3321ca811111fa75cd3aa3bb5ace0180546001600160a01b0319166001600160a01b03939093169290921790915550565b61061f604051806080016040528060006001600160a01b031681526020016000815260200160008152602001600081525090565b506001600160a01b039081166000908152602081815260409182902082516080810184528154909416845260018101549184019190915260028101549183019190915260030154606082015290565b6000610679826105eb565b9050610689816040015182610b08565b506001600160a01b0316600090815260208190526040812060010155565b60006106b2826105eb565b6001600160a01b03831660009081526020819052604081206001018054929350906106dc836110e1565b91905055506106ee8160400151610a5d565b5050565b6060600280548060200260200160405190810160405280929190818152602001828054801561074a57602002820191906000526020600020905b81546001600160a01b0316815260019091019060200180831161072c575b5050505050905090565b600354604051636eb1769f60e11b81523060048201523360248201526000916001600160a01b03169063dd62ed3e9060440160206040518083038186803b15801561079e57600080fd5b505afa1580156107b2573d6000803e3d6000fd5b505050506040513d601f19601f820116820180604052508101906107d69190610da4565b905090565b60006107d660016107fb6019546104e46017546107f54390565b90610bba565b90610bfc565b60008061080d336105eb565b90504381604001516019546108229190610fe9565b60175461082f9190610e5c565b6104ea919061108b565b600082610848575060006108bb565b6000610854838561106c565b9050826108618583610eb5565b146108b85760405162461bcd60e51b815260206004820152602160248201527f536166654d6174683a206d756c7469706c69636174696f6e206f766572666c6f6044820152607760f81b60648201526084016103b9565b90505b92915050565b6000806108cd336105eb565b90508060200151600014156108e6576000915050610354565b6108f4438260400151610c5b565b80156104ea57506040810151601a5410156104ea565b600080600561091a6001856110ca565b6012811061093857634e487b7160e01b600052603260045260246000fd5b015490508061094b5760009150506108bb565b6018546109639061095c9083610a1b565b8590610839565b949350505050565b60408051606081018252838152600084815260016020818152938220810154909391929182019061099d908690610bfc565b81526000868152600160209081526040909120600201549101906109c2908590610bfc565b9052600094855260016020818152604096879020835181559083015191810191909155940151600290940193909355505050565b336000908152602081905260408120600201805491610a14836110e1565b9190505550565b60006108b883836040518060400160405280601a81526020017f536166654d6174683a206469766973696f6e206279207a65726f000000000000815250610c88565b6040805161024081019182905260009160059060129082845b815481526020019060010190808311610a76575050601a5493945060009250610aa4915060019050856110ca565b90505b81811015610af457828160128110610acf57634e487b7160e01b600052603260045260246000fd5b60200201805190610adf826110e1565b90525080610aec816110e1565b915050610aa7565b50610b026005836012610cf2565b50505050565b6040805161024081019182905260009160059060129082845b815481526020019060010190808311610b21575050601a5493945060009250610b4f915060019050866110ca565b90505b81811015610ba5578360200151838260128110610b7f57634e487b7160e01b600052603260045260246000fd5b60200201818151610b9091906110ca565b90525080610b9d816110e1565b915050610b52565b50610bb36005836012610cf2565b5050505050565b60006108b883836040518060400160405280601e81526020017f536166654d6174683a207375627472616374696f6e206f766572666c6f770000815250610cc1565b600080610c098385610e9d565b9050838110156108b85760405162461bcd60e51b815260206004820152601b60248201527f536166654d6174683a206164646974696f6e206f766572666c6f77000000000060448201526064016103b9565b600082610c7f610c768460195461083990919063ffffffff16565b60175490610bfc565b11159392505050565b60008183610ca95760405162461bcd60e51b81526004016103b99190610e09565b506000610cb68486610eb5565b9150505b9392505050565b60008184841115610ce55760405162461bcd60e51b81526004016103b99190610e09565b506000610cb684866110ca565b8260128101928215610d20579160200282015b82811115610d20578251825591602001919060010190610d05565b50610d2c929150610d30565b5090565b5b80821115610d2c5760008155600101610d31565b600060208284031215610d56578081fd5b81356001600160a01b03811681146108b8578182fd5b600060208284031215610d7d578081fd5b815180151581146108b8578182fd5b600060208284031215610d9d578081fd5b5035919050565b600060208284031215610db5578081fd5b5051919050565b6020808252825182820181905260009190848201906040850190845b81811015610dfd5783516001600160a01b031683529284019291840191600101610dd8565b50909695505050505050565b6000602080835283518082850152825b81811015610e3557858101830151858201604001528201610e19565b81811115610e465783604083870101525b50601f01601f1916929092016040019392505050565b600080821280156001600160ff1b0384900385131615610e7e57610e7e611116565b600160ff1b8390038412811615610e9757610e97611116565b50500190565b60008219821115610eb057610eb0611116565b500190565b600082610ed057634e487b7160e01b81526012600452602481fd5b500490565b80825b6001808611610ee75750610f12565b818704821115610ef957610ef9611116565b80861615610f0657918102915b9490941c938002610ed8565b94509492505050565b60006108b86000198484600082610f3457506001610cba565b81610f4157506000610cba565b8160018114610f575760028114610f6157610f8e565b6001915050610cba565b60ff841115610f7257610f72611116565b6001841b915084821115610f8857610f88611116565b50610cba565b5060208310610133831016604e8410600b8410161715610fc1575081810a83811115610fbc57610fbc611116565b610cba565b610fce8484846001610ed5565b808604821115610fe057610fe0611116565b02949350505050565b60006001600160ff1b038184138284138082168684048611161561100f5761100f611116565b600160ff1b8487128281168783058912161561102d5761102d611116565b85871292508782058712848416161561104857611048611116565b8785058712818416161561105e5761105e611116565b505050929093029392505050565b600081600019048311821515161561108657611086611116565b500290565b60008083128015600160ff1b8501841216156110a9576110a9611116565b6001600160ff1b03840183138116156110c4576110c4611116565b50500390565b6000828210156110dc576110dc611116565b500390565b60006000198214156110f5576110f5611116565b5060010190565b6000600160ff1b82141561111257611112611116565b0390565b634e487b7160e01b600052601160045260246000fdfea26469706673582212205f81492cd7eadbd65f77ed66fd78e92a0559017b5ffd283d67f6c935ba6384f164736f6c63430008020033",
  "immutableReferences": {},
  "source": "// SPDX-License-Identifier: GPL-3.0\npragma solidity >=0.7.0 <=0.9.0;\n\n// import \"@openzeppelin/contracts/access/Ownable.sol\";\nimport \"./PoolInterface.sol\";\n\nimport \"./SatTokenInterface.sol\";\nimport \"./Ownable.sol\";\n\nimport \"./SafeMath.sol\";\n\n/**\n* @author Everson B. Silva\n* @title DeveloperContract\n* @dev DeveloperPool is a contract to reward developers\n*/\ncontract DeveloperPool is Ownable, PoolInterface {\n    using SafeMath for uint256;\n\n    struct Developer {\n        address _address;\n        uint level;\n        uint currentEra;\n        uint createdAt;\n    }\n\n    struct Era {\n        uint era;\n        uint tokens;\n        uint developers;\n    }\n\n    mapping(address => Developer) internal developers;\n    mapping(uint => Era) public eras;\n\n    address[] internal developersAddress;\n\n    SatTokenInterface internal satToken;\n\n    uint public developersCount;\n\n    uint[18] public levelsSumPerEra;\n\n    uint public deployedAt;\n\n    uint public tokensPerEra;\n\n    uint public blocksPerEra;\n\n    uint public eraMax;\n\n    uint public constant blocksPrecision = 5;\n\n    constructor(address _satTokenAddress, uint _tokensPerEra, uint _blocksPerEra, uint _eraMax) {\n        satToken = SatTokenInterface(_satTokenAddress);\n        deployedAt = currentBlockNumber();\n        tokensPerEra = _tokensPerEra.mul(10**18);\n        blocksPerEra = _blocksPerEra;\n        eraMax = _eraMax;\n    }\n\n    /**\n   * @dev Return a specific developer\n   * @param _address the address of the developer\n   */\n    function getDeveloper(address _address) public view returns (Developer memory) {\n        return developers[_address];\n    }\n\n    /**\n   * @dev Return the developers address of the system\n   */\n    function getDevelopersAddress() public view returns(address[] memory) {\n        return developersAddress;\n    }\n\n    /**\n   * @dev Add a new develop to the pool\n   * @param _address the address of the developer\n   */\n    function addDeveloper(address _address) public onlyOwner {\n        uint _currentEra = currentContractEra();\n        developers[_address] = Developer(_address, 1, _currentEra, timestamp());\n        upLevels(_currentEra);\n        developersCount++;\n        developersAddress.push(_address);\n    }\n\n    /**\n   * @dev Increment the levels + 1 per era always that a developer is added or the level is up\n   * @param _fromEra the era of developer\n   */\n    function upLevels(uint _fromEra) internal {\n        uint[18] memory _levels = levelsSumPerEra;\n        uint _eraMax = eraMax;\n\n        for(uint i = _fromEra - 1; i < _eraMax; i++) {\n            _levels[i]++;\n        }\n\n        levelsSumPerEra = _levels;\n    }\n\n    /**\n   * @dev Decrement the levels of the undo developer\n   * @param _fromEra the era of developer\n   */\n    function downLevels(uint _fromEra, Developer memory developer) internal {\n        uint[18] memory _levels = levelsSumPerEra;\n        uint _eraMax = eraMax;\n\n        for(uint i = _fromEra - 1; i < _eraMax; i++) {\n            _levels[i] -= developer.level;\n        }\n\n        levelsSumPerEra = _levels;\n    }\n\n    /**\n   * @dev Return the current era of the contract\n   */\n    function currentContractEra() public view returns(uint) {\n        return currentBlockNumber().sub(deployedAt).div(blocksPerEra).add(1);\n    }\n\n    /**\n   * @dev Increment the level of the develop\n   * @param _address the address of the developer\n   */\n    function addLevel(address _address) public onlyOwner {\n        Developer memory developer = getDeveloper(_address);\n\n        developers[_address].level++;\n        upLevels(developer.currentEra);\n    }\n\n    /**\n   * @dev Set to zero the level of the develop\n   * @param _address the address of the developer\n   */\n    function undoLevel(address _address) public onlyOwner {\n        Developer memory developer = getDeveloper(_address);\n        downLevels(developer.currentEra, developer);\n        developers[_address].level = 0;\n    }\n\n    /**\n   * @dev Allow the developer to approve tokens from DeveloperPool address. DeveloperPool address must have tokens in SAT TOKEN\n   * TODO Check external code call - EXTCALL\n   */\n    function approve() public override returns(bool){\n        require(canApprove(), \"You can't withdraw yet\");\n\n        Developer memory developer = getDeveloper(msg.sender);\n\n        uint tokens = calcTokens(developer.level, developer.currentEra);\n\n        satToken.approveWith(msg.sender, tokens);\n\n        setEraMetrics(developer.currentEra, tokens);\n\n        developerNextEra();\n\n        if (canApprove()) approve();\n\n        return true;\n    }\n\n    /**\n   * @dev Add metrics actions to eras. The metrics are numbers of tokens and developers.\n   * @param _era The current era that the develop approve() tokens\n   * @param _tokens How much tokens the win to this era\n   */\n    function setEraMetrics(uint _era, uint _tokens) internal {\n        uint oneDev = 1;\n        Era memory newEra = Era(_era, _tokens.add(eras[_era].tokens), oneDev.add(eras[_era].developers));\n        eras[_era] = newEra;\n    }\n\n    /**\n   * @dev Allow the dev withdraw tokens from DeveloperPool address to his address\n   * TODO Check external code call - EXTCALL\n   */\n    function withDraw() public override returns(bool){\n        satToken.transferFrom(address(this), msg.sender, allowance()); \n        return true;\n    }\n\n    /**\n   * @dev Show how much tokens the developer can withdraw from DeveloperPool address\n   * TODO Check external code call - EXTCALL\n   */\n    function allowance() public override view returns (uint){\n        return satToken.allowance(address(this), msg.sender);\n    }\n\n    /**\n   * @dev Check if the developer can approve tokens\n   */\n    function canApprove() internal view returns(bool) {\n        Developer memory developer = getDeveloper(msg.sender);\n\n        if (developer.level == 0) return false;\n\n        return canApproveFromPresent(currentBlockNumber(), developer.currentEra) && eraLimit(developer.currentEra);\n    }\n\n    /**\n   * @dev Check if the limit of eras is the maximum. The state eraMax is the limit\n   */\n    function eraLimit(uint _currentEra) internal view returns(bool) {\n        return _currentEra <= eraMax;\n    }\n\n    /**\n   * @dev Check if the developer can approve. This funcion check the initial block deploy with the current block\n   */\n    function canApproveFromPresent(uint _currentBlock, uint _currentEra) internal view returns(bool) {\n        return deployedAt.add(blocksPerEra.mul(_currentEra)) <= _currentBlock;\n    }\n\n    /**\n   * @dev Increment a new era to a developer. This funcions called when the developer approve tokens\n   */\n    function developerNextEra() internal { \n        developers[msg.sender].currentEra++;\n    }\n\n    /**\n   * @dev Calc how much tokens the dev can approve in some era\n   * @param _level The level of the developer\n   * @param _era Era to calc in\n   */\n    function calcTokens(uint _level, uint _era) internal view returns(uint) {\n        uint _levelsSum = levelsSumPerEra[_era - 1];\n        if (_levelsSum == 0) return 0;\n        return _level.mul((tokensPerEra.div(_levelsSum)));\n    }\n\n    /**\n   * @dev Show how much block missing to approve new tokens\n   */\n    function nextApproveTime() public view returns(int) {\n        Developer memory developer = getDeveloper(msg.sender);\n        return int(deployedAt) + (int(blocksPerEra) * int(developer.currentEra)) - int(currentBlockNumber());\n    }\n\n    /**\n   * @dev Show how much times the developer can approve tokens. How much eras passed.\n   * @return A uint with precision of blocksPrecision state. The real return can be get by return/blocksPrecision and Math.ceil\n   */\n    function canApproveTimes() public view returns(uint) {\n        int approvesTimes = nextApproveTime();\n        if (approvesTimes > 0) return 0;\n\n        return uint(-approvesTimes).mul(10**blocksPrecision).div(blocksPerEra);\n    }\n\n    /**\n   * @dev Returns the timestamp\n   */\n    function timestamp() internal view returns(uint) {\n        return block.timestamp;\n    }\n\n    /**\n   * @dev Returns the current block number\n   */\n    function currentBlockNumber() internal view returns(uint) {\n        return block.number;\n    }\n\n}\n",
  "sourcePath": "/home/everson/projetos/afiliart/SAT-core-contracts/contracts/DeveloperPool.sol",
  "compiler": {
    "name": "solc",
    "version": "0.8.2+commit.661d1103.Emscripten.clang"
  },
  "schemaVersion": "3.4.4",
  "updatedAt": "2022-02-04T00:33:36.423Z",
  "networkType": "ethereum",
  "devdoc": {
    "author": "Everson B. Silva",
    "details": "DeveloperPool is a contract to reward developers",
    "kind": "dev",
    "methods": {
      "addDeveloper(address)": {
        "details": "Add a new develop to the pool",
        "params": {
          "_address": "the address of the developer"
        }
      },
      "addLevel(address)": {
        "details": "Increment the level of the develop",
        "params": {
          "_address": "the address of the developer"
        }
      },
      "allowance()": {
        "details": "Show how much tokens the developer can withdraw from DeveloperPool address TODO Check external code call - EXTCALL"
      },
      "approve()": {
        "details": "Allow the developer to approve tokens from DeveloperPool address. DeveloperPool address must have tokens in SAT TOKEN TODO Check external code call - EXTCALL"
      },
      "canApproveTimes()": {
        "details": "Show how much times the developer can approve tokens. How much eras passed.",
        "returns": {
          "_0": "A uint with precision of blocksPrecision state. The real return can be get by return/blocksPrecision and Math.ceil"
        }
      },
      "currentContractEra()": {
        "details": "Return the current era of the contract"
      },
      "getDeveloper(address)": {
        "details": "Return a specific developer",
        "params": {
          "_address": "the address of the developer"
        }
      },
      "getDevelopersAddress()": {
        "details": "Return the developers address of the system"
      },
      "nextApproveTime()": {
        "details": "Show how much block missing to approve new tokens"
      },
      "undoLevel(address)": {
        "details": "Set to zero the level of the develop",
        "params": {
          "_address": "the address of the developer"
        }
      },
      "withDraw()": {
        "details": "Allow the dev withdraw tokens from DeveloperPool address to his address TODO Check external code call - EXTCALL"
      }
    },
    "title": "DeveloperContract",
    "version": 1
  },
  "userdoc": {
    "kind": "user",
    "methods": {},
    "version": 1
  }
}