{
  "contractName": "IsaPool",
  "abi": [
    {
      "inputs": [
        {
          "internalType": "address",
          "name": "sacTokenAddress",
          "type": "address"
        }
      ],
      "stateMutability": "nonpayable",
      "type": "constructor"
    },
    {
      "anonymous": false,
      "inputs": [
        {
          "indexed": true,
          "internalType": "address",
          "name": "previousOwner",
          "type": "address"
        },
        {
          "indexed": true,
          "internalType": "address",
          "name": "newOwner",
          "type": "address"
        }
      ],
      "name": "OwnershipTransferred",
      "type": "event"
    },
    {
      "inputs": [
        {
          "internalType": "address",
          "name": "",
          "type": "address"
        }
      ],
      "name": "allowedCaller",
      "outputs": [
        {
          "internalType": "bool",
          "name": "",
          "type": "bool"
        }
      ],
      "stateMutability": "view",
      "type": "function"
    },
    {
      "inputs": [
        {
          "internalType": "address",
          "name": "allowed",
          "type": "address"
        }
      ],
      "name": "newAllowedCaller",
      "outputs": [],
      "stateMutability": "nonpayable",
      "type": "function"
    },
    {
      "inputs": [],
      "name": "owner",
      "outputs": [
        {
          "internalType": "address",
          "name": "",
          "type": "address"
        }
      ],
      "stateMutability": "view",
      "type": "function"
    },
    {
      "inputs": [],
      "name": "renounceOwnership",
      "outputs": [],
      "stateMutability": "nonpayable",
      "type": "function"
    },
    {
      "inputs": [
        {
          "internalType": "address",
          "name": "newOwner",
          "type": "address"
        }
      ],
      "name": "transferOwnership",
      "outputs": [],
      "stateMutability": "nonpayable",
      "type": "function"
    },
    {
      "inputs": [],
      "name": "allowance",
      "outputs": [
        {
          "internalType": "uint256",
          "name": "",
          "type": "uint256"
        }
      ],
      "stateMutability": "view",
      "type": "function"
    },
    {
      "inputs": [
        {
          "internalType": "address",
          "name": "tokenOwner",
          "type": "address"
        }
      ],
      "name": "balanceOf",
      "outputs": [
        {
          "internalType": "uint256",
          "name": "",
          "type": "uint256"
        }
      ],
      "stateMutability": "view",
      "type": "function"
    },
    {
      "inputs": [],
      "name": "balance",
      "outputs": [
        {
          "internalType": "uint256",
          "name": "",
          "type": "uint256"
        }
      ],
      "stateMutability": "view",
      "type": "function"
    },
    {
      "inputs": [
        {
          "internalType": "address",
          "name": "delegate",
          "type": "address"
        },
        {
          "internalType": "uint256",
          "name": "_numTokens",
          "type": "uint256"
        }
      ],
      "name": "approveWith",
      "outputs": [
        {
          "internalType": "bool",
          "name": "",
          "type": "bool"
        }
      ],
      "stateMutability": "nonpayable",
      "type": "function"
    },
    {
      "inputs": [],
      "name": "withDraw",
      "outputs": [
        {
          "internalType": "bool",
          "name": "",
          "type": "bool"
        }
      ],
      "stateMutability": "pure",
      "type": "function"
    },
    {
      "inputs": [
        {
          "internalType": "address",
          "name": "tokenOwner",
          "type": "address"
        },
        {
          "internalType": "uint256",
          "name": "numTokens",
          "type": "uint256"
        }
      ],
      "name": "transferWith",
      "outputs": [
        {
          "internalType": "bool",
          "name": "",
          "type": "bool"
        }
      ],
      "stateMutability": "nonpayable",
      "type": "function"
    }
  ],
  "bytecode": "0x608060405234801561001057600080fd5b5060405162000f2b38038062000f2b83398181016040528101906100349190610178565b61005061004561009760201b60201c565b61009f60201b60201c565b80600260006101000a81548173ffffffffffffffffffffffffffffffffffffffff021916908373ffffffffffffffffffffffffffffffffffffffff160217905550506101ea565b600033905090565b60008060009054906101000a900473ffffffffffffffffffffffffffffffffffffffff169050816000806101000a81548173ffffffffffffffffffffffffffffffffffffffff021916908373ffffffffffffffffffffffffffffffffffffffff1602179055508173ffffffffffffffffffffffffffffffffffffffff168173ffffffffffffffffffffffffffffffffffffffff167f8be0079c531659141344cd1fd0a4f28419497f9722a3daafe3b4186f6b6457e060405160405180910390a35050565b600081519050610172816101d3565b92915050565b60006020828403121561018a57600080fd5b600061019884828501610163565b91505092915050565b60006101ac826101b3565b9050919050565b600073ffffffffffffffffffffffffffffffffffffffff82169050919050565b6101dc816101a1565b81146101e757600080fd5b50565b610d3180620001fa6000396000f3fe608060405234801561001057600080fd5b50600436106100a95760003560e01c806372eb8caf1161007157806372eb8caf146101665780638da5cb5b146101965780638f93716f146101b4578063b69ef8a8146101d0578063de242ff4146101ee578063f2fde38b1461020c576100a9565b80630fdb1c10146100ae57806344edffbb146100cc57806367ff17a6146100fc57806370a082311461012c578063715018a61461015c575b600080fd5b6100b6610228565b6040516100c39190610b26565b60405180910390f35b6100e660048036038101906100e19190610995565b610231565b6040516100f39190610b26565b60405180910390f35b61011660048036038101906101119190610995565b6102ed565b6040516101239190610b26565b60405180910390f35b6101466004803603810190610141919061096c565b610435565b6040516101539190610ba1565b60405180910390f35b6101646104e9565b005b610180600480360381019061017b919061096c565b610571565b60405161018d9190610b26565b60405180910390f35b61019e610591565b6040516101ab9190610ab9565b60405180910390f35b6101ce60048036038101906101c9919061096c565b6105ba565b005b6101d8610690565b6040516101e59190610ba1565b60405180910390f35b6101f66106a0565b6040516102039190610ba1565b60405180910390f35b6102266004803603810190610221919061096c565b610754565b005b60006001905090565b6000600260009054906101000a900473ffffffffffffffffffffffffffffffffffffffff1673ffffffffffffffffffffffffffffffffffffffff166344edffbb84846040518363ffffffff1660e01b8152600401610290929190610afd565b602060405180830381600087803b1580156102aa57600080fd5b505af11580156102be573d6000803e3d6000fd5b505050506040513d601f19601f820116820180604052508101906102e291906109d1565b506001905092915050565b6000600160003373ffffffffffffffffffffffffffffffffffffffff1673ffffffffffffffffffffffffffffffffffffffff16815260200190815260200160002060009054906101000a900460ff1661037b576040517f08c379a000000000000000000000000000000000000000000000000000000000815260040161037290610b81565b60405180910390fd5b600260009054906101000a900473ffffffffffffffffffffffffffffffffffffffff1673ffffffffffffffffffffffffffffffffffffffff166367ff17a684846040518363ffffffff1660e01b81526004016103d8929190610afd565b602060405180830381600087803b1580156103f257600080fd5b505af1158015610406573d6000803e3d6000fd5b505050506040513d601f19601f8201168201806040525081019061042a91906109fa565b506001905092915050565b6000600260009054906101000a900473ffffffffffffffffffffffffffffffffffffffff1673ffffffffffffffffffffffffffffffffffffffff166370a08231836040518263ffffffff1660e01b81526004016104929190610ab9565b60206040518083038186803b1580156104aa57600080fd5b505afa1580156104be573d6000803e3d6000fd5b505050506040513d601f19601f820116820180604052508101906104e291906109fa565b9050919050565b6104f161084c565b73ffffffffffffffffffffffffffffffffffffffff1661050f610591565b73ffffffffffffffffffffffffffffffffffffffff1614610565576040517f08c379a000000000000000000000000000000000000000000000000000000000815260040161055c90610b61565b60405180910390fd5b61056f6000610854565b565b60016020528060005260406000206000915054906101000a900460ff1681565b60008060009054906101000a900473ffffffffffffffffffffffffffffffffffffffff16905090565b6105c261084c565b73ffffffffffffffffffffffffffffffffffffffff166105e0610591565b73ffffffffffffffffffffffffffffffffffffffff1614610636576040517f08c379a000000000000000000000000000000000000000000000000000000000815260040161062d90610b61565b60405180910390fd5b60018060008373ffffffffffffffffffffffffffffffffffffffff1673ffffffffffffffffffffffffffffffffffffffff16815260200190815260200160002060006101000a81548160ff02191690831515021790555050565b600061069b30610435565b905090565b6000600260009054906101000a900473ffffffffffffffffffffffffffffffffffffffff1673ffffffffffffffffffffffffffffffffffffffff1663dd62ed3e30336040518363ffffffff1660e01b81526004016106ff929190610ad4565b60206040518083038186803b15801561071757600080fd5b505afa15801561072b573d6000803e3d6000fd5b505050506040513d601f19601f8201168201806040525081019061074f91906109fa565b905090565b61075c61084c565b73ffffffffffffffffffffffffffffffffffffffff1661077a610591565b73ffffffffffffffffffffffffffffffffffffffff16146107d0576040517f08c379a00000000000000000000000000000000000000000000000000000000081526004016107c790610b61565b60405180910390fd5b600073ffffffffffffffffffffffffffffffffffffffff168173ffffffffffffffffffffffffffffffffffffffff161415610840576040517f08c379a000000000000000000000000000000000000000000000000000000000815260040161083790610b41565b60405180910390fd5b61084981610854565b50565b600033905090565b60008060009054906101000a900473ffffffffffffffffffffffffffffffffffffffff169050816000806101000a81548173ffffffffffffffffffffffffffffffffffffffff021916908373ffffffffffffffffffffffffffffffffffffffff1602179055508173ffffffffffffffffffffffffffffffffffffffff168173ffffffffffffffffffffffffffffffffffffffff167f8be0079c531659141344cd1fd0a4f28419497f9722a3daafe3b4186f6b6457e060405160405180910390a35050565b60008135905061092781610cb6565b92915050565b60008151905061093c81610ccd565b92915050565b60008135905061095181610ce4565b92915050565b60008151905061096681610ce4565b92915050565b60006020828403121561097e57600080fd5b600061098c84828501610918565b91505092915050565b600080604083850312156109a857600080fd5b60006109b685828601610918565b92505060206109c785828601610942565b9150509250929050565b6000602082840312156109e357600080fd5b60006109f18482850161092d565b91505092915050565b600060208284031215610a0c57600080fd5b6000610a1a84828501610957565b91505092915050565b610a2c81610bcd565b82525050565b610a3b81610bdf565b82525050565b6000610a4e602683610bbc565b9150610a5982610c15565b604082019050919050565b6000610a71602083610bbc565b9150610a7c82610c64565b602082019050919050565b6000610a94601283610bbc565b9150610a9f82610c8d565b602082019050919050565b610ab381610c0b565b82525050565b6000602082019050610ace6000830184610a23565b92915050565b6000604082019050610ae96000830185610a23565b610af66020830184610a23565b9392505050565b6000604082019050610b126000830185610a23565b610b1f6020830184610aaa565b9392505050565b6000602082019050610b3b6000830184610a32565b92915050565b60006020820190508181036000830152610b5a81610a41565b9050919050565b60006020820190508181036000830152610b7a81610a64565b9050919050565b60006020820190508181036000830152610b9a81610a87565b9050919050565b6000602082019050610bb66000830184610aaa565b92915050565b600082825260208201905092915050565b6000610bd882610beb565b9050919050565b60008115159050919050565b600073ffffffffffffffffffffffffffffffffffffffff82169050919050565b6000819050919050565b7f4f776e61626c653a206e6577206f776e657220697320746865207a65726f206160008201527f6464726573730000000000000000000000000000000000000000000000000000602082015250565b7f4f776e61626c653a2063616c6c6572206973206e6f7420746865206f776e6572600082015250565b7f4e6f7420616c6c6f7765642063616c6c65720000000000000000000000000000600082015250565b610cbf81610bcd565b8114610cca57600080fd5b50565b610cd681610bdf565b8114610ce157600080fd5b50565b610ced81610c0b565b8114610cf857600080fd5b5056fea264697066735822122093c13e54ff7a273e0506c15146ad7a5aab49a2528b6bf44e94497e39cd91c1fb64736f6c63430008020033",
  "immutableReferences": {},
  "source": "// SPDX-License-Identifier: GPL-3.0\npragma solidity >=0.7.0 <=0.9.0;\n\nimport \"./PoolPassiveInterface.sol\";\nimport \"./SacTokenInterface.sol\";\nimport \"@openzeppelin/contracts/access/Ownable.sol\";\nimport \"./Callable.sol\";\n\n/**\n * @author Sintrop\n * @title IsaPool\n * @dev IsaPool is a contract to manage user votes\n */\ncontract IsaPool is PoolPassiveInterface, Ownable, Callable {\n  SacTokenInterface internal sacToken;\n\n  constructor(address sacTokenAddress) {\n    sacToken = SacTokenInterface(sacTokenAddress);\n  }\n\n  /**\n   * @dev Show how much tokens the developer can withdraw from DeveloperPool address\n   * @return uint256\n   * TODO Check external code call - EXTCALL\n   */\n  function allowance() public view override returns (uint256) {\n    return sacToken.allowance(address(this), msg.sender);\n  }\n\n  /**\n   * @dev Allow a user know how much SAC Tokens has\n   * @param tokenOwner The address of the token owner\n   * @return uint256\n   */\n  function balanceOf(address tokenOwner) public view override returns (uint256) {\n    return sacToken.balanceOf(tokenOwner);\n  }\n\n  /**\n   * @dev Allow a user know how much SAC Tokens this pool has\n   */\n  function balance() public view override returns (uint256) {\n    return balanceOf(address(this));\n  }\n\n  /**\n   * @dev Allow a user approve some tokens from pool to he\n   * @param _numTokens How much tokens the user want transfer\n   * @return bool\n   */\n  function approveWith(address delegate, uint256 _numTokens)\n    public\n    override\n    mustBeAllowedCaller\n    returns (bool)\n  {\n    sacToken.approveWith(delegate, _numTokens);\n    return true;\n  }\n\n  function withDraw() public pure override returns (bool) {\n    return true;\n  }\n\n  /**\n   * @dev Allow a user transfer some tokens to this contract pool\n   * @param tokenOwner The address of the token owner\n   * @param numTokens How much tokens the user want transfer\n   * @return bool\n   */\n  function transferWith(address tokenOwner, uint256 numTokens) public override returns (bool) {\n    sacToken.transferWith(tokenOwner, numTokens);\n    return true;\n  }\n}\n",
  "sourcePath": "/home/everson/Documents/projetos/sintrop/SAT-core-contracts/contracts/IsaPool.sol",
  "compiler": {
    "name": "solc",
    "version": "0.8.2+commit.661d1103.Emscripten.clang"
  },
  "schemaVersion": "3.4.6",
  "updatedAt": "2022-05-14T21:17:42.162Z",
  "devdoc": {
    "author": "Sintrop",
    "details": "IsaPool is a contract to manage user votes",
    "kind": "dev",
    "methods": {
      "allowance()": {
        "details": "Show how much tokens the developer can withdraw from DeveloperPool address",
        "returns": {
          "_0": "uint256 TODO Check external code call - EXTCALL"
        }
      },
      "approveWith(address,uint256)": {
        "details": "Allow a user approve some tokens from pool to he",
        "params": {
          "_numTokens": "How much tokens the user want transfer"
        },
        "returns": {
          "_0": "bool"
        }
      },
      "balance()": {
        "details": "Allow a user know how much SAC Tokens this pool has"
      },
      "balanceOf(address)": {
        "details": "Allow a user know how much SAC Tokens has",
        "params": {
          "tokenOwner": "The address of the token owner"
        },
        "returns": {
          "_0": "uint256"
        }
      },
      "owner()": {
        "details": "Returns the address of the current owner."
      },
      "renounceOwnership()": {
        "details": "Leaves the contract without owner. It will not be possible to call `onlyOwner` functions anymore. Can only be called by the current owner. NOTE: Renouncing ownership will leave the contract without an owner, thereby removing any functionality that is only available to the owner."
      },
      "transferOwnership(address)": {
        "details": "Transfers ownership of the contract to a new account (`newOwner`). Can only be called by the current owner."
      },
      "transferWith(address,uint256)": {
        "details": "Allow a user transfer some tokens to this contract pool",
        "params": {
          "numTokens": "How much tokens the user want transfer",
          "tokenOwner": "The address of the token owner"
        },
        "returns": {
          "_0": "bool"
        }
      }
    },
    "title": "IsaPool",
    "version": 1
  },
  "userdoc": {
    "kind": "user",
    "methods": {},
    "version": 1
  }
}