{
  "contractName": "IsaPool",
  "abi": [
    {
      "inputs": [
        {
          "internalType": "address",
          "name": "satTokenAddress",
          "type": "address"
        }
      ],
      "stateMutability": "nonpayable",
      "type": "constructor"
    },
    {
      "anonymous": false,
      "inputs": [
        {
          "indexed": true,
          "internalType": "address",
          "name": "previousOwner",
          "type": "address"
        },
        {
          "indexed": true,
          "internalType": "address",
          "name": "newOwner",
          "type": "address"
        }
      ],
      "name": "OwnershipTransferred",
      "type": "event"
    },
    {
      "inputs": [],
      "name": "owner",
      "outputs": [
        {
          "internalType": "address",
          "name": "",
          "type": "address"
        }
      ],
      "stateMutability": "view",
      "type": "function"
    },
    {
      "inputs": [],
      "name": "renounceOwnership",
      "outputs": [],
      "stateMutability": "nonpayable",
      "type": "function"
    },
    {
      "inputs": [
        {
          "internalType": "address",
          "name": "newOwner",
          "type": "address"
        }
      ],
      "name": "transferOwnership",
      "outputs": [],
      "stateMutability": "nonpayable",
      "type": "function"
    },
    {
      "inputs": [
        {
          "internalType": "address",
          "name": "allowed",
          "type": "address"
        }
      ],
      "name": "changeAllowedCaller",
      "outputs": [
        {
          "internalType": "bool",
          "name": "",
          "type": "bool"
        }
      ],
      "stateMutability": "nonpayable",
      "type": "function"
    },
    {
      "inputs": [],
      "name": "allowance",
      "outputs": [
        {
          "internalType": "uint256",
          "name": "",
          "type": "uint256"
        }
      ],
      "stateMutability": "view",
      "type": "function"
    },
    {
      "inputs": [
        {
          "internalType": "address",
          "name": "tokenOwner",
          "type": "address"
        }
      ],
      "name": "balanceOf",
      "outputs": [
        {
          "internalType": "uint256",
          "name": "",
          "type": "uint256"
        }
      ],
      "stateMutability": "view",
      "type": "function"
    },
    {
      "inputs": [],
      "name": "balance",
      "outputs": [
        {
          "internalType": "uint256",
          "name": "",
          "type": "uint256"
        }
      ],
      "stateMutability": "view",
      "type": "function"
    },
    {
      "inputs": [
        {
          "internalType": "address",
          "name": "delegate",
          "type": "address"
        },
        {
          "internalType": "uint256",
          "name": "_numTokens",
          "type": "uint256"
        }
      ],
      "name": "approveWith",
      "outputs": [
        {
          "internalType": "bool",
          "name": "",
          "type": "bool"
        }
      ],
      "stateMutability": "nonpayable",
      "type": "function"
    },
    {
      "inputs": [],
      "name": "withDraw",
      "outputs": [
        {
          "internalType": "bool",
          "name": "",
          "type": "bool"
        }
      ],
      "stateMutability": "pure",
      "type": "function"
    },
    {
      "inputs": [
        {
          "internalType": "address",
          "name": "tokenOwner",
          "type": "address"
        },
        {
          "internalType": "uint256",
          "name": "numTokens",
          "type": "uint256"
        }
      ],
      "name": "transferWith",
      "outputs": [
        {
          "internalType": "bool",
          "name": "",
          "type": "bool"
        }
      ],
      "stateMutability": "nonpayable",
      "type": "function"
    }
  ],
  "bytecode": "0x608060405234801561001057600080fd5b5060405161074138038061074183398101604081905261002f916100ad565b6100383361005d565b600280546001600160a01b0319166001600160a01b03929092169190911790556100db565b600080546001600160a01b038381166001600160a01b0319831681178455604051919092169283917f8be0079c531659141344cd1fd0a4f28419497f9722a3daafe3b4186f6b6457e09190a35050565b6000602082840312156100be578081fd5b81516001600160a01b03811681146100d4578182fd5b9392505050565b610657806100ea6000396000f3fe608060405234801561001057600080fd5b506004361061009e5760003560e01c8063715018a611610066578063715018a6146101155780638da5cb5b1461011f578063b69ef8a81461013a578063de242ff414610142578063f2fde38b1461014a5761009e565b80630fdb1c10146100a357806329fe6228146100bb57806344edffbb146100ce57806367ff17a6146100e157806370a08231146100f4575b600080fd5b60015b60405190151581526020015b60405180910390f35b6100a66100c936600461056a565b61015d565b6100a66100dc36600461058b565b6101b3565b6100a66100ef36600461058b565b610244565b61010761010236600461056a565b61031c565b6040519081526020016100b2565b61011d6103a0565b005b6000546040516001600160a01b0390911681526020016100b2565b6101076103d6565b6101076103e6565b61011d61015836600461056a565b610468565b600080546001600160a01b031633146101915760405162461bcd60e51b8152600401610188906105ec565b60405180910390fd5b50600180546001600160a01b0319166001600160a01b0383161781555b919050565b6002546040516344edffbb60e01b81526001600160a01b0384811660048301526024820184905260009216906344edffbb90604401602060405180830381600087803b15801561020257600080fd5b505af1158015610216573d6000803e3d6000fd5b505050506040513d601f19601f8201168201806040525081019061023a91906105b4565b5060019392505050565b6001546000906001600160a01b031633146102965760405162461bcd60e51b81526020600482015260126024820152712737ba1030b63637bbb2b21031b0b63632b960711b6044820152606401610188565b6002546040516333ff8bd360e11b81526001600160a01b03858116600483015260248201859052909116906367ff17a690604401602060405180830381600087803b1580156102e457600080fd5b505af11580156102f8573d6000803e3d6000fd5b505050506040513d601f19601f8201168201806040525081019061023a91906105d4565b6002546040516370a0823160e01b81526001600160a01b03838116600483015260009216906370a082319060240160206040518083038186803b15801561036257600080fd5b505afa158015610376573d6000803e3d6000fd5b505050506040513d601f19601f8201168201806040525081019061039a91906105d4565b92915050565b6000546001600160a01b031633146103ca5760405162461bcd60e51b8152600401610188906105ec565b6103d46000610503565b565b60006103e13061031c565b905090565b600254604051636eb1769f60e11b81523060048201523360248201526000916001600160a01b03169063dd62ed3e9060440160206040518083038186803b15801561043057600080fd5b505afa158015610444573d6000803e3d6000fd5b505050506040513d601f19601f820116820180604052508101906103e191906105d4565b6000546001600160a01b031633146104925760405162461bcd60e51b8152600401610188906105ec565b6001600160a01b0381166104f75760405162461bcd60e51b815260206004820152602660248201527f4f776e61626c653a206e6577206f776e657220697320746865207a65726f206160448201526564647265737360d01b6064820152608401610188565b61050081610503565b50565b600080546001600160a01b038381166001600160a01b0319831681178455604051919092169283917f8be0079c531659141344cd1fd0a4f28419497f9722a3daafe3b4186f6b6457e09190a35050565b80356001600160a01b03811681146101ae57600080fd5b60006020828403121561057b578081fd5b61058482610553565b9392505050565b6000806040838503121561059d578081fd5b6105a683610553565b946020939093013593505050565b6000602082840312156105c5578081fd5b81518015158114610584578182fd5b6000602082840312156105e5578081fd5b5051919050565b6020808252818101527f4f776e61626c653a2063616c6c6572206973206e6f7420746865206f776e657260408201526060019056fea2646970667358221220abaa07ed81129eabcc2f229617a9cc67c237ed054185e877647af50de912e4f764736f6c63430008020033",
  "immutableReferences": {},
  "source": "// SPDX-License-Identifier: GPL-3.0\npragma solidity >=0.7.0 <=0.9.0;\n\nimport \"./PoolPassiveInterface.sol\";\nimport \"./SatTokenInterface.sol\";\nimport \"@openzeppelin/contracts/access/Ownable.sol\";\n\n/**\n * @author Sintrop\n * @title IsaPool\n * @dev IsaPool is a contract to manage user votes\n */\ncontract IsaPool is PoolPassiveInterface, Ownable {\n    address allowedCaller;\n    SatTokenInterface internal satToken;\n\n    constructor(address satTokenAddress) {\n        satToken = SatTokenInterface(satTokenAddress);\n    }\n\n    function changeAllowedCaller(address allowed)\n        public\n        onlyOwner\n        returns (bool)\n    {\n        allowedCaller = allowed;\n        return true;\n    }\n\n    /**\n     * @dev Show how much tokens the developer can withdraw from DeveloperPool address\n     * @return uint256\n     * TODO Check external code call - EXTCALL\n     */\n    function allowance() public view override returns (uint256) {\n        return satToken.allowance(address(this), msg.sender);\n    }\n\n    /**\n     * @dev Allow a user know how much SAC Tokens has\n     * @param tokenOwner The address of the token owner\n     * @return uint256\n     */\n    function balanceOf(address tokenOwner)\n        public\n        view\n        override\n        returns (uint256)\n    {\n        return satToken.balanceOf(tokenOwner);\n    }\n\n    /**\n     * @dev Allow a user know how much SAC Tokens this pool has\n     */\n    function balance() public view override returns (uint256) {\n        return balanceOf(address(this));\n    }\n\n    /**\n     * @dev Allow a user approve some tokens from pool to he\n     * @param _numTokens How much tokens the user want transfer\n     * @return bool\n     */\n    function approveWith(address delegate, uint256 _numTokens)\n        public\n        override\n        mustBeAllowedCaller\n        returns (bool)\n    {\n        satToken.approveWith(delegate, _numTokens);\n        return true;\n    }\n\n    function withDraw() public pure override returns (bool) {\n        return true;\n    }\n\n    /**\n     * @dev Allow a user transfer some tokens to this contract pool\n     * @param tokenOwner The address of the token owner\n     * @param numTokens How much tokens the user want transfer\n     * @return bool\n     */\n    function transferWith(address tokenOwner, uint256 numTokens)\n        public\n        override\n        returns (bool)\n    {\n        satToken.transferWith(tokenOwner, numTokens);\n        return true;\n    }\n\n    modifier mustBeAllowedCaller() {\n        require(allowedCaller == msg.sender, \"Not allowed caller\");\n        _;\n    }\n}\n",
  "sourcePath": "/home/everson/Documents/projetos/sintrop/SAT-core-contracts/contracts/IsaPool.sol",
  "compiler": {
    "name": "solc",
    "version": "0.8.2+commit.661d1103.Emscripten.clang"
  },
  "schemaVersion": "3.4.6",
  "updatedAt": "2022-04-02T18:06:16.848Z",
  "devdoc": {
    "author": "Sintrop",
    "details": "IsaPool is a contract to manage user votes",
    "kind": "dev",
    "methods": {
      "allowance()": {
        "details": "Show how much tokens the developer can withdraw from DeveloperPool address",
        "returns": {
          "_0": "uint256 TODO Check external code call - EXTCALL"
        }
      },
      "approveWith(address,uint256)": {
        "details": "Allow a user approve some tokens from pool to he",
        "params": {
          "_numTokens": "How much tokens the user want transfer"
        },
        "returns": {
          "_0": "bool"
        }
      },
      "balance()": {
        "details": "Allow a user know how much SAC Tokens this pool has"
      },
      "balanceOf(address)": {
        "details": "Allow a user know how much SAC Tokens has",
        "params": {
          "tokenOwner": "The address of the token owner"
        },
        "returns": {
          "_0": "uint256"
        }
      },
      "owner()": {
        "details": "Returns the address of the current owner."
      },
      "renounceOwnership()": {
        "details": "Leaves the contract without owner. It will not be possible to call `onlyOwner` functions anymore. Can only be called by the current owner. NOTE: Renouncing ownership will leave the contract without an owner, thereby removing any functionality that is only available to the owner."
      },
      "transferOwnership(address)": {
        "details": "Transfers ownership of the contract to a new account (`newOwner`). Can only be called by the current owner."
      },
      "transferWith(address,uint256)": {
        "details": "Allow a user transfer some tokens to this contract pool",
        "params": {
          "numTokens": "How much tokens the user want transfer",
          "tokenOwner": "The address of the token owner"
        },
        "returns": {
          "_0": "bool"
        }
      }
    },
    "title": "IsaPool",
    "version": 1
  },
  "userdoc": {
    "kind": "user",
    "methods": {},
    "version": 1
  }
}