{
  "contractName": "ProducerContract",
  "abi": [
    {
      "inputs": [
        {
          "internalType": "address",
          "name": "addr",
          "type": "address"
        }
      ],
      "name": "getUser",
      "outputs": [
        {
          "internalType": "enum UserContract.UserType",
          "name": "",
          "type": "uint8"
        }
      ],
      "stateMutability": "view",
      "type": "function"
    },
    {
      "inputs": [],
      "name": "getUserTypes",
      "outputs": [
        {
          "internalType": "string",
          "name": "",
          "type": "string"
        },
        {
          "internalType": "string",
          "name": "",
          "type": "string"
        },
        {
          "internalType": "string",
          "name": "",
          "type": "string"
        }
      ],
      "stateMutability": "pure",
      "type": "function"
    },
    {
      "inputs": [],
      "name": "producersCount",
      "outputs": [
        {
          "internalType": "uint256",
          "name": "",
          "type": "uint256"
        }
      ],
      "stateMutability": "view",
      "type": "function"
    },
    {
      "inputs": [
        {
          "internalType": "uint256",
          "name": "",
          "type": "uint256"
        }
      ],
      "name": "producersList",
      "outputs": [
        {
          "internalType": "uint256",
          "name": "id",
          "type": "uint256"
        },
        {
          "internalType": "address",
          "name": "producer_wallet",
          "type": "address"
        },
        {
          "internalType": "enum UserContract.UserType",
          "name": "userType",
          "type": "uint8"
        },
        {
          "internalType": "string",
          "name": "name",
          "type": "string"
        },
        {
          "internalType": "string",
          "name": "document",
          "type": "string"
        },
        {
          "internalType": "string",
          "name": "documentType",
          "type": "string"
        },
        {
          "internalType": "bool",
          "name": "recentInspection",
          "type": "bool"
        },
        {
          "internalType": "uint256",
          "name": "totalRequests",
          "type": "uint256"
        },
        {
          "internalType": "int256",
          "name": "isaPoints",
          "type": "int256"
        },
        {
          "components": [
            {
              "internalType": "uint256",
              "name": "allowed",
              "type": "uint256"
            },
            {
              "internalType": "bool",
              "name": "withdrewToken",
              "type": "bool"
            }
          ],
          "internalType": "struct ProducerContract.TokenApprove",
          "name": "tokenApprove",
          "type": "tuple"
        },
        {
          "components": [
            {
              "internalType": "string",
              "name": "country",
              "type": "string"
            },
            {
              "internalType": "string",
              "name": "state",
              "type": "string"
            },
            {
              "internalType": "string",
              "name": "city",
              "type": "string"
            },
            {
              "internalType": "string",
              "name": "cep",
              "type": "string"
            }
          ],
          "internalType": "struct ProducerContract.PropertyAddress",
          "name": "property_address",
          "type": "tuple"
        }
      ],
      "stateMutability": "view",
      "type": "function"
    },
    {
      "inputs": [],
      "name": "usersCount",
      "outputs": [
        {
          "internalType": "uint256",
          "name": "",
          "type": "uint256"
        }
      ],
      "stateMutability": "view",
      "type": "function"
    },
    {
      "inputs": [
        {
          "internalType": "string",
          "name": "name",
          "type": "string"
        },
        {
          "internalType": "string",
          "name": "document",
          "type": "string"
        },
        {
          "internalType": "string",
          "name": "documentType",
          "type": "string"
        },
        {
          "internalType": "string",
          "name": "country",
          "type": "string"
        },
        {
          "internalType": "string",
          "name": "state",
          "type": "string"
        },
        {
          "internalType": "string",
          "name": "city",
          "type": "string"
        },
        {
          "internalType": "string",
          "name": "cep",
          "type": "string"
        }
      ],
      "name": "addProducer",
      "outputs": [
        {
          "internalType": "bool",
          "name": "",
          "type": "bool"
        }
      ],
      "stateMutability": "nonpayable",
      "type": "function"
    },
    {
      "inputs": [],
      "name": "getProducers",
      "outputs": [
        {
          "components": [
            {
              "internalType": "uint256",
              "name": "id",
              "type": "uint256"
            },
            {
              "internalType": "address",
              "name": "producer_wallet",
              "type": "address"
            },
            {
              "internalType": "enum UserContract.UserType",
              "name": "userType",
              "type": "uint8"
            },
            {
              "internalType": "string",
              "name": "name",
              "type": "string"
            },
            {
              "internalType": "string",
              "name": "document",
              "type": "string"
            },
            {
              "internalType": "string",
              "name": "documentType",
              "type": "string"
            },
            {
              "internalType": "bool",
              "name": "recentInspection",
              "type": "bool"
            },
            {
              "internalType": "uint256",
              "name": "totalRequests",
              "type": "uint256"
            },
            {
              "internalType": "int256",
              "name": "isaPoints",
              "type": "int256"
            },
            {
              "components": [
                {
                  "internalType": "uint256",
                  "name": "allowed",
                  "type": "uint256"
                },
                {
                  "internalType": "bool",
                  "name": "withdrewToken",
                  "type": "bool"
                }
              ],
              "internalType": "struct ProducerContract.TokenApprove",
              "name": "tokenApprove",
              "type": "tuple"
            },
            {
              "components": [
                {
                  "internalType": "string",
                  "name": "country",
                  "type": "string"
                },
                {
                  "internalType": "string",
                  "name": "state",
                  "type": "string"
                },
                {
                  "internalType": "string",
                  "name": "city",
                  "type": "string"
                },
                {
                  "internalType": "string",
                  "name": "cep",
                  "type": "string"
                }
              ],
              "internalType": "struct ProducerContract.PropertyAddress",
              "name": "property_address",
              "type": "tuple"
            }
          ],
          "internalType": "struct ProducerContract.Producer[]",
          "name": "",
          "type": "tuple[]"
        }
      ],
      "stateMutability": "view",
      "type": "function"
    },
    {
      "inputs": [
        {
          "internalType": "address",
          "name": "addr",
          "type": "address"
        }
      ],
      "name": "getProducer",
      "outputs": [
        {
          "components": [
            {
              "internalType": "uint256",
              "name": "id",
              "type": "uint256"
            },
            {
              "internalType": "address",
              "name": "producer_wallet",
              "type": "address"
            },
            {
              "internalType": "enum UserContract.UserType",
              "name": "userType",
              "type": "uint8"
            },
            {
              "internalType": "string",
              "name": "name",
              "type": "string"
            },
            {
              "internalType": "string",
              "name": "document",
              "type": "string"
            },
            {
              "internalType": "string",
              "name": "documentType",
              "type": "string"
            },
            {
              "internalType": "bool",
              "name": "recentInspection",
              "type": "bool"
            },
            {
              "internalType": "uint256",
              "name": "totalRequests",
              "type": "uint256"
            },
            {
              "internalType": "int256",
              "name": "isaPoints",
              "type": "int256"
            },
            {
              "components": [
                {
                  "internalType": "uint256",
                  "name": "allowed",
                  "type": "uint256"
                },
                {
                  "internalType": "bool",
                  "name": "withdrewToken",
                  "type": "bool"
                }
              ],
              "internalType": "struct ProducerContract.TokenApprove",
              "name": "tokenApprove",
              "type": "tuple"
            },
            {
              "components": [
                {
                  "internalType": "string",
                  "name": "country",
                  "type": "string"
                },
                {
                  "internalType": "string",
                  "name": "state",
                  "type": "string"
                },
                {
                  "internalType": "string",
                  "name": "city",
                  "type": "string"
                },
                {
                  "internalType": "string",
                  "name": "cep",
                  "type": "string"
                }
              ],
              "internalType": "struct ProducerContract.PropertyAddress",
              "name": "property_address",
              "type": "tuple"
            }
          ],
          "internalType": "struct ProducerContract.Producer",
          "name": "producer",
          "type": "tuple"
        }
      ],
      "stateMutability": "view",
      "type": "function"
    },
    {
      "inputs": [
        {
          "internalType": "address",
          "name": "addr",
          "type": "address"
        }
      ],
      "name": "producerExists",
      "outputs": [
        {
          "internalType": "bool",
          "name": "",
          "type": "bool"
        }
      ],
      "stateMutability": "view",
      "type": "function"
    },
    {
      "inputs": [
        {
          "internalType": "address",
          "name": "address_",
          "type": "address"
        }
      ],
      "name": "getProducerApprove",
      "outputs": [
        {
          "internalType": "uint256",
          "name": "",
          "type": "uint256"
        }
      ],
      "stateMutability": "view",
      "type": "function"
    }
  ],
  "bytecode": "0x608060405234801561001057600080fd5b50611cba806100206000396000f3fe608060405234801561001057600080fd5b506004361061009e5760003560e01c80638ed5540d116100665780638ed5540d146101bb578063aab147b2146101de578063e53142e2146101fe578063e80a7eb914610207578063e9e797ac1461021c5761009e565b80630cc94acc146100a35780636337dc1a146100d65780636ba13a821461013f5780636f77926b146101565780638cf054421461018f575b600080fd5b6100b66100b1366004611899565b61022f565b6040516100cd9b9a99989796959493929190611b36565b60405180910390f35b604080518082018252600880825267282927a22aa1a2a960c11b60208084019190915283518085018552918252671050d512559254d560c21b8282015283518085018552600a8152692922a9a2a0a921a422a960b11b9181019190915292516100cd9390611ae0565b61014860015481565b6040519081526020016100cd565b610182610164366004611758565b6001600160a01b031660009081526020819052604090205460ff1690565b6040516100cd9190611acc565b61014861019d366004611758565b6001600160a01b031660009081526003602052604090206008015490565b6101ce6101c9366004611786565b6106af565b60405190151581526020016100cd565b6101f16101ec366004611758565b610ad0565b6040516100cd9190611b23565b61014860045481565b61020f610fd0565b6040516100cd9190611a6c565b6101ce61022a366004611758565b611503565b6002818154811061023f57600080fd5b60009182526020909120600e90910201805460018201546002830180549294506001600160a01b03821693600160a01b90920460ff169261027f90611c02565b80601f01602080910402602001604051908101604052809291908181526020018280546102ab90611c02565b80156102f85780601f106102cd576101008083540402835291602001916102f8565b820191906000526020600020905b8154815290600101906020018083116102db57829003601f168201915b50505050509080600301805461030d90611c02565b80601f016020809104026020016040519081016040528092919081815260200182805461033990611c02565b80156103865780601f1061035b57610100808354040283529160200191610386565b820191906000526020600020905b81548152906001019060200180831161036957829003601f168201915b50505050509080600401805461039b90611c02565b80601f01602080910402602001604051908101604052809291908181526020018280546103c790611c02565b80156104145780601f106103e957610100808354040283529160200191610414565b820191906000526020600020905b8154815290600101906020018083116103f757829003601f168201915b5050505060058301546006840154600785015460408051808201825260088801548152600988015460ff90811615156020830152825160808101909352600a8901805498999190961697949650929490938290829061047290611c02565b80601f016020809104026020016040519081016040528092919081815260200182805461049e90611c02565b80156104eb5780601f106104c0576101008083540402835291602001916104eb565b820191906000526020600020905b8154815290600101906020018083116104ce57829003601f168201915b5050505050815260200160018201805461050490611c02565b80601f016020809104026020016040519081016040528092919081815260200182805461053090611c02565b801561057d5780601f106105525761010080835404028352916020019161057d565b820191906000526020600020905b81548152906001019060200180831161056057829003601f168201915b5050505050815260200160028201805461059690611c02565b80601f01602080910402602001604051908101604052809291908181526020018280546105c290611c02565b801561060f5780601f106105e45761010080835404028352916020019161060f565b820191906000526020600020905b8154815290600101906020018083116105f257829003601f168201915b5050505050815260200160038201805461062890611c02565b80601f016020809104026020016040519081016040528092919081815260200182805461065490611c02565b80156106a15780601f10610676576101008083540402835291602001916106a1565b820191906000526020600020905b81548152906001019060200180831161068457829003601f168201915b50505050508152505090508b565b60008060045460016106c19190611bea565b60408051608081018252888152602080820189905281830188905260608201879052825180840184526000808252818301819052845161016081018652868152339381019390935294955060019492939092919081018581526020018e81526020018d81526020018c8152602001600015158152602001600081526020016000815260200183815260200184815250905060028190806001815401808255809150506001900390600052602060002090600e02016000909190919091506000820151816000015560208201518160010160006101000a8154816001600160a01b0302191690836001600160a01b0316021790555060408201518160010160146101000a81548160ff021916908360038111156107ed57634e487b7160e01b600052602160045260246000fd5b02179055506060820151805161080d916002840191602090910190611597565b5060808201518051610829916003840191602090910190611597565b5060a08201518051610845916004840191602090910190611597565b5060c082015160058201805491151560ff1992831617905560e083015160068301556101008301516007830155610120830151805160088401556020908101516009840180549115159190931617909155610140830151805180519192600a8501926108b49284920190611597565b5060208281015180516108cd9260018501920190611597565b50604082015180516108e9916002840191602090910190611597565b5060608201518051610905916003840191602090910190611597565b50503360009081526003602081815260409283902087518155908701516001820180546001600160a01b0319166001600160a01b0390921691909117808255938801518897509195509093509160ff60a01b191690600160a01b90849081111561097f57634e487b7160e01b600052602160045260246000fd5b02179055506060820151805161099f916002840191602090910190611597565b50608082015180516109bb916003840191602090910190611597565b5060a082015180516109d7916004840191602090910190611597565b5060c082015160058201805491151560ff1992831617905560e083015160068301556101008301516007830155610120830151805160088401556020908101516009840180549115159190931617909155610140830151805180519192600a850192610a469284920190611597565b506020828101518051610a5f9260018501920190611597565b5060408201518051610a7b916002840191602090910190611597565b5060608201518051610a97916003840191602090910190611597565b5050600480549350915060009050610aae83611c3d565b9190505550610abd3385611536565b5060019c9b505050505050505050505050565b610ad861161b565b6001600160a01b038281166000908152600360208181526040928390208351610160810185528154815260018201549586169281019290925290939092840191600160a01b90910460ff1690811115610b4157634e487b7160e01b600052602160045260246000fd5b6003811115610b6057634e487b7160e01b600052602160045260246000fd5b8152602001600282018054610b7490611c02565b80601f0160208091040260200160405190810160405280929190818152602001828054610ba090611c02565b8015610bed5780601f10610bc257610100808354040283529160200191610bed565b820191906000526020600020905b815481529060010190602001808311610bd057829003601f168201915b50505050508152602001600382018054610c0690611c02565b80601f0160208091040260200160405190810160405280929190818152602001828054610c3290611c02565b8015610c7f5780601f10610c5457610100808354040283529160200191610c7f565b820191906000526020600020905b815481529060010190602001808311610c6257829003601f168201915b50505050508152602001600482018054610c9890611c02565b80601f0160208091040260200160405190810160405280929190818152602001828054610cc490611c02565b8015610d115780601f10610ce657610100808354040283529160200191610d11565b820191906000526020600020905b815481529060010190602001808311610cf457829003601f168201915b5050509183525050600582015460ff90811615156020808401919091526006840154604080850191909152600785015460608501528051808201825260088601548152600986015490931615159183019190915260808084019290925280519182019052600a8301805460a09093019282908290610d8e90611c02565b80601f0160208091040260200160405190810160405280929190818152602001828054610dba90611c02565b8015610e075780601f10610ddc57610100808354040283529160200191610e07565b820191906000526020600020905b815481529060010190602001808311610dea57829003601f168201915b50505050508152602001600182018054610e2090611c02565b80601f0160208091040260200160405190810160405280929190818152602001828054610e4c90611c02565b8015610e995780601f10610e6e57610100808354040283529160200191610e99565b820191906000526020600020905b815481529060010190602001808311610e7c57829003601f168201915b50505050508152602001600282018054610eb290611c02565b80601f0160208091040260200160405190810160405280929190818152602001828054610ede90611c02565b8015610f2b5780601f10610f0057610100808354040283529160200191610f2b565b820191906000526020600020905b815481529060010190602001808311610f0e57829003601f168201915b50505050508152602001600382018054610f4490611c02565b80601f0160208091040260200160405190810160405280929190818152602001828054610f7090611c02565b8015610fbd5780601f10610f9257610100808354040283529160200191610fbd565b820191906000526020600020905b815481529060010190602001808311610fa057829003601f168201915b5050509190925250505090525092915050565b60606002805480602002602001604051908101604052809291908181526020016000905b828210156114fa5760008481526020908190206040805161016081018252600e86029092018054835260018101546001600160a01b03811694840194909452919290830190600160a01b900460ff16600381111561106257634e487b7160e01b600052602160045260246000fd5b600381111561108157634e487b7160e01b600052602160045260246000fd5b815260200160028201805461109590611c02565b80601f01602080910402602001604051908101604052809291908181526020018280546110c190611c02565b801561110e5780601f106110e35761010080835404028352916020019161110e565b820191906000526020600020905b8154815290600101906020018083116110f157829003601f168201915b5050505050815260200160038201805461112790611c02565b80601f016020809104026020016040519081016040528092919081815260200182805461115390611c02565b80156111a05780601f10611175576101008083540402835291602001916111a0565b820191906000526020600020905b81548152906001019060200180831161118357829003601f168201915b505050505081526020016004820180546111b990611c02565b80601f01602080910402602001604051908101604052809291908181526020018280546111e590611c02565b80156112325780601f1061120757610100808354040283529160200191611232565b820191906000526020600020905b81548152906001019060200180831161121557829003601f168201915b5050509183525050600582015460ff90811615156020808401919091526006840154604080850191909152600785015460608501528051808201825260088601548152600986015490931615159183019190915260808084019290925280519182019052600a8301805460a090930192829082906112af90611c02565b80601f01602080910402602001604051908101604052809291908181526020018280546112db90611c02565b80156113285780601f106112fd57610100808354040283529160200191611328565b820191906000526020600020905b81548152906001019060200180831161130b57829003601f168201915b5050505050815260200160018201805461134190611c02565b80601f016020809104026020016040519081016040528092919081815260200182805461136d90611c02565b80156113ba5780601f1061138f576101008083540402835291602001916113ba565b820191906000526020600020905b81548152906001019060200180831161139d57829003601f168201915b505050505081526020016002820180546113d390611c02565b80601f01602080910402602001604051908101604052809291908181526020018280546113ff90611c02565b801561144c5780601f106114215761010080835404028352916020019161144c565b820191906000526020600020905b81548152906001019060200180831161142f57829003601f168201915b5050505050815260200160038201805461146590611c02565b80601f016020809104026020016040519081016040528092919081815260200182805461149190611c02565b80156114de5780601f106114b3576101008083540402835291602001916114de565b820191906000526020600020905b8154815290600101906020018083116114c157829003601f168201915b5050505050815250508152505081526020019060010190610ff4565b50505050905090565b6001600160a01b0381166000908152600360205260408120600201805482919061152c90611c02565b9050119050919050565b6001600160a01b0382166000908152602081905260409020805482919060ff1916600183600381111561157957634e487b7160e01b600052602160045260246000fd5b02179055506001805490600061158e83611c3d565b91905055505050565b8280546115a390611c02565b90600052602060002090601f0160209004810192826115c5576000855561160b565b82601f106115de57805160ff191683800117855561160b565b8280016001018555821561160b579182015b8281111561160b5782518255916020019190600101906115f0565b506116179291506116bc565b5090565b60408051610160810182526000808252602082018190529091820190815260200160608152602001606081526020016060815260200160001515815260200160008152602001600081526020016116876040518060400160405280600081526020016000151581525090565b81526020016116b76040518060800160405280606081526020016060815260200160608152602001606081525090565b905290565b5b8082111561161757600081556001016116bd565b600082601f8301126116e1578081fd5b813567ffffffffffffffff808211156116fc576116fc611c6e565b604051601f8301601f19908116603f0116810190828211818310171561172457611724611c6e565b8160405283815286602085880101111561173c578485fd5b8360208701602083013792830160200193909352509392505050565b600060208284031215611769578081fd5b81356001600160a01b038116811461177f578182fd5b9392505050565b600080600080600080600060e0888a0312156117a0578283fd5b873567ffffffffffffffff808211156117b7578485fd5b6117c38b838c016116d1565b985060208a01359150808211156117d8578485fd5b6117e48b838c016116d1565b975060408a01359150808211156117f9578485fd5b6118058b838c016116d1565b965060608a013591508082111561181a578485fd5b6118268b838c016116d1565b955060808a013591508082111561183b578485fd5b6118478b838c016116d1565b945060a08a013591508082111561185c578384fd5b6118688b838c016116d1565b935060c08a013591508082111561187d578283fd5b5061188a8a828b016116d1565b91505092959891949750929550565b6000602082840312156118aa578081fd5b5035919050565b600481106118cf57634e487b7160e01b600052602160045260246000fd5b9052565b60008151808452815b818110156118f8576020818501810151868301820152016118dc565b818111156119095782602083870101525b50601f01601f19169290920160200192915050565b600061018082518452602083015161194160208601826001600160a01b03169052565b50604083015161195460408601826118b1565b50606083015181606086015261196c828601826118d3565b9150506080830151848203608086015261198682826118d3565b91505060a083015184820360a08601526119a082826118d3565b91505060c08301516119b660c086018215159052565b5060e08381015190850152610100808401519085015261012080840151805182870152602081015115156101408701525050610140830151848203610160860152611a018282611a0a565b95945050505050565b6000815160808452611a1f60808501826118d3565b905060208301518482036020860152611a3882826118d3565b91505060408301518482036040860152611a5282826118d3565b91505060608301518482036060860152611a0182826118d3565b6000602080830181845280855180835260408601915060408482028701019250838701855b82811015611abf57603f19888603018452611aad85835161191e565b94509285019290850190600101611a91565b5092979650505050505050565b60208101611ada82846118b1565b92915050565b600060608252611af360608301866118d3565b8281036020840152611b0581866118d3565b90508281036040840152611b1981856118d3565b9695505050505050565b60006020825261177f602083018461191e565b8b81526001600160a01b038b1660208201526000610180611b5a604084018d6118b1565b806060840152611b6c8184018c6118d3565b90508281036080840152611b80818b6118d3565b905082810360a0840152611b94818a6118d3565b905087151560c08401528660e084015285610100840152611bc5610120840186805182526020908101511515910152565b828103610160840152611bd88185611a0a565b9e9d5050505050505050505050505050565b60008219821115611bfd57611bfd611c58565b500190565b600281046001821680611c1657607f821691505b60208210811415611c3757634e487b7160e01b600052602260045260246000fd5b50919050565b6000600019821415611c5157611c51611c58565b5060010190565b634e487b7160e01b600052601160045260246000fd5b634e487b7160e01b600052604160045260246000fdfea2646970667358221220b9c83b2a7bef6ba86540d39cd4026ed56894d335d3d126a665f62eeab37fbfb264736f6c63430008020033",
  "immutableReferences": {},
  "source": "// SPDX-License-Identifier: GPL-3.0\npragma solidity >=0.7.0 <=0.9.0;\n\nimport './UserContract.sol';\n\n/**\n* @title ProducerContract\n* @dev Producer resource that represent a user that can request a inspection\n*/\ncontract ProducerContract is UserContract {\n    struct Producer {\n        uint id;\n        address producer_wallet;\n        UserType userType;\n        string name;\n        string document;\n        string documentType;\n        bool recentInspection;\n        uint totalRequests;\n        int isaPoints;\n        TokenApprove tokenApprove;\n        PropertyAddress property_address;\n    }\n  \n    struct TokenApprove {\n        uint allowed;\n        bool withdrewToken;\n    }\n    \n    struct PropertyAddress {\n        string country;\n        string state;\n        string city;\n        string cep;\n    }\n    \n    Producer[] public producersList;\n    mapping(address => Producer) producers;\n    uint public producersCount;\n\n    /**\n   * @dev Allow a new register of producer\n   * @param name the name of the producer\n   * @param document the document of producer\n   * @param documentType the document type type of producer. CPF/CNPJ\n   * @param country the country where the producer is\n   * @param state the state of the producer\n   * @param city the of the producer\n   * @param cep the cep of the producer\n   */\n    function addProducer( \n        string memory name, \n        string memory document, \n        string memory documentType, \n        string memory country, \n        string memory state, \n        string memory city, \n        string memory cep) public returns(bool) {\n            \n            uint id = producersCount + 1;\n            UserType userType = UserType.PRODUCER;\n            \n            PropertyAddress memory property_address = PropertyAddress(country, state, city, cep);\n            TokenApprove memory tokenApprove = TokenApprove(0, false);\n            Producer memory producer = Producer(id, msg.sender, userType, name, document, documentType, false, 0, 0, tokenApprove, property_address);\n            \n            producersList.push(producer);\n            producers[msg.sender] = producer;\n            producersCount++;\n            addUser(msg.sender, userType);\n            \n            return true;\n    }\n    \n    /**\n   * @dev Returns all registered producers\n   * @return Producer struct array\n   */\n    function getProducers() public view returns(Producer[] memory) {\n        return producersList;\n    }\n\n    /**\n   * @dev Return a specific producer\n   * @param addr the address of the producer.\n   */\n    function getProducer(address addr) public view returns(Producer memory producer) {\n        return producers[addr];\n    }\n    \n    /**\n   * @dev Check if a specific producer exists\n   * @return a bool that represent if a producer exists or not\n   */\n    function producerExists(address addr) public view returns(bool) {\n        return bytes(producers[addr].name).length > 0;\n    }\n\n    function approveProducerNewTokens(address addr, uint numTokens) internal {\n        uint tokens = producers[addr].tokenApprove.allowed;\n        producers[addr].tokenApprove = TokenApprove(tokens += numTokens, false);\n    }\n\n    function getProducerApprove(address address_) public view returns (uint) {\n        return producers[address_].tokenApprove.allowed;\n    }\n\n    function undoProducerApprove() internal returns (bool) {\n        producers[msg.sender].tokenApprove = TokenApprove(0, false);\n        return true;\n    }\n}",
  "sourcePath": "/home/everson/projetos/afiliart/SAT-core-contracts/contracts/ProducerContract.sol",
  "compiler": {
    "name": "solc",
    "version": "0.8.2+commit.661d1103.Emscripten.clang"
  },
  "schemaVersion": "3.4.4",
  "updatedAt": "2022-02-04T00:33:35.124Z",
  "devdoc": {
    "details": "Producer resource that represent a user that can request a inspection",
    "kind": "dev",
    "methods": {
      "addProducer(string,string,string,string,string,string,string)": {
        "details": "Allow a new register of producer",
        "params": {
          "cep": "the cep of the producer",
          "city": "the of the producer",
          "country": "the country where the producer is",
          "document": "the document of producer",
          "documentType": "the document type type of producer. CPF/CNPJ",
          "name": "the name of the producer",
          "state": "the state of the producer"
        }
      },
      "getProducer(address)": {
        "details": "Return a specific producer",
        "params": {
          "addr": "the address of the producer."
        }
      },
      "getProducers()": {
        "details": "Returns all registered producers",
        "returns": {
          "_0": "Producer struct array"
        }
      },
      "getUser(address)": {
        "details": "Returns the user type if the user is registered",
        "params": {
          "addr": "the user address that want check if exists"
        }
      },
      "getUserTypes()": {
        "details": "Returns the enum UserType of the system"
      },
      "producerExists(address)": {
        "details": "Check if a specific producer exists",
        "returns": {
          "_0": "a bool that represent if a producer exists or not"
        }
      }
    },
    "title": "ProducerContract",
    "version": 1
  },
  "userdoc": {
    "kind": "user",
    "methods": {},
    "version": 1
  }
}