{
  "contractName": "ProducerContract",
  "abi": [
    {
      "inputs": [
        {
          "internalType": "address",
          "name": "addr",
          "type": "address"
        }
      ],
      "name": "getUser",
      "outputs": [
        {
          "internalType": "enum UserContract.UserType",
          "name": "",
          "type": "uint8"
        }
      ],
      "stateMutability": "view",
      "type": "function"
    },
    {
      "inputs": [],
      "name": "getUserTypes",
      "outputs": [
        {
          "internalType": "string",
          "name": "",
          "type": "string"
        },
        {
          "internalType": "string",
          "name": "",
          "type": "string"
        },
        {
          "internalType": "string",
          "name": "",
          "type": "string"
        }
      ],
      "stateMutability": "pure",
      "type": "function"
    },
    {
      "inputs": [],
      "name": "producersCount",
      "outputs": [
        {
          "internalType": "uint256",
          "name": "",
          "type": "uint256"
        }
      ],
      "stateMutability": "view",
      "type": "function"
    },
    {
      "inputs": [
        {
          "internalType": "uint256",
          "name": "",
          "type": "uint256"
        }
      ],
      "name": "producersList",
      "outputs": [
        {
          "internalType": "uint256",
          "name": "id",
          "type": "uint256"
        },
        {
          "internalType": "address",
          "name": "producer_wallet",
          "type": "address"
        },
        {
          "internalType": "enum UserContract.UserType",
          "name": "userType",
          "type": "uint8"
        },
        {
          "internalType": "string",
          "name": "name",
          "type": "string"
        },
        {
          "internalType": "string",
          "name": "document",
          "type": "string"
        },
        {
          "internalType": "string",
          "name": "documentType",
          "type": "string"
        },
        {
          "internalType": "bool",
          "name": "recentInspection",
          "type": "bool"
        },
        {
          "internalType": "uint256",
          "name": "totalRequests",
          "type": "uint256"
        },
        {
          "internalType": "int256",
          "name": "isaPoints",
          "type": "int256"
        },
        {
          "components": [
            {
              "internalType": "uint256",
              "name": "allowed",
              "type": "uint256"
            },
            {
              "internalType": "bool",
              "name": "withdrewToken",
              "type": "bool"
            }
          ],
          "internalType": "struct ProducerContract.TokenApprove",
          "name": "tokenApprove",
          "type": "tuple"
        },
        {
          "components": [
            {
              "internalType": "string",
              "name": "country",
              "type": "string"
            },
            {
              "internalType": "string",
              "name": "state",
              "type": "string"
            },
            {
              "internalType": "string",
              "name": "city",
              "type": "string"
            },
            {
              "internalType": "string",
              "name": "cep",
              "type": "string"
            }
          ],
          "internalType": "struct ProducerContract.PropertyAddress",
          "name": "property_address",
          "type": "tuple"
        }
      ],
      "stateMutability": "view",
      "type": "function"
    },
    {
      "inputs": [],
      "name": "usersCount",
      "outputs": [
        {
          "internalType": "uint256",
          "name": "",
          "type": "uint256"
        }
      ],
      "stateMutability": "view",
      "type": "function"
    },
    {
      "inputs": [
        {
          "internalType": "string",
          "name": "name",
          "type": "string"
        },
        {
          "internalType": "string",
          "name": "document",
          "type": "string"
        },
        {
          "internalType": "string",
          "name": "documentType",
          "type": "string"
        },
        {
          "internalType": "string",
          "name": "country",
          "type": "string"
        },
        {
          "internalType": "string",
          "name": "state",
          "type": "string"
        },
        {
          "internalType": "string",
          "name": "city",
          "type": "string"
        },
        {
          "internalType": "string",
          "name": "cep",
          "type": "string"
        }
      ],
      "name": "addProducer",
      "outputs": [
        {
          "internalType": "bool",
          "name": "",
          "type": "bool"
        }
      ],
      "stateMutability": "nonpayable",
      "type": "function"
    },
    {
      "inputs": [],
      "name": "getProducers",
      "outputs": [
        {
          "components": [
            {
              "internalType": "uint256",
              "name": "id",
              "type": "uint256"
            },
            {
              "internalType": "address",
              "name": "producer_wallet",
              "type": "address"
            },
            {
              "internalType": "enum UserContract.UserType",
              "name": "userType",
              "type": "uint8"
            },
            {
              "internalType": "string",
              "name": "name",
              "type": "string"
            },
            {
              "internalType": "string",
              "name": "document",
              "type": "string"
            },
            {
              "internalType": "string",
              "name": "documentType",
              "type": "string"
            },
            {
              "internalType": "bool",
              "name": "recentInspection",
              "type": "bool"
            },
            {
              "internalType": "uint256",
              "name": "totalRequests",
              "type": "uint256"
            },
            {
              "internalType": "int256",
              "name": "isaPoints",
              "type": "int256"
            },
            {
              "components": [
                {
                  "internalType": "uint256",
                  "name": "allowed",
                  "type": "uint256"
                },
                {
                  "internalType": "bool",
                  "name": "withdrewToken",
                  "type": "bool"
                }
              ],
              "internalType": "struct ProducerContract.TokenApprove",
              "name": "tokenApprove",
              "type": "tuple"
            },
            {
              "components": [
                {
                  "internalType": "string",
                  "name": "country",
                  "type": "string"
                },
                {
                  "internalType": "string",
                  "name": "state",
                  "type": "string"
                },
                {
                  "internalType": "string",
                  "name": "city",
                  "type": "string"
                },
                {
                  "internalType": "string",
                  "name": "cep",
                  "type": "string"
                }
              ],
              "internalType": "struct ProducerContract.PropertyAddress",
              "name": "property_address",
              "type": "tuple"
            }
          ],
          "internalType": "struct ProducerContract.Producer[]",
          "name": "",
          "type": "tuple[]"
        }
      ],
      "stateMutability": "view",
      "type": "function"
    },
    {
      "inputs": [
        {
          "internalType": "address",
          "name": "addr",
          "type": "address"
        }
      ],
      "name": "getProducer",
      "outputs": [
        {
          "components": [
            {
              "internalType": "uint256",
              "name": "id",
              "type": "uint256"
            },
            {
              "internalType": "address",
              "name": "producer_wallet",
              "type": "address"
            },
            {
              "internalType": "enum UserContract.UserType",
              "name": "userType",
              "type": "uint8"
            },
            {
              "internalType": "string",
              "name": "name",
              "type": "string"
            },
            {
              "internalType": "string",
              "name": "document",
              "type": "string"
            },
            {
              "internalType": "string",
              "name": "documentType",
              "type": "string"
            },
            {
              "internalType": "bool",
              "name": "recentInspection",
              "type": "bool"
            },
            {
              "internalType": "uint256",
              "name": "totalRequests",
              "type": "uint256"
            },
            {
              "internalType": "int256",
              "name": "isaPoints",
              "type": "int256"
            },
            {
              "components": [
                {
                  "internalType": "uint256",
                  "name": "allowed",
                  "type": "uint256"
                },
                {
                  "internalType": "bool",
                  "name": "withdrewToken",
                  "type": "bool"
                }
              ],
              "internalType": "struct ProducerContract.TokenApprove",
              "name": "tokenApprove",
              "type": "tuple"
            },
            {
              "components": [
                {
                  "internalType": "string",
                  "name": "country",
                  "type": "string"
                },
                {
                  "internalType": "string",
                  "name": "state",
                  "type": "string"
                },
                {
                  "internalType": "string",
                  "name": "city",
                  "type": "string"
                },
                {
                  "internalType": "string",
                  "name": "cep",
                  "type": "string"
                }
              ],
              "internalType": "struct ProducerContract.PropertyAddress",
              "name": "property_address",
              "type": "tuple"
            }
          ],
          "internalType": "struct ProducerContract.Producer",
          "name": "producer",
          "type": "tuple"
        }
      ],
      "stateMutability": "view",
      "type": "function"
    },
    {
      "inputs": [
        {
          "internalType": "address",
          "name": "addr",
          "type": "address"
        }
      ],
      "name": "producerExists",
      "outputs": [
        {
          "internalType": "bool",
          "name": "",
          "type": "bool"
        }
      ],
      "stateMutability": "view",
      "type": "function"
    },
    {
      "inputs": [
        {
          "internalType": "address",
          "name": "address_",
          "type": "address"
        }
      ],
      "name": "getProducerApprove",
      "outputs": [
        {
          "internalType": "uint256",
          "name": "",
          "type": "uint256"
        }
      ],
      "stateMutability": "view",
      "type": "function"
    }
  ],
  "bytecode": "0x608060405234801561001057600080fd5b50611d15806100206000396000f3fe608060405234801561001057600080fd5b506004361061009e5760003560e01c80638ed5540d116100665780638ed5540d146101bb578063aab147b2146101de578063e53142e2146101fe578063e80a7eb914610207578063e9e797ac1461021c5761009e565b80630cc94acc146100a35780636337dc1a146100d65780636ba13a821461013f5780636f77926b146101565780638cf054421461018f575b600080fd5b6100b66100b13660046118f4565b61022f565b6040516100cd9b9a99989796959493929190611b91565b60405180910390f35b604080518082018252600880825267282927a22aa1a2a960c11b60208084019190915283518085018552918252671050d512559254d560c21b8282015283518085018552600a8152692922a9a2a0a921a422a960b11b9181019190915292516100cd9390611b3b565b61014860015481565b6040519081526020016100cd565b6101826101643660046117b3565b6001600160a01b031660009081526020819052604090205460ff1690565b6040516100cd9190611b27565b61014861019d3660046117b3565b6001600160a01b031660009081526003602052604090206008015490565b6101ce6101c93660046117e1565b6106af565b60405190151581526020016100cd565b6101f16101ec3660046117b3565b610b2b565b6040516100cd9190611b7e565b61014860045481565b61020f61102b565b6040516100cd9190611ac7565b6101ce61022a3660046117b3565b61155e565b6002818154811061023f57600080fd5b60009182526020909120600e90910201805460018201546002830180549294506001600160a01b03821693600160a01b90920460ff169261027f90611c5d565b80601f01602080910402602001604051908101604052809291908181526020018280546102ab90611c5d565b80156102f85780601f106102cd576101008083540402835291602001916102f8565b820191906000526020600020905b8154815290600101906020018083116102db57829003601f168201915b50505050509080600301805461030d90611c5d565b80601f016020809104026020016040519081016040528092919081815260200182805461033990611c5d565b80156103865780601f1061035b57610100808354040283529160200191610386565b820191906000526020600020905b81548152906001019060200180831161036957829003601f168201915b50505050509080600401805461039b90611c5d565b80601f01602080910402602001604051908101604052809291908181526020018280546103c790611c5d565b80156104145780601f106103e957610100808354040283529160200191610414565b820191906000526020600020905b8154815290600101906020018083116103f757829003601f168201915b5050505060058301546006840154600785015460408051808201825260088801548152600988015460ff90811615156020830152825160808101909352600a8901805498999190961697949650929490938290829061047290611c5d565b80601f016020809104026020016040519081016040528092919081815260200182805461049e90611c5d565b80156104eb5780601f106104c0576101008083540402835291602001916104eb565b820191906000526020600020905b8154815290600101906020018083116104ce57829003601f168201915b5050505050815260200160018201805461050490611c5d565b80601f016020809104026020016040519081016040528092919081815260200182805461053090611c5d565b801561057d5780601f106105525761010080835404028352916020019161057d565b820191906000526020600020905b81548152906001019060200180831161056057829003601f168201915b5050505050815260200160028201805461059690611c5d565b80601f01602080910402602001604051908101604052809291908181526020018280546105c290611c5d565b801561060f5780601f106105e45761010080835404028352916020019161060f565b820191906000526020600020905b8154815290600101906020018083116105f257829003601f168201915b5050505050815260200160038201805461062890611c5d565b80601f016020809104026020016040519081016040528092919081815260200182805461065490611c5d565b80156106a15780601f10610676576101008083540402835291602001916106a1565b820191906000526020600020905b81548152906001019060200180831161068457829003601f168201915b50505050508152505090508b565b60006106ba3361155e565b1561070b5760405162461bcd60e51b815260206004820152601b60248201527f546869732070726f647563657220616c72656164792065786973740000000000604482015260640160405180910390fd5b6000600454600161071c9190611c45565b60408051608081018252888152602080820189905281830188905260608201879052825180840184526000808252818301819052845161016081018652868152339381019390935294955060019492939092919081018581526020018e81526020018d81526020018c8152602001600015158152602001600081526020016000815260200183815260200184815250905060028190806001815401808255809150506001900390600052602060002090600e02016000909190919091506000820151816000015560208201518160010160006101000a8154816001600160a01b0302191690836001600160a01b0316021790555060408201518160010160146101000a81548160ff0219169083600381111561084857634e487b7160e01b600052602160045260246000fd5b0217905550606082015180516108689160028401916020909101906115f2565b50608082015180516108849160038401916020909101906115f2565b5060a082015180516108a09160048401916020909101906115f2565b5060c082015160058201805491151560ff1992831617905560e083015160068301556101008301516007830155610120830151805160088401556020908101516009840180549115159190931617909155610140830151805180519192600a85019261090f92849201906115f2565b50602082810151805161092892600185019201906115f2565b50604082015180516109449160028401916020909101906115f2565b50606082015180516109609160038401916020909101906115f2565b50503360009081526003602081815260409283902087518155908701516001820180546001600160a01b0319166001600160a01b0390921691909117808255938801518897509195509093509160ff60a01b191690600160a01b9084908111156109da57634e487b7160e01b600052602160045260246000fd5b0217905550606082015180516109fa9160028401916020909101906115f2565b5060808201518051610a169160038401916020909101906115f2565b5060a08201518051610a329160048401916020909101906115f2565b5060c082015160058201805491151560ff1992831617905560e083015160068301556101008301516007830155610120830151805160088401556020908101516009840180549115159190931617909155610140830151805180519192600a850192610aa192849201906115f2565b506020828101518051610aba92600185019201906115f2565b5060408201518051610ad69160028401916020909101906115f2565b5060608201518051610af29160038401916020909101906115f2565b5050600480549350915060009050610b0983611c98565b9190505550610b183385611591565b5060019c9b505050505050505050505050565b610b33611676565b6001600160a01b038281166000908152600360208181526040928390208351610160810185528154815260018201549586169281019290925290939092840191600160a01b90910460ff1690811115610b9c57634e487b7160e01b600052602160045260246000fd5b6003811115610bbb57634e487b7160e01b600052602160045260246000fd5b8152602001600282018054610bcf90611c5d565b80601f0160208091040260200160405190810160405280929190818152602001828054610bfb90611c5d565b8015610c485780601f10610c1d57610100808354040283529160200191610c48565b820191906000526020600020905b815481529060010190602001808311610c2b57829003601f168201915b50505050508152602001600382018054610c6190611c5d565b80601f0160208091040260200160405190810160405280929190818152602001828054610c8d90611c5d565b8015610cda5780601f10610caf57610100808354040283529160200191610cda565b820191906000526020600020905b815481529060010190602001808311610cbd57829003601f168201915b50505050508152602001600482018054610cf390611c5d565b80601f0160208091040260200160405190810160405280929190818152602001828054610d1f90611c5d565b8015610d6c5780601f10610d4157610100808354040283529160200191610d6c565b820191906000526020600020905b815481529060010190602001808311610d4f57829003601f168201915b5050509183525050600582015460ff90811615156020808401919091526006840154604080850191909152600785015460608501528051808201825260088601548152600986015490931615159183019190915260808084019290925280519182019052600a8301805460a09093019282908290610de990611c5d565b80601f0160208091040260200160405190810160405280929190818152602001828054610e1590611c5d565b8015610e625780601f10610e3757610100808354040283529160200191610e62565b820191906000526020600020905b815481529060010190602001808311610e4557829003601f168201915b50505050508152602001600182018054610e7b90611c5d565b80601f0160208091040260200160405190810160405280929190818152602001828054610ea790611c5d565b8015610ef45780601f10610ec957610100808354040283529160200191610ef4565b820191906000526020600020905b815481529060010190602001808311610ed757829003601f168201915b50505050508152602001600282018054610f0d90611c5d565b80601f0160208091040260200160405190810160405280929190818152602001828054610f3990611c5d565b8015610f865780601f10610f5b57610100808354040283529160200191610f86565b820191906000526020600020905b815481529060010190602001808311610f6957829003601f168201915b50505050508152602001600382018054610f9f90611c5d565b80601f0160208091040260200160405190810160405280929190818152602001828054610fcb90611c5d565b80156110185780601f10610fed57610100808354040283529160200191611018565b820191906000526020600020905b815481529060010190602001808311610ffb57829003601f168201915b5050509190925250505090525092915050565b60606002805480602002602001604051908101604052809291908181526020016000905b828210156115555760008481526020908190206040805161016081018252600e86029092018054835260018101546001600160a01b03811694840194909452919290830190600160a01b900460ff1660038111156110bd57634e487b7160e01b600052602160045260246000fd5b60038111156110dc57634e487b7160e01b600052602160045260246000fd5b81526020016002820180546110f090611c5d565b80601f016020809104026020016040519081016040528092919081815260200182805461111c90611c5d565b80156111695780601f1061113e57610100808354040283529160200191611169565b820191906000526020600020905b81548152906001019060200180831161114c57829003601f168201915b5050505050815260200160038201805461118290611c5d565b80601f01602080910402602001604051908101604052809291908181526020018280546111ae90611c5d565b80156111fb5780601f106111d0576101008083540402835291602001916111fb565b820191906000526020600020905b8154815290600101906020018083116111de57829003601f168201915b5050505050815260200160048201805461121490611c5d565b80601f016020809104026020016040519081016040528092919081815260200182805461124090611c5d565b801561128d5780601f106112625761010080835404028352916020019161128d565b820191906000526020600020905b81548152906001019060200180831161127057829003601f168201915b5050509183525050600582015460ff90811615156020808401919091526006840154604080850191909152600785015460608501528051808201825260088601548152600986015490931615159183019190915260808084019290925280519182019052600a8301805460a0909301928290829061130a90611c5d565b80601f016020809104026020016040519081016040528092919081815260200182805461133690611c5d565b80156113835780601f1061135857610100808354040283529160200191611383565b820191906000526020600020905b81548152906001019060200180831161136657829003601f168201915b5050505050815260200160018201805461139c90611c5d565b80601f01602080910402602001604051908101604052809291908181526020018280546113c890611c5d565b80156114155780601f106113ea57610100808354040283529160200191611415565b820191906000526020600020905b8154815290600101906020018083116113f857829003601f168201915b5050505050815260200160028201805461142e90611c5d565b80601f016020809104026020016040519081016040528092919081815260200182805461145a90611c5d565b80156114a75780601f1061147c576101008083540402835291602001916114a7565b820191906000526020600020905b81548152906001019060200180831161148a57829003601f168201915b505050505081526020016003820180546114c090611c5d565b80601f01602080910402602001604051908101604052809291908181526020018280546114ec90611c5d565b80156115395780601f1061150e57610100808354040283529160200191611539565b820191906000526020600020905b81548152906001019060200180831161151c57829003601f168201915b505050505081525050815250508152602001906001019061104f565b50505050905090565b6001600160a01b0381166000908152600360205260408120600201805482919061158790611c5d565b9050119050919050565b6001600160a01b0382166000908152602081905260409020805482919060ff191660018360038111156115d457634e487b7160e01b600052602160045260246000fd5b0217905550600180549060006115e983611c98565b91905055505050565b8280546115fe90611c5d565b90600052602060002090601f0160209004810192826116205760008555611666565b82601f1061163957805160ff1916838001178555611666565b82800160010185558215611666579182015b8281111561166657825182559160200191906001019061164b565b50611672929150611717565b5090565b60408051610160810182526000808252602082018190529091820190815260200160608152602001606081526020016060815260200160001515815260200160008152602001600081526020016116e26040518060400160405280600081526020016000151581525090565b81526020016117126040518060800160405280606081526020016060815260200160608152602001606081525090565b905290565b5b808211156116725760008155600101611718565b600082601f83011261173c578081fd5b813567ffffffffffffffff8082111561175757611757611cc9565b604051601f8301601f19908116603f0116810190828211818310171561177f5761177f611cc9565b81604052838152866020858801011115611797578485fd5b8360208701602083013792830160200193909352509392505050565b6000602082840312156117c4578081fd5b81356001600160a01b03811681146117da578182fd5b9392505050565b600080600080600080600060e0888a0312156117fb578283fd5b873567ffffffffffffffff80821115611812578485fd5b61181e8b838c0161172c565b985060208a0135915080821115611833578485fd5b61183f8b838c0161172c565b975060408a0135915080821115611854578485fd5b6118608b838c0161172c565b965060608a0135915080821115611875578485fd5b6118818b838c0161172c565b955060808a0135915080821115611896578485fd5b6118a28b838c0161172c565b945060a08a01359150808211156118b7578384fd5b6118c38b838c0161172c565b935060c08a01359150808211156118d8578283fd5b506118e58a828b0161172c565b91505092959891949750929550565b600060208284031215611905578081fd5b5035919050565b6004811061192a57634e487b7160e01b600052602160045260246000fd5b9052565b60008151808452815b8181101561195357602081850181015186830182015201611937565b818111156119645782602083870101525b50601f01601f19169290920160200192915050565b600061018082518452602083015161199c60208601826001600160a01b03169052565b5060408301516119af604086018261190c565b5060608301518160608601526119c78286018261192e565b915050608083015184820360808601526119e1828261192e565b91505060a083015184820360a08601526119fb828261192e565b91505060c0830151611a1160c086018215159052565b5060e08381015190850152610100808401519085015261012080840151805182870152602081015115156101408701525050610140830151848203610160860152611a5c8282611a65565b95945050505050565b6000815160808452611a7a608085018261192e565b905060208301518482036020860152611a93828261192e565b91505060408301518482036040860152611aad828261192e565b91505060608301518482036060860152611a5c828261192e565b6000602080830181845280855180835260408601915060408482028701019250838701855b82811015611b1a57603f19888603018452611b08858351611979565b94509285019290850190600101611aec565b5092979650505050505050565b60208101611b35828461190c565b92915050565b600060608252611b4e606083018661192e565b8281036020840152611b60818661192e565b90508281036040840152611b74818561192e565b9695505050505050565b6000602082526117da6020830184611979565b8b81526001600160a01b038b1660208201526000610180611bb5604084018d61190c565b806060840152611bc78184018c61192e565b90508281036080840152611bdb818b61192e565b905082810360a0840152611bef818a61192e565b905087151560c08401528660e084015285610100840152611c20610120840186805182526020908101511515910152565b828103610160840152611c338185611a65565b9e9d5050505050505050505050505050565b60008219821115611c5857611c58611cb3565b500190565b600281046001821680611c7157607f821691505b60208210811415611c9257634e487b7160e01b600052602260045260246000fd5b50919050565b6000600019821415611cac57611cac611cb3565b5060010190565b634e487b7160e01b600052601160045260246000fd5b634e487b7160e01b600052604160045260246000fdfea2646970667358221220fff9547218f9644681df3262edd6f824983fd4933ac5f6128f2bfc20334491e364736f6c63430008020033",
  "immutableReferences": {},
  "source": "// SPDX-License-Identifier: GPL-3.0\npragma solidity >=0.7.0 <=0.9.0;\n\nimport \"./UserContract.sol\";\n\n/**\n* @title ProducerContract\n* @dev Producer resource that represent a user that can request a inspection\n*/\ncontract ProducerContract is UserContract {\n    struct Producer {\n        uint id;\n        address producer_wallet;\n        UserType userType;\n        string name;\n        string document;\n        string documentType;\n        bool recentInspection;\n        uint totalRequests;\n        int isaPoints;\n        TokenApprove tokenApprove;\n        PropertyAddress property_address;\n    }\n  \n    struct TokenApprove {\n        uint allowed;\n        bool withdrewToken;\n    }\n    \n    struct PropertyAddress {\n        string country;\n        string state;\n        string city;\n        string cep;\n    }\n    \n    Producer[] public producersList;\n    mapping(address => Producer) producers;\n    uint public producersCount;\n\n    /**\n   * @dev Allow a new register of producer\n   * @param name the name of the producer\n   * @param document the document of producer\n   * @param documentType the document type type of producer. CPF/CNPJ\n   * @param country the country where the producer is\n   * @param state the state of the producer\n   * @param city the of the producer\n   * @param cep the cep of the producer\n   */\n    function addProducer(\n        string memory name,\n        string memory document,\n        string memory documentType,\n        string memory country,\n        string memory state,\n        string memory city,\n        string memory cep) public returns(bool) {\n        require(!producerExists(msg.sender), \"This producer already exist\");\n\n        uint id = producersCount + 1;\n        UserType userType = UserType.PRODUCER;\n        PropertyAddress memory property_address = PropertyAddress(country, state, city, cep);\n        TokenApprove memory tokenApprove = TokenApprove(0, false);\n        Producer memory producer = Producer(id, msg.sender, userType, name, document, documentType, false, 0, 0, tokenApprove, property_address);\n        producersList.push(producer);\n        producers[msg.sender] = producer;\n        producersCount++;\n        addUser(msg.sender, userType);\n        return true;\n    }\n    \n    /**\n   * @dev Returns all registered producers\n   * @return Producer struct array\n   */\n    function getProducers() public view returns(Producer[] memory) {\n        return producersList;\n    }\n\n    /**\n   * @dev Return a specific producer\n   * @param addr the address of the producer.\n   */\n    function getProducer(address addr) public view returns(Producer memory producer) {\n        return producers[addr];\n    }\n    \n    /**\n   * @dev Check if a specific producer exists\n   * @return a bool that represent if a producer exists or not\n   */\n    function producerExists(address addr) public view returns(bool) {\n        return bytes(producers[addr].name).length > 0;\n    }\n\n    function approveProducerNewTokens(address addr, uint numTokens) internal {\n        uint tokens = producers[addr].tokenApprove.allowed;\n        producers[addr].tokenApprove = TokenApprove(tokens += numTokens, false);\n    }\n\n    function getProducerApprove(address address_) public view returns (uint) {\n        return producers[address_].tokenApprove.allowed;\n    }\n\n    function undoProducerApprove() internal returns (bool) {\n        producers[msg.sender].tokenApprove = TokenApprove(0, false);\n        return true;\n    }\n}",
  "sourcePath": "/home/everson/projetos/afiliart/SAT-core-contracts/contracts/ProducerContract.sol",
  "compiler": {
    "name": "solc",
    "version": "0.8.2+commit.661d1103.Emscripten.clang"
  },
  "schemaVersion": "3.4.4",
  "updatedAt": "2022-02-26T13:04:56.664Z",
  "devdoc": {
    "details": "Producer resource that represent a user that can request a inspection",
    "kind": "dev",
    "methods": {
      "addProducer(string,string,string,string,string,string,string)": {
        "details": "Allow a new register of producer",
        "params": {
          "cep": "the cep of the producer",
          "city": "the of the producer",
          "country": "the country where the producer is",
          "document": "the document of producer",
          "documentType": "the document type type of producer. CPF/CNPJ",
          "name": "the name of the producer",
          "state": "the state of the producer"
        }
      },
      "getProducer(address)": {
        "details": "Return a specific producer",
        "params": {
          "addr": "the address of the producer."
        }
      },
      "getProducers()": {
        "details": "Returns all registered producers",
        "returns": {
          "_0": "Producer struct array"
        }
      },
      "getUser(address)": {
        "details": "Returns the user type if the user is registered",
        "params": {
          "addr": "the user address that want check if exists"
        }
      },
      "getUserTypes()": {
        "details": "Returns the enum UserType of the system"
      },
      "producerExists(address)": {
        "details": "Check if a specific producer exists",
        "returns": {
          "_0": "a bool that represent if a producer exists or not"
        }
      }
    },
    "title": "ProducerContract",
    "version": 1
  },
  "userdoc": {
    "kind": "user",
    "methods": {},
    "version": 1
  }
}