{
  "contractName": "ProducerContract",
  "abi": [
    {
      "inputs": [
        {
          "internalType": "address",
          "name": "addr",
          "type": "address"
        }
      ],
      "name": "getUser",
      "outputs": [
        {
          "internalType": "enum UserContract.UserType",
          "name": "",
          "type": "uint8"
        }
      ],
      "stateMutability": "view",
      "type": "function"
    },
    {
      "inputs": [],
      "name": "getUserTypes",
      "outputs": [
        {
          "internalType": "string",
          "name": "",
          "type": "string"
        },
        {
          "internalType": "string",
          "name": "",
          "type": "string"
        },
        {
          "internalType": "string",
          "name": "",
          "type": "string"
        }
      ],
      "stateMutability": "pure",
      "type": "function"
    },
    {
      "inputs": [],
      "name": "producersCount",
      "outputs": [
        {
          "internalType": "uint256",
          "name": "",
          "type": "uint256"
        }
      ],
      "stateMutability": "view",
      "type": "function"
    },
    {
      "inputs": [],
      "name": "usersCount",
      "outputs": [
        {
          "internalType": "uint256",
          "name": "",
          "type": "uint256"
        }
      ],
      "stateMutability": "view",
      "type": "function"
    },
    {
      "inputs": [
        {
          "internalType": "string",
          "name": "name",
          "type": "string"
        },
        {
          "internalType": "string",
          "name": "document",
          "type": "string"
        },
        {
          "internalType": "string",
          "name": "documentType",
          "type": "string"
        },
        {
          "internalType": "string",
          "name": "country",
          "type": "string"
        },
        {
          "internalType": "string",
          "name": "state",
          "type": "string"
        },
        {
          "internalType": "string",
          "name": "city",
          "type": "string"
        },
        {
          "internalType": "string",
          "name": "cep",
          "type": "string"
        }
      ],
      "name": "addProducer",
      "outputs": [
        {
          "internalType": "bool",
          "name": "",
          "type": "bool"
        }
      ],
      "stateMutability": "nonpayable",
      "type": "function"
    },
    {
      "inputs": [],
      "name": "getProducers",
      "outputs": [
        {
          "components": [
            {
              "internalType": "uint256",
              "name": "id",
              "type": "uint256"
            },
            {
              "internalType": "address",
              "name": "producer_wallet",
              "type": "address"
            },
            {
              "internalType": "enum UserContract.UserType",
              "name": "userType",
              "type": "uint8"
            },
            {
              "internalType": "string",
              "name": "name",
              "type": "string"
            },
            {
              "internalType": "string",
              "name": "document",
              "type": "string"
            },
            {
              "internalType": "string",
              "name": "documentType",
              "type": "string"
            },
            {
              "internalType": "bool",
              "name": "recentInspection",
              "type": "bool"
            },
            {
              "internalType": "uint256",
              "name": "totalRequests",
              "type": "uint256"
            },
            {
              "internalType": "int256",
              "name": "isaPoints",
              "type": "int256"
            },
            {
              "components": [
                {
                  "internalType": "uint256",
                  "name": "allowed",
                  "type": "uint256"
                },
                {
                  "internalType": "bool",
                  "name": "withdrewToken",
                  "type": "bool"
                }
              ],
              "internalType": "struct ProducerContract.TokenApprove",
              "name": "tokenApprove",
              "type": "tuple"
            },
            {
              "components": [
                {
                  "internalType": "string",
                  "name": "country",
                  "type": "string"
                },
                {
                  "internalType": "string",
                  "name": "state",
                  "type": "string"
                },
                {
                  "internalType": "string",
                  "name": "city",
                  "type": "string"
                },
                {
                  "internalType": "string",
                  "name": "cep",
                  "type": "string"
                }
              ],
              "internalType": "struct ProducerContract.PropertyAddress",
              "name": "property_address",
              "type": "tuple"
            }
          ],
          "internalType": "struct ProducerContract.Producer[]",
          "name": "",
          "type": "tuple[]"
        }
      ],
      "stateMutability": "view",
      "type": "function"
    },
    {
      "inputs": [
        {
          "internalType": "address",
          "name": "addr",
          "type": "address"
        }
      ],
      "name": "getProducer",
      "outputs": [
        {
          "components": [
            {
              "internalType": "uint256",
              "name": "id",
              "type": "uint256"
            },
            {
              "internalType": "address",
              "name": "producer_wallet",
              "type": "address"
            },
            {
              "internalType": "enum UserContract.UserType",
              "name": "userType",
              "type": "uint8"
            },
            {
              "internalType": "string",
              "name": "name",
              "type": "string"
            },
            {
              "internalType": "string",
              "name": "document",
              "type": "string"
            },
            {
              "internalType": "string",
              "name": "documentType",
              "type": "string"
            },
            {
              "internalType": "bool",
              "name": "recentInspection",
              "type": "bool"
            },
            {
              "internalType": "uint256",
              "name": "totalRequests",
              "type": "uint256"
            },
            {
              "internalType": "int256",
              "name": "isaPoints",
              "type": "int256"
            },
            {
              "components": [
                {
                  "internalType": "uint256",
                  "name": "allowed",
                  "type": "uint256"
                },
                {
                  "internalType": "bool",
                  "name": "withdrewToken",
                  "type": "bool"
                }
              ],
              "internalType": "struct ProducerContract.TokenApprove",
              "name": "tokenApprove",
              "type": "tuple"
            },
            {
              "components": [
                {
                  "internalType": "string",
                  "name": "country",
                  "type": "string"
                },
                {
                  "internalType": "string",
                  "name": "state",
                  "type": "string"
                },
                {
                  "internalType": "string",
                  "name": "city",
                  "type": "string"
                },
                {
                  "internalType": "string",
                  "name": "cep",
                  "type": "string"
                }
              ],
              "internalType": "struct ProducerContract.PropertyAddress",
              "name": "property_address",
              "type": "tuple"
            }
          ],
          "internalType": "struct ProducerContract.Producer",
          "name": "producer",
          "type": "tuple"
        }
      ],
      "stateMutability": "view",
      "type": "function"
    },
    {
      "inputs": [
        {
          "internalType": "address",
          "name": "addr",
          "type": "address"
        }
      ],
      "name": "producerExists",
      "outputs": [
        {
          "internalType": "bool",
          "name": "",
          "type": "bool"
        }
      ],
      "stateMutability": "view",
      "type": "function"
    },
    {
      "inputs": [
        {
          "internalType": "address",
          "name": "address_",
          "type": "address"
        }
      ],
      "name": "getProducerApprove",
      "outputs": [
        {
          "internalType": "uint256",
          "name": "",
          "type": "uint256"
        }
      ],
      "stateMutability": "view",
      "type": "function"
    }
  ],
  "bytecode": "0x608060405234801561001057600080fd5b506116d6806100206000396000f3fe608060405234801561001057600080fd5b50600436106100935760003560e01c80638ed5540d116100665780638ed5540d14610186578063aab147b2146101a9578063e53142e2146101c9578063e80a7eb9146101d2578063e9e797ac146101e757610093565b80636337dc1a146100985780636ba13a821461010a5780636f77926b146101215780638cf054421461015a575b600080fd5b604080518082018252600880825267282927a22aa1a2a960c11b60208084019190915283518085018552918252671050d512559254d560c21b8282015283518085018552600a8152692922a9a2a0a921a422a960b11b91810191909152925161010193906115b0565b60405180910390f35b61011360015481565b604051908152602001610101565b61014d61012f366004611240565b6001600160a01b031660009081526020819052604090205460ff1690565b604051610101919061159c565b610113610168366004611240565b6001600160a01b031660009081526002602052604090206008015490565b61019961019436600461126e565b6101fa565b6040519015158152602001610101565b6101bc6101b7366004611240565b610510565b60405161010191906115f3565b61011360045481565b6101da610a10565b604051610101919061153c565b6101996101f5366004611240565b610feb565b600061020533610feb565b156102565760405162461bcd60e51b815260206004820152601b60248201527f546869732070726f647563657220616c72656164792065786973740000000000604482015260640160405180910390fd5b60408051608081018252868152602080820187905281830186905260608201859052825180840184526000808252918101829052835161016081019094526004546001949192919081906102aa9087611606565b81523360208201526040018560038111156102d557634e487b7160e01b600052602160045260246000fd5b815260208082018f905260408083018f9052606083018e905260006080840181905260a0840181905260c0840181905260e08401879052610100909301879052338352600282529182902083518155908301516001820180546001600160a01b0319166001600160a01b0390921691909117808255928401519394508493919260ff60a01b1916600160a01b83600381111561038157634e487b7160e01b600052602160045260246000fd5b0217905550606082015180516103a191600284019160209091019061107f565b50608082015180516103bd91600384019160209091019061107f565b5060a082015180516103d991600484019160209091019061107f565b5060c082015160058201805491151560ff1992831617905560e083015160068301556101008301516007830155610120830151805160088401556020908101516009840180549115159190931617909155610140830151805180519192600a850192610448928492019061107f565b506020828101518051610461926001850192019061107f565b506040820151805161047d91600284019160209091019061107f565b506060820151805161049991600384019160209091019061107f565b50506003805460018101825560009182527fc2575a0e9e593c00f959f8c92f12db2869c3395a3b0502d05e2516446f71f85b0180546001600160a01b03191633179055600480549450925090506104ef83611659565b91905055506104fe338561101e565b5060019b9a5050505050505050505050565b610518611103565b6001600160a01b038281166000908152600260209081526040918290208251610160810184528154815260018201549485169281019290925290929091830190600160a01b900460ff16600381111561058157634e487b7160e01b600052602160045260246000fd5b60038111156105a057634e487b7160e01b600052602160045260246000fd5b81526020016002820180546105b49061161e565b80601f01602080910402602001604051908101604052809291908181526020018280546105e09061161e565b801561062d5780601f106106025761010080835404028352916020019161062d565b820191906000526020600020905b81548152906001019060200180831161061057829003601f168201915b505050505081526020016003820180546106469061161e565b80601f01602080910402602001604051908101604052809291908181526020018280546106729061161e565b80156106bf5780601f10610694576101008083540402835291602001916106bf565b820191906000526020600020905b8154815290600101906020018083116106a257829003601f168201915b505050505081526020016004820180546106d89061161e565b80601f01602080910402602001604051908101604052809291908181526020018280546107049061161e565b80156107515780601f1061072657610100808354040283529160200191610751565b820191906000526020600020905b81548152906001019060200180831161073457829003601f168201915b5050509183525050600582015460ff90811615156020808401919091526006840154604080850191909152600785015460608501528051808201825260088601548152600986015490931615159183019190915260808084019290925280519182019052600a8301805460a090930192829082906107ce9061161e565b80601f01602080910402602001604051908101604052809291908181526020018280546107fa9061161e565b80156108475780601f1061081c57610100808354040283529160200191610847565b820191906000526020600020905b81548152906001019060200180831161082a57829003601f168201915b505050505081526020016001820180546108609061161e565b80601f016020809104026020016040519081016040528092919081815260200182805461088c9061161e565b80156108d95780601f106108ae576101008083540402835291602001916108d9565b820191906000526020600020905b8154815290600101906020018083116108bc57829003601f168201915b505050505081526020016002820180546108f29061161e565b80601f016020809104026020016040519081016040528092919081815260200182805461091e9061161e565b801561096b5780601f106109405761010080835404028352916020019161096b565b820191906000526020600020905b81548152906001019060200180831161094e57829003601f168201915b505050505081526020016003820180546109849061161e565b80601f01602080910402602001604051908101604052809291908181526020018280546109b09061161e565b80156109fd5780601f106109d2576101008083540402835291602001916109fd565b820191906000526020600020905b8154815290600101906020018083116109e057829003601f168201915b5050509190925250505090525092915050565b6060600060045467ffffffffffffffff811115610a3d57634e487b7160e01b600052604160045260246000fd5b604051908082528060200260200182016040528015610a7657816020015b610a63611103565b815260200190600190039081610a5b5790505b50905060005b600454811015610fe557600060038281548110610aa957634e487b7160e01b600052603260045260246000fd5b60009182526020808320909101546001600160a01b039081168084526002835260409384902084516101608101865281548152600182015493841694810194909452909450919283019060ff600160a01b909104166003811115610b1d57634e487b7160e01b600052602160045260246000fd5b6003811115610b3c57634e487b7160e01b600052602160045260246000fd5b8152602001600282018054610b509061161e565b80601f0160208091040260200160405190810160405280929190818152602001828054610b7c9061161e565b8015610bc95780601f10610b9e57610100808354040283529160200191610bc9565b820191906000526020600020905b815481529060010190602001808311610bac57829003601f168201915b50505050508152602001600382018054610be29061161e565b80601f0160208091040260200160405190810160405280929190818152602001828054610c0e9061161e565b8015610c5b5780601f10610c3057610100808354040283529160200191610c5b565b820191906000526020600020905b815481529060010190602001808311610c3e57829003601f168201915b50505050508152602001600482018054610c749061161e565b80601f0160208091040260200160405190810160405280929190818152602001828054610ca09061161e565b8015610ced5780601f10610cc257610100808354040283529160200191610ced565b820191906000526020600020905b815481529060010190602001808311610cd057829003601f168201915b5050509183525050600582015460ff90811615156020808401919091526006840154604080850191909152600785015460608501528051808201825260088601548152600986015490931615159183019190915260808084019290925280519182019052600a8301805460a09093019282908290610d6a9061161e565b80601f0160208091040260200160405190810160405280929190818152602001828054610d969061161e565b8015610de35780601f10610db857610100808354040283529160200191610de3565b820191906000526020600020905b815481529060010190602001808311610dc657829003601f168201915b50505050508152602001600182018054610dfc9061161e565b80601f0160208091040260200160405190810160405280929190818152602001828054610e289061161e565b8015610e755780601f10610e4a57610100808354040283529160200191610e75565b820191906000526020600020905b815481529060010190602001808311610e5857829003601f168201915b50505050508152602001600282018054610e8e9061161e565b80601f0160208091040260200160405190810160405280929190818152602001828054610eba9061161e565b8015610f075780601f10610edc57610100808354040283529160200191610f07565b820191906000526020600020905b815481529060010190602001808311610eea57829003601f168201915b50505050508152602001600382018054610f209061161e565b80601f0160208091040260200160405190810160405280929190818152602001828054610f4c9061161e565b8015610f995780601f10610f6e57610100808354040283529160200191610f99565b820191906000526020600020905b815481529060010190602001808311610f7c57829003601f168201915b50505050508152505081525050838381518110610fc657634e487b7160e01b600052603260045260246000fd5b6020026020010181905250508080610fdd90611659565b915050610a7c565b50905090565b6001600160a01b038116600090815260026020819052604082200180548291906110149061161e565b9050119050919050565b6001600160a01b0382166000908152602081905260409020805482919060ff1916600183600381111561106157634e487b7160e01b600052602160045260246000fd5b02179055506001805490600061107683611659565b91905055505050565b82805461108b9061161e565b90600052602060002090601f0160209004810192826110ad57600085556110f3565b82601f106110c657805160ff19168380011785556110f3565b828001600101855582156110f3579182015b828111156110f35782518255916020019190600101906110d8565b506110ff9291506111a4565b5090565b604080516101608101825260008082526020820181905290918201908152602001606081526020016060815260200160608152602001600015158152602001600081526020016000815260200161116f6040518060400160405280600081526020016000151581525090565b815260200161119f6040518060800160405280606081526020016060815260200160608152602001606081525090565b905290565b5b808211156110ff57600081556001016111a5565b600082601f8301126111c9578081fd5b813567ffffffffffffffff808211156111e4576111e461168a565b604051601f8301601f19908116603f0116810190828211818310171561120c5761120c61168a565b81604052838152866020858801011115611224578485fd5b8360208701602083013792830160200193909352509392505050565b600060208284031215611251578081fd5b81356001600160a01b0381168114611267578182fd5b9392505050565b600080600080600080600060e0888a031215611288578283fd5b873567ffffffffffffffff8082111561129f578485fd5b6112ab8b838c016111b9565b985060208a01359150808211156112c0578485fd5b6112cc8b838c016111b9565b975060408a01359150808211156112e1578485fd5b6112ed8b838c016111b9565b965060608a0135915080821115611302578485fd5b61130e8b838c016111b9565b955060808a0135915080821115611323578485fd5b61132f8b838c016111b9565b945060a08a0135915080821115611344578384fd5b6113508b838c016111b9565b935060c08a0135915080821115611365578283fd5b506113728a828b016111b9565b91505092959891949750929550565b6004811061139f57634e487b7160e01b600052602160045260246000fd5b9052565b60008151808452815b818110156113c8576020818501810151868301820152016113ac565b818111156113d95782602083870101525b50601f01601f19169290920160200192915050565b600061018082518452602083015161141160208601826001600160a01b03169052565b5060408301516114246040860182611381565b50606083015181606086015261143c828601826113a3565b9150506080830151848203608086015261145682826113a3565b91505060a083015184820360a086015261147082826113a3565b91505060c083015161148660c086018215159052565b5060e083810151908501526101008084015190850152610120808401518051828701526020810151151561014087015250506101408301518482036101608601526114d182826114da565b95945050505050565b60008151608084526114ef60808501826113a3565b90506020830151848203602086015261150882826113a3565b9150506040830151848203604086015261152282826113a3565b915050606083015184820360608601526114d182826113a3565b6000602080830181845280855180835260408601915060408482028701019250838701855b8281101561158f57603f1988860301845261157d8583516113ee565b94509285019290850190600101611561565b5092979650505050505050565b602081016115aa8284611381565b92915050565b6000606082526115c360608301866113a3565b82810360208401526115d581866113a3565b905082810360408401526115e981856113a3565b9695505050505050565b60006020825261126760208301846113ee565b6000821982111561161957611619611674565b500190565b60028104600182168061163257607f821691505b6020821081141561165357634e487b7160e01b600052602260045260246000fd5b50919050565b600060001982141561166d5761166d611674565b5060010190565b634e487b7160e01b600052601160045260246000fd5b634e487b7160e01b600052604160045260246000fdfea264697066735822122055dd6f9035eb51030411303399c9b4d963f51a0fd713dedb17de3915380fe10a64736f6c63430008020033",
  "immutableReferences": {},
  "source": "// SPDX-License-Identifier: GPL-3.0\npragma solidity >=0.7.0 <=0.9.0;\n\nimport \"./UserContract.sol\";\n\n/**\n * @title ProducerContract\n * @dev Producer resource that represent a user that can request a inspection\n */\ncontract ProducerContract is UserContract {\n    struct Producer {\n        uint256 id;\n        address producer_wallet;\n        UserType userType;\n        string name;\n        string document;\n        string documentType;\n        bool recentInspection;\n        uint256 totalRequests;\n        int256 isaPoints;\n        TokenApprove tokenApprove;\n        PropertyAddress property_address;\n    }\n\n    struct TokenApprove {\n        uint256 allowed;\n        bool withdrewToken;\n    }\n\n    struct PropertyAddress {\n        string country;\n        string state;\n        string city;\n        string cep;\n    }\n\n    mapping(address => Producer) producers;\n    address[] internal producersAddress;\n    uint256 public producersCount;\n\n    /**\n     * @dev Allow a new register of producer\n     * @param name the name of the producer\n     * @param document the document of producer\n     * @param documentType the document type type of producer. CPF/CNPJ\n     * @param country the country where the producer is\n     * @param state the state of the producer\n     * @param city the of the producer\n     * @param cep the cep of the producer\n     */\n    function addProducer(\n        string memory name,\n        string memory document,\n        string memory documentType,\n        string memory country,\n        string memory state,\n        string memory city,\n        string memory cep\n    ) public returns (bool) {\n        require(!producerExists(msg.sender), \"This producer already exist\");\n        UserType userType = UserType.PRODUCER;\n        PropertyAddress memory property_address = PropertyAddress(\n            country,\n            state,\n            city,\n            cep\n        );\n        TokenApprove memory tokenApprove = TokenApprove(0, false);\n        Producer memory producer = Producer(\n            producersCount + 1,\n            msg.sender,\n            userType,\n            name,\n            document,\n            documentType,\n            false,\n            0,\n            0,\n            tokenApprove,\n            property_address\n        );\n\n        producers[msg.sender] = producer;\n        producersAddress.push(msg.sender);\n        producersCount++;\n        addUser(msg.sender, userType);\n        return true;\n    }\n\n    /**\n     * @dev Returns all registered producers\n     * @return Producer struct array\n     */\n    function getProducers() public view returns (Producer[] memory) {\n        Producer[] memory activistList = new Producer[](producersCount);\n\n        for (uint256 i = 0; i < producersCount; i++) {\n            address acAddress = producersAddress[i];\n            activistList[i] = producers[acAddress];\n        }\n\n        return activistList;\n    }\n\n    /**\n     * @dev Return a specific producer\n     * @param addr the address of the producer.\n     */\n    function getProducer(address addr)\n        public\n        view\n        returns (Producer memory producer)\n    {\n        return producers[addr];\n    }\n\n    /**\n     * @dev Check if a specific producer exists\n     * @return a bool that represent if a producer exists or not\n     */\n    function producerExists(address addr) public view returns (bool) {\n        return bytes(producers[addr].name).length > 0;\n    }\n\n    function approveProducerNewTokens(address addr, uint256 numTokens)\n        internal\n    {\n        uint256 tokens = producers[addr].tokenApprove.allowed;\n        producers[addr].tokenApprove = TokenApprove(tokens += numTokens, false);\n    }\n\n    function getProducerApprove(address address_)\n        public\n        view\n        returns (uint256)\n    {\n        return producers[address_].tokenApprove.allowed;\n    }\n\n    function undoProducerApprove() internal returns (bool) {\n        producers[msg.sender].tokenApprove = TokenApprove(0, false);\n        return true;\n    }\n}\n",
  "sourcePath": "/home/everson/Documents/projetos/sintrop/SAT-core-contracts/contracts/ProducerContract.sol",
  "compiler": {
    "name": "solc",
    "version": "0.8.2+commit.661d1103.Emscripten.clang"
  },
  "schemaVersion": "3.4.6",
  "updatedAt": "2022-04-02T18:06:16.854Z",
  "devdoc": {
    "details": "Producer resource that represent a user that can request a inspection",
    "kind": "dev",
    "methods": {
      "addProducer(string,string,string,string,string,string,string)": {
        "details": "Allow a new register of producer",
        "params": {
          "cep": "the cep of the producer",
          "city": "the of the producer",
          "country": "the country where the producer is",
          "document": "the document of producer",
          "documentType": "the document type type of producer. CPF/CNPJ",
          "name": "the name of the producer",
          "state": "the state of the producer"
        }
      },
      "getProducer(address)": {
        "details": "Return a specific producer",
        "params": {
          "addr": "the address of the producer."
        }
      },
      "getProducers()": {
        "details": "Returns all registered producers",
        "returns": {
          "_0": "Producer struct array"
        }
      },
      "getUser(address)": {
        "details": "Returns the user type if the user is registered",
        "params": {
          "addr": "the user address that want check if exists"
        }
      },
      "getUserTypes()": {
        "details": "Returns the enum UserType of the system"
      },
      "producerExists(address)": {
        "details": "Check if a specific producer exists",
        "returns": {
          "_0": "a bool that represent if a producer exists or not"
        }
      }
    },
    "title": "ProducerContract",
    "version": 1
  },
  "userdoc": {
    "kind": "user",
    "methods": {},
    "version": 1
  }
}