{
  "contractName": "ProducerContract",
  "abi": [
    {
      "inputs": [
        {
          "internalType": "address",
          "name": "userContractAddress",
          "type": "address"
        }
      ],
      "stateMutability": "nonpayable",
      "type": "constructor"
    },
    {
      "anonymous": false,
      "inputs": [
        {
          "indexed": true,
          "internalType": "address",
          "name": "previousOwner",
          "type": "address"
        },
        {
          "indexed": true,
          "internalType": "address",
          "name": "newOwner",
          "type": "address"
        }
      ],
      "name": "OwnershipTransferred",
      "type": "event"
    },
    {
      "inputs": [
        {
          "internalType": "address",
          "name": "",
          "type": "address"
        }
      ],
      "name": "allowedCaller",
      "outputs": [
        {
          "internalType": "bool",
          "name": "",
          "type": "bool"
        }
      ],
      "stateMutability": "view",
      "type": "function"
    },
    {
      "inputs": [
        {
          "internalType": "address",
          "name": "allowed",
          "type": "address"
        }
      ],
      "name": "newAllowedCaller",
      "outputs": [],
      "stateMutability": "nonpayable",
      "type": "function"
    },
    {
      "inputs": [],
      "name": "owner",
      "outputs": [
        {
          "internalType": "address",
          "name": "",
          "type": "address"
        }
      ],
      "stateMutability": "view",
      "type": "function"
    },
    {
      "inputs": [
        {
          "internalType": "address",
          "name": "",
          "type": "address"
        }
      ],
      "name": "producers",
      "outputs": [
        {
          "internalType": "uint256",
          "name": "id",
          "type": "uint256"
        },
        {
          "internalType": "address",
          "name": "producerWallet",
          "type": "address"
        },
        {
          "internalType": "enum UserType",
          "name": "userType",
          "type": "uint8"
        },
        {
          "internalType": "string",
          "name": "name",
          "type": "string"
        },
        {
          "internalType": "string",
          "name": "document",
          "type": "string"
        },
        {
          "internalType": "string",
          "name": "documentType",
          "type": "string"
        },
        {
          "internalType": "bool",
          "name": "recentInspection",
          "type": "bool"
        },
        {
          "internalType": "uint256",
          "name": "totalRequests",
          "type": "uint256"
        },
        {
          "internalType": "int256",
          "name": "isaPoints",
          "type": "int256"
        },
        {
          "components": [
            {
              "internalType": "uint256",
              "name": "allowed",
              "type": "uint256"
            },
            {
              "internalType": "bool",
              "name": "withdrewToken",
              "type": "bool"
            }
          ],
          "internalType": "struct TokenApprove",
          "name": "tokenApprove",
          "type": "tuple"
        },
        {
          "components": [
            {
              "internalType": "string",
              "name": "country",
              "type": "string"
            },
            {
              "internalType": "string",
              "name": "state",
              "type": "string"
            },
            {
              "internalType": "string",
              "name": "city",
              "type": "string"
            },
            {
              "internalType": "string",
              "name": "cep",
              "type": "string"
            }
          ],
          "internalType": "struct PropertyAddress",
          "name": "propertyAddress",
          "type": "tuple"
        }
      ],
      "stateMutability": "view",
      "type": "function"
    },
    {
      "inputs": [],
      "name": "producersCount",
      "outputs": [
        {
          "internalType": "uint256",
          "name": "",
          "type": "uint256"
        }
      ],
      "stateMutability": "view",
      "type": "function"
    },
    {
      "inputs": [],
      "name": "renounceOwnership",
      "outputs": [],
      "stateMutability": "nonpayable",
      "type": "function"
    },
    {
      "inputs": [
        {
          "internalType": "address",
          "name": "newOwner",
          "type": "address"
        }
      ],
      "name": "transferOwnership",
      "outputs": [],
      "stateMutability": "nonpayable",
      "type": "function"
    },
    {
      "inputs": [
        {
          "internalType": "string",
          "name": "name",
          "type": "string"
        },
        {
          "internalType": "string",
          "name": "document",
          "type": "string"
        },
        {
          "internalType": "string",
          "name": "documentType",
          "type": "string"
        },
        {
          "internalType": "string",
          "name": "country",
          "type": "string"
        },
        {
          "internalType": "string",
          "name": "state",
          "type": "string"
        },
        {
          "internalType": "string",
          "name": "city",
          "type": "string"
        },
        {
          "internalType": "string",
          "name": "cep",
          "type": "string"
        }
      ],
      "name": "addProducer",
      "outputs": [],
      "stateMutability": "nonpayable",
      "type": "function"
    },
    {
      "inputs": [],
      "name": "getProducers",
      "outputs": [
        {
          "components": [
            {
              "internalType": "uint256",
              "name": "id",
              "type": "uint256"
            },
            {
              "internalType": "address",
              "name": "producerWallet",
              "type": "address"
            },
            {
              "internalType": "enum UserType",
              "name": "userType",
              "type": "uint8"
            },
            {
              "internalType": "string",
              "name": "name",
              "type": "string"
            },
            {
              "internalType": "string",
              "name": "document",
              "type": "string"
            },
            {
              "internalType": "string",
              "name": "documentType",
              "type": "string"
            },
            {
              "internalType": "bool",
              "name": "recentInspection",
              "type": "bool"
            },
            {
              "internalType": "uint256",
              "name": "totalRequests",
              "type": "uint256"
            },
            {
              "internalType": "int256",
              "name": "isaPoints",
              "type": "int256"
            },
            {
              "components": [
                {
                  "internalType": "uint256",
                  "name": "allowed",
                  "type": "uint256"
                },
                {
                  "internalType": "bool",
                  "name": "withdrewToken",
                  "type": "bool"
                }
              ],
              "internalType": "struct TokenApprove",
              "name": "tokenApprove",
              "type": "tuple"
            },
            {
              "components": [
                {
                  "internalType": "string",
                  "name": "country",
                  "type": "string"
                },
                {
                  "internalType": "string",
                  "name": "state",
                  "type": "string"
                },
                {
                  "internalType": "string",
                  "name": "city",
                  "type": "string"
                },
                {
                  "internalType": "string",
                  "name": "cep",
                  "type": "string"
                }
              ],
              "internalType": "struct PropertyAddress",
              "name": "propertyAddress",
              "type": "tuple"
            }
          ],
          "internalType": "struct Producer[]",
          "name": "",
          "type": "tuple[]"
        }
      ],
      "stateMutability": "view",
      "type": "function"
    },
    {
      "inputs": [
        {
          "internalType": "address",
          "name": "addr",
          "type": "address"
        }
      ],
      "name": "getProducer",
      "outputs": [
        {
          "components": [
            {
              "internalType": "uint256",
              "name": "id",
              "type": "uint256"
            },
            {
              "internalType": "address",
              "name": "producerWallet",
              "type": "address"
            },
            {
              "internalType": "enum UserType",
              "name": "userType",
              "type": "uint8"
            },
            {
              "internalType": "string",
              "name": "name",
              "type": "string"
            },
            {
              "internalType": "string",
              "name": "document",
              "type": "string"
            },
            {
              "internalType": "string",
              "name": "documentType",
              "type": "string"
            },
            {
              "internalType": "bool",
              "name": "recentInspection",
              "type": "bool"
            },
            {
              "internalType": "uint256",
              "name": "totalRequests",
              "type": "uint256"
            },
            {
              "internalType": "int256",
              "name": "isaPoints",
              "type": "int256"
            },
            {
              "components": [
                {
                  "internalType": "uint256",
                  "name": "allowed",
                  "type": "uint256"
                },
                {
                  "internalType": "bool",
                  "name": "withdrewToken",
                  "type": "bool"
                }
              ],
              "internalType": "struct TokenApprove",
              "name": "tokenApprove",
              "type": "tuple"
            },
            {
              "components": [
                {
                  "internalType": "string",
                  "name": "country",
                  "type": "string"
                },
                {
                  "internalType": "string",
                  "name": "state",
                  "type": "string"
                },
                {
                  "internalType": "string",
                  "name": "city",
                  "type": "string"
                },
                {
                  "internalType": "string",
                  "name": "cep",
                  "type": "string"
                }
              ],
              "internalType": "struct PropertyAddress",
              "name": "propertyAddress",
              "type": "tuple"
            }
          ],
          "internalType": "struct Producer",
          "name": "producer",
          "type": "tuple"
        }
      ],
      "stateMutability": "view",
      "type": "function"
    },
    {
      "inputs": [
        {
          "internalType": "address",
          "name": "addr",
          "type": "address"
        }
      ],
      "name": "producerExists",
      "outputs": [
        {
          "internalType": "bool",
          "name": "",
          "type": "bool"
        }
      ],
      "stateMutability": "view",
      "type": "function"
    },
    {
      "inputs": [
        {
          "internalType": "address",
          "name": "addr",
          "type": "address"
        },
        {
          "internalType": "bool",
          "name": "state",
          "type": "bool"
        }
      ],
      "name": "recentInspection",
      "outputs": [],
      "stateMutability": "nonpayable",
      "type": "function"
    },
    {
      "inputs": [
        {
          "internalType": "address",
          "name": "addr",
          "type": "address"
        },
        {
          "internalType": "int256",
          "name": "isaPoints",
          "type": "int256"
        }
      ],
      "name": "updateIsaPoints",
      "outputs": [],
      "stateMutability": "nonpayable",
      "type": "function"
    },
    {
      "inputs": [
        {
          "internalType": "address",
          "name": "addr",
          "type": "address"
        }
      ],
      "name": "incrementRequests",
      "outputs": [],
      "stateMutability": "nonpayable",
      "type": "function"
    },
    {
      "inputs": [
        {
          "internalType": "address",
          "name": "addr",
          "type": "address"
        },
        {
          "internalType": "uint256",
          "name": "numTokens",
          "type": "uint256"
        }
      ],
      "name": "approveProducerNewTokens",
      "outputs": [],
      "stateMutability": "nonpayable",
      "type": "function"
    },
    {
      "inputs": [
        {
          "internalType": "address",
          "name": "address_",
          "type": "address"
        }
      ],
      "name": "getProducerApprove",
      "outputs": [
        {
          "internalType": "uint256",
          "name": "",
          "type": "uint256"
        }
      ],
      "stateMutability": "view",
      "type": "function"
    }
  ],
  "bytecode": "0x60806040523480156200001157600080fd5b50604051620033ed380380620033ed833981810160405281019062000037919062000182565b620000576200004b6200009f60201b60201c565b620000a760201b60201c565b80600360006101000a81548173ffffffffffffffffffffffffffffffffffffffff021916908373ffffffffffffffffffffffffffffffffffffffff16021790555050620001fc565b600033905090565b60008060009054906101000a900473ffffffffffffffffffffffffffffffffffffffff169050816000806101000a81548173ffffffffffffffffffffffffffffffffffffffff021916908373ffffffffffffffffffffffffffffffffffffffff1602179055508173ffffffffffffffffffffffffffffffffffffffff168173ffffffffffffffffffffffffffffffffffffffff167f8be0079c531659141344cd1fd0a4f28419497f9722a3daafe3b4186f6b6457e060405160405180910390a35050565b6000815190506200017c81620001e2565b92915050565b6000602082840312156200019557600080fd5b6000620001a5848285016200016b565b91505092915050565b6000620001bb82620001c2565b9050919050565b600073ffffffffffffffffffffffffffffffffffffffff82169050919050565b620001ed81620001ae565b8114620001f957600080fd5b50565b6131e1806200020c6000396000f3fe608060405234801561001057600080fd5b50600436106101005760003560e01c80638f93716f11610097578063e53142e211610066578063e53142e21461029f578063e80a7eb9146102bd578063e9e797ac146102db578063f2fde38b1461030b57610100565b80638f93716f1461021b578063aab147b214610237578063b08ab06114610267578063c19c90371461028357610100565b806372eb8caf116100d357806372eb8caf146101815780638cf05442146101b15780638da5cb5b146101e15780638ed5540d146101ff57610100565b80632253eee41461010557806326324eff14610121578063360912ab1461015b578063715018a614610177575b600080fd5b61011f600480360381019061011a91906123f7565b610327565b005b61013b60048036038101906101369190612392565b6103fe565b6040516101529b9a99989796959493929190612c66565b60405180910390f35b610175600480360381019061017091906123bb565b6108ab565b005b61017f610995565b005b61019b60048036038101906101969190612392565b610a1d565b6040516101a89190612b8e565b60405180910390f35b6101cb60048036038101906101c69190612392565b610a3d565b6040516101d89190612c4b565b60405180910390f35b6101e9610a8c565b6040516101f69190612b28565b60405180910390f35b6102196004803603810190610214919061246f565b610ab5565b005b61023560048036038101906102309190612392565b610f29565b005b610251600480360381019061024c9190612392565b610fff565b60405161025e9190612c29565b60405180910390f35b610281600480360381019061027c9190612433565b6115ba565b005b61029d60048036038101906102989190612392565b61172a565b005b6102a7611811565b6040516102b49190612c4b565b60405180910390f35b6102c5611817565b6040516102d29190612b6c565b60405180910390f35b6102f560048036038101906102f09190612392565b611f1b565b6040516103029190612b8e565b60405180910390f35b61032560048036038101906103209190612392565b611f75565b005b600160003373ffffffffffffffffffffffffffffffffffffffff1673ffffffffffffffffffffffffffffffffffffffff16815260200190815260200160002060009054906101000a900460ff166103b3576040517f08c379a00000000000000000000000000000000000000000000000000000000081526004016103aa90612c09565b60405180910390fd5b80600260008473ffffffffffffffffffffffffffffffffffffffff1673ffffffffffffffffffffffffffffffffffffffff168152602001908152602001600020600701819055505050565b60026020528060005260406000206000915090508060000154908060010160009054906101000a900473ffffffffffffffffffffffffffffffffffffffff16908060010160149054906101000a900460ff169080600201805461046090612ef8565b80601f016020809104026020016040519081016040528092919081815260200182805461048c90612ef8565b80156104d95780601f106104ae576101008083540402835291602001916104d9565b820191906000526020600020905b8154815290600101906020018083116104bc57829003601f168201915b5050505050908060030180546104ee90612ef8565b80601f016020809104026020016040519081016040528092919081815260200182805461051a90612ef8565b80156105675780601f1061053c57610100808354040283529160200191610567565b820191906000526020600020905b81548152906001019060200180831161054a57829003601f168201915b50505050509080600401805461057c90612ef8565b80601f01602080910402602001604051908101604052809291908181526020018280546105a890612ef8565b80156105f55780601f106105ca576101008083540402835291602001916105f5565b820191906000526020600020905b8154815290600101906020018083116105d857829003601f168201915b5050505050908060050160009054906101000a900460ff169080600601549080600701549080600801604051806040016040529081600082015481526020016001820160009054906101000a900460ff1615151515815250509080600a0160405180608001604052908160008201805461066e90612ef8565b80601f016020809104026020016040519081016040528092919081815260200182805461069a90612ef8565b80156106e75780601f106106bc576101008083540402835291602001916106e7565b820191906000526020600020905b8154815290600101906020018083116106ca57829003601f168201915b5050505050815260200160018201805461070090612ef8565b80601f016020809104026020016040519081016040528092919081815260200182805461072c90612ef8565b80156107795780601f1061074e57610100808354040283529160200191610779565b820191906000526020600020905b81548152906001019060200180831161075c57829003601f168201915b5050505050815260200160028201805461079290612ef8565b80601f01602080910402602001604051908101604052809291908181526020018280546107be90612ef8565b801561080b5780601f106107e05761010080835404028352916020019161080b565b820191906000526020600020905b8154815290600101906020018083116107ee57829003601f168201915b5050505050815260200160038201805461082490612ef8565b80601f016020809104026020016040519081016040528092919081815260200182805461085090612ef8565b801561089d5780601f106108725761010080835404028352916020019161089d565b820191906000526020600020905b81548152906001019060200180831161088057829003601f168201915b50505050508152505090508b565b600160003373ffffffffffffffffffffffffffffffffffffffff1673ffffffffffffffffffffffffffffffffffffffff16815260200190815260200160002060009054906101000a900460ff16610937576040517f08c379a000000000000000000000000000000000000000000000000000000000815260040161092e90612c09565b60405180910390fd5b80600260008473ffffffffffffffffffffffffffffffffffffffff1673ffffffffffffffffffffffffffffffffffffffff16815260200190815260200160002060050160006101000a81548160ff0219169083151502179055505050565b61099d61206d565b73ffffffffffffffffffffffffffffffffffffffff166109bb610a8c565b73ffffffffffffffffffffffffffffffffffffffff1614610a11576040517f08c379a0000000000000000000000000000000000000000000000000000000008152600401610a0890612be9565b60405180910390fd5b610a1b6000612075565b565b60016020528060005260406000206000915054906101000a900460ff1681565b6000600260008373ffffffffffffffffffffffffffffffffffffffff1673ffffffffffffffffffffffffffffffffffffffff168152602001908152602001600020600801600001549050919050565b60008060009054906101000a900473ffffffffffffffffffffffffffffffffffffffff16905090565b610abe33611f1b565b15610afe576040517f08c379a0000000000000000000000000000000000000000000000000000000008152600401610af590612bc9565b60405180910390fd5b6000806040518061016001604052806001600554610b1c9190612de9565b81526020013373ffffffffffffffffffffffffffffffffffffffff168152602001836006811115610b76577f4e487b7100000000000000000000000000000000000000000000000000000000600052602160045260246000fd5b81526020018a81526020018981526020018881526020016000151581526020016000815260200160008152602001604051806040016040528060008152602001600015158152508152602001604051806080016040528089815260200188815260200187815260200186815250815250905080600260003373ffffffffffffffffffffffffffffffffffffffff1673ffffffffffffffffffffffffffffffffffffffff1681526020019081526020016000206000820151816000015560208201518160010160006101000a81548173ffffffffffffffffffffffffffffffffffffffff021916908373ffffffffffffffffffffffffffffffffffffffff16021790555060408201518160010160146101000a81548160ff02191690836006811115610cca577f4e487b7100000000000000000000000000000000000000000000000000000000600052602160045260246000fd5b02179055506060820151816002019080519060200190610ceb929190612139565b506080820151816003019080519060200190610d08929190612139565b5060a0820151816004019080519060200190610d25929190612139565b5060c08201518160050160006101000a81548160ff02191690831515021790555060e082015181600601556101008201518160070155610120820151816008016000820151816000015560208201518160010160006101000a81548160ff021916908315150217905550505061014082015181600a016000820151816000019080519060200190610db7929190612139565b506020820151816001019080519060200190610dd4929190612139565b506040820151816002019080519060200190610df1929190612139565b506060820151816003019080519060200190610e0e929190612139565b5050509050506004339080600181540180825580915050600190039060005260206000200160009091909190916101000a81548173ffffffffffffffffffffffffffffffffffffffff021916908373ffffffffffffffffffffffffffffffffffffffff16021790555060056000815480929190610e8a90612f5b565b9190505550600360009054906101000a900473ffffffffffffffffffffffffffffffffffffffff1673ffffffffffffffffffffffffffffffffffffffff16639c3eead933846040518363ffffffff1660e01b8152600401610eec929190612b43565b600060405180830381600087803b158015610f0657600080fd5b505af1158015610f1a573d6000803e3d6000fd5b50505050505050505050505050565b610f3161206d565b73ffffffffffffffffffffffffffffffffffffffff16610f4f610a8c565b73ffffffffffffffffffffffffffffffffffffffff1614610fa5576040517f08c379a0000000000000000000000000000000000000000000000000000000008152600401610f9c90612be9565b60405180910390fd5b60018060008373ffffffffffffffffffffffffffffffffffffffff1673ffffffffffffffffffffffffffffffffffffffff16815260200190815260200160002060006101000a81548160ff02191690831515021790555050565b6110076121bf565b600260008373ffffffffffffffffffffffffffffffffffffffff1673ffffffffffffffffffffffffffffffffffffffff16815260200190815260200160002060405180610160016040529081600082015481526020016001820160009054906101000a900473ffffffffffffffffffffffffffffffffffffffff1673ffffffffffffffffffffffffffffffffffffffff1673ffffffffffffffffffffffffffffffffffffffff1681526020016001820160149054906101000a900460ff1660068111156110fd577f4e487b7100000000000000000000000000000000000000000000000000000000600052602160045260246000fd5b6006811115611135577f4e487b7100000000000000000000000000000000000000000000000000000000600052602160045260246000fd5b815260200160028201805461114990612ef8565b80601f016020809104026020016040519081016040528092919081815260200182805461117590612ef8565b80156111c25780601f10611197576101008083540402835291602001916111c2565b820191906000526020600020905b8154815290600101906020018083116111a557829003601f168201915b505050505081526020016003820180546111db90612ef8565b80601f016020809104026020016040519081016040528092919081815260200182805461120790612ef8565b80156112545780601f1061122957610100808354040283529160200191611254565b820191906000526020600020905b81548152906001019060200180831161123757829003601f168201915b5050505050815260200160048201805461126d90612ef8565b80601f016020809104026020016040519081016040528092919081815260200182805461129990612ef8565b80156112e65780601f106112bb576101008083540402835291602001916112e6565b820191906000526020600020905b8154815290600101906020018083116112c957829003601f168201915b505050505081526020016005820160009054906101000a900460ff16151515158152602001600682015481526020016007820154815260200160088201604051806040016040529081600082015481526020016001820160009054906101000a900460ff1615151515815250508152602001600a820160405180608001604052908160008201805461137790612ef8565b80601f01602080910402602001604051908101604052809291908181526020018280546113a390612ef8565b80156113f05780601f106113c5576101008083540402835291602001916113f0565b820191906000526020600020905b8154815290600101906020018083116113d357829003601f168201915b5050505050815260200160018201805461140990612ef8565b80601f016020809104026020016040519081016040528092919081815260200182805461143590612ef8565b80156114825780601f1061145757610100808354040283529160200191611482565b820191906000526020600020905b81548152906001019060200180831161146557829003601f168201915b5050505050815260200160028201805461149b90612ef8565b80601f01602080910402602001604051908101604052809291908181526020018280546114c790612ef8565b80156115145780601f106114e957610100808354040283529160200191611514565b820191906000526020600020905b8154815290600101906020018083116114f757829003601f168201915b5050505050815260200160038201805461152d90612ef8565b80601f016020809104026020016040519081016040528092919081815260200182805461155990612ef8565b80156115a65780601f1061157b576101008083540402835291602001916115a6565b820191906000526020600020905b81548152906001019060200180831161158957829003601f168201915b505050505081525050815250509050919050565b600160003373ffffffffffffffffffffffffffffffffffffffff1673ffffffffffffffffffffffffffffffffffffffff16815260200190815260200160002060009054906101000a900460ff16611646576040517f08c379a000000000000000000000000000000000000000000000000000000000815260040161163d90612c09565b60405180910390fd5b6000600260008473ffffffffffffffffffffffffffffffffffffffff1673ffffffffffffffffffffffffffffffffffffffff168152602001908152602001600020600801600001549050604051806040016040528083836116a79190612de9565b925082815260200160001515815250600260008573ffffffffffffffffffffffffffffffffffffffff1673ffffffffffffffffffffffffffffffffffffffff1681526020019081526020016000206008016000820151816000015560208201518160010160006101000a81548160ff021916908315150217905550905050505050565b600160003373ffffffffffffffffffffffffffffffffffffffff1673ffffffffffffffffffffffffffffffffffffffff16815260200190815260200160002060009054906101000a900460ff166117b6576040517f08c379a00000000000000000000000000000000000000000000000000000000081526004016117ad90612c09565b60405180910390fd5b600260008273ffffffffffffffffffffffffffffffffffffffff1673ffffffffffffffffffffffffffffffffffffffff168152602001908152602001600020600601600081548092919061180990612f5b565b919050555050565b60055481565b6060600060055467ffffffffffffffff81111561185d577f4e487b7100000000000000000000000000000000000000000000000000000000600052604160045260246000fd5b60405190808252806020026020018201604052801561189657816020015b6118836121bf565b81526020019060019003908161187b5790505b50905060005b600554811015611f13576000600482815481106118e2577f4e487b7100000000000000000000000000000000000000000000000000000000600052603260045260246000fd5b9060005260206000200160009054906101000a900473ffffffffffffffffffffffffffffffffffffffff169050600260008273ffffffffffffffffffffffffffffffffffffffff1673ffffffffffffffffffffffffffffffffffffffff16815260200190815260200160002060405180610160016040529081600082015481526020016001820160009054906101000a900473ffffffffffffffffffffffffffffffffffffffff1673ffffffffffffffffffffffffffffffffffffffff1673ffffffffffffffffffffffffffffffffffffffff1681526020016001820160149054906101000a900460ff166006811115611a05577f4e487b7100000000000000000000000000000000000000000000000000000000600052602160045260246000fd5b6006811115611a3d577f4e487b7100000000000000000000000000000000000000000000000000000000600052602160045260246000fd5b8152602001600282018054611a5190612ef8565b80601f0160208091040260200160405190810160405280929190818152602001828054611a7d90612ef8565b8015611aca5780601f10611a9f57610100808354040283529160200191611aca565b820191906000526020600020905b815481529060010190602001808311611aad57829003601f168201915b50505050508152602001600382018054611ae390612ef8565b80601f0160208091040260200160405190810160405280929190818152602001828054611b0f90612ef8565b8015611b5c5780601f10611b3157610100808354040283529160200191611b5c565b820191906000526020600020905b815481529060010190602001808311611b3f57829003601f168201915b50505050508152602001600482018054611b7590612ef8565b80601f0160208091040260200160405190810160405280929190818152602001828054611ba190612ef8565b8015611bee5780601f10611bc357610100808354040283529160200191611bee565b820191906000526020600020905b815481529060010190602001808311611bd157829003601f168201915b505050505081526020016005820160009054906101000a900460ff16151515158152602001600682015481526020016007820154815260200160088201604051806040016040529081600082015481526020016001820160009054906101000a900460ff1615151515815250508152602001600a8201604051806080016040529081600082018054611c7f90612ef8565b80601f0160208091040260200160405190810160405280929190818152602001828054611cab90612ef8565b8015611cf85780601f10611ccd57610100808354040283529160200191611cf8565b820191906000526020600020905b815481529060010190602001808311611cdb57829003601f168201915b50505050508152602001600182018054611d1190612ef8565b80601f0160208091040260200160405190810160405280929190818152602001828054611d3d90612ef8565b8015611d8a5780601f10611d5f57610100808354040283529160200191611d8a565b820191906000526020600020905b815481529060010190602001808311611d6d57829003601f168201915b50505050508152602001600282018054611da390612ef8565b80601f0160208091040260200160405190810160405280929190818152602001828054611dcf90612ef8565b8015611e1c5780601f10611df157610100808354040283529160200191611e1c565b820191906000526020600020905b815481529060010190602001808311611dff57829003601f168201915b50505050508152602001600382018054611e3590612ef8565b80601f0160208091040260200160405190810160405280929190818152602001828054611e6190612ef8565b8015611eae5780601f10611e8357610100808354040283529160200191611eae565b820191906000526020600020905b815481529060010190602001808311611e9157829003601f168201915b50505050508152505081525050838381518110611ef4577f4e487b7100000000000000000000000000000000000000000000000000000000600052603260045260246000fd5b6020026020010181905250508080611f0b90612f5b565b91505061189c565b508091505090565b600080600260008473ffffffffffffffffffffffffffffffffffffffff1673ffffffffffffffffffffffffffffffffffffffff1681526020019081526020016000206002018054611f6b90612ef8565b9050119050919050565b611f7d61206d565b73ffffffffffffffffffffffffffffffffffffffff16611f9b610a8c565b73ffffffffffffffffffffffffffffffffffffffff1614611ff1576040517f08c379a0000000000000000000000000000000000000000000000000000000008152600401611fe890612be9565b60405180910390fd5b600073ffffffffffffffffffffffffffffffffffffffff168173ffffffffffffffffffffffffffffffffffffffff161415612061576040517f08c379a000000000000000000000000000000000000000000000000000000000815260040161205890612ba9565b60405180910390fd5b61206a81612075565b50565b600033905090565b60008060009054906101000a900473ffffffffffffffffffffffffffffffffffffffff169050816000806101000a81548173ffffffffffffffffffffffffffffffffffffffff021916908373ffffffffffffffffffffffffffffffffffffffff1602179055508173ffffffffffffffffffffffffffffffffffffffff168173ffffffffffffffffffffffffffffffffffffffff167f8be0079c531659141344cd1fd0a4f28419497f9722a3daafe3b4186f6b6457e060405160405180910390a35050565b82805461214590612ef8565b90600052602060002090601f01602090048101928261216757600085556121ae565b82601f1061218057805160ff19168380011785556121ae565b828001600101855582156121ae579182015b828111156121ad578251825591602001919060010190612192565b5b5090506121bb9190612275565b5090565b60405180610160016040528060008152602001600073ffffffffffffffffffffffffffffffffffffffff16815260200160006006811115612229577f4e487b7100000000000000000000000000000000000000000000000000000000600052602160045260246000fd5b81526020016060815260200160608152602001606081526020016000151581526020016000815260200160008152602001612262612292565b815260200161226f6122ae565b81525090565b5b8082111561228e576000816000905550600101612276565b5090565b6040518060400160405280600081526020016000151581525090565b6040518060800160405280606081526020016060815260200160608152602001606081525090565b60006122e96122e484612d52565b612d2d565b90508281526020810184848401111561230157600080fd5b61230c848285612eb6565b509392505050565b6000813590506123238161314f565b92915050565b60008135905061233881613166565b92915050565b60008135905061234d8161317d565b92915050565b600082601f83011261236457600080fd5b81356123748482602086016122d6565b91505092915050565b60008135905061238c81613194565b92915050565b6000602082840312156123a457600080fd5b60006123b284828501612314565b91505092915050565b600080604083850312156123ce57600080fd5b60006123dc85828601612314565b92505060206123ed85828601612329565b9150509250929050565b6000806040838503121561240a57600080fd5b600061241885828601612314565b92505060206124298582860161233e565b9150509250929050565b6000806040838503121561244657600080fd5b600061245485828601612314565b92505060206124658582860161237d565b9150509250929050565b600080600080600080600060e0888a03121561248a57600080fd5b600088013567ffffffffffffffff8111156124a457600080fd5b6124b08a828b01612353565b975050602088013567ffffffffffffffff8111156124cd57600080fd5b6124d98a828b01612353565b965050604088013567ffffffffffffffff8111156124f657600080fd5b6125028a828b01612353565b955050606088013567ffffffffffffffff81111561251f57600080fd5b61252b8a828b01612353565b945050608088013567ffffffffffffffff81111561254857600080fd5b6125548a828b01612353565b93505060a088013567ffffffffffffffff81111561257157600080fd5b61257d8a828b01612353565b92505060c088013567ffffffffffffffff81111561259a57600080fd5b6125a68a828b01612353565b91505092959891949750929550565b60006125c183836127b4565b905092915050565b6125d281612e3f565b82525050565b6125e181612e3f565b82525050565b60006125f282612d93565b6125fc8185612db6565b93508360208202850161260e85612d83565b8060005b8581101561264a578484038952815161262b85826125b5565b945061263683612da9565b925060208a01995050600181019050612612565b50829750879550505050505092915050565b61266581612e51565b82525050565b61267481612e51565b82525050565b61268381612ea4565b82525050565b61269281612ea4565b82525050565b6126a181612e70565b82525050565b6126b081612e70565b82525050565b60006126c182612d9e565b6126cb8185612dc7565b93506126db818560208601612ec5565b6126e481613060565b840191505092915050565b60006126fa82612d9e565b6127048185612dd8565b9350612714818560208601612ec5565b61271d81613060565b840191505092915050565b6000612735602683612dd8565b915061274082613071565b604082019050919050565b6000612758601b83612dd8565b9150612763826130c0565b602082019050919050565b600061277b602083612dd8565b9150612786826130e9565b602082019050919050565b600061279e601283612dd8565b91506127a982613112565b602082019050919050565b6000610180830160008301516127cd6000860182612b0a565b5060208301516127e060208601826125c9565b5060408301516127f3604086018261267a565b506060830151848203606086015261280b82826126b6565b9150506080830151848203608086015261282582826126b6565b91505060a083015184820360a086015261283f82826126b6565b91505060c083015161285460c086018261265c565b5060e083015161286760e0860182612b0a565b5061010083015161287c610100860182612698565b50610120830151612891610120860182612aac565b506101408301518482036101608601526128ab82826129bc565b9150508091505092915050565b6000610180830160008301516128d16000860182612b0a565b5060208301516128e460208601826125c9565b5060408301516128f7604086018261267a565b506060830151848203606086015261290f82826126b6565b9150506080830151848203608086015261292982826126b6565b91505060a083015184820360a086015261294382826126b6565b91505060c083015161295860c086018261265c565b5060e083015161296b60e0860182612b0a565b50610100830151612980610100860182612698565b50610120830151612995610120860182612aac565b506101408301518482036101608601526129af82826129bc565b9150508091505092915050565b600060808301600083015184820360008601526129d982826126b6565b915050602083015184820360208601526129f382826126b6565b91505060408301518482036040860152612a0d82826126b6565b91505060608301518482036060860152612a2782826126b6565b9150508091505092915050565b60006080830160008301518482036000860152612a5182826126b6565b91505060208301518482036020860152612a6b82826126b6565b91505060408301518482036040860152612a8582826126b6565b91505060608301518482036060860152612a9f82826126b6565b9150508091505092915050565b604082016000820151612ac26000850182612b0a565b506020820151612ad5602085018261265c565b50505050565b604082016000820151612af16000850182612b0a565b506020820151612b04602085018261265c565b50505050565b612b1381612e9a565b82525050565b612b2281612e9a565b82525050565b6000602082019050612b3d60008301846125d8565b92915050565b6000604082019050612b5860008301856125d8565b612b656020830184612689565b9392505050565b60006020820190508181036000830152612b8681846125e7565b905092915050565b6000602082019050612ba3600083018461266b565b92915050565b60006020820190508181036000830152612bc281612728565b9050919050565b60006020820190508181036000830152612be28161274b565b9050919050565b60006020820190508181036000830152612c028161276e565b9050919050565b60006020820190508181036000830152612c2281612791565b9050919050565b60006020820190508181036000830152612c4381846128b8565b905092915050565b6000602082019050612c606000830184612b19565b92915050565b600061018082019050612c7c600083018e612b19565b612c89602083018d6125d8565b612c96604083018c612689565b8181036060830152612ca8818b6126ef565b90508181036080830152612cbc818a6126ef565b905081810360a0830152612cd081896126ef565b9050612cdf60c083018861266b565b612cec60e0830187612b19565b612cfa6101008301866126a7565b612d08610120830185612adb565b818103610160830152612d1b8184612a34565b90509c9b505050505050505050505050565b6000612d37612d48565b9050612d438282612f2a565b919050565b6000604051905090565b600067ffffffffffffffff821115612d6d57612d6c613031565b5b612d7682613060565b9050602081019050919050565b6000819050602082019050919050565b600081519050919050565b600081519050919050565b6000602082019050919050565b600082825260208201905092915050565b600082825260208201905092915050565b600082825260208201905092915050565b6000612df482612e9a565b9150612dff83612e9a565b9250827fffffffffffffffffffffffffffffffffffffffffffffffffffffffffffffffff03821115612e3457612e33612fa4565b5b828201905092915050565b6000612e4a82612e7a565b9050919050565b60008115159050919050565b6000819050612e6b8261313b565b919050565b6000819050919050565b600073ffffffffffffffffffffffffffffffffffffffff82169050919050565b6000819050919050565b6000612eaf82612e5d565b9050919050565b82818337600083830152505050565b60005b83811015612ee3578082015181840152602081019050612ec8565b83811115612ef2576000848401525b50505050565b60006002820490506001821680612f1057607f821691505b60208210811415612f2457612f23613002565b5b50919050565b612f3382613060565b810181811067ffffffffffffffff82111715612f5257612f51613031565b5b80604052505050565b6000612f6682612e9a565b91507fffffffffffffffffffffffffffffffffffffffffffffffffffffffffffffffff821415612f9957612f98612fa4565b5b600182019050919050565b7f4e487b7100000000000000000000000000000000000000000000000000000000600052601160045260246000fd5b7f4e487b7100000000000000000000000000000000000000000000000000000000600052602160045260246000fd5b7f4e487b7100000000000000000000000000000000000000000000000000000000600052602260045260246000fd5b7f4e487b7100000000000000000000000000000000000000000000000000000000600052604160045260246000fd5b6000601f19601f8301169050919050565b7f4f776e61626c653a206e6577206f776e657220697320746865207a65726f206160008201527f6464726573730000000000000000000000000000000000000000000000000000602082015250565b7f546869732070726f647563657220616c72656164792065786973740000000000600082015250565b7f4f776e61626c653a2063616c6c6572206973206e6f7420746865206f776e6572600082015250565b7f4e6f7420616c6c6f7765642063616c6c65720000000000000000000000000000600082015250565b6007811061314c5761314b612fd3565b5b50565b61315881612e3f565b811461316357600080fd5b50565b61316f81612e51565b811461317a57600080fd5b50565b61318681612e70565b811461319157600080fd5b50565b61319d81612e9a565b81146131a857600080fd5b5056fea2646970667358221220ef8bce3bb64235d2325941b754cf30f92a79e6878e6bc4ae459f3365dac9b6f464736f6c63430008020033",
  "immutableReferences": {},
  "source": "// SPDX-License-Identifier: GPL-3.0\npragma solidity >=0.7.0 <=0.9.0;\n\nimport \"./UserContract.sol\";\nimport \"./types/ProducerTypes.sol\";\nimport \"./Callable.sol\";\n\n/**\n * @title ProducerContract\n * @dev Producer resource that represent a user that can request a inspection\n */\ncontract ProducerContract is Callable {\n  mapping(address => Producer) public producers;\n\n  UserContract internal userContract;\n  address[] internal producersAddress;\n  uint256 public producersCount;\n\n  constructor(address userContractAddress) {\n    userContract = UserContract(userContractAddress);\n  }\n\n  /**\n   * @dev Allow a new register of producer\n   * @param name the name of the producer\n   * @param document the document of producer\n   * @param documentType the document type of producer. CPF/CNPJ\n   * @param country the country where the producer is\n   * @param state the state of the producer\n   * @param city the of the producer\n   * @param cep the cep of the producer\n   */\n  function addProducer(\n    string memory name,\n    string memory document,\n    string memory documentType,\n    string memory country,\n    string memory state,\n    string memory city,\n    string memory cep\n  ) public uniqueProducer {\n    UserType userType = UserType.PRODUCER;\n\n    Producer memory producer = Producer(\n      producersCount + 1,\n      msg.sender,\n      userType,\n      name,\n      document,\n      documentType,\n      false,\n      0,\n      0,\n      TokenApprove(0, false),\n      PropertyAddress(country, state, city, cep)\n    );\n\n    producers[msg.sender] = producer;\n    producersAddress.push(msg.sender);\n    producersCount++;\n    userContract.addUser(msg.sender, userType);\n  }\n\n  /**\n   * @dev Returns all registered producers\n   * @return Producer struct array\n   */\n  function getProducers() public view returns (Producer[] memory) {\n    Producer[] memory activistList = new Producer[](producersCount);\n\n    for (uint256 i = 0; i < producersCount; i++) {\n      address acAddress = producersAddress[i];\n      activistList[i] = producers[acAddress];\n    }\n\n    return activistList;\n  }\n\n  /**\n   * @dev Return a specific producer\n   * @param addr the address of the producer.\n   */\n  function getProducer(address addr) public view returns (Producer memory producer) {\n    return producers[addr];\n  }\n\n  /**\n   * @dev Check if a specific producer exists\n   * @return a bool that represent if a producer exists or not\n   */\n  function producerExists(address addr) public view returns (bool) {\n    return bytes(producers[addr].name).length > 0;\n  }\n\n  function recentInspection(address addr, bool state) public mustBeAllowedCaller {\n    producers[addr].recentInspection = state;\n  }\n\n  function updateIsaPoints(address addr, int256 isaPoints) public mustBeAllowedCaller {\n    producers[addr].isaPoints = isaPoints;\n  }\n\n  function incrementRequests(address addr) public mustBeAllowedCaller {\n    producers[addr].totalRequests++;\n  }\n\n  function approveProducerNewTokens(address addr, uint256 numTokens) public mustBeAllowedCaller {\n    uint256 tokens = producers[addr].tokenApprove.allowed;\n    producers[addr].tokenApprove = TokenApprove(tokens += numTokens, false);\n  }\n\n  function getProducerApprove(address address_) public view returns (uint256) {\n    return producers[address_].tokenApprove.allowed;\n  }\n\n  function undoProducerApprove() internal returns (bool) {\n    producers[msg.sender].tokenApprove = TokenApprove(0, false);\n    return true;\n  }\n\n  // MODIFIERS\n\n  modifier uniqueProducer() {\n    require(!producerExists(msg.sender), \"This producer already exist\");\n    _;\n  }\n}\n",
  "sourcePath": "/home/everson/Documents/projetos/sintrop/SAT-core-contracts/contracts/ProducerContract.sol",
  "compiler": {
    "name": "solc",
    "version": "0.8.2+commit.661d1103.Emscripten.clang"
  },
  "schemaVersion": "3.4.6",
  "updatedAt": "2022-05-14T21:17:42.176Z",
  "devdoc": {
    "details": "Producer resource that represent a user that can request a inspection",
    "kind": "dev",
    "methods": {
      "addProducer(string,string,string,string,string,string,string)": {
        "details": "Allow a new register of producer",
        "params": {
          "cep": "the cep of the producer",
          "city": "the of the producer",
          "country": "the country where the producer is",
          "document": "the document of producer",
          "documentType": "the document type of producer. CPF/CNPJ",
          "name": "the name of the producer",
          "state": "the state of the producer"
        }
      },
      "getProducer(address)": {
        "details": "Return a specific producer",
        "params": {
          "addr": "the address of the producer."
        }
      },
      "getProducers()": {
        "details": "Returns all registered producers",
        "returns": {
          "_0": "Producer struct array"
        }
      },
      "owner()": {
        "details": "Returns the address of the current owner."
      },
      "producerExists(address)": {
        "details": "Check if a specific producer exists",
        "returns": {
          "_0": "a bool that represent if a producer exists or not"
        }
      },
      "renounceOwnership()": {
        "details": "Leaves the contract without owner. It will not be possible to call `onlyOwner` functions anymore. Can only be called by the current owner. NOTE: Renouncing ownership will leave the contract without an owner, thereby removing any functionality that is only available to the owner."
      },
      "transferOwnership(address)": {
        "details": "Transfers ownership of the contract to a new account (`newOwner`). Can only be called by the current owner."
      }
    },
    "title": "ProducerContract",
    "version": 1
  },
  "userdoc": {
    "kind": "user",
    "methods": {},
    "version": 1
  }
}