{
  "contractName": "ProducerPool",
  "abi": [
    {
      "inputs": [
        {
          "internalType": "address",
          "name": "satTokenAddress",
          "type": "address"
        },
        {
          "internalType": "address",
          "name": "sintropAddress",
          "type": "address"
        }
      ],
      "stateMutability": "nonpayable",
      "type": "constructor"
    },
    {
      "inputs": [],
      "name": "approve",
      "outputs": [
        {
          "internalType": "bool",
          "name": "",
          "type": "bool"
        }
      ],
      "stateMutability": "nonpayable",
      "type": "function"
    },
    {
      "inputs": [],
      "name": "withDraw",
      "outputs": [
        {
          "internalType": "bool",
          "name": "",
          "type": "bool"
        }
      ],
      "stateMutability": "nonpayable",
      "type": "function"
    },
    {
      "inputs": [],
      "name": "allowance",
      "outputs": [
        {
          "internalType": "uint256",
          "name": "",
          "type": "uint256"
        }
      ],
      "stateMutability": "view",
      "type": "function"
    }
  ],
  "bytecode": "0x608060405234801561001057600080fd5b506040516103f33803806103f383398101604081905261002f9161007c565b600080546001600160a01b039384166001600160a01b031991821617909155600180549290931691161790556100ae565b80516001600160a01b038116811461007757600080fd5b919050565b6000806040838503121561008e578182fd5b61009783610060565b91506100a560208401610060565b90509250929050565b610336806100bd6000396000f3fe608060405234801561001057600080fd5b50600436106100415760003560e01c80630fdb1c101461004657806312424e3f14610063578063de242ff41461006b575b600080fd5b61004e610081565b60405190151581526020015b60405180910390f35b61004e61012c565b61007361023a565b60405190815260200161005a565b600080546001600160a01b03166323b872dd303361009d61023a565b6040516001600160e01b031960e086901b1681526001600160a01b0393841660048201529290911660248301526044820152606401602060405180830381600087803b1580156100ec57600080fd5b505af1158015610100573d6000803e3d6000fd5b505050506040513d601f19601f8201168201806040525081019061012491906102c1565b506001905090565b6001546040516346782a2160e11b815233600482015260009182916001600160a01b0390911690638cf054429060240160206040518083038186803b15801561017457600080fd5b505afa158015610188573d6000803e3d6000fd5b505050506040513d601f19601f820116820180604052508101906101ac91906102e8565b6000546040516333ff8bd360e11b8152336004820152602481018390529192506001600160a01b0316906367ff17a690604401602060405180830381600087803b1580156101f957600080fd5b505af115801561020d573d6000803e3d6000fd5b505050506040513d601f19601f8201168201806040525081019061023191906102e8565b50600191505090565b60008054604051636eb1769f60e11b81523060048201523360248201526001600160a01b039091169063dd62ed3e9060440160206040518083038186803b15801561028457600080fd5b505afa158015610298573d6000803e3d6000fd5b505050506040513d601f19601f820116820180604052508101906102bc91906102e8565b905090565b6000602082840312156102d2578081fd5b815180151581146102e1578182fd5b9392505050565b6000602082840312156102f9578081fd5b505191905056fea264697066735822122073e88ddd4515ba87cd8df60e7a1b4905a183f86a0ab8d256bcd15f3c50e6870e64736f6c63430008020033",
  "immutableReferences": {},
  "source": "// SPDX-License-Identifier: GPL-3.0\npragma solidity >=0.7.0 <=0.9.0;\n\nimport \"./PoolInterface.sol\";\nimport \"./SintropInterface.sol\";\nimport \"./SatTokenInterface.sol\";\n\ncontract ProducerPool is PoolInterface {\n    SatTokenInterface satToken;\n    SintropInterface sintrop;\n\n    constructor(address satTokenAddress, address sintropAddress) {\n        satToken = SatTokenInterface(satTokenAddress);\n        sintrop = SintropInterface(sintropAddress);\n    }\n\n    function approve() public override returns (bool) {\n        uint256 numTokens = sintrop.getProducerApprove(msg.sender);\n\n        satToken.approveWith(msg.sender, numTokens);\n        return true;\n    }\n\n    function withDraw() public override returns (bool) {\n        satToken.transferFrom(address(this), msg.sender, allowance());\n        return true;\n    }\n\n    function allowance() public view override returns (uint256) {\n        return satToken.allowance(address(this), msg.sender);\n    }\n}\n",
  "sourcePath": "/home/everson/Documents/projetos/sintrop/SAT-core-contracts/contracts/ProducerPool.sol",
  "compiler": {
    "name": "solc",
    "version": "0.8.2+commit.661d1103.Emscripten.clang"
  },
  "schemaVersion": "3.4.6",
  "updatedAt": "2022-04-02T18:06:16.859Z",
  "devdoc": {
    "kind": "dev",
    "methods": {},
    "version": 1
  },
  "userdoc": {
    "kind": "user",
    "methods": {},
    "version": 1
  }
}