{
  "contractName": "SacToken",
  "abi": [
    {
      "inputs": [
        {
          "internalType": "uint256",
          "name": "total",
          "type": "uint256"
        }
      ],
      "stateMutability": "nonpayable",
      "type": "constructor"
    },
    {
      "anonymous": false,
      "inputs": [
        {
          "indexed": true,
          "internalType": "address",
          "name": "owner",
          "type": "address"
        },
        {
          "indexed": true,
          "internalType": "address",
          "name": "spender",
          "type": "address"
        },
        {
          "indexed": false,
          "internalType": "uint256",
          "name": "value",
          "type": "uint256"
        }
      ],
      "name": "Approval",
      "type": "event"
    },
    {
      "anonymous": false,
      "inputs": [
        {
          "indexed": true,
          "internalType": "address",
          "name": "previousOwner",
          "type": "address"
        },
        {
          "indexed": true,
          "internalType": "address",
          "name": "newOwner",
          "type": "address"
        }
      ],
      "name": "OwnershipTransferred",
      "type": "event"
    },
    {
      "anonymous": false,
      "inputs": [
        {
          "indexed": true,
          "internalType": "address",
          "name": "from",
          "type": "address"
        },
        {
          "indexed": true,
          "internalType": "address",
          "name": "to",
          "type": "address"
        },
        {
          "indexed": false,
          "internalType": "uint256",
          "name": "value",
          "type": "uint256"
        }
      ],
      "name": "Transfer",
      "type": "event"
    },
    {
      "inputs": [],
      "name": "DECIMALS",
      "outputs": [
        {
          "internalType": "uint8",
          "name": "",
          "type": "uint8"
        }
      ],
      "stateMutability": "view",
      "type": "function",
      "constant": true
    },
    {
      "inputs": [],
      "name": "NAME",
      "outputs": [
        {
          "internalType": "string",
          "name": "",
          "type": "string"
        }
      ],
      "stateMutability": "view",
      "type": "function",
      "constant": true
    },
    {
      "inputs": [],
      "name": "SYMBOL",
      "outputs": [
        {
          "internalType": "string",
          "name": "",
          "type": "string"
        }
      ],
      "stateMutability": "view",
      "type": "function",
      "constant": true
    },
    {
      "inputs": [],
      "name": "decimals",
      "outputs": [
        {
          "internalType": "uint8",
          "name": "",
          "type": "uint8"
        }
      ],
      "stateMutability": "view",
      "type": "function",
      "constant": true
    },
    {
      "inputs": [
        {
          "internalType": "address",
          "name": "spender",
          "type": "address"
        },
        {
          "internalType": "uint256",
          "name": "subtractedValue",
          "type": "uint256"
        }
      ],
      "name": "decreaseAllowance",
      "outputs": [
        {
          "internalType": "bool",
          "name": "",
          "type": "bool"
        }
      ],
      "stateMutability": "nonpayable",
      "type": "function"
    },
    {
      "inputs": [
        {
          "internalType": "address",
          "name": "spender",
          "type": "address"
        },
        {
          "internalType": "uint256",
          "name": "addedValue",
          "type": "uint256"
        }
      ],
      "name": "increaseAllowance",
      "outputs": [
        {
          "internalType": "bool",
          "name": "",
          "type": "bool"
        }
      ],
      "stateMutability": "nonpayable",
      "type": "function"
    },
    {
      "inputs": [],
      "name": "owner",
      "outputs": [
        {
          "internalType": "address",
          "name": "",
          "type": "address"
        }
      ],
      "stateMutability": "view",
      "type": "function",
      "constant": true
    },
    {
      "inputs": [],
      "name": "renounceOwnership",
      "outputs": [],
      "stateMutability": "nonpayable",
      "type": "function"
    },
    {
      "inputs": [],
      "name": "symbol",
      "outputs": [
        {
          "internalType": "string",
          "name": "",
          "type": "string"
        }
      ],
      "stateMutability": "view",
      "type": "function",
      "constant": true
    },
    {
      "inputs": [
        {
          "internalType": "address",
          "name": "newOwner",
          "type": "address"
        }
      ],
      "name": "transferOwnership",
      "outputs": [],
      "stateMutability": "nonpayable",
      "type": "function"
    },
    {
      "inputs": [
        {
          "internalType": "address",
          "name": "_fundAddress",
          "type": "address"
        },
        {
          "internalType": "uint256",
          "name": "_numTokens",
          "type": "uint256"
        }
      ],
      "name": "addContractPool",
      "outputs": [
        {
          "internalType": "bool",
          "name": "",
          "type": "bool"
        }
      ],
      "stateMutability": "nonpayable",
      "type": "function"
    },
    {
      "inputs": [
        {
          "internalType": "address",
          "name": "_fundAddress",
          "type": "address"
        }
      ],
      "name": "removeContractPool",
      "outputs": [
        {
          "internalType": "bool",
          "name": "",
          "type": "bool"
        }
      ],
      "stateMutability": "nonpayable",
      "type": "function"
    },
    {
      "inputs": [
        {
          "internalType": "address",
          "name": "delegate",
          "type": "address"
        },
        {
          "internalType": "uint256",
          "name": "numTokens",
          "type": "uint256"
        }
      ],
      "name": "approveWith",
      "outputs": [
        {
          "internalType": "uint256",
          "name": "",
          "type": "uint256"
        }
      ],
      "stateMutability": "nonpayable",
      "type": "function"
    },
    {
      "inputs": [
        {
          "internalType": "address",
          "name": "tokenOwner",
          "type": "address"
        },
        {
          "internalType": "uint256",
          "name": "numTokens",
          "type": "uint256"
        }
      ],
      "name": "transferWith",
      "outputs": [
        {
          "internalType": "bool",
          "name": "",
          "type": "bool"
        }
      ],
      "stateMutability": "nonpayable",
      "type": "function"
    },
    {
      "inputs": [],
      "name": "totalSupply",
      "outputs": [
        {
          "internalType": "uint256",
          "name": "",
          "type": "uint256"
        }
      ],
      "stateMutability": "view",
      "type": "function",
      "constant": true
    },
    {
      "inputs": [],
      "name": "name",
      "outputs": [
        {
          "internalType": "string",
          "name": "",
          "type": "string"
        }
      ],
      "stateMutability": "pure",
      "type": "function",
      "constant": true
    },
    {
      "inputs": [
        {
          "internalType": "address",
          "name": "tokenOwner",
          "type": "address"
        }
      ],
      "name": "balanceOf",
      "outputs": [
        {
          "internalType": "uint256",
          "name": "",
          "type": "uint256"
        }
      ],
      "stateMutability": "view",
      "type": "function",
      "constant": true
    },
    {
      "inputs": [
        {
          "internalType": "address",
          "name": "receiver",
          "type": "address"
        },
        {
          "internalType": "uint256",
          "name": "numTokens",
          "type": "uint256"
        }
      ],
      "name": "transfer",
      "outputs": [
        {
          "internalType": "bool",
          "name": "",
          "type": "bool"
        }
      ],
      "stateMutability": "nonpayable",
      "type": "function"
    },
    {
      "inputs": [
        {
          "internalType": "address",
          "name": "delegate",
          "type": "address"
        },
        {
          "internalType": "uint256",
          "name": "numTokens",
          "type": "uint256"
        }
      ],
      "name": "approve",
      "outputs": [
        {
          "internalType": "bool",
          "name": "",
          "type": "bool"
        }
      ],
      "stateMutability": "nonpayable",
      "type": "function"
    },
    {
      "inputs": [
        {
          "internalType": "address",
          "name": "owner",
          "type": "address"
        },
        {
          "internalType": "address",
          "name": "delegate",
          "type": "address"
        }
      ],
      "name": "allowance",
      "outputs": [
        {
          "internalType": "uint256",
          "name": "",
          "type": "uint256"
        }
      ],
      "stateMutability": "view",
      "type": "function",
      "constant": true
    },
    {
      "inputs": [
        {
          "internalType": "address",
          "name": "owner",
          "type": "address"
        },
        {
          "internalType": "address",
          "name": "buyer",
          "type": "address"
        },
        {
          "internalType": "uint256",
          "name": "numTokens",
          "type": "uint256"
        }
      ],
      "name": "transferFrom",
      "outputs": [
        {
          "internalType": "bool",
          "name": "",
          "type": "bool"
        }
      ],
      "stateMutability": "nonpayable",
      "type": "function"
    }
  ],
  "bytecode": "0x60806040523480156200001157600080fd5b5060405162002358380380620023588339818101604052810190620000379190620002e0565b6040518060400160405280601e81526020017f5355535441494e41424c45204147524943554c545552452043524544495400008152506040518060400160405280600381526020017f53414300000000000000000000000000000000000000000000000000000000008152508160039080519060200190620000bb92919062000219565b508060049080519060200190620000d492919062000219565b505050620000f7620000eb6200014b60201b60201c565b6200015360201b60201c565b80600881905550600854600660003373ffffffffffffffffffffffffffffffffffffffff1673ffffffffffffffffffffffffffffffffffffffff168152602001908152602001600020819055505062000395565b600033905090565b6000600560009054906101000a900473ffffffffffffffffffffffffffffffffffffffff16905081600560006101000a81548173ffffffffffffffffffffffffffffffffffffffff021916908373ffffffffffffffffffffffffffffffffffffffff1602179055508173ffffffffffffffffffffffffffffffffffffffff168173ffffffffffffffffffffffffffffffffffffffff167f8be0079c531659141344cd1fd0a4f28419497f9722a3daafe3b4186f6b6457e060405160405180910390a35050565b828054620002279062000316565b90600052602060002090601f0160209004810192826200024b576000855562000297565b82601f106200026657805160ff191683800117855562000297565b8280016001018555821562000297579182015b828111156200029657825182559160200191906001019062000279565b5b509050620002a69190620002aa565b5090565b5b80821115620002c5576000816000905550600101620002ab565b5090565b600081519050620002da816200037b565b92915050565b600060208284031215620002f357600080fd5b60006200030384828501620002c9565b91505092915050565b6000819050919050565b600060028204905060018216806200032f57607f821691505b602082108114156200034657620003456200034c565b5b50919050565b7f4e487b7100000000000000000000000000000000000000000000000000000000600052602260045260246000fd5b62000386816200030c565b81146200039257600080fd5b50565b611fb380620003a56000396000f3fe608060405234801561001057600080fd5b50600436106101375760003560e01c806367ff17a6116100b8578063a3f4df7e1161007c578063a3f4df7e1461037a578063a457c2d714610398578063a9059cbb146103c8578063dd62ed3e146103f8578063f2fde38b14610428578063f76f8d781461044457610137565b806367ff17a6146102d457806370a0823114610304578063715018a6146103345780638da5cb5b1461033e57806395d89b411461035c57610137565b8063313ce567116100ff578063313ce567146101f6578063395093511461021457806340e306ab1461024457806344edffbb146102745780634d65a846146102a457610137565b806306fdde031461013c578063095ea7b31461015a57806318160ddd1461018a57806323b872dd146101a85780632e0f2625146101d8575b600080fd5b610144610462565b6040516101519190611a91565b60405180910390f35b610174600480360381019061016f91906118b5565b61049f565b6040516101819190611a76565b60405180910390f35b610192610591565b60405161019f9190611b93565b60405180910390f35b6101c260048036038101906101bd9190611866565b61059b565b6040516101cf9190611a76565b60405180910390f35b6101e061091b565b6040516101ed9190611bae565b60405180910390f35b6101fe610920565b60405161020b9190611bae565b60405180910390f35b61022e600480360381019061022991906118b5565b610929565b60405161023b9190611a76565b60405180910390f35b61025e60048036038101906102599190611801565b610960565b60405161026b9190611a76565b60405180910390f35b61028e600480360381019061028991906118b5565b610a3f565b60405161029b9190611a76565b60405180910390f35b6102be60048036038101906102b991906118b5565b610ca8565b6040516102cb9190611a76565b60405180910390f35b6102ee60048036038101906102e991906118b5565b610d93565b6040516102fb9190611b93565b60405180910390f35b61031e60048036038101906103199190611801565b610ee0565b60405161032b9190611b93565b60405180910390f35b61033c610f29565b005b610346610fb1565b6040516103539190611a5b565b60405180910390f35b610364610fdb565b6040516103719190611a91565b60405180910390f35b61038261106d565b60405161038f9190611a91565b60405180910390f35b6103b260048036038101906103ad91906118b5565b6110a6565b6040516103bf9190611a76565b60405180910390f35b6103e260048036038101906103dd91906118b5565b61111d565b6040516103ef9190611a76565b60405180910390f35b610412600480360381019061040d919061182a565b611304565b60405161041f9190611b93565b60405180910390f35b610442600480360381019061043d9190611801565b61138b565b005b61044c611483565b6040516104599190611a91565b60405180910390f35b60606040518060400160405280601e81526020017f5355535441494e41424c45204147524943554c54555245204352454449540000815250905090565b600081600760003373ffffffffffffffffffffffffffffffffffffffff1673ffffffffffffffffffffffffffffffffffffffff16815260200190815260200160002060008573ffffffffffffffffffffffffffffffffffffffff1673ffffffffffffffffffffffffffffffffffffffff168152602001908152602001600020819055508273ffffffffffffffffffffffffffffffffffffffff163373ffffffffffffffffffffffffffffffffffffffff167f8c5be1e5ebec7d5bd14f71427d1e84f3dd0314c0f7b2291e5b200ac8c7c3b9258460405161057f9190611b93565b60405180910390a36001905092915050565b6000600854905090565b6000600660008573ffffffffffffffffffffffffffffffffffffffff1673ffffffffffffffffffffffffffffffffffffffff168152602001908152602001600020548211156105e957600080fd5b600760008573ffffffffffffffffffffffffffffffffffffffff1673ffffffffffffffffffffffffffffffffffffffff16815260200190815260200160002060003373ffffffffffffffffffffffffffffffffffffffff1673ffffffffffffffffffffffffffffffffffffffff1681526020019081526020016000205482111561067257600080fd5b6106c482600660008773ffffffffffffffffffffffffffffffffffffffff1673ffffffffffffffffffffffffffffffffffffffff168152602001908152602001600020546114bc90919063ffffffff16565b600660008673ffffffffffffffffffffffffffffffffffffffff1673ffffffffffffffffffffffffffffffffffffffff1681526020019081526020016000208190555061079682600760008773ffffffffffffffffffffffffffffffffffffffff1673ffffffffffffffffffffffffffffffffffffffff16815260200190815260200160002060003373ffffffffffffffffffffffffffffffffffffffff1673ffffffffffffffffffffffffffffffffffffffff168152602001908152602001600020546114bc90919063ffffffff16565b600760008673ffffffffffffffffffffffffffffffffffffffff1673ffffffffffffffffffffffffffffffffffffffff16815260200190815260200160002060003373ffffffffffffffffffffffffffffffffffffffff1673ffffffffffffffffffffffffffffffffffffffff1681526020019081526020016000208190555061086882600660008673ffffffffffffffffffffffffffffffffffffffff1673ffffffffffffffffffffffffffffffffffffffff168152602001908152602001600020546114d290919063ffffffff16565b600660008573ffffffffffffffffffffffffffffffffffffffff1673ffffffffffffffffffffffffffffffffffffffff168152602001908152602001600020819055508273ffffffffffffffffffffffffffffffffffffffff168473ffffffffffffffffffffffffffffffffffffffff167fddf252ad1be2c89b69c2b068fc378daa952ba7f163c4a11628f55a4df523b3ef846040516109089190611b93565b60405180910390a3600190509392505050565b601281565b60006012905090565b6000806109346114e8565b90506109558185856109468589611304565b6109509190611be5565b6114f0565b600191505092915050565b600061096a6114e8565b73ffffffffffffffffffffffffffffffffffffffff16610988610fb1565b73ffffffffffffffffffffffffffffffffffffffff16146109de576040517f08c379a00000000000000000000000000000000000000000000000000000000081526004016109d590611af3565b60405180910390fd5b6000600960008473ffffffffffffffffffffffffffffffffffffffff1673ffffffffffffffffffffffffffffffffffffffff16815260200190815260200160002060006101000a81548160ff02191690831515021790555060019050919050565b6000610a4a336116bb565b610a89576040517f08c379a0000000000000000000000000000000000000000000000000000000008152600401610a8090611b53565b60405180910390fd5b8282600660008373ffffffffffffffffffffffffffffffffffffffff1673ffffffffffffffffffffffffffffffffffffffff16815260200190815260200160002054811115610b0d576040517f08c379a0000000000000000000000000000000000000000000000000000000008152600401610b0490611b33565b60405180910390fd5b610b5f84600660008873ffffffffffffffffffffffffffffffffffffffff1673ffffffffffffffffffffffffffffffffffffffff168152602001908152602001600020546114bc90919063ffffffff16565b600660008773ffffffffffffffffffffffffffffffffffffffff1673ffffffffffffffffffffffffffffffffffffffff16815260200190815260200160002081905550610bf484600660003373ffffffffffffffffffffffffffffffffffffffff1673ffffffffffffffffffffffffffffffffffffffff168152602001908152602001600020546114d290919063ffffffff16565b600660003373ffffffffffffffffffffffffffffffffffffffff1673ffffffffffffffffffffffffffffffffffffffff168152602001908152602001600020819055503373ffffffffffffffffffffffffffffffffffffffff168573ffffffffffffffffffffffffffffffffffffffff167fddf252ad1be2c89b69c2b068fc378daa952ba7f163c4a11628f55a4df523b3ef86604051610c949190611b93565b60405180910390a360019250505092915050565b6000610cb26114e8565b73ffffffffffffffffffffffffffffffffffffffff16610cd0610fb1565b73ffffffffffffffffffffffffffffffffffffffff1614610d26576040517f08c379a0000000000000000000000000000000000000000000000000000000008152600401610d1d90611af3565b60405180910390fd5b6001600960008573ffffffffffffffffffffffffffffffffffffffff1673ffffffffffffffffffffffffffffffffffffffff16815260200190815260200160002060006101000a81548160ff021916908315150217905550610d88838361111d565b506001905092915050565b6000610d9e336116bb565b610ddd576040517f08c379a0000000000000000000000000000000000000000000000000000000008152600401610dd490611b53565b60405180910390fd5b610de73384611304565b82610df29190611be5565b600760003373ffffffffffffffffffffffffffffffffffffffff1673ffffffffffffffffffffffffffffffffffffffff16815260200190815260200160002060008573ffffffffffffffffffffffffffffffffffffffff1673ffffffffffffffffffffffffffffffffffffffff168152602001908152602001600020819055508273ffffffffffffffffffffffffffffffffffffffff163373ffffffffffffffffffffffffffffffffffffffff167f8c5be1e5ebec7d5bd14f71427d1e84f3dd0314c0f7b2291e5b200ac8c7c3b92584604051610ecf9190611b93565b60405180910390a381905092915050565b6000600660008373ffffffffffffffffffffffffffffffffffffffff1673ffffffffffffffffffffffffffffffffffffffff168152602001908152602001600020549050919050565b610f316114e8565b73ffffffffffffffffffffffffffffffffffffffff16610f4f610fb1565b73ffffffffffffffffffffffffffffffffffffffff1614610fa5576040517f08c379a0000000000000000000000000000000000000000000000000000000008152600401610f9c90611af3565b60405180910390fd5b610faf6000611711565b565b6000600560009054906101000a900473ffffffffffffffffffffffffffffffffffffffff16905090565b606060048054610fea90611cf7565b80601f016020809104026020016040519081016040528092919081815260200182805461101690611cf7565b80156110635780601f1061103857610100808354040283529160200191611063565b820191906000526020600020905b81548152906001019060200180831161104657829003601f168201915b5050505050905090565b6040518060400160405280601e81526020017f5355535441494e41424c45204147524943554c5455524520435245444954000081525081565b6000806110b16114e8565b905060006110bf8286611304565b905083811015611104576040517f08c379a00000000000000000000000000000000000000000000000000000000081526004016110fb90611b73565b60405180910390fd5b61111182868684036114f0565b60019250505092915050565b6000600660003373ffffffffffffffffffffffffffffffffffffffff1673ffffffffffffffffffffffffffffffffffffffff1681526020019081526020016000205482111561116b57600080fd5b6111bd82600660003373ffffffffffffffffffffffffffffffffffffffff1673ffffffffffffffffffffffffffffffffffffffff168152602001908152602001600020546114bc90919063ffffffff16565b600660003373ffffffffffffffffffffffffffffffffffffffff1673ffffffffffffffffffffffffffffffffffffffff1681526020019081526020016000208190555061125282600660008673ffffffffffffffffffffffffffffffffffffffff1673ffffffffffffffffffffffffffffffffffffffff168152602001908152602001600020546114d290919063ffffffff16565b600660008573ffffffffffffffffffffffffffffffffffffffff1673ffffffffffffffffffffffffffffffffffffffff168152602001908152602001600020819055508273ffffffffffffffffffffffffffffffffffffffff163373ffffffffffffffffffffffffffffffffffffffff167fddf252ad1be2c89b69c2b068fc378daa952ba7f163c4a11628f55a4df523b3ef846040516112f29190611b93565b60405180910390a36001905092915050565b6000600760008473ffffffffffffffffffffffffffffffffffffffff1673ffffffffffffffffffffffffffffffffffffffff16815260200190815260200160002060008373ffffffffffffffffffffffffffffffffffffffff1673ffffffffffffffffffffffffffffffffffffffff16815260200190815260200160002054905092915050565b6113936114e8565b73ffffffffffffffffffffffffffffffffffffffff166113b1610fb1565b73ffffffffffffffffffffffffffffffffffffffff1614611407576040517f08c379a00000000000000000000000000000000000000000000000000000000081526004016113fe90611af3565b60405180910390fd5b600073ffffffffffffffffffffffffffffffffffffffff168173ffffffffffffffffffffffffffffffffffffffff161415611477576040517f08c379a000000000000000000000000000000000000000000000000000000000815260040161146e90611ab3565b60405180910390fd5b61148081611711565b50565b6040518060400160405280600381526020017f534143000000000000000000000000000000000000000000000000000000000081525081565b600081836114ca9190611c3b565b905092915050565b600081836114e09190611be5565b905092915050565b600033905090565b600073ffffffffffffffffffffffffffffffffffffffff168373ffffffffffffffffffffffffffffffffffffffff161415611560576040517f08c379a000000000000000000000000000000000000000000000000000000000815260040161155790611b13565b60405180910390fd5b600073ffffffffffffffffffffffffffffffffffffffff168273ffffffffffffffffffffffffffffffffffffffff1614156115d0576040517f08c379a00000000000000000000000000000000000000000000000000000000081526004016115c790611ad3565b60405180910390fd5b80600160008573ffffffffffffffffffffffffffffffffffffffff1673ffffffffffffffffffffffffffffffffffffffff16815260200190815260200160002060008473ffffffffffffffffffffffffffffffffffffffff1673ffffffffffffffffffffffffffffffffffffffff168152602001908152602001600020819055508173ffffffffffffffffffffffffffffffffffffffff168373ffffffffffffffffffffffffffffffffffffffff167f8c5be1e5ebec7d5bd14f71427d1e84f3dd0314c0f7b2291e5b200ac8c7c3b925836040516116ae9190611b93565b60405180910390a3505050565b6000600960008373ffffffffffffffffffffffffffffffffffffffff1673ffffffffffffffffffffffffffffffffffffffff16815260200190815260200160002060009054906101000a900460ff169050919050565b6000600560009054906101000a900473ffffffffffffffffffffffffffffffffffffffff16905081600560006101000a81548173ffffffffffffffffffffffffffffffffffffffff021916908373ffffffffffffffffffffffffffffffffffffffff1602179055508173ffffffffffffffffffffffffffffffffffffffff168173ffffffffffffffffffffffffffffffffffffffff167f8be0079c531659141344cd1fd0a4f28419497f9722a3daafe3b4186f6b6457e060405160405180910390a35050565b6000813590506117e681611f4f565b92915050565b6000813590506117fb81611f66565b92915050565b60006020828403121561181357600080fd5b6000611821848285016117d7565b91505092915050565b6000806040838503121561183d57600080fd5b600061184b858286016117d7565b925050602061185c858286016117d7565b9150509250929050565b60008060006060848603121561187b57600080fd5b6000611889868287016117d7565b935050602061189a868287016117d7565b92505060406118ab868287016117ec565b9150509250925092565b600080604083850312156118c857600080fd5b60006118d6858286016117d7565b92505060206118e7858286016117ec565b9150509250929050565b6118fa81611c6f565b82525050565b61190981611c81565b82525050565b600061191a82611bc9565b6119248185611bd4565b9350611934818560208601611cc4565b61193d81611d87565b840191505092915050565b6000611955602683611bd4565b915061196082611d98565b604082019050919050565b6000611978602283611bd4565b915061198382611de7565b604082019050919050565b600061199b602083611bd4565b91506119a682611e36565b602082019050919050565b60006119be602483611bd4565b91506119c982611e5f565b604082019050919050565b60006119e1601883611bd4565b91506119ec82611eae565b602082019050919050565b6000611a04601383611bd4565b9150611a0f82611ed7565b602082019050919050565b6000611a27602583611bd4565b9150611a3282611f00565b604082019050919050565b611a4681611cad565b82525050565b611a5581611cb7565b82525050565b6000602082019050611a7060008301846118f1565b92915050565b6000602082019050611a8b6000830184611900565b92915050565b60006020820190508181036000830152611aab818461190f565b905092915050565b60006020820190508181036000830152611acc81611948565b9050919050565b60006020820190508181036000830152611aec8161196b565b9050919050565b60006020820190508181036000830152611b0c8161198e565b9050919050565b60006020820190508181036000830152611b2c816119b1565b9050919050565b60006020820190508181036000830152611b4c816119d4565b9050919050565b60006020820190508181036000830152611b6c816119f7565b9050919050565b60006020820190508181036000830152611b8c81611a1a565b9050919050565b6000602082019050611ba86000830184611a3d565b92915050565b6000602082019050611bc36000830184611a4c565b92915050565b600081519050919050565b600082825260208201905092915050565b6000611bf082611cad565b9150611bfb83611cad565b9250827fffffffffffffffffffffffffffffffffffffffffffffffffffffffffffffffff03821115611c3057611c2f611d29565b5b828201905092915050565b6000611c4682611cad565b9150611c5183611cad565b925082821015611c6457611c63611d29565b5b828203905092915050565b6000611c7a82611c8d565b9050919050565b60008115159050919050565b600073ffffffffffffffffffffffffffffffffffffffff82169050919050565b6000819050919050565b600060ff82169050919050565b60005b83811015611ce2578082015181840152602081019050611cc7565b83811115611cf1576000848401525b50505050565b60006002820490506001821680611d0f57607f821691505b60208210811415611d2357611d22611d58565b5b50919050565b7f4e487b7100000000000000000000000000000000000000000000000000000000600052601160045260246000fd5b7f4e487b7100000000000000000000000000000000000000000000000000000000600052602260045260246000fd5b6000601f19601f8301169050919050565b7f4f776e61626c653a206e6577206f776e657220697320746865207a65726f206160008201527f6464726573730000000000000000000000000000000000000000000000000000602082015250565b7f45524332303a20617070726f766520746f20746865207a65726f20616464726560008201527f7373000000000000000000000000000000000000000000000000000000000000602082015250565b7f4f776e61626c653a2063616c6c6572206973206e6f7420746865206f776e6572600082015250565b7f45524332303a20617070726f76652066726f6d20746865207a65726f2061646460008201527f7265737300000000000000000000000000000000000000000000000000000000602082015250565b7f596f7520646f6e2774206861732053414320546f6b656e730000000000000000600082015250565b7f4e6f74206120636f6e747261637420706f6f6c00000000000000000000000000600082015250565b7f45524332303a2064656372656173656420616c6c6f77616e63652062656c6f7760008201527f207a65726f000000000000000000000000000000000000000000000000000000602082015250565b611f5881611c6f565b8114611f6357600080fd5b50565b611f6f81611cad565b8114611f7a57600080fd5b5056fea2646970667358221220046346e72c770c44371ee6f41a46ade165db385b9378afc4afee6cb0d21bbb6e64736f6c63430008020033",
  "immutableReferences": {},
  "source": "// SPDX-License-Identifier: GPL-3.0\r\npragma solidity >=0.7.0 <=0.9.0;\r\n\r\nimport \"@openzeppelin/contracts/access/Ownable.sol\";\r\nimport \"@openzeppelin/contracts/token/ERC20/ERC20.sol\";\r\nimport \"@openzeppelin/contracts/utils/math/SafeMath.sol\";\r\n\r\ncontract SacToken is ERC20, Ownable {\r\n  string public constant NAME = \"SUSTAINABLE AGRICULTURE CREDIT\";\r\n  string public constant SYMBOL = \"SAC\";\r\n  uint8 public constant DECIMALS = 18;\r\n\r\n  mapping(address => uint256) internal balances;\r\n  mapping(address => mapping(address => uint256)) internal allowed;\r\n\r\n  uint256 internal totalSupply_;\r\n\r\n  using SafeMath for uint256;\r\n\r\n  mapping(address => bool) internal contractsPools;\r\n\r\n  constructor(uint256 total) ERC20(NAME, SYMBOL) {\r\n    totalSupply_ = total;\r\n    balances[msg.sender] = totalSupply_;\r\n  }\r\n\r\n  function addContractPool(address _fundAddress, uint256 _numTokens)\r\n    public\r\n    onlyOwner\r\n    returns (bool)\r\n  {\r\n    contractsPools[_fundAddress] = true;\r\n    transfer(_fundAddress, _numTokens);\r\n    return true;\r\n  }\r\n\r\n  function removeContractPool(address _fundAddress) public onlyOwner returns (bool) {\r\n    contractsPools[_fundAddress] = false;\r\n    return true;\r\n  }\r\n\r\n  function approveWith(address delegate, uint256 numTokens)\r\n    public\r\n    mustBeContractPool\r\n    returns (uint256)\r\n  {\r\n    allowed[msg.sender][delegate] = numTokens + allowance(msg.sender, delegate);\r\n    emit Approval(msg.sender, delegate, numTokens);\r\n    return numTokens;\r\n  }\r\n\r\n  function transferWith(address tokenOwner, uint256 numTokens)\r\n    public\r\n    mustBeContractPool\r\n    mustHaveSacTokens(tokenOwner, numTokens)\r\n    returns (bool)\r\n  {\r\n    balances[tokenOwner] = balances[tokenOwner].sub(numTokens);\r\n    balances[msg.sender] = balances[msg.sender].add(numTokens);\r\n    emit Transfer(tokenOwner, msg.sender, numTokens);\r\n\r\n    return true;\r\n  }\r\n\r\n  function contractPool(address contractFundsAddress) internal view returns (bool) {\r\n    return contractsPools[contractFundsAddress];\r\n  }\r\n\r\n  function totalSupply() public view override returns (uint256) {\r\n    return totalSupply_;\r\n  }\r\n\r\n  function name() public pure override returns (string memory) {\r\n    return NAME;\r\n  }\r\n\r\n  function balanceOf(address tokenOwner) public view override returns (uint256) {\r\n    return balances[tokenOwner];\r\n  }\r\n\r\n  function transfer(address receiver, uint256 numTokens) public override returns (bool) {\r\n    require(numTokens <= balances[msg.sender]);\r\n    balances[msg.sender] = balances[msg.sender].sub(numTokens);\r\n    balances[receiver] = balances[receiver].add(numTokens);\r\n    emit Transfer(msg.sender, receiver, numTokens);\r\n    return true;\r\n  }\r\n\r\n  function approve(address delegate, uint256 numTokens) public override returns (bool) {\r\n    allowed[msg.sender][delegate] = numTokens;\r\n    emit Approval(msg.sender, delegate, numTokens);\r\n    return true;\r\n  }\r\n\r\n  function allowance(address owner, address delegate) public view override returns (uint256) {\r\n    return allowed[owner][delegate];\r\n  }\r\n\r\n  function transferFrom(\r\n    address owner,\r\n    address buyer,\r\n    uint256 numTokens\r\n  ) public override returns (bool) {\r\n    require(numTokens <= balances[owner]);\r\n    require(numTokens <= allowed[owner][msg.sender]);\r\n\r\n    balances[owner] = balances[owner].sub(numTokens);\r\n    allowed[owner][msg.sender] = allowed[owner][msg.sender].sub(numTokens);\r\n    balances[buyer] = balances[buyer].add(numTokens);\r\n    emit Transfer(owner, buyer, numTokens);\r\n    return true;\r\n  }\r\n\r\n  modifier mustBeContractPool() {\r\n    require(contractPool(msg.sender), \"Not a contract pool\");\r\n    _;\r\n  }\r\n\r\n  modifier mustHaveSacTokens(address tokenOwner, uint256 numTokens) {\r\n    require(numTokens <= balances[tokenOwner], \"You don't has SAC Tokens\");\r\n    _;\r\n  }\r\n}\r\n",
  "sourcePath": "/app/contracts/SacToken.sol",
  "compiler": {
    "name": "solc",
    "version": "0.8.2+commit.661d1103.Emscripten.clang"
  },
  "schemaVersion": "3.4.7",
  "updatedAt": "2022-06-14T21:44:40.984Z",
  "networkType": "ethereum",
  "devdoc": {
    "kind": "dev",
    "methods": {
      "decimals()": {
        "details": "Returns the number of decimals used to get its user representation. For example, if `decimals` equals `2`, a balance of `505` tokens should be displayed to a user as `5.05` (`505 / 10 ** 2`). Tokens usually opt for a value of 18, imitating the relationship between Ether and Wei. This is the value {ERC20} uses, unless this function is overridden; NOTE: This information is only used for _display_ purposes: it in no way affects any of the arithmetic of the contract, including {IERC20-balanceOf} and {IERC20-transfer}."
      },
      "decreaseAllowance(address,uint256)": {
        "details": "Atomically decreases the allowance granted to `spender` by the caller. This is an alternative to {approve} that can be used as a mitigation for problems described in {IERC20-approve}. Emits an {Approval} event indicating the updated allowance. Requirements: - `spender` cannot be the zero address. - `spender` must have allowance for the caller of at least `subtractedValue`."
      },
      "increaseAllowance(address,uint256)": {
        "details": "Atomically increases the allowance granted to `spender` by the caller. This is an alternative to {approve} that can be used as a mitigation for problems described in {IERC20-approve}. Emits an {Approval} event indicating the updated allowance. Requirements: - `spender` cannot be the zero address."
      },
      "name()": {
        "details": "Returns the name of the token."
      },
      "owner()": {
        "details": "Returns the address of the current owner."
      },
      "renounceOwnership()": {
        "details": "Leaves the contract without owner. It will not be possible to call `onlyOwner` functions anymore. Can only be called by the current owner. NOTE: Renouncing ownership will leave the contract without an owner, thereby removing any functionality that is only available to the owner."
      },
      "symbol()": {
        "details": "Returns the symbol of the token, usually a shorter version of the name."
      },
      "totalSupply()": {
        "details": "See {IERC20-totalSupply}."
      },
      "transferOwnership(address)": {
        "details": "Transfers ownership of the contract to a new account (`newOwner`). Can only be called by the current owner."
      }
    },
    "version": 1
  },
  "userdoc": {
    "kind": "user",
    "methods": {},
    "version": 1
  }
}