{
  "contractName": "SacToken",
  "abi": [
    {
      "inputs": [
        {
          "internalType": "uint256",
          "name": "total",
          "type": "uint256"
        }
      ],
      "stateMutability": "nonpayable",
      "type": "constructor"
    },
    {
      "anonymous": false,
      "inputs": [
        {
          "indexed": true,
          "internalType": "address",
          "name": "owner",
          "type": "address"
        },
        {
          "indexed": true,
          "internalType": "address",
          "name": "spender",
          "type": "address"
        },
        {
          "indexed": false,
          "internalType": "uint256",
          "name": "value",
          "type": "uint256"
        }
      ],
      "name": "Approval",
      "type": "event"
    },
    {
      "anonymous": false,
      "inputs": [
        {
          "indexed": true,
          "internalType": "address",
          "name": "previousOwner",
          "type": "address"
        },
        {
          "indexed": true,
          "internalType": "address",
          "name": "newOwner",
          "type": "address"
        }
      ],
      "name": "OwnershipTransferred",
      "type": "event"
    },
    {
      "anonymous": false,
      "inputs": [
        {
          "indexed": true,
          "internalType": "address",
          "name": "from",
          "type": "address"
        },
        {
          "indexed": true,
          "internalType": "address",
          "name": "to",
          "type": "address"
        },
        {
          "indexed": false,
          "internalType": "uint256",
          "name": "value",
          "type": "uint256"
        }
      ],
      "name": "Transfer",
      "type": "event"
    },
    {
      "inputs": [],
      "name": "DECIMALS",
      "outputs": [
        {
          "internalType": "uint8",
          "name": "",
          "type": "uint8"
        }
      ],
      "stateMutability": "view",
      "type": "function"
    },
    {
      "inputs": [],
      "name": "NAME",
      "outputs": [
        {
          "internalType": "string",
          "name": "",
          "type": "string"
        }
      ],
      "stateMutability": "view",
      "type": "function"
    },
    {
      "inputs": [],
      "name": "SYMBOL",
      "outputs": [
        {
          "internalType": "string",
          "name": "",
          "type": "string"
        }
      ],
      "stateMutability": "view",
      "type": "function"
    },
    {
      "inputs": [],
      "name": "decimals",
      "outputs": [
        {
          "internalType": "uint8",
          "name": "",
          "type": "uint8"
        }
      ],
      "stateMutability": "view",
      "type": "function"
    },
    {
      "inputs": [
        {
          "internalType": "address",
          "name": "spender",
          "type": "address"
        },
        {
          "internalType": "uint256",
          "name": "subtractedValue",
          "type": "uint256"
        }
      ],
      "name": "decreaseAllowance",
      "outputs": [
        {
          "internalType": "bool",
          "name": "",
          "type": "bool"
        }
      ],
      "stateMutability": "nonpayable",
      "type": "function"
    },
    {
      "inputs": [
        {
          "internalType": "address",
          "name": "spender",
          "type": "address"
        },
        {
          "internalType": "uint256",
          "name": "addedValue",
          "type": "uint256"
        }
      ],
      "name": "increaseAllowance",
      "outputs": [
        {
          "internalType": "bool",
          "name": "",
          "type": "bool"
        }
      ],
      "stateMutability": "nonpayable",
      "type": "function"
    },
    {
      "inputs": [],
      "name": "owner",
      "outputs": [
        {
          "internalType": "address",
          "name": "",
          "type": "address"
        }
      ],
      "stateMutability": "view",
      "type": "function"
    },
    {
      "inputs": [],
      "name": "renounceOwnership",
      "outputs": [],
      "stateMutability": "nonpayable",
      "type": "function"
    },
    {
      "inputs": [],
      "name": "symbol",
      "outputs": [
        {
          "internalType": "string",
          "name": "",
          "type": "string"
        }
      ],
      "stateMutability": "view",
      "type": "function"
    },
    {
      "inputs": [
        {
          "internalType": "address",
          "name": "newOwner",
          "type": "address"
        }
      ],
      "name": "transferOwnership",
      "outputs": [],
      "stateMutability": "nonpayable",
      "type": "function"
    },
    {
      "inputs": [
        {
          "internalType": "address",
          "name": "_fundAddress",
          "type": "address"
        },
        {
          "internalType": "uint256",
          "name": "_numTokens",
          "type": "uint256"
        }
      ],
      "name": "addContractPool",
      "outputs": [
        {
          "internalType": "bool",
          "name": "",
          "type": "bool"
        }
      ],
      "stateMutability": "nonpayable",
      "type": "function"
    },
    {
      "inputs": [
        {
          "internalType": "address",
          "name": "_fundAddress",
          "type": "address"
        }
      ],
      "name": "removeContractPool",
      "outputs": [
        {
          "internalType": "bool",
          "name": "",
          "type": "bool"
        }
      ],
      "stateMutability": "nonpayable",
      "type": "function"
    },
    {
      "inputs": [
        {
          "internalType": "address",
          "name": "delegate",
          "type": "address"
        },
        {
          "internalType": "uint256",
          "name": "numTokens",
          "type": "uint256"
        }
      ],
      "name": "approveWith",
      "outputs": [
        {
          "internalType": "uint256",
          "name": "",
          "type": "uint256"
        }
      ],
      "stateMutability": "nonpayable",
      "type": "function"
    },
    {
      "inputs": [
        {
          "internalType": "address",
          "name": "tokenOwner",
          "type": "address"
        },
        {
          "internalType": "uint256",
          "name": "numTokens",
          "type": "uint256"
        }
      ],
      "name": "transferWith",
      "outputs": [
        {
          "internalType": "bool",
          "name": "",
          "type": "bool"
        }
      ],
      "stateMutability": "nonpayable",
      "type": "function"
    },
    {
      "inputs": [],
      "name": "totalSupply",
      "outputs": [
        {
          "internalType": "uint256",
          "name": "",
          "type": "uint256"
        }
      ],
      "stateMutability": "view",
      "type": "function"
    },
    {
      "inputs": [],
      "name": "name",
      "outputs": [
        {
          "internalType": "string",
          "name": "",
          "type": "string"
        }
      ],
      "stateMutability": "pure",
      "type": "function"
    },
    {
      "inputs": [
        {
          "internalType": "address",
          "name": "tokenOwner",
          "type": "address"
        }
      ],
      "name": "balanceOf",
      "outputs": [
        {
          "internalType": "uint256",
          "name": "",
          "type": "uint256"
        }
      ],
      "stateMutability": "view",
      "type": "function"
    },
    {
      "inputs": [
        {
          "internalType": "address",
          "name": "receiver",
          "type": "address"
        },
        {
          "internalType": "uint256",
          "name": "numTokens",
          "type": "uint256"
        }
      ],
      "name": "transfer",
      "outputs": [
        {
          "internalType": "bool",
          "name": "",
          "type": "bool"
        }
      ],
      "stateMutability": "nonpayable",
      "type": "function"
    },
    {
      "inputs": [
        {
          "internalType": "address",
          "name": "delegate",
          "type": "address"
        },
        {
          "internalType": "uint256",
          "name": "numTokens",
          "type": "uint256"
        }
      ],
      "name": "approve",
      "outputs": [
        {
          "internalType": "bool",
          "name": "",
          "type": "bool"
        }
      ],
      "stateMutability": "nonpayable",
      "type": "function"
    },
    {
      "inputs": [
        {
          "internalType": "address",
          "name": "owner",
          "type": "address"
        },
        {
          "internalType": "address",
          "name": "delegate",
          "type": "address"
        }
      ],
      "name": "allowance",
      "outputs": [
        {
          "internalType": "uint256",
          "name": "",
          "type": "uint256"
        }
      ],
      "stateMutability": "view",
      "type": "function"
    },
    {
      "inputs": [
        {
          "internalType": "address",
          "name": "owner",
          "type": "address"
        },
        {
          "internalType": "address",
          "name": "buyer",
          "type": "address"
        },
        {
          "internalType": "uint256",
          "name": "numTokens",
          "type": "uint256"
        }
      ],
      "name": "transferFrom",
      "outputs": [
        {
          "internalType": "bool",
          "name": "",
          "type": "bool"
        }
      ],
      "stateMutability": "nonpayable",
      "type": "function"
    }
  ],
  "bytecode": "0x60806040523480156200001157600080fd5b506040516200243e3803806200243e8339818101604052810190620000379190620002e0565b6040518060400160405280601e81526020017f5355535441494e41424c45204147524943554c545552452043524544495400008152506040518060400160405280600381526020017f53414300000000000000000000000000000000000000000000000000000000008152508160039080519060200190620000bb92919062000219565b508060049080519060200190620000d492919062000219565b505050620000f7620000eb6200014b60201b60201c565b6200015360201b60201c565b80600881905550600854600660003373ffffffffffffffffffffffffffffffffffffffff1673ffffffffffffffffffffffffffffffffffffffff168152602001908152602001600020819055505062000395565b600033905090565b6000600560009054906101000a900473ffffffffffffffffffffffffffffffffffffffff16905081600560006101000a81548173ffffffffffffffffffffffffffffffffffffffff021916908373ffffffffffffffffffffffffffffffffffffffff1602179055508173ffffffffffffffffffffffffffffffffffffffff168173ffffffffffffffffffffffffffffffffffffffff167f8be0079c531659141344cd1fd0a4f28419497f9722a3daafe3b4186f6b6457e060405160405180910390a35050565b828054620002279062000316565b90600052602060002090601f0160209004810192826200024b576000855562000297565b82601f106200026657805160ff191683800117855562000297565b8280016001018555821562000297579182015b828111156200029657825182559160200191906001019062000279565b5b509050620002a69190620002aa565b5090565b5b80821115620002c5576000816000905550600101620002ab565b5090565b600081519050620002da816200037b565b92915050565b600060208284031215620002f357600080fd5b60006200030384828501620002c9565b91505092915050565b6000819050919050565b600060028204905060018216806200032f57607f821691505b602082108114156200034657620003456200034c565b5b50919050565b7f4e487b7100000000000000000000000000000000000000000000000000000000600052602260045260246000fd5b62000386816200030c565b81146200039257600080fd5b50565b61209980620003a56000396000f3fe608060405234801561001057600080fd5b50600436106101375760003560e01c806367ff17a6116100b8578063a3f4df7e1161007c578063a3f4df7e1461037a578063a457c2d714610398578063a9059cbb146103c8578063dd62ed3e146103f8578063f2fde38b14610428578063f76f8d781461044457610137565b806367ff17a6146102d457806370a0823114610304578063715018a6146103345780638da5cb5b1461033e57806395d89b411461035c57610137565b8063313ce567116100ff578063313ce567146101f6578063395093511461021457806340e306ab1461024457806344edffbb146102745780634d65a846146102a457610137565b806306fdde031461013c578063095ea7b31461015a57806318160ddd1461018a57806323b872dd146101a85780632e0f2625146101d8575b600080fd5b610144610462565b6040516101519190611b77565b60405180910390f35b610174600480360381019061016f919061199b565b61049f565b6040516101819190611b5c565b60405180910390f35b610192610591565b60405161019f9190611c79565b60405180910390f35b6101c260048036038101906101bd919061194c565b61059b565b6040516101cf9190611b5c565b60405180910390f35b6101e061091b565b6040516101ed9190611c94565b60405180910390f35b6101fe610920565b60405161020b9190611c94565b60405180910390f35b61022e6004803603810190610229919061199b565b610929565b60405161023b9190611b5c565b60405180910390f35b61025e600480360381019061025991906118e7565b6109d3565b60405161026b9190611b5c565b60405180910390f35b61028e6004803603810190610289919061199b565b610ab2565b60405161029b9190611b5c565b60405180910390f35b6102be60048036038101906102b9919061199b565b610d1b565b6040516102cb9190611b5c565b60405180910390f35b6102ee60048036038101906102e9919061199b565b610e06565b6040516102fb9190611c79565b60405180910390f35b61031e600480360381019061031991906118e7565b610f53565b60405161032b9190611c79565b60405180910390f35b61033c610f9c565b005b610346611024565b6040516103539190611b41565b60405180910390f35b61036461104e565b6040516103719190611b77565b60405180910390f35b6103826110e0565b60405161038f9190611b77565b60405180910390f35b6103b260048036038101906103ad919061199b565b611119565b6040516103bf9190611b5c565b60405180910390f35b6103e260048036038101906103dd919061199b565b611203565b6040516103ef9190611b5c565b60405180910390f35b610412600480360381019061040d9190611910565b6113ea565b60405161041f9190611c79565b60405180910390f35b610442600480360381019061043d91906118e7565b611471565b005b61044c611569565b6040516104599190611b77565b60405180910390f35b60606040518060400160405280601e81526020017f5355535441494e41424c45204147524943554c54555245204352454449540000815250905090565b600081600760003373ffffffffffffffffffffffffffffffffffffffff1673ffffffffffffffffffffffffffffffffffffffff16815260200190815260200160002060008573ffffffffffffffffffffffffffffffffffffffff1673ffffffffffffffffffffffffffffffffffffffff168152602001908152602001600020819055508273ffffffffffffffffffffffffffffffffffffffff163373ffffffffffffffffffffffffffffffffffffffff167f8c5be1e5ebec7d5bd14f71427d1e84f3dd0314c0f7b2291e5b200ac8c7c3b9258460405161057f9190611c79565b60405180910390a36001905092915050565b6000600854905090565b6000600660008573ffffffffffffffffffffffffffffffffffffffff1673ffffffffffffffffffffffffffffffffffffffff168152602001908152602001600020548211156105e957600080fd5b600760008573ffffffffffffffffffffffffffffffffffffffff1673ffffffffffffffffffffffffffffffffffffffff16815260200190815260200160002060003373ffffffffffffffffffffffffffffffffffffffff1673ffffffffffffffffffffffffffffffffffffffff1681526020019081526020016000205482111561067257600080fd5b6106c482600660008773ffffffffffffffffffffffffffffffffffffffff1673ffffffffffffffffffffffffffffffffffffffff168152602001908152602001600020546115a290919063ffffffff16565b600660008673ffffffffffffffffffffffffffffffffffffffff1673ffffffffffffffffffffffffffffffffffffffff1681526020019081526020016000208190555061079682600760008773ffffffffffffffffffffffffffffffffffffffff1673ffffffffffffffffffffffffffffffffffffffff16815260200190815260200160002060003373ffffffffffffffffffffffffffffffffffffffff1673ffffffffffffffffffffffffffffffffffffffff168152602001908152602001600020546115a290919063ffffffff16565b600760008673ffffffffffffffffffffffffffffffffffffffff1673ffffffffffffffffffffffffffffffffffffffff16815260200190815260200160002060003373ffffffffffffffffffffffffffffffffffffffff1673ffffffffffffffffffffffffffffffffffffffff1681526020019081526020016000208190555061086882600660008673ffffffffffffffffffffffffffffffffffffffff1673ffffffffffffffffffffffffffffffffffffffff168152602001908152602001600020546115b890919063ffffffff16565b600660008573ffffffffffffffffffffffffffffffffffffffff1673ffffffffffffffffffffffffffffffffffffffff168152602001908152602001600020819055508273ffffffffffffffffffffffffffffffffffffffff168473ffffffffffffffffffffffffffffffffffffffff167fddf252ad1be2c89b69c2b068fc378daa952ba7f163c4a11628f55a4df523b3ef846040516109089190611c79565b60405180910390a3600190509392505050565b601281565b60006012905090565b6000806109346115ce565b90506109c8818585600160008673ffffffffffffffffffffffffffffffffffffffff1673ffffffffffffffffffffffffffffffffffffffff16815260200190815260200160002060008973ffffffffffffffffffffffffffffffffffffffff1673ffffffffffffffffffffffffffffffffffffffff168152602001908152602001600020546109c39190611ccb565b6115d6565b600191505092915050565b60006109dd6115ce565b73ffffffffffffffffffffffffffffffffffffffff166109fb611024565b73ffffffffffffffffffffffffffffffffffffffff1614610a51576040517f08c379a0000000000000000000000000000000000000000000000000000000008152600401610a4890611bd9565b60405180910390fd5b6000600960008473ffffffffffffffffffffffffffffffffffffffff1673ffffffffffffffffffffffffffffffffffffffff16815260200190815260200160002060006101000a81548160ff02191690831515021790555060019050919050565b6000610abd336117a1565b610afc576040517f08c379a0000000000000000000000000000000000000000000000000000000008152600401610af390611c39565b60405180910390fd5b8282600660008373ffffffffffffffffffffffffffffffffffffffff1673ffffffffffffffffffffffffffffffffffffffff16815260200190815260200160002054811115610b80576040517f08c379a0000000000000000000000000000000000000000000000000000000008152600401610b7790611c19565b60405180910390fd5b610bd284600660008873ffffffffffffffffffffffffffffffffffffffff1673ffffffffffffffffffffffffffffffffffffffff168152602001908152602001600020546115a290919063ffffffff16565b600660008773ffffffffffffffffffffffffffffffffffffffff1673ffffffffffffffffffffffffffffffffffffffff16815260200190815260200160002081905550610c6784600660003373ffffffffffffffffffffffffffffffffffffffff1673ffffffffffffffffffffffffffffffffffffffff168152602001908152602001600020546115b890919063ffffffff16565b600660003373ffffffffffffffffffffffffffffffffffffffff1673ffffffffffffffffffffffffffffffffffffffff168152602001908152602001600020819055503373ffffffffffffffffffffffffffffffffffffffff168573ffffffffffffffffffffffffffffffffffffffff167fddf252ad1be2c89b69c2b068fc378daa952ba7f163c4a11628f55a4df523b3ef86604051610d079190611c79565b60405180910390a360019250505092915050565b6000610d256115ce565b73ffffffffffffffffffffffffffffffffffffffff16610d43611024565b73ffffffffffffffffffffffffffffffffffffffff1614610d99576040517f08c379a0000000000000000000000000000000000000000000000000000000008152600401610d9090611bd9565b60405180910390fd5b6001600960008573ffffffffffffffffffffffffffffffffffffffff1673ffffffffffffffffffffffffffffffffffffffff16815260200190815260200160002060006101000a81548160ff021916908315150217905550610dfb8383611203565b506001905092915050565b6000610e11336117a1565b610e50576040517f08c379a0000000000000000000000000000000000000000000000000000000008152600401610e4790611c39565b60405180910390fd5b610e5a33846113ea565b82610e659190611ccb565b600760003373ffffffffffffffffffffffffffffffffffffffff1673ffffffffffffffffffffffffffffffffffffffff16815260200190815260200160002060008573ffffffffffffffffffffffffffffffffffffffff1673ffffffffffffffffffffffffffffffffffffffff168152602001908152602001600020819055508273ffffffffffffffffffffffffffffffffffffffff163373ffffffffffffffffffffffffffffffffffffffff167f8c5be1e5ebec7d5bd14f71427d1e84f3dd0314c0f7b2291e5b200ac8c7c3b92584604051610f429190611c79565b60405180910390a381905092915050565b6000600660008373ffffffffffffffffffffffffffffffffffffffff1673ffffffffffffffffffffffffffffffffffffffff168152602001908152602001600020549050919050565b610fa46115ce565b73ffffffffffffffffffffffffffffffffffffffff16610fc2611024565b73ffffffffffffffffffffffffffffffffffffffff1614611018576040517f08c379a000000000000000000000000000000000000000000000000000000000815260040161100f90611bd9565b60405180910390fd5b61102260006117f7565b565b6000600560009054906101000a900473ffffffffffffffffffffffffffffffffffffffff16905090565b60606004805461105d90611ddd565b80601f016020809104026020016040519081016040528092919081815260200182805461108990611ddd565b80156110d65780601f106110ab576101008083540402835291602001916110d6565b820191906000526020600020905b8154815290600101906020018083116110b957829003601f168201915b5050505050905090565b6040518060400160405280601e81526020017f5355535441494e41424c45204147524943554c5455524520435245444954000081525081565b6000806111246115ce565b90506000600160008373ffffffffffffffffffffffffffffffffffffffff1673ffffffffffffffffffffffffffffffffffffffff16815260200190815260200160002060008673ffffffffffffffffffffffffffffffffffffffff1673ffffffffffffffffffffffffffffffffffffffff168152602001908152602001600020549050838110156111ea576040517f08c379a00000000000000000000000000000000000000000000000000000000081526004016111e190611c59565b60405180910390fd5b6111f782868684036115d6565b60019250505092915050565b6000600660003373ffffffffffffffffffffffffffffffffffffffff1673ffffffffffffffffffffffffffffffffffffffff1681526020019081526020016000205482111561125157600080fd5b6112a382600660003373ffffffffffffffffffffffffffffffffffffffff1673ffffffffffffffffffffffffffffffffffffffff168152602001908152602001600020546115a290919063ffffffff16565b600660003373ffffffffffffffffffffffffffffffffffffffff1673ffffffffffffffffffffffffffffffffffffffff1681526020019081526020016000208190555061133882600660008673ffffffffffffffffffffffffffffffffffffffff1673ffffffffffffffffffffffffffffffffffffffff168152602001908152602001600020546115b890919063ffffffff16565b600660008573ffffffffffffffffffffffffffffffffffffffff1673ffffffffffffffffffffffffffffffffffffffff168152602001908152602001600020819055508273ffffffffffffffffffffffffffffffffffffffff163373ffffffffffffffffffffffffffffffffffffffff167fddf252ad1be2c89b69c2b068fc378daa952ba7f163c4a11628f55a4df523b3ef846040516113d89190611c79565b60405180910390a36001905092915050565b6000600760008473ffffffffffffffffffffffffffffffffffffffff1673ffffffffffffffffffffffffffffffffffffffff16815260200190815260200160002060008373ffffffffffffffffffffffffffffffffffffffff1673ffffffffffffffffffffffffffffffffffffffff16815260200190815260200160002054905092915050565b6114796115ce565b73ffffffffffffffffffffffffffffffffffffffff16611497611024565b73ffffffffffffffffffffffffffffffffffffffff16146114ed576040517f08c379a00000000000000000000000000000000000000000000000000000000081526004016114e490611bd9565b60405180910390fd5b600073ffffffffffffffffffffffffffffffffffffffff168173ffffffffffffffffffffffffffffffffffffffff16141561155d576040517f08c379a000000000000000000000000000000000000000000000000000000000815260040161155490611b99565b60405180910390fd5b611566816117f7565b50565b6040518060400160405280600381526020017f534143000000000000000000000000000000000000000000000000000000000081525081565b600081836115b09190611d21565b905092915050565b600081836115c69190611ccb565b905092915050565b600033905090565b600073ffffffffffffffffffffffffffffffffffffffff168373ffffffffffffffffffffffffffffffffffffffff161415611646576040517f08c379a000000000000000000000000000000000000000000000000000000000815260040161163d90611bf9565b60405180910390fd5b600073ffffffffffffffffffffffffffffffffffffffff168273ffffffffffffffffffffffffffffffffffffffff1614156116b6576040517f08c379a00000000000000000000000000000000000000000000000000000000081526004016116ad90611bb9565b60405180910390fd5b80600160008573ffffffffffffffffffffffffffffffffffffffff1673ffffffffffffffffffffffffffffffffffffffff16815260200190815260200160002060008473ffffffffffffffffffffffffffffffffffffffff1673ffffffffffffffffffffffffffffffffffffffff168152602001908152602001600020819055508173ffffffffffffffffffffffffffffffffffffffff168373ffffffffffffffffffffffffffffffffffffffff167f8c5be1e5ebec7d5bd14f71427d1e84f3dd0314c0f7b2291e5b200ac8c7c3b925836040516117949190611c79565b60405180910390a3505050565b6000600960008373ffffffffffffffffffffffffffffffffffffffff1673ffffffffffffffffffffffffffffffffffffffff16815260200190815260200160002060009054906101000a900460ff169050919050565b6000600560009054906101000a900473ffffffffffffffffffffffffffffffffffffffff16905081600560006101000a81548173ffffffffffffffffffffffffffffffffffffffff021916908373ffffffffffffffffffffffffffffffffffffffff1602179055508173ffffffffffffffffffffffffffffffffffffffff168173ffffffffffffffffffffffffffffffffffffffff167f8be0079c531659141344cd1fd0a4f28419497f9722a3daafe3b4186f6b6457e060405160405180910390a35050565b6000813590506118cc81612035565b92915050565b6000813590506118e18161204c565b92915050565b6000602082840312156118f957600080fd5b6000611907848285016118bd565b91505092915050565b6000806040838503121561192357600080fd5b6000611931858286016118bd565b9250506020611942858286016118bd565b9150509250929050565b60008060006060848603121561196157600080fd5b600061196f868287016118bd565b9350506020611980868287016118bd565b9250506040611991868287016118d2565b9150509250925092565b600080604083850312156119ae57600080fd5b60006119bc858286016118bd565b92505060206119cd858286016118d2565b9150509250929050565b6119e081611d55565b82525050565b6119ef81611d67565b82525050565b6000611a0082611caf565b611a0a8185611cba565b9350611a1a818560208601611daa565b611a2381611e6d565b840191505092915050565b6000611a3b602683611cba565b9150611a4682611e7e565b604082019050919050565b6000611a5e602283611cba565b9150611a6982611ecd565b604082019050919050565b6000611a81602083611cba565b9150611a8c82611f1c565b602082019050919050565b6000611aa4602483611cba565b9150611aaf82611f45565b604082019050919050565b6000611ac7601883611cba565b9150611ad282611f94565b602082019050919050565b6000611aea601383611cba565b9150611af582611fbd565b602082019050919050565b6000611b0d602583611cba565b9150611b1882611fe6565b604082019050919050565b611b2c81611d93565b82525050565b611b3b81611d9d565b82525050565b6000602082019050611b5660008301846119d7565b92915050565b6000602082019050611b7160008301846119e6565b92915050565b60006020820190508181036000830152611b9181846119f5565b905092915050565b60006020820190508181036000830152611bb281611a2e565b9050919050565b60006020820190508181036000830152611bd281611a51565b9050919050565b60006020820190508181036000830152611bf281611a74565b9050919050565b60006020820190508181036000830152611c1281611a97565b9050919050565b60006020820190508181036000830152611c3281611aba565b9050919050565b60006020820190508181036000830152611c5281611add565b9050919050565b60006020820190508181036000830152611c7281611b00565b9050919050565b6000602082019050611c8e6000830184611b23565b92915050565b6000602082019050611ca96000830184611b32565b92915050565b600081519050919050565b600082825260208201905092915050565b6000611cd682611d93565b9150611ce183611d93565b9250827fffffffffffffffffffffffffffffffffffffffffffffffffffffffffffffffff03821115611d1657611d15611e0f565b5b828201905092915050565b6000611d2c82611d93565b9150611d3783611d93565b925082821015611d4a57611d49611e0f565b5b828203905092915050565b6000611d6082611d73565b9050919050565b60008115159050919050565b600073ffffffffffffffffffffffffffffffffffffffff82169050919050565b6000819050919050565b600060ff82169050919050565b60005b83811015611dc8578082015181840152602081019050611dad565b83811115611dd7576000848401525b50505050565b60006002820490506001821680611df557607f821691505b60208210811415611e0957611e08611e3e565b5b50919050565b7f4e487b7100000000000000000000000000000000000000000000000000000000600052601160045260246000fd5b7f4e487b7100000000000000000000000000000000000000000000000000000000600052602260045260246000fd5b6000601f19601f8301169050919050565b7f4f776e61626c653a206e6577206f776e657220697320746865207a65726f206160008201527f6464726573730000000000000000000000000000000000000000000000000000602082015250565b7f45524332303a20617070726f766520746f20746865207a65726f20616464726560008201527f7373000000000000000000000000000000000000000000000000000000000000602082015250565b7f4f776e61626c653a2063616c6c6572206973206e6f7420746865206f776e6572600082015250565b7f45524332303a20617070726f76652066726f6d20746865207a65726f2061646460008201527f7265737300000000000000000000000000000000000000000000000000000000602082015250565b7f596f7520646f6e2774206861732053414320546f6b656e730000000000000000600082015250565b7f4e6f74206120636f6e747261637420706f6f6c00000000000000000000000000600082015250565b7f45524332303a2064656372656173656420616c6c6f77616e63652062656c6f7760008201527f207a65726f000000000000000000000000000000000000000000000000000000602082015250565b61203e81611d55565b811461204957600080fd5b50565b61205581611d93565b811461206057600080fd5b5056fea2646970667358221220438130e0cc0a1e9c05bfbfec42171b55e4822606a100d627350e8a15e4acd26c64736f6c63430008020033",
  "immutableReferences": {},
  "source": "// SPDX-License-Identifier: GPL-3.0\npragma solidity >=0.7.0 <=0.9.0;\n\nimport \"@openzeppelin/contracts/access/Ownable.sol\";\nimport \"@openzeppelin/contracts/token/ERC20/ERC20.sol\";\nimport \"@openzeppelin/contracts/utils/math/SafeMath.sol\";\n\ncontract SacToken is ERC20, Ownable {\n  string public constant NAME = \"SUSTAINABLE AGRICULTURE CREDIT\";\n  string public constant SYMBOL = \"SAC\";\n  uint8 public constant DECIMALS = 18;\n\n  mapping(address => uint256) internal balances;\n  mapping(address => mapping(address => uint256)) internal allowed;\n\n  uint256 internal totalSupply_;\n\n  using SafeMath for uint256;\n\n  mapping(address => bool) internal contractsPools;\n\n  constructor(uint256 total) ERC20(NAME, SYMBOL) {\n    totalSupply_ = total;\n    balances[msg.sender] = totalSupply_;\n  }\n\n  function addContractPool(address _fundAddress, uint256 _numTokens)\n    public\n    onlyOwner\n    returns (bool)\n  {\n    contractsPools[_fundAddress] = true;\n    transfer(_fundAddress, _numTokens);\n    return true;\n  }\n\n  function removeContractPool(address _fundAddress) public onlyOwner returns (bool) {\n    contractsPools[_fundAddress] = false;\n    return true;\n  }\n\n  function approveWith(address delegate, uint256 numTokens)\n    public\n    mustBeContractPool\n    returns (uint256)\n  {\n    allowed[msg.sender][delegate] = numTokens + allowance(msg.sender, delegate);\n    emit Approval(msg.sender, delegate, numTokens);\n    return numTokens;\n  }\n\n  function transferWith(address tokenOwner, uint256 numTokens)\n    public\n    mustBeContractPool\n    mustHaveSacTokens(tokenOwner, numTokens)\n    returns (bool)\n  {\n    balances[tokenOwner] = balances[tokenOwner].sub(numTokens);\n    balances[msg.sender] = balances[msg.sender].add(numTokens);\n    emit Transfer(tokenOwner, msg.sender, numTokens);\n\n    return true;\n  }\n\n  function contractPool(address contractFundsAddress) internal view returns (bool) {\n    return contractsPools[contractFundsAddress];\n  }\n\n  function totalSupply() public view override returns (uint256) {\n    return totalSupply_;\n  }\n\n  function name() public pure override returns (string memory) {\n    return NAME;\n  }\n\n  function balanceOf(address tokenOwner) public view override returns (uint256) {\n    return balances[tokenOwner];\n  }\n\n  function transfer(address receiver, uint256 numTokens) public override returns (bool) {\n    require(numTokens <= balances[msg.sender]);\n    balances[msg.sender] = balances[msg.sender].sub(numTokens);\n    balances[receiver] = balances[receiver].add(numTokens);\n    emit Transfer(msg.sender, receiver, numTokens);\n    return true;\n  }\n\n  function approve(address delegate, uint256 numTokens) public override returns (bool) {\n    allowed[msg.sender][delegate] = numTokens;\n    emit Approval(msg.sender, delegate, numTokens);\n    return true;\n  }\n\n  function allowance(address owner, address delegate) public view override returns (uint256) {\n    return allowed[owner][delegate];\n  }\n\n  function transferFrom(\n    address owner,\n    address buyer,\n    uint256 numTokens\n  ) public override returns (bool) {\n    require(numTokens <= balances[owner]);\n    require(numTokens <= allowed[owner][msg.sender]);\n\n    balances[owner] = balances[owner].sub(numTokens);\n    allowed[owner][msg.sender] = allowed[owner][msg.sender].sub(numTokens);\n    balances[buyer] = balances[buyer].add(numTokens);\n    emit Transfer(owner, buyer, numTokens);\n    return true;\n  }\n\n  modifier mustBeContractPool() {\n    require(contractPool(msg.sender), \"Not a contract pool\");\n    _;\n  }\n\n  modifier mustHaveSacTokens(address tokenOwner, uint256 numTokens) {\n    require(numTokens <= balances[tokenOwner], \"You don't has SAC Tokens\");\n    _;\n  }\n}\n",
  "sourcePath": "/home/everson/Documents/projetos/sintrop/SAT-core-contracts/contracts/SacToken.sol",
  "compiler": {
    "name": "solc",
    "version": "0.8.2+commit.661d1103.Emscripten.clang"
  },
  "schemaVersion": "3.4.6",
  "updatedAt": "2022-05-14T21:17:42.192Z",
  "devdoc": {
    "kind": "dev",
    "methods": {
      "decimals()": {
        "details": "Returns the number of decimals used to get its user representation. For example, if `decimals` equals `2`, a balance of `505` tokens should be displayed to a user as `5.05` (`505 / 10 ** 2`). Tokens usually opt for a value of 18, imitating the relationship between Ether and Wei. This is the value {ERC20} uses, unless this function is overridden; NOTE: This information is only used for _display_ purposes: it in no way affects any of the arithmetic of the contract, including {IERC20-balanceOf} and {IERC20-transfer}."
      },
      "decreaseAllowance(address,uint256)": {
        "details": "Atomically decreases the allowance granted to `spender` by the caller. This is an alternative to {approve} that can be used as a mitigation for problems described in {IERC20-approve}. Emits an {Approval} event indicating the updated allowance. Requirements: - `spender` cannot be the zero address. - `spender` must have allowance for the caller of at least `subtractedValue`."
      },
      "increaseAllowance(address,uint256)": {
        "details": "Atomically increases the allowance granted to `spender` by the caller. This is an alternative to {approve} that can be used as a mitigation for problems described in {IERC20-approve}. Emits an {Approval} event indicating the updated allowance. Requirements: - `spender` cannot be the zero address."
      },
      "name()": {
        "details": "Returns the name of the token."
      },
      "owner()": {
        "details": "Returns the address of the current owner."
      },
      "renounceOwnership()": {
        "details": "Leaves the contract without owner. It will not be possible to call `onlyOwner` functions anymore. Can only be called by the current owner. NOTE: Renouncing ownership will leave the contract without an owner, thereby removing any functionality that is only available to the owner."
      },
      "symbol()": {
        "details": "Returns the symbol of the token, usually a shorter version of the name."
      },
      "totalSupply()": {
        "details": "See {IERC20-totalSupply}."
      },
      "transferOwnership(address)": {
        "details": "Transfers ownership of the contract to a new account (`newOwner`). Can only be called by the current owner."
      }
    },
    "version": 1
  },
  "userdoc": {
    "kind": "user",
    "methods": {},
    "version": 1
  }
}