{
  "contractName": "SatToken",
  "abi": [
    {
      "inputs": [
        {
          "internalType": "uint256",
          "name": "total",
          "type": "uint256"
        }
      ],
      "stateMutability": "nonpayable",
      "type": "constructor"
    },
    {
      "anonymous": false,
      "inputs": [
        {
          "indexed": true,
          "internalType": "address",
          "name": "tokenOwner",
          "type": "address"
        },
        {
          "indexed": true,
          "internalType": "address",
          "name": "spender",
          "type": "address"
        },
        {
          "indexed": false,
          "internalType": "uint256",
          "name": "tokens",
          "type": "uint256"
        }
      ],
      "name": "Approval",
      "type": "event"
    },
    {
      "anonymous": false,
      "inputs": [
        {
          "indexed": true,
          "internalType": "address",
          "name": "previousOwner",
          "type": "address"
        },
        {
          "indexed": true,
          "internalType": "address",
          "name": "newOwner",
          "type": "address"
        }
      ],
      "name": "OwnershipTransferred",
      "type": "event"
    },
    {
      "anonymous": false,
      "inputs": [
        {
          "indexed": true,
          "internalType": "address",
          "name": "from",
          "type": "address"
        },
        {
          "indexed": true,
          "internalType": "address",
          "name": "to",
          "type": "address"
        },
        {
          "indexed": false,
          "internalType": "uint256",
          "name": "tokens",
          "type": "uint256"
        }
      ],
      "name": "Transfer",
      "type": "event"
    },
    {
      "inputs": [],
      "name": "DECIMALS",
      "outputs": [
        {
          "internalType": "uint8",
          "name": "",
          "type": "uint8"
        }
      ],
      "stateMutability": "view",
      "type": "function"
    },
    {
      "inputs": [],
      "name": "NAME",
      "outputs": [
        {
          "internalType": "string",
          "name": "",
          "type": "string"
        }
      ],
      "stateMutability": "view",
      "type": "function"
    },
    {
      "inputs": [],
      "name": "SYMBOL",
      "outputs": [
        {
          "internalType": "string",
          "name": "",
          "type": "string"
        }
      ],
      "stateMutability": "view",
      "type": "function"
    },
    {
      "inputs": [],
      "name": "owner",
      "outputs": [
        {
          "internalType": "address",
          "name": "",
          "type": "address"
        }
      ],
      "stateMutability": "view",
      "type": "function"
    },
    {
      "inputs": [],
      "name": "renounceOwnership",
      "outputs": [],
      "stateMutability": "nonpayable",
      "type": "function"
    },
    {
      "inputs": [
        {
          "internalType": "address",
          "name": "newOwner",
          "type": "address"
        }
      ],
      "name": "transferOwnership",
      "outputs": [],
      "stateMutability": "nonpayable",
      "type": "function"
    },
    {
      "inputs": [
        {
          "internalType": "address",
          "name": "_fundAddress",
          "type": "address"
        },
        {
          "internalType": "uint256",
          "name": "_numTokens",
          "type": "uint256"
        }
      ],
      "name": "addContractPool",
      "outputs": [
        {
          "internalType": "bool",
          "name": "",
          "type": "bool"
        }
      ],
      "stateMutability": "nonpayable",
      "type": "function"
    },
    {
      "inputs": [
        {
          "internalType": "address",
          "name": "_fundAddress",
          "type": "address"
        }
      ],
      "name": "removeContractPool",
      "outputs": [
        {
          "internalType": "bool",
          "name": "",
          "type": "bool"
        }
      ],
      "stateMutability": "nonpayable",
      "type": "function"
    },
    {
      "inputs": [
        {
          "internalType": "address",
          "name": "delegate",
          "type": "address"
        },
        {
          "internalType": "uint256",
          "name": "numTokens",
          "type": "uint256"
        }
      ],
      "name": "approveWith",
      "outputs": [
        {
          "internalType": "uint256",
          "name": "",
          "type": "uint256"
        }
      ],
      "stateMutability": "nonpayable",
      "type": "function"
    },
    {
      "inputs": [
        {
          "internalType": "address",
          "name": "tokenOwner",
          "type": "address"
        },
        {
          "internalType": "uint256",
          "name": "numTokens",
          "type": "uint256"
        }
      ],
      "name": "transferWith",
      "outputs": [
        {
          "internalType": "bool",
          "name": "",
          "type": "bool"
        }
      ],
      "stateMutability": "nonpayable",
      "type": "function"
    },
    {
      "inputs": [],
      "name": "totalSupply",
      "outputs": [
        {
          "internalType": "uint256",
          "name": "",
          "type": "uint256"
        }
      ],
      "stateMutability": "view",
      "type": "function"
    },
    {
      "inputs": [
        {
          "internalType": "address",
          "name": "tokenOwner",
          "type": "address"
        }
      ],
      "name": "balanceOf",
      "outputs": [
        {
          "internalType": "uint256",
          "name": "",
          "type": "uint256"
        }
      ],
      "stateMutability": "view",
      "type": "function"
    },
    {
      "inputs": [
        {
          "internalType": "address",
          "name": "receiver",
          "type": "address"
        },
        {
          "internalType": "uint256",
          "name": "numTokens",
          "type": "uint256"
        }
      ],
      "name": "transfer",
      "outputs": [
        {
          "internalType": "bool",
          "name": "",
          "type": "bool"
        }
      ],
      "stateMutability": "nonpayable",
      "type": "function"
    },
    {
      "inputs": [
        {
          "internalType": "address",
          "name": "delegate",
          "type": "address"
        },
        {
          "internalType": "uint256",
          "name": "numTokens",
          "type": "uint256"
        }
      ],
      "name": "approve",
      "outputs": [
        {
          "internalType": "bool",
          "name": "",
          "type": "bool"
        }
      ],
      "stateMutability": "nonpayable",
      "type": "function"
    },
    {
      "inputs": [
        {
          "internalType": "address",
          "name": "owner",
          "type": "address"
        },
        {
          "internalType": "address",
          "name": "delegate",
          "type": "address"
        }
      ],
      "name": "allowance",
      "outputs": [
        {
          "internalType": "uint256",
          "name": "",
          "type": "uint256"
        }
      ],
      "stateMutability": "view",
      "type": "function"
    },
    {
      "inputs": [
        {
          "internalType": "address",
          "name": "owner",
          "type": "address"
        },
        {
          "internalType": "address",
          "name": "buyer",
          "type": "address"
        },
        {
          "internalType": "uint256",
          "name": "numTokens",
          "type": "uint256"
        }
      ],
      "name": "transferFrom",
      "outputs": [
        {
          "internalType": "bool",
          "name": "",
          "type": "bool"
        }
      ],
      "stateMutability": "nonpayable",
      "type": "function"
    }
  ],
  "bytecode": "0x608060405234801561001057600080fd5b50604051610cf5380380610cf583398101604081905261002f916100a2565b61003833610052565b6003819055336000908152600160205260409020556100ba565b600080546001600160a01b038381166001600160a01b0319831681178455604051919092169283917f8be0079c531659141344cd1fd0a4f28419497f9722a3daafe3b4186f6b6457e09190a35050565b6000602082840312156100b3578081fd5b5051919050565b610c2c806100c96000396000f3fe608060405234801561001057600080fd5b50600436106101005760003560e01c806370a0823111610097578063a9059cbb11610066578063a9059cbb1461024f578063dd62ed3e14610262578063f2fde38b1461029b578063f76f8d78146102ae57610100565b806370a08231146101b8578063715018a6146101e15780638da5cb5b146101eb578063a3f4df7e1461020657610100565b806340e306ab116100d357806340e306ab1461016c57806344edffbb1461017f5780634d65a8461461019257806367ff17a6146101a557610100565b8063095ea7b31461010557806318160ddd1461012d57806323b872dd1461013f5780632e0f262514610152575b600080fd5b610118610113366004610b00565b6102d0565b60405190151581526020015b60405180910390f35b6003545b604051908152602001610124565b61011861014d366004610ac5565b61033c565b61015a601281565b60405160ff9091168152602001610124565b61011861017a366004610a79565b61048f565b61011861018d366004610b00565b6104ec565b6101186101a0366004610b00565b610660565b6101316101b3366004610b00565b6106c2565b6101316101c6366004610a79565b6001600160a01b031660009081526001602052604090205490565b6101e96107ac565b005b6000546040516001600160a01b039091168152602001610124565b6102426040518060400160405280601d81526020017f5355535441494e41424c45204147524943554c5455524520544f4b454e00000081525081565b6040516101249190610b29565b61011861025d366004610b00565b6107e2565b610131610270366004610a93565b6001600160a01b03918216600090815260026020908152604080832093909416825291909152205490565b6101e96102a9366004610a79565b610895565b6102426040518060400160405280600381526020016214d05560ea1b81525081565b3360008181526002602090815260408083206001600160a01b038716808552925280832085905551919290917f8c5be1e5ebec7d5bd14f71427d1e84f3dd0314c0f7b2291e5b200ac8c7c3b9259061032b9086815260200190565b60405180910390a350600192915050565b6001600160a01b03831660009081526001602052604081205482111561036157600080fd5b6001600160a01b038416600090815260026020908152604080832033845290915290205482111561039157600080fd5b6001600160a01b0384166000908152600160205260409020546103b49083610930565b6001600160a01b03851660009081526001602090815260408083209390935560028152828220338352905220546103eb9083610930565b6001600160a01b0380861660009081526002602090815260408083203384528252808320949094559186168152600190915220546104299083610979565b6001600160a01b0380851660008181526001602052604090819020939093559151908616907fddf252ad1be2c89b69c2b068fc378daa952ba7f163c4a11628f55a4df523b3ef9061047d9086815260200190565b60405180910390a35060019392505050565b600080546001600160a01b031633146104c35760405162461bcd60e51b81526004016104ba90610b7c565b60405180910390fd5b506001600160a01b0381166000908152600460205260409020805460ff1916905560015b919050565b3360009081526004602052604081205460ff166105415760405162461bcd60e51b8152602060048201526013602482015272139bdd08184818dbdb9d1c9858dd081c1bdbdb606a1b60448201526064016104ba565b6001600160a01b038316600090815260016020526040902054839083908111156105ad5760405162461bcd60e51b815260206004820152601860248201527f596f7520646f6e2774206861732053414320546f6b656e73000000000000000060448201526064016104ba565b6001600160a01b0385166000908152600160205260409020546105d09085610930565b6001600160a01b0386166000908152600160205260408082209290925533815220546105fc9085610979565b33600081815260016020526040908190209290925590516001600160a01b038716907fddf252ad1be2c89b69c2b068fc378daa952ba7f163c4a11628f55a4df523b3ef9061064d9088815260200190565b60405180910390a3506001949350505050565b600080546001600160a01b0316331461068b5760405162461bcd60e51b81526004016104ba90610b7c565b6001600160a01b0383166000908152600460205260409020805460ff191660011790556106b883836107e2565b5060019392505050565b3360009081526004602052604081205460ff166107175760405162461bcd60e51b8152602060048201526013602482015272139bdd08184818dbdb9d1c9858dd081c1bdbdb606a1b60448201526064016104ba565b3360009081526002602090815260408083206001600160a01b03871684529091529020546107459083610bb1565b3360008181526002602090815260408083206001600160a01b03891680855292529182902093909355517f8c5be1e5ebec7d5bd14f71427d1e84f3dd0314c0f7b2291e5b200ac8c7c3b9259061079e9086815260200190565b60405180910390a350919050565b6000546001600160a01b031633146107d65760405162461bcd60e51b81526004016104ba90610b7c565b6107e060006109d8565b565b336000908152600160205260408120548211156107fe57600080fd5b336000908152600160205260409020546108189083610930565b33600090815260016020526040808220929092556001600160a01b038516815220546108449083610979565b6001600160a01b0384166000818152600160205260409081902092909255905133907fddf252ad1be2c89b69c2b068fc378daa952ba7f163c4a11628f55a4df523b3ef9061032b9086815260200190565b6000546001600160a01b031633146108bf5760405162461bcd60e51b81526004016104ba90610b7c565b6001600160a01b0381166109245760405162461bcd60e51b815260206004820152602660248201527f4f776e61626c653a206e6577206f776e657220697320746865207a65726f206160448201526564647265737360d01b60648201526084016104ba565b61092d816109d8565b50565b600061097283836040518060400160405280601e81526020017f536166654d6174683a207375627472616374696f6e206f766572666c6f770000815250610a28565b9392505050565b6000806109868385610bb1565b9050838110156109725760405162461bcd60e51b815260206004820152601b60248201527f536166654d6174683a206164646974696f6e206f766572666c6f77000000000060448201526064016104ba565b600080546001600160a01b038381166001600160a01b0319831681178455604051919092169283917f8be0079c531659141344cd1fd0a4f28419497f9722a3daafe3b4186f6b6457e09190a35050565b60008184841115610a4c5760405162461bcd60e51b81526004016104ba9190610b29565b506000610a598486610bc9565b95945050505050565b80356001600160a01b03811681146104e757600080fd5b600060208284031215610a8a578081fd5b61097282610a62565b60008060408385031215610aa5578081fd5b610aae83610a62565b9150610abc60208401610a62565b90509250929050565b600080600060608486031215610ad9578081fd5b610ae284610a62565b9250610af060208501610a62565b9150604084013590509250925092565b60008060408385031215610b12578182fd5b610b1b83610a62565b946020939093013593505050565b6000602080835283518082850152825b81811015610b5557858101830151858201604001528201610b39565b81811115610b665783604083870101525b50601f01601f1916929092016040019392505050565b6020808252818101527f4f776e61626c653a2063616c6c6572206973206e6f7420746865206f776e6572604082015260600190565b60008219821115610bc457610bc4610be0565b500190565b600082821015610bdb57610bdb610be0565b500390565b634e487b7160e01b600052601160045260246000fdfea2646970667358221220f6e5ec34006d94d998bfe3f7b290f7f2d604be81845e1a7590a5282485bf509c64736f6c63430008020033",
  "immutableReferences": {},
  "source": "// SPDX-License-Identifier: GPL-3.0\npragma solidity >=0.7.0 <=0.9.0;\n\nimport \"@openzeppelin/contracts/access/Ownable.sol\";\n\nimport \"./SafeMath.sol\";\n\ncontract SatToken is Ownable {\n    string public constant NAME = \"SUSTAINABLE AGRICULTURE TOKEN\";\n    string public constant SYMBOL = \"SAT\";\n    uint8 public constant DECIMALS = 18;\n\n    event Approval(\n        address indexed tokenOwner,\n        address indexed spender,\n        uint256 tokens\n    );\n    event Transfer(address indexed from, address indexed to, uint256 tokens);\n\n    mapping(address => uint256) internal balances;\n    mapping(address => mapping(address => uint256)) internal allowed;\n\n    uint256 internal totalSupply_;\n\n    using SafeMath for uint256;\n\n    mapping(address => bool) internal contractsPools;\n\n    constructor(uint256 total) {\n        totalSupply_ = total;\n        balances[msg.sender] = totalSupply_;\n    }\n\n    function addContractPool(address _fundAddress, uint256 _numTokens)\n        public\n        onlyOwner\n        returns (bool)\n    {\n        contractsPools[_fundAddress] = true;\n        transfer(_fundAddress, _numTokens);\n        return true;\n    }\n\n    function removeContractPool(address _fundAddress)\n        public\n        onlyOwner\n        returns (bool)\n    {\n        contractsPools[_fundAddress] = false;\n        return true;\n    }\n\n    function approveWith(address delegate, uint256 numTokens)\n        public\n        mustBeContractPool\n        returns (uint256)\n    {\n        allowed[msg.sender][delegate] =\n            numTokens +\n            allowance(msg.sender, delegate);\n        emit Approval(msg.sender, delegate, numTokens);\n        return numTokens;\n    }\n\n    function transferWith(address tokenOwner, uint256 numTokens)\n        public\n        mustBeContractPool\n        mustHaveSacTokens(tokenOwner, numTokens)\n        returns (bool)\n    {\n        balances[tokenOwner] = balances[tokenOwner].sub(numTokens);\n        balances[msg.sender] = balances[msg.sender].add(numTokens);\n        emit Transfer(tokenOwner, msg.sender, numTokens);\n\n        return true;\n    }\n\n    function contractPool(address contractFundsAddress)\n        internal\n        view\n        returns (bool)\n    {\n        return contractsPools[contractFundsAddress];\n    }\n\n    function totalSupply() public view returns (uint256) {\n        return totalSupply_;\n    }\n\n    function balanceOf(address tokenOwner) public view returns (uint256) {\n        return balances[tokenOwner];\n    }\n\n    function transfer(address receiver, uint256 numTokens)\n        public\n        returns (bool)\n    {\n        require(numTokens <= balances[msg.sender]);\n        balances[msg.sender] = balances[msg.sender].sub(numTokens);\n        balances[receiver] = balances[receiver].add(numTokens);\n        emit Transfer(msg.sender, receiver, numTokens);\n        return true;\n    }\n\n    function approve(address delegate, uint256 numTokens)\n        public\n        returns (bool)\n    {\n        allowed[msg.sender][delegate] = numTokens;\n        emit Approval(msg.sender, delegate, numTokens);\n        return true;\n    }\n\n    function allowance(address owner, address delegate)\n        public\n        view\n        returns (uint256)\n    {\n        return allowed[owner][delegate];\n    }\n\n    function transferFrom(\n        address owner,\n        address buyer,\n        uint256 numTokens\n    ) public returns (bool) {\n        require(numTokens <= balances[owner]);\n        require(numTokens <= allowed[owner][msg.sender]);\n\n        balances[owner] = balances[owner].sub(numTokens);\n        allowed[owner][msg.sender] = allowed[owner][msg.sender].sub(numTokens);\n        balances[buyer] = balances[buyer].add(numTokens);\n        emit Transfer(owner, buyer, numTokens);\n        return true;\n    }\n\n    modifier mustBeContractPool() {\n        require(contractPool(msg.sender), \"Not a contract pool\");\n        _;\n    }\n\n    modifier mustHaveSacTokens(address tokenOwner, uint256 numTokens) {\n        require(numTokens <= balances[tokenOwner], \"You don't has SAC Tokens\");\n        _;\n    }\n}\n",
  "sourcePath": "/home/everson/Documents/projetos/sintrop/SAT-core-contracts/contracts/SatToken.sol",
  "compiler": {
    "name": "solc",
    "version": "0.8.2+commit.661d1103.Emscripten.clang"
  },
  "schemaVersion": "3.4.6",
  "updatedAt": "2022-04-02T18:06:16.864Z",
  "devdoc": {
    "kind": "dev",
    "methods": {
      "owner()": {
        "details": "Returns the address of the current owner."
      },
      "renounceOwnership()": {
        "details": "Leaves the contract without owner. It will not be possible to call `onlyOwner` functions anymore. Can only be called by the current owner. NOTE: Renouncing ownership will leave the contract without an owner, thereby removing any functionality that is only available to the owner."
      },
      "transferOwnership(address)": {
        "details": "Transfers ownership of the contract to a new account (`newOwner`). Can only be called by the current owner."
      }
    },
    "version": 1
  },
  "userdoc": {
    "kind": "user",
    "methods": {},
    "version": 1
  }
}