{
  "contractName": "SatToken",
  "abi": [
    {
      "inputs": [
        {
          "internalType": "uint256",
          "name": "total",
          "type": "uint256"
        }
      ],
      "stateMutability": "nonpayable",
      "type": "constructor"
    },
    {
      "anonymous": false,
      "inputs": [
        {
          "indexed": true,
          "internalType": "address",
          "name": "tokenOwner",
          "type": "address"
        },
        {
          "indexed": true,
          "internalType": "address",
          "name": "spender",
          "type": "address"
        },
        {
          "indexed": false,
          "internalType": "uint256",
          "name": "tokens",
          "type": "uint256"
        }
      ],
      "name": "Approval",
      "type": "event"
    },
    {
      "anonymous": false,
      "inputs": [
        {
          "indexed": true,
          "internalType": "address",
          "name": "previousOwner",
          "type": "address"
        },
        {
          "indexed": true,
          "internalType": "address",
          "name": "newOwner",
          "type": "address"
        }
      ],
      "name": "OwnershipTransferred",
      "type": "event"
    },
    {
      "anonymous": false,
      "inputs": [
        {
          "indexed": true,
          "internalType": "address",
          "name": "from",
          "type": "address"
        },
        {
          "indexed": true,
          "internalType": "address",
          "name": "to",
          "type": "address"
        },
        {
          "indexed": false,
          "internalType": "uint256",
          "name": "tokens",
          "type": "uint256"
        }
      ],
      "name": "Transfer",
      "type": "event"
    },
    {
      "inputs": [],
      "name": "DECIMALS",
      "outputs": [
        {
          "internalType": "uint8",
          "name": "",
          "type": "uint8"
        }
      ],
      "stateMutability": "view",
      "type": "function"
    },
    {
      "inputs": [],
      "name": "NAME",
      "outputs": [
        {
          "internalType": "string",
          "name": "",
          "type": "string"
        }
      ],
      "stateMutability": "view",
      "type": "function"
    },
    {
      "inputs": [],
      "name": "SYMBOL",
      "outputs": [
        {
          "internalType": "string",
          "name": "",
          "type": "string"
        }
      ],
      "stateMutability": "view",
      "type": "function"
    },
    {
      "inputs": [],
      "name": "owner",
      "outputs": [
        {
          "internalType": "address",
          "name": "",
          "type": "address"
        }
      ],
      "stateMutability": "view",
      "type": "function"
    },
    {
      "inputs": [],
      "name": "renounceOwnership",
      "outputs": [],
      "stateMutability": "nonpayable",
      "type": "function"
    },
    {
      "inputs": [
        {
          "internalType": "address",
          "name": "newOwner",
          "type": "address"
        }
      ],
      "name": "transferOwnership",
      "outputs": [],
      "stateMutability": "nonpayable",
      "type": "function"
    },
    {
      "inputs": [
        {
          "internalType": "address",
          "name": "_fundAddress",
          "type": "address"
        },
        {
          "internalType": "uint256",
          "name": "_numTokens",
          "type": "uint256"
        }
      ],
      "name": "addContractPool",
      "outputs": [
        {
          "internalType": "bool",
          "name": "",
          "type": "bool"
        }
      ],
      "stateMutability": "nonpayable",
      "type": "function"
    },
    {
      "inputs": [
        {
          "internalType": "address",
          "name": "delegate",
          "type": "address"
        },
        {
          "internalType": "uint256",
          "name": "numTokens",
          "type": "uint256"
        }
      ],
      "name": "approveWith",
      "outputs": [
        {
          "internalType": "uint256",
          "name": "",
          "type": "uint256"
        }
      ],
      "stateMutability": "nonpayable",
      "type": "function"
    },
    {
      "inputs": [],
      "name": "totalSupply",
      "outputs": [
        {
          "internalType": "uint256",
          "name": "",
          "type": "uint256"
        }
      ],
      "stateMutability": "view",
      "type": "function"
    },
    {
      "inputs": [
        {
          "internalType": "address",
          "name": "tokenOwner",
          "type": "address"
        }
      ],
      "name": "balanceOf",
      "outputs": [
        {
          "internalType": "uint256",
          "name": "",
          "type": "uint256"
        }
      ],
      "stateMutability": "view",
      "type": "function"
    },
    {
      "inputs": [
        {
          "internalType": "address",
          "name": "receiver",
          "type": "address"
        },
        {
          "internalType": "uint256",
          "name": "numTokens",
          "type": "uint256"
        }
      ],
      "name": "transfer",
      "outputs": [
        {
          "internalType": "bool",
          "name": "",
          "type": "bool"
        }
      ],
      "stateMutability": "nonpayable",
      "type": "function"
    },
    {
      "inputs": [
        {
          "internalType": "address",
          "name": "delegate",
          "type": "address"
        },
        {
          "internalType": "uint256",
          "name": "numTokens",
          "type": "uint256"
        }
      ],
      "name": "approve",
      "outputs": [
        {
          "internalType": "bool",
          "name": "",
          "type": "bool"
        }
      ],
      "stateMutability": "nonpayable",
      "type": "function"
    },
    {
      "inputs": [
        {
          "internalType": "address",
          "name": "owner",
          "type": "address"
        },
        {
          "internalType": "address",
          "name": "delegate",
          "type": "address"
        }
      ],
      "name": "allowance",
      "outputs": [
        {
          "internalType": "uint256",
          "name": "",
          "type": "uint256"
        }
      ],
      "stateMutability": "view",
      "type": "function"
    },
    {
      "inputs": [
        {
          "internalType": "address",
          "name": "owner",
          "type": "address"
        },
        {
          "internalType": "address",
          "name": "buyer",
          "type": "address"
        },
        {
          "internalType": "uint256",
          "name": "numTokens",
          "type": "uint256"
        }
      ],
      "name": "transferFrom",
      "outputs": [
        {
          "internalType": "bool",
          "name": "",
          "type": "bool"
        }
      ],
      "stateMutability": "nonpayable",
      "type": "function"
    }
  ],
  "bytecode": "0x608060405234801561001057600080fd5b50604051610afa380380610afa83398101604081905261002f916100a2565b61003833610052565b6003819055336000908152600160205260409020556100ba565b600080546001600160a01b038381166001600160a01b0319831681178455604051919092169283917f8be0079c531659141344cd1fd0a4f28419497f9722a3daafe3b4186f6b6457e09190a35050565b6000602082840312156100b3578081fd5b5051919050565b610a31806100c96000396000f3fe608060405234801561001057600080fd5b50600436106100ea5760003560e01c8063715018a61161008c578063a9059cbb11610066578063a9059cbb146101fd578063dd62ed3e14610210578063f2fde38b14610249578063f76f8d781461025c576100ea565b8063715018a61461018f5780638da5cb5b14610199578063a3f4df7e146101b4576100ea565b80632e0f2625116100c85780632e0f26251461013c5780634d65a8461461015657806367ff17a61461016957806370a082311461017c576100ea565b8063095ea7b3146100ef57806318160ddd1461011757806323b872dd14610129575b600080fd5b6101026100fd366004610905565b61027e565b60405190151581526020015b60405180910390f35b6003545b60405190815260200161010e565b6101026101373660046108ca565b6102ea565b610144601281565b60405160ff909116815260200161010e565b610102610164366004610905565b61043d565b61011b610177366004610905565b6104a8565b61011b61018a36600461087e565b610592565b6101976105b1565b005b6000546040516001600160a01b03909116815260200161010e565b6101f06040518060400160405280601d81526020017f5355535441494e41424c45204147524943554c5455524520544f4b454e00000081525081565b60405161010e919061092e565b61010261020b366004610905565b6105e7565b61011b61021e366004610898565b6001600160a01b03918216600090815260026020908152604080832093909416825291909152205490565b61019761025736600461087e565b61069a565b6101f06040518060400160405280600381526020016214d05560ea1b81525081565b3360008181526002602090815260408083206001600160a01b038716808552925280832085905551919290917f8c5be1e5ebec7d5bd14f71427d1e84f3dd0314c0f7b2291e5b200ac8c7c3b925906102d99086815260200190565b60405180910390a350600192915050565b6001600160a01b03831660009081526001602052604081205482111561030f57600080fd5b6001600160a01b038416600090815260026020908152604080832033845290915290205482111561033f57600080fd5b6001600160a01b0384166000908152600160205260409020546103629083610735565b6001600160a01b03851660009081526001602090815260408083209390935560028152828220338352905220546103999083610735565b6001600160a01b0380861660009081526002602090815260408083203384528252808320949094559186168152600190915220546103d7908361077e565b6001600160a01b0380851660008181526001602052604090819020939093559151908616907fddf252ad1be2c89b69c2b068fc378daa952ba7f163c4a11628f55a4df523b3ef9061042b9086815260200190565b60405180910390a35060019392505050565b600080546001600160a01b031633146104715760405162461bcd60e51b815260040161046890610981565b60405180910390fd5b6001600160a01b0383166000908152600460205260409020805460ff1916600117905561049e83836105e7565b5060019392505050565b3360009081526004602052604081205460ff166104fd5760405162461bcd60e51b8152602060048201526013602482015272139bdd08184818dbdb9d1c9858dd081c1bdbdb606a1b6044820152606401610468565b3360009081526002602090815260408083206001600160a01b038716845290915290205461052b90836109b6565b3360008181526002602090815260408083206001600160a01b03891680855292529182902093909355517f8c5be1e5ebec7d5bd14f71427d1e84f3dd0314c0f7b2291e5b200ac8c7c3b925906105849086815260200190565b60405180910390a350919050565b6001600160a01b0381166000908152600160205260409020545b919050565b6000546001600160a01b031633146105db5760405162461bcd60e51b815260040161046890610981565b6105e560006107dd565b565b3360009081526001602052604081205482111561060357600080fd5b3360009081526001602052604090205461061d9083610735565b33600090815260016020526040808220929092556001600160a01b03851681522054610649908361077e565b6001600160a01b0384166000818152600160205260409081902092909255905133907fddf252ad1be2c89b69c2b068fc378daa952ba7f163c4a11628f55a4df523b3ef906102d99086815260200190565b6000546001600160a01b031633146106c45760405162461bcd60e51b815260040161046890610981565b6001600160a01b0381166107295760405162461bcd60e51b815260206004820152602660248201527f4f776e61626c653a206e6577206f776e657220697320746865207a65726f206160448201526564647265737360d01b6064820152608401610468565b610732816107dd565b50565b600061077783836040518060400160405280601e81526020017f536166654d6174683a207375627472616374696f6e206f766572666c6f77000081525061082d565b9392505050565b60008061078b83856109b6565b9050838110156107775760405162461bcd60e51b815260206004820152601b60248201527f536166654d6174683a206164646974696f6e206f766572666c6f7700000000006044820152606401610468565b600080546001600160a01b038381166001600160a01b0319831681178455604051919092169283917f8be0079c531659141344cd1fd0a4f28419497f9722a3daafe3b4186f6b6457e09190a35050565b600081848411156108515760405162461bcd60e51b8152600401610468919061092e565b50600061085e84866109ce565b95945050505050565b80356001600160a01b03811681146105ac57600080fd5b60006020828403121561088f578081fd5b61077782610867565b600080604083850312156108aa578081fd5b6108b383610867565b91506108c160208401610867565b90509250929050565b6000806000606084860312156108de578081fd5b6108e784610867565b92506108f560208501610867565b9150604084013590509250925092565b60008060408385031215610917578182fd5b61092083610867565b946020939093013593505050565b6000602080835283518082850152825b8181101561095a5785810183015185820160400152820161093e565b8181111561096b5783604083870101525b50601f01601f1916929092016040019392505050565b6020808252818101527f4f776e61626c653a2063616c6c6572206973206e6f7420746865206f776e6572604082015260600190565b600082198211156109c9576109c96109e5565b500190565b6000828210156109e0576109e06109e5565b500390565b634e487b7160e01b600052601160045260246000fdfea26469706673582212208e7fe8049453d858bbeeb2f57a0304763c7367f45e065fd4652b3ac6e57d4a0264736f6c63430008020033",
  "immutableReferences": {},
  "source": "// SPDX-License-Identifier: GPL-3.0\npragma solidity >=0.7.0 <=0.9.0;\n\nimport \"@openzeppelin/contracts/access/Ownable.sol\";\n\nimport \"./SafeMath.sol\";\n\ncontract SatToken is Ownable {\n    string public constant NAME = \"SUSTAINABLE AGRICULTURE TOKEN\";\n    string public constant SYMBOL = \"SAT\";\n    uint8 public constant DECIMALS = 18;  \n\n    event Approval(address indexed tokenOwner, address indexed spender, uint tokens);\n    event Transfer(address indexed from, address indexed to, uint tokens);\n\n    mapping(address => uint256) internal balances;\n    mapping(address => mapping (address => uint256)) internal allowed;\n\n    uint256 internal totalSupply_;\n\n    using SafeMath for uint256;\n\n    mapping( address => bool) internal contractsPools;\n\n    constructor(uint256 total) {  \n        totalSupply_ = total;\n        balances[msg.sender] = totalSupply_;\n    }\n\n    // =====================================================\n    function addContractPool(address _fundAddress, uint _numTokens) public onlyOwner returns(bool) {\n        contractsPools[_fundAddress] = true;\n        transfer(_fundAddress, _numTokens);\n        return true;\n    }\n\n    function approveWith(address delegate, uint numTokens) public returns(uint) {\n        require(contractPool(msg.sender), \"Not a contract pool\");\n\n        allowed[msg.sender][delegate] = numTokens + allowance(msg.sender, delegate);\n        emit Approval(msg.sender, delegate, numTokens);\n        return numTokens;\n    }\n\n    function contractPool(address contractFundsAddress) internal view returns(bool){\n        return contractsPools[contractFundsAddress];\n    }\n    // ==================================\n\n    function totalSupply() public view returns (uint256) {\n        return totalSupply_;\n    }\n    \n    function balanceOf(address tokenOwner) public view returns (uint) {\n        return balances[tokenOwner];\n    }\n\n    function transfer(address receiver, uint numTokens) public returns (bool) {\n        require(numTokens <= balances[msg.sender]);\n        balances[msg.sender] = balances[msg.sender].sub(numTokens);\n        balances[receiver] = balances[receiver].add(numTokens);\n        emit Transfer(msg.sender, receiver, numTokens);\n        return true;\n    }\n\n    function approve(address delegate, uint numTokens) public returns (bool) {\n        allowed[msg.sender][delegate] = numTokens;\n        emit Approval(msg.sender, delegate, numTokens);\n        return true;\n    }\n\n    function allowance(address owner, address delegate) public view returns (uint) {\n        return allowed[owner][delegate];\n    }\n\n    function transferFrom(address owner, address buyer, uint numTokens) public returns (bool) {\n        require(numTokens <= balances[owner]);    \n        require(numTokens <= allowed[owner][msg.sender]);\n    \n        balances[owner] = balances[owner].sub(numTokens);\n        allowed[owner][msg.sender] = allowed[owner][msg.sender].sub(numTokens);\n        balances[buyer] = balances[buyer].add(numTokens);\n        emit Transfer(owner, buyer, numTokens);\n        return true;\n    }\n}\n",
  "sourcePath": "/home/everson/projetos/afiliart/SAT-core-contracts/contracts/SatToken.sol",
  "compiler": {
    "name": "solc",
    "version": "0.8.2+commit.661d1103.Emscripten.clang"
  },
  "schemaVersion": "3.4.4",
  "updatedAt": "2022-02-26T13:04:56.697Z",
  "devdoc": {
    "kind": "dev",
    "methods": {
      "owner()": {
        "details": "Returns the address of the current owner."
      },
      "renounceOwnership()": {
        "details": "Leaves the contract without owner. It will not be possible to call `onlyOwner` functions anymore. Can only be called by the current owner. NOTE: Renouncing ownership will leave the contract without an owner, thereby removing any functionality that is only available to the owner."
      },
      "transferOwnership(address)": {
        "details": "Transfers ownership of the contract to a new account (`newOwner`). Can only be called by the current owner."
      }
    },
    "version": 1
  },
  "userdoc": {
    "kind": "user",
    "methods": {},
    "version": 1
  }
}