{
  "contractName": "SatToken",
  "abi": [
    {
      "inputs": [
        {
          "internalType": "uint256",
          "name": "total",
          "type": "uint256"
        }
      ],
      "stateMutability": "nonpayable",
      "type": "constructor"
    },
    {
      "anonymous": false,
      "inputs": [
        {
          "indexed": true,
          "internalType": "address",
          "name": "tokenOwner",
          "type": "address"
        },
        {
          "indexed": true,
          "internalType": "address",
          "name": "spender",
          "type": "address"
        },
        {
          "indexed": false,
          "internalType": "uint256",
          "name": "tokens",
          "type": "uint256"
        }
      ],
      "name": "Approval",
      "type": "event"
    },
    {
      "anonymous": false,
      "inputs": [
        {
          "indexed": true,
          "internalType": "address",
          "name": "from",
          "type": "address"
        },
        {
          "indexed": true,
          "internalType": "address",
          "name": "to",
          "type": "address"
        },
        {
          "indexed": false,
          "internalType": "uint256",
          "name": "tokens",
          "type": "uint256"
        }
      ],
      "name": "Transfer",
      "type": "event"
    },
    {
      "inputs": [],
      "name": "DECIMALS",
      "outputs": [
        {
          "internalType": "uint8",
          "name": "",
          "type": "uint8"
        }
      ],
      "stateMutability": "view",
      "type": "function",
      "constant": true
    },
    {
      "inputs": [],
      "name": "NAME",
      "outputs": [
        {
          "internalType": "string",
          "name": "",
          "type": "string"
        }
      ],
      "stateMutability": "view",
      "type": "function",
      "constant": true
    },
    {
      "inputs": [],
      "name": "SYMBOL",
      "outputs": [
        {
          "internalType": "string",
          "name": "",
          "type": "string"
        }
      ],
      "stateMutability": "view",
      "type": "function",
      "constant": true
    },
    {
      "inputs": [
        {
          "internalType": "address",
          "name": "_fundAddress",
          "type": "address"
        },
        {
          "internalType": "uint256",
          "name": "_numTokens",
          "type": "uint256"
        }
      ],
      "name": "addContractPool",
      "outputs": [
        {
          "internalType": "bool",
          "name": "",
          "type": "bool"
        }
      ],
      "stateMutability": "nonpayable",
      "type": "function"
    },
    {
      "inputs": [
        {
          "internalType": "address",
          "name": "delegate",
          "type": "address"
        },
        {
          "internalType": "uint256",
          "name": "numTokens",
          "type": "uint256"
        }
      ],
      "name": "approveWith",
      "outputs": [
        {
          "internalType": "uint256",
          "name": "",
          "type": "uint256"
        }
      ],
      "stateMutability": "nonpayable",
      "type": "function"
    },
    {
      "inputs": [],
      "name": "totalSupply",
      "outputs": [
        {
          "internalType": "uint256",
          "name": "",
          "type": "uint256"
        }
      ],
      "stateMutability": "view",
      "type": "function",
      "constant": true
    },
    {
      "inputs": [
        {
          "internalType": "address",
          "name": "tokenOwner",
          "type": "address"
        }
      ],
      "name": "balanceOf",
      "outputs": [
        {
          "internalType": "uint256",
          "name": "",
          "type": "uint256"
        }
      ],
      "stateMutability": "view",
      "type": "function",
      "constant": true
    },
    {
      "inputs": [
        {
          "internalType": "address",
          "name": "receiver",
          "type": "address"
        },
        {
          "internalType": "uint256",
          "name": "numTokens",
          "type": "uint256"
        }
      ],
      "name": "transfer",
      "outputs": [
        {
          "internalType": "bool",
          "name": "",
          "type": "bool"
        }
      ],
      "stateMutability": "nonpayable",
      "type": "function"
    },
    {
      "inputs": [
        {
          "internalType": "address",
          "name": "delegate",
          "type": "address"
        },
        {
          "internalType": "uint256",
          "name": "numTokens",
          "type": "uint256"
        }
      ],
      "name": "approve",
      "outputs": [
        {
          "internalType": "bool",
          "name": "",
          "type": "bool"
        }
      ],
      "stateMutability": "nonpayable",
      "type": "function"
    },
    {
      "inputs": [
        {
          "internalType": "address",
          "name": "owner",
          "type": "address"
        },
        {
          "internalType": "address",
          "name": "delegate",
          "type": "address"
        }
      ],
      "name": "allowance",
      "outputs": [
        {
          "internalType": "uint256",
          "name": "",
          "type": "uint256"
        }
      ],
      "stateMutability": "view",
      "type": "function",
      "constant": true
    },
    {
      "inputs": [
        {
          "internalType": "address",
          "name": "owner",
          "type": "address"
        },
        {
          "internalType": "address",
          "name": "buyer",
          "type": "address"
        },
        {
          "internalType": "uint256",
          "name": "numTokens",
          "type": "uint256"
        }
      ],
      "name": "transferFrom",
      "outputs": [
        {
          "internalType": "bool",
          "name": "",
          "type": "bool"
        }
      ],
      "stateMutability": "nonpayable",
      "type": "function"
    }
  ],
  "bytecode": "0x608060405234801561001057600080fd5b5060405161089538038061089583398101604081905261002f91610049565b600281905533600090815260208190526040902055610061565b60006020828403121561005a578081fd5b5051919050565b610825806100706000396000f3fe608060405234801561001057600080fd5b50600436106100a95760003560e01c806367ff17a61161007157806367ff17a61461012857806370a082311461013b578063a3f4df7e1461014e578063a9059cbb14610197578063dd62ed3e146101aa578063f76f8d78146101e3576100a9565b8063095ea7b3146100ae57806318160ddd146100d657806323b872dd146100e85780632e0f2625146100fb5780634d65a84614610115575b600080fd5b6100c16100bc36600461072e565b610205565b60405190151581526020015b60405180910390f35b6002545b6040519081526020016100cd565b6100c16100f63660046106f3565b610271565b610103601281565b60405160ff90911681526020016100cd565b6100c161012336600461072e565b6103b9565b6100da61013636600461072e565b6103f0565b6100da6101493660046106a7565b6104df565b61018a6040518060400160405280601d81526020017f5355535441494e41424c45204147524943554c5455524520544f4b454e00000081525081565b6040516100cd9190610757565b6100c16101a536600461072e565b6104fe565b6100da6101b83660046106c1565b6001600160a01b03918216600090815260016020908152604080832093909416825291909152205490565b61018a6040518060400160405280600381526020016214d05560ea1b81525081565b3360008181526001602090815260408083206001600160a01b038716808552925280832085905551919290917f8c5be1e5ebec7d5bd14f71427d1e84f3dd0314c0f7b2291e5b200ac8c7c3b925906102609086815260200190565b60405180910390a350600192915050565b6001600160a01b03831660009081526020819052604081205482111561029657600080fd5b6001600160a01b03841660009081526001602090815260408083203384529091529020548211156102c657600080fd5b6001600160a01b0384166000908152602081905260409020546102e990836105ae565b6001600160a01b03851660009081526020818152604080832093909355600181528282203383529052205461031e90836105ae565b6001600160a01b038086166000908152600160209081526040808320338452825280832094909455918616815290819052205461035b90836105f7565b6001600160a01b038481166000818152602081815260409182902094909455518581529092918716917fddf252ad1be2c89b69c2b068fc378daa952ba7f163c4a11628f55a4df523b3ef910160405180910390a35060019392505050565b6001600160a01b0382166000908152600360205260408120805460ff191660011790556103e683836104fe565b5060019392505050565b3360009081526003602052604081205460ff1661044a5760405162461bcd60e51b8152602060048201526013602482015272139bdd08184818dbdb9d1c9858dd081c1bdbdb606a1b60448201526064015b60405180910390fd5b3360009081526001602090815260408083206001600160a01b038716845290915290205461047890836107aa565b3360008181526001602090815260408083206001600160a01b03891680855292529182902093909355517f8c5be1e5ebec7d5bd14f71427d1e84f3dd0314c0f7b2291e5b200ac8c7c3b925906104d19086815260200190565b60405180910390a350919050565b6001600160a01b0381166000908152602081905260409020545b919050565b3360009081526020819052604081205482111561051a57600080fd5b3360009081526020819052604090205461053490836105ae565b33600090815260208190526040808220929092556001600160a01b0385168152205461056090836105f7565b6001600160a01b038416600081815260208181526040918290209390935551848152909133917fddf252ad1be2c89b69c2b068fc378daa952ba7f163c4a11628f55a4df523b3ef9101610260565b60006105f083836040518060400160405280601e81526020017f536166654d6174683a207375627472616374696f6e206f766572666c6f770000815250610656565b9392505050565b60008061060483856107aa565b9050838110156105f05760405162461bcd60e51b815260206004820152601b60248201527f536166654d6174683a206164646974696f6e206f766572666c6f7700000000006044820152606401610441565b6000818484111561067a5760405162461bcd60e51b81526004016104419190610757565b50600061068784866107c2565b95945050505050565b80356001600160a01b03811681146104f957600080fd5b6000602082840312156106b8578081fd5b6105f082610690565b600080604083850312156106d3578081fd5b6106dc83610690565b91506106ea60208401610690565b90509250929050565b600080600060608486031215610707578081fd5b61071084610690565b925061071e60208501610690565b9150604084013590509250925092565b60008060408385031215610740578182fd5b61074983610690565b946020939093013593505050565b6000602080835283518082850152825b8181101561078357858101830151858201604001528201610767565b818111156107945783604083870101525b50601f01601f1916929092016040019392505050565b600082198211156107bd576107bd6107d9565b500190565b6000828210156107d4576107d46107d9565b500390565b634e487b7160e01b600052601160045260246000fdfea264697066735822122079d92f5e11f43ba01c7a0b78fc3fceeb0af6055eb4c4430bb9f530de0bf6befc64736f6c63430008020033",
  "immutableReferences": {},
  "source": "// SPDX-License-Identifier: GPL-3.0\npragma solidity >=0.7.0 <=0.9.0;\n\nimport \"./Ownable.sol\";\n\nimport \"./SafeMath.sol\";\n\ncontract SatToken is Ownable {\n    string public constant NAME = \"SUSTAINABLE AGRICULTURE TOKEN\";\n    string public constant SYMBOL = \"SAT\";\n    uint8 public constant DECIMALS = 18;  \n\n    event Approval(address indexed tokenOwner, address indexed spender, uint tokens);\n    event Transfer(address indexed from, address indexed to, uint tokens);\n\n    mapping(address => uint256) internal balances;\n    mapping(address => mapping (address => uint256)) internal allowed;\n\n    uint256 internal totalSupply_;\n\n    using SafeMath for uint256;\n\n    mapping( address => bool) internal contractsPools;\n\n    constructor(uint256 total) {  \n        totalSupply_ = total;\n        balances[msg.sender] = totalSupply_;\n    }\n\n    // =====================================================\n    function addContractPool(address _fundAddress, uint _numTokens) public onlyOwner returns(bool) {\n        contractsPools[_fundAddress] = true;\n        transfer(_fundAddress, _numTokens);\n        return true;\n    }\n\n    function approveWith(address delegate, uint numTokens) public returns(uint) {\n        require(contractPool(msg.sender), \"Not a contract pool\");\n\n        allowed[msg.sender][delegate] = numTokens + allowance(msg.sender, delegate);\n        emit Approval(msg.sender, delegate, numTokens);\n        return numTokens;\n    }\n\n    function contractPool(address contractFundsAddress) internal view returns(bool){\n        return contractsPools[contractFundsAddress];\n    }\n    // ==================================\n\n    function totalSupply() public view returns (uint256) {\n        return totalSupply_;\n    }\n    \n    function balanceOf(address tokenOwner) public view returns (uint) {\n        return balances[tokenOwner];\n    }\n\n    function transfer(address receiver, uint numTokens) public returns (bool) {\n        require(numTokens <= balances[msg.sender]);\n        balances[msg.sender] = balances[msg.sender].sub(numTokens);\n        balances[receiver] = balances[receiver].add(numTokens);\n        emit Transfer(msg.sender, receiver, numTokens);\n        return true;\n    }\n\n    function approve(address delegate, uint numTokens) public returns (bool) {\n        allowed[msg.sender][delegate] = numTokens;\n        emit Approval(msg.sender, delegate, numTokens);\n        return true;\n    }\n\n    function allowance(address owner, address delegate) public view returns (uint) {\n        return allowed[owner][delegate];\n    }\n\n    function transferFrom(address owner, address buyer, uint numTokens) public returns (bool) {\n        require(numTokens <= balances[owner]);    \n        require(numTokens <= allowed[owner][msg.sender]);\n    \n        balances[owner] = balances[owner].sub(numTokens);\n        allowed[owner][msg.sender] = allowed[owner][msg.sender].sub(numTokens);\n        balances[buyer] = balances[buyer].add(numTokens);\n        emit Transfer(owner, buyer, numTokens);\n        return true;\n    }\n}\n",
  "sourcePath": "/home/everson/projetos/afiliart/SAT-core-contracts/contracts/SatToken.sol",
  "compiler": {
    "name": "solc",
    "version": "0.8.2+commit.661d1103.Emscripten.clang"
  },
  "schemaVersion": "3.4.4",
  "updatedAt": "2022-02-04T00:33:36.410Z",
  "networkType": "ethereum",
  "devdoc": {
    "kind": "dev",
    "methods": {},
    "version": 1
  },
  "userdoc": {
    "kind": "user",
    "methods": {},
    "version": 1
  }
}