{
  "contractName": "Sintrop",
  "abi": [
    {
      "inputs": [
        {
          "internalType": "address",
          "name": "addr",
          "type": "address"
        }
      ],
      "name": "activistExists",
      "outputs": [
        {
          "internalType": "bool",
          "name": "",
          "type": "bool"
        }
      ],
      "stateMutability": "view",
      "type": "function"
    },
    {
      "inputs": [],
      "name": "activistsCount",
      "outputs": [
        {
          "internalType": "uint256",
          "name": "",
          "type": "uint256"
        }
      ],
      "stateMutability": "view",
      "type": "function"
    },
    {
      "inputs": [
        {
          "internalType": "string",
          "name": "name",
          "type": "string"
        },
        {
          "internalType": "string",
          "name": "document",
          "type": "string"
        },
        {
          "internalType": "string",
          "name": "documentType",
          "type": "string"
        },
        {
          "internalType": "string",
          "name": "country",
          "type": "string"
        },
        {
          "internalType": "string",
          "name": "state",
          "type": "string"
        },
        {
          "internalType": "string",
          "name": "city",
          "type": "string"
        },
        {
          "internalType": "string",
          "name": "cep",
          "type": "string"
        }
      ],
      "name": "addActivist",
      "outputs": [
        {
          "components": [
            {
              "internalType": "uint256",
              "name": "id",
              "type": "uint256"
            },
            {
              "internalType": "address",
              "name": "activistWallet",
              "type": "address"
            },
            {
              "internalType": "enum UserContract.UserType",
              "name": "userType",
              "type": "uint8"
            },
            {
              "internalType": "string",
              "name": "name",
              "type": "string"
            },
            {
              "internalType": "string",
              "name": "document",
              "type": "string"
            },
            {
              "internalType": "string",
              "name": "documentType",
              "type": "string"
            },
            {
              "internalType": "bool",
              "name": "recentInspection",
              "type": "bool"
            },
            {
              "internalType": "uint256",
              "name": "totalInspections",
              "type": "uint256"
            },
            {
              "components": [
                {
                  "internalType": "string",
                  "name": "country",
                  "type": "string"
                },
                {
                  "internalType": "string",
                  "name": "state",
                  "type": "string"
                },
                {
                  "internalType": "string",
                  "name": "city",
                  "type": "string"
                },
                {
                  "internalType": "string",
                  "name": "cep",
                  "type": "string"
                }
              ],
              "internalType": "struct ActivistContract.ActivistAddress",
              "name": "activistAddress",
              "type": "tuple"
            }
          ],
          "internalType": "struct ActivistContract.Activist",
          "name": "",
          "type": "tuple"
        }
      ],
      "stateMutability": "nonpayable",
      "type": "function"
    },
    {
      "inputs": [
        {
          "internalType": "string",
          "name": "name",
          "type": "string"
        },
        {
          "internalType": "string",
          "name": "document",
          "type": "string"
        },
        {
          "internalType": "string",
          "name": "documentType",
          "type": "string"
        },
        {
          "internalType": "string",
          "name": "country",
          "type": "string"
        },
        {
          "internalType": "string",
          "name": "state",
          "type": "string"
        },
        {
          "internalType": "string",
          "name": "city",
          "type": "string"
        },
        {
          "internalType": "string",
          "name": "cep",
          "type": "string"
        }
      ],
      "name": "addProducer",
      "outputs": [
        {
          "internalType": "bool",
          "name": "",
          "type": "bool"
        }
      ],
      "stateMutability": "nonpayable",
      "type": "function"
    },
    {
      "inputs": [
        {
          "internalType": "address",
          "name": "addr",
          "type": "address"
        }
      ],
      "name": "getActivist",
      "outputs": [
        {
          "components": [
            {
              "internalType": "uint256",
              "name": "id",
              "type": "uint256"
            },
            {
              "internalType": "address",
              "name": "activistWallet",
              "type": "address"
            },
            {
              "internalType": "enum UserContract.UserType",
              "name": "userType",
              "type": "uint8"
            },
            {
              "internalType": "string",
              "name": "name",
              "type": "string"
            },
            {
              "internalType": "string",
              "name": "document",
              "type": "string"
            },
            {
              "internalType": "string",
              "name": "documentType",
              "type": "string"
            },
            {
              "internalType": "bool",
              "name": "recentInspection",
              "type": "bool"
            },
            {
              "internalType": "uint256",
              "name": "totalInspections",
              "type": "uint256"
            },
            {
              "components": [
                {
                  "internalType": "string",
                  "name": "country",
                  "type": "string"
                },
                {
                  "internalType": "string",
                  "name": "state",
                  "type": "string"
                },
                {
                  "internalType": "string",
                  "name": "city",
                  "type": "string"
                },
                {
                  "internalType": "string",
                  "name": "cep",
                  "type": "string"
                }
              ],
              "internalType": "struct ActivistContract.ActivistAddress",
              "name": "activistAddress",
              "type": "tuple"
            }
          ],
          "internalType": "struct ActivistContract.Activist",
          "name": "",
          "type": "tuple"
        }
      ],
      "stateMutability": "view",
      "type": "function"
    },
    {
      "inputs": [],
      "name": "getActivists",
      "outputs": [
        {
          "components": [
            {
              "internalType": "uint256",
              "name": "id",
              "type": "uint256"
            },
            {
              "internalType": "address",
              "name": "activistWallet",
              "type": "address"
            },
            {
              "internalType": "enum UserContract.UserType",
              "name": "userType",
              "type": "uint8"
            },
            {
              "internalType": "string",
              "name": "name",
              "type": "string"
            },
            {
              "internalType": "string",
              "name": "document",
              "type": "string"
            },
            {
              "internalType": "string",
              "name": "documentType",
              "type": "string"
            },
            {
              "internalType": "bool",
              "name": "recentInspection",
              "type": "bool"
            },
            {
              "internalType": "uint256",
              "name": "totalInspections",
              "type": "uint256"
            },
            {
              "components": [
                {
                  "internalType": "string",
                  "name": "country",
                  "type": "string"
                },
                {
                  "internalType": "string",
                  "name": "state",
                  "type": "string"
                },
                {
                  "internalType": "string",
                  "name": "city",
                  "type": "string"
                },
                {
                  "internalType": "string",
                  "name": "cep",
                  "type": "string"
                }
              ],
              "internalType": "struct ActivistContract.ActivistAddress",
              "name": "activistAddress",
              "type": "tuple"
            }
          ],
          "internalType": "struct ActivistContract.Activist[]",
          "name": "",
          "type": "tuple[]"
        }
      ],
      "stateMutability": "view",
      "type": "function"
    },
    {
      "inputs": [
        {
          "internalType": "address",
          "name": "addr",
          "type": "address"
        }
      ],
      "name": "getProducer",
      "outputs": [
        {
          "components": [
            {
              "internalType": "uint256",
              "name": "id",
              "type": "uint256"
            },
            {
              "internalType": "address",
              "name": "producer_wallet",
              "type": "address"
            },
            {
              "internalType": "enum UserContract.UserType",
              "name": "userType",
              "type": "uint8"
            },
            {
              "internalType": "string",
              "name": "name",
              "type": "string"
            },
            {
              "internalType": "string",
              "name": "document",
              "type": "string"
            },
            {
              "internalType": "string",
              "name": "documentType",
              "type": "string"
            },
            {
              "internalType": "bool",
              "name": "recentInspection",
              "type": "bool"
            },
            {
              "internalType": "uint256",
              "name": "totalRequests",
              "type": "uint256"
            },
            {
              "internalType": "int256",
              "name": "isaPoints",
              "type": "int256"
            },
            {
              "components": [
                {
                  "internalType": "uint256",
                  "name": "allowed",
                  "type": "uint256"
                },
                {
                  "internalType": "bool",
                  "name": "withdrewToken",
                  "type": "bool"
                }
              ],
              "internalType": "struct ProducerContract.TokenApprove",
              "name": "tokenApprove",
              "type": "tuple"
            },
            {
              "components": [
                {
                  "internalType": "string",
                  "name": "country",
                  "type": "string"
                },
                {
                  "internalType": "string",
                  "name": "state",
                  "type": "string"
                },
                {
                  "internalType": "string",
                  "name": "city",
                  "type": "string"
                },
                {
                  "internalType": "string",
                  "name": "cep",
                  "type": "string"
                }
              ],
              "internalType": "struct ProducerContract.PropertyAddress",
              "name": "property_address",
              "type": "tuple"
            }
          ],
          "internalType": "struct ProducerContract.Producer",
          "name": "producer",
          "type": "tuple"
        }
      ],
      "stateMutability": "view",
      "type": "function"
    },
    {
      "inputs": [
        {
          "internalType": "address",
          "name": "address_",
          "type": "address"
        }
      ],
      "name": "getProducerApprove",
      "outputs": [
        {
          "internalType": "uint256",
          "name": "",
          "type": "uint256"
        }
      ],
      "stateMutability": "view",
      "type": "function"
    },
    {
      "inputs": [],
      "name": "getProducers",
      "outputs": [
        {
          "components": [
            {
              "internalType": "uint256",
              "name": "id",
              "type": "uint256"
            },
            {
              "internalType": "address",
              "name": "producer_wallet",
              "type": "address"
            },
            {
              "internalType": "enum UserContract.UserType",
              "name": "userType",
              "type": "uint8"
            },
            {
              "internalType": "string",
              "name": "name",
              "type": "string"
            },
            {
              "internalType": "string",
              "name": "document",
              "type": "string"
            },
            {
              "internalType": "string",
              "name": "documentType",
              "type": "string"
            },
            {
              "internalType": "bool",
              "name": "recentInspection",
              "type": "bool"
            },
            {
              "internalType": "uint256",
              "name": "totalRequests",
              "type": "uint256"
            },
            {
              "internalType": "int256",
              "name": "isaPoints",
              "type": "int256"
            },
            {
              "components": [
                {
                  "internalType": "uint256",
                  "name": "allowed",
                  "type": "uint256"
                },
                {
                  "internalType": "bool",
                  "name": "withdrewToken",
                  "type": "bool"
                }
              ],
              "internalType": "struct ProducerContract.TokenApprove",
              "name": "tokenApprove",
              "type": "tuple"
            },
            {
              "components": [
                {
                  "internalType": "string",
                  "name": "country",
                  "type": "string"
                },
                {
                  "internalType": "string",
                  "name": "state",
                  "type": "string"
                },
                {
                  "internalType": "string",
                  "name": "city",
                  "type": "string"
                },
                {
                  "internalType": "string",
                  "name": "cep",
                  "type": "string"
                }
              ],
              "internalType": "struct ProducerContract.PropertyAddress",
              "name": "property_address",
              "type": "tuple"
            }
          ],
          "internalType": "struct ProducerContract.Producer[]",
          "name": "",
          "type": "tuple[]"
        }
      ],
      "stateMutability": "view",
      "type": "function"
    },
    {
      "inputs": [
        {
          "internalType": "address",
          "name": "addr",
          "type": "address"
        }
      ],
      "name": "getUser",
      "outputs": [
        {
          "internalType": "enum UserContract.UserType",
          "name": "",
          "type": "uint8"
        }
      ],
      "stateMutability": "view",
      "type": "function"
    },
    {
      "inputs": [],
      "name": "getUserTypes",
      "outputs": [
        {
          "internalType": "string",
          "name": "",
          "type": "string"
        },
        {
          "internalType": "string",
          "name": "",
          "type": "string"
        },
        {
          "internalType": "string",
          "name": "",
          "type": "string"
        }
      ],
      "stateMutability": "pure",
      "type": "function"
    },
    {
      "inputs": [],
      "name": "inspectionsCount",
      "outputs": [
        {
          "internalType": "uint256",
          "name": "",
          "type": "uint256"
        }
      ],
      "stateMutability": "view",
      "type": "function"
    },
    {
      "inputs": [
        {
          "internalType": "address",
          "name": "addr",
          "type": "address"
        }
      ],
      "name": "producerExists",
      "outputs": [
        {
          "internalType": "bool",
          "name": "",
          "type": "bool"
        }
      ],
      "stateMutability": "view",
      "type": "function"
    },
    {
      "inputs": [],
      "name": "producersCount",
      "outputs": [
        {
          "internalType": "uint256",
          "name": "",
          "type": "uint256"
        }
      ],
      "stateMutability": "view",
      "type": "function"
    },
    {
      "inputs": [],
      "name": "usersCount",
      "outputs": [
        {
          "internalType": "uint256",
          "name": "",
          "type": "uint256"
        }
      ],
      "stateMutability": "view",
      "type": "function"
    },
    {
      "inputs": [],
      "name": "getInspectionsHistory",
      "outputs": [
        {
          "components": [
            {
              "internalType": "uint256",
              "name": "id",
              "type": "uint256"
            },
            {
              "internalType": "enum Sintrop.InspectionStatus",
              "name": "status",
              "type": "uint8"
            },
            {
              "internalType": "address",
              "name": "producerWallet",
              "type": "address"
            },
            {
              "internalType": "address",
              "name": "activistWallet",
              "type": "address"
            },
            {
              "internalType": "uint256[][]",
              "name": "isas",
              "type": "uint256[][]"
            },
            {
              "internalType": "int256",
              "name": "isaPoints",
              "type": "int256"
            },
            {
              "internalType": "uint256",
              "name": "expiresIn",
              "type": "uint256"
            },
            {
              "internalType": "uint256",
              "name": "createdAt",
              "type": "uint256"
            },
            {
              "internalType": "uint256",
              "name": "updatedAt",
              "type": "uint256"
            }
          ],
          "internalType": "struct Sintrop.Inspection[]",
          "name": "",
          "type": "tuple[]"
        }
      ],
      "stateMutability": "view",
      "type": "function"
    },
    {
      "inputs": [],
      "name": "requestInspection",
      "outputs": [
        {
          "internalType": "bool",
          "name": "",
          "type": "bool"
        }
      ],
      "stateMutability": "nonpayable",
      "type": "function"
    },
    {
      "inputs": [
        {
          "internalType": "uint256",
          "name": "inspectionId",
          "type": "uint256"
        }
      ],
      "name": "acceptInspection",
      "outputs": [
        {
          "internalType": "bool",
          "name": "",
          "type": "bool"
        }
      ],
      "stateMutability": "nonpayable",
      "type": "function"
    },
    {
      "inputs": [
        {
          "internalType": "uint256",
          "name": "inspectionId",
          "type": "uint256"
        },
        {
          "internalType": "uint256[][]",
          "name": "isas",
          "type": "uint256[][]"
        }
      ],
      "name": "realizeInspection",
      "outputs": [
        {
          "internalType": "bool",
          "name": "",
          "type": "bool"
        }
      ],
      "stateMutability": "nonpayable",
      "type": "function"
    },
    {
      "inputs": [
        {
          "internalType": "uint256",
          "name": "id",
          "type": "uint256"
        }
      ],
      "name": "getInspection",
      "outputs": [
        {
          "components": [
            {
              "internalType": "uint256",
              "name": "id",
              "type": "uint256"
            },
            {
              "internalType": "enum Sintrop.InspectionStatus",
              "name": "status",
              "type": "uint8"
            },
            {
              "internalType": "address",
              "name": "producerWallet",
              "type": "address"
            },
            {
              "internalType": "address",
              "name": "activistWallet",
              "type": "address"
            },
            {
              "internalType": "uint256[][]",
              "name": "isas",
              "type": "uint256[][]"
            },
            {
              "internalType": "int256",
              "name": "isaPoints",
              "type": "int256"
            },
            {
              "internalType": "uint256",
              "name": "expiresIn",
              "type": "uint256"
            },
            {
              "internalType": "uint256",
              "name": "createdAt",
              "type": "uint256"
            },
            {
              "internalType": "uint256",
              "name": "updatedAt",
              "type": "uint256"
            }
          ],
          "internalType": "struct Sintrop.Inspection",
          "name": "",
          "type": "tuple"
        }
      ],
      "stateMutability": "view",
      "type": "function"
    },
    {
      "inputs": [],
      "name": "getInspections",
      "outputs": [
        {
          "components": [
            {
              "internalType": "uint256",
              "name": "id",
              "type": "uint256"
            },
            {
              "internalType": "enum Sintrop.InspectionStatus",
              "name": "status",
              "type": "uint8"
            },
            {
              "internalType": "address",
              "name": "producerWallet",
              "type": "address"
            },
            {
              "internalType": "address",
              "name": "activistWallet",
              "type": "address"
            },
            {
              "internalType": "uint256[][]",
              "name": "isas",
              "type": "uint256[][]"
            },
            {
              "internalType": "int256",
              "name": "isaPoints",
              "type": "int256"
            },
            {
              "internalType": "uint256",
              "name": "expiresIn",
              "type": "uint256"
            },
            {
              "internalType": "uint256",
              "name": "createdAt",
              "type": "uint256"
            },
            {
              "internalType": "uint256",
              "name": "updatedAt",
              "type": "uint256"
            }
          ],
          "internalType": "struct Sintrop.Inspection[]",
          "name": "",
          "type": "tuple[]"
        }
      ],
      "stateMutability": "view",
      "type": "function"
    },
    {
      "inputs": [],
      "name": "getInspectionsStatus",
      "outputs": [
        {
          "internalType": "string",
          "name": "",
          "type": "string"
        },
        {
          "internalType": "string",
          "name": "",
          "type": "string"
        },
        {
          "internalType": "string",
          "name": "",
          "type": "string"
        },
        {
          "internalType": "string",
          "name": "",
          "type": "string"
        }
      ],
      "stateMutability": "pure",
      "type": "function"
    },
    {
      "inputs": [
        {
          "internalType": "uint256",
          "name": "id",
          "type": "uint256"
        }
      ],
      "name": "inspectionExists",
      "outputs": [
        {
          "internalType": "bool",
          "name": "",
          "type": "bool"
        }
      ],
      "stateMutability": "view",
      "type": "function"
    }
  ],
  "bytecode": "0x608060405262093a8060085534801561001757600080fd5b50613df6806100276000396000f3fe608060405234801561001057600080fd5b506004361061014d5760003560e01c80638cf05442116100c3578063e78575021161007c578063e7857502146103a5578063e80a7eb9146103b8578063e9e797ac146103cd578063ee699fc1146103e0578063f2836670146103e8578063fe5a4fa4146104085761014d565b80638cf05442146102aa5780638ed5540d146102d6578063aab147b2146102e9578063b92bd2d914610309578063dd6850c61461031c578063e53142e21461039c5761014d565b806362efeff71161011557806362efeff7146101c15780636337dc1a146101d45780636ba13a821461023d5780636f77926b1461024657806386ae2fb11461027f5780638c4772fc146102975761014d565b806309e1b1d1146101525780630bbec3c21461016e57806340f528411461018357806342e187dd146101a35780635401c1f2146101b8575b600080fd5b61015b60075481565b6040519081526020015b60405180910390f35b61017661042c565b6040516101659190613ad5565b6101966101913660046134d1565b6105e5565b6040516101659190613c1f565b6101ab610899565b6040516101659190613a75565b61015b600b5481565b6101966101cf3660046134a3565b610e3e565b604080518082018252600880825267282927a22aa1a2a960c11b60208084019190915283518085018552918252671050d512559254d560c21b8282015283518085018552600a8152692922a9a2a0a921a422a960b11b9181019190915292516101659390613b8e565b61015b60015481565b6102726102543660046134a3565b6001600160a01b031660009081526020819052604090205460ff1690565b6040516101659190613b7b565b610287611308565b6040519015158152602001610165565b6102876102a53660046134a3565b611405565b61015b6102b83660046134a3565b6001600160a01b031660009081526002602052604090206008015490565b6102876102e43660046134d1565b611438565b6102fc6102f73660046134a3565b61174a565b6040516101659190613c45565b6102876103173660046135fc565b611a08565b604080518082018252600481526327a822a760e11b6020808301919091528251808401845260078152661156141254915160ca1b81830152835180850185526009815268125394d41150d5115160ba1b818401528451808601865260088152671050d0d15415115160c21b93810193909352935161016594919290613bc7565b61015b60045481565b6102876103b33660046135e4565b611d31565b6103c06120d9565b6040516101659190613b28565b6102876103db3660046134a3565b6126ae565b6101766126d7565b6103fb6103f63660046135e4565b612902565b6040516101659190613c32565b6102876104163660046135e4565b6000908152600a60205260409020546001111590565b336000908152600960209081526040808320805482518185028101850190935280835260609492939192909184015b828210156105dc578382906000526020600020906008020160405180610120016040529081600082015481526020016001820160009054906101000a900460ff1660038111156104bb57634e487b7160e01b600052602160045260246000fd5b60038111156104da57634e487b7160e01b600052602160045260246000fd5b815260018201546001600160a01b0361010090910481166020808401919091526002840154909116604080840191909152600384018054825181850281018501909352808352606090940193919290919060009084015b8282101561059d5760008481526020908190208301805460408051828502810185019091528181529283018282801561058957602002820191906000526020600020905b815481526020019060010190808311610575575b505050505081526020019060010190610531565b5050505081526020016004820154815260200160058201548152602001600682015481526020016007820154815250508152602001906001019061045b565b50505050905090565b6105ed61315d565b6105f633611405565b156106485760405162461bcd60e51b815260206004820152601b60248201527f5468697320616374697669737420616c7265616479206578697374000000000060448201526064015b60405180910390fd5b600060075460016106599190613cee565b604080516080810182528881526020808201899052818301889052606082018790528251610120810184528481523391810191909152929350600292909160009190810184815260208082018f905260408083018f9052606083018e905260006080840181905260a0840181905260c0909301869052338352600582529182902083518155908301516001820180546001600160a01b0319166001600160a01b0390921691909117808255928401519394508493919260ff60a01b1916600160a01b83600381111561073b57634e487b7160e01b600052602160045260246000fd5b02179055506060820151805161075b9160028401916020909101906131d3565b50608082015180516107779160038401916020909101906131d3565b5060a082015180516107939160048401916020909101906131d3565b5060c082015160058201805460ff191691151591909117905560e082015160068201556101008201518051805160078401916107d4918391602001906131d3565b5060208281015180516107ed92600185019201906131d3565b50604082015180516108099160028401916020909101906131d3565b50606082015180516108259160038401916020909101906131d3565b50506006805460018101825560009182527ff652222313e28459528d920b65115c16c04f3efc82aaedc97be59f3f377c0d3f0180546001600160a01b031916331790556007805494509250905061087b83613d3b565b919050555061088a3384612a6f565b9b9a5050505050505050505050565b6060600060075467ffffffffffffffff8111156108c657634e487b7160e01b600052604160045260246000fd5b6040519080825280602002602001820160405280156108ff57816020015b6108ec61315d565b8152602001906001900390816108e45790505b50905060005b600754811015610e385760006006828154811061093257634e487b7160e01b600052603260045260246000fd5b60009182526020808320909101546001600160a01b039081168084526005835260409384902084516101208101865281548152600182015493841694810194909452909450919283019060ff600160a01b9091041660038111156109a657634e487b7160e01b600052602160045260246000fd5b60038111156109c557634e487b7160e01b600052602160045260246000fd5b81526020016002820180546109d990613d06565b80601f0160208091040260200160405190810160405280929190818152602001828054610a0590613d06565b8015610a525780601f10610a2757610100808354040283529160200191610a52565b820191906000526020600020905b815481529060010190602001808311610a3557829003601f168201915b50505050508152602001600382018054610a6b90613d06565b80601f0160208091040260200160405190810160405280929190818152602001828054610a9790613d06565b8015610ae45780601f10610ab957610100808354040283529160200191610ae4565b820191906000526020600020905b815481529060010190602001808311610ac757829003601f168201915b50505050508152602001600482018054610afd90613d06565b80601f0160208091040260200160405190810160405280929190818152602001828054610b2990613d06565b8015610b765780601f10610b4b57610100808354040283529160200191610b76565b820191906000526020600020905b815481529060010190602001808311610b5957829003601f168201915b5050509183525050600582015460ff1615156020820152600682015460408083019190915280516080810190915260078301805460609093019282908290610bbd90613d06565b80601f0160208091040260200160405190810160405280929190818152602001828054610be990613d06565b8015610c365780601f10610c0b57610100808354040283529160200191610c36565b820191906000526020600020905b815481529060010190602001808311610c1957829003601f168201915b50505050508152602001600182018054610c4f90613d06565b80601f0160208091040260200160405190810160405280929190818152602001828054610c7b90613d06565b8015610cc85780601f10610c9d57610100808354040283529160200191610cc8565b820191906000526020600020905b815481529060010190602001808311610cab57829003601f168201915b50505050508152602001600282018054610ce190613d06565b80601f0160208091040260200160405190810160405280929190818152602001828054610d0d90613d06565b8015610d5a5780601f10610d2f57610100808354040283529160200191610d5a565b820191906000526020600020905b815481529060010190602001808311610d3d57829003601f168201915b50505050508152602001600382018054610d7390613d06565b80601f0160208091040260200160405190810160405280929190818152602001828054610d9f90613d06565b8015610dec5780601f10610dc157610100808354040283529160200191610dec565b820191906000526020600020905b815481529060010190602001808311610dcf57829003601f168201915b50505050508152505081525050838381518110610e1957634e487b7160e01b600052603260045260246000fd5b6020026020010181905250508080610e3090613d3b565b915050610905565b50905090565b610e4661315d565b6001600160a01b038281166000908152600560209081526040918290208251610120810184528154815260018201549485169281019290925290929091830190600160a01b900460ff166003811115610eaf57634e487b7160e01b600052602160045260246000fd5b6003811115610ece57634e487b7160e01b600052602160045260246000fd5b8152602001600282018054610ee290613d06565b80601f0160208091040260200160405190810160405280929190818152602001828054610f0e90613d06565b8015610f5b5780601f10610f3057610100808354040283529160200191610f5b565b820191906000526020600020905b815481529060010190602001808311610f3e57829003601f168201915b50505050508152602001600382018054610f7490613d06565b80601f0160208091040260200160405190810160405280929190818152602001828054610fa090613d06565b8015610fed5780601f10610fc257610100808354040283529160200191610fed565b820191906000526020600020905b815481529060010190602001808311610fd057829003601f168201915b5050505050815260200160048201805461100690613d06565b80601f016020809104026020016040519081016040528092919081815260200182805461103290613d06565b801561107f5780601f106110545761010080835404028352916020019161107f565b820191906000526020600020905b81548152906001019060200180831161106257829003601f168201915b5050509183525050600582015460ff16151560208201526006820154604080830191909152805160808101909152600783018054606090930192829082906110c690613d06565b80601f01602080910402602001604051908101604052809291908181526020018280546110f290613d06565b801561113f5780601f106111145761010080835404028352916020019161113f565b820191906000526020600020905b81548152906001019060200180831161112257829003601f168201915b5050505050815260200160018201805461115890613d06565b80601f016020809104026020016040519081016040528092919081815260200182805461118490613d06565b80156111d15780601f106111a6576101008083540402835291602001916111d1565b820191906000526020600020905b8154815290600101906020018083116111b457829003601f168201915b505050505081526020016002820180546111ea90613d06565b80601f016020809104026020016040519081016040528092919081815260200182805461121690613d06565b80156112635780601f1061123857610100808354040283529160200191611263565b820191906000526020600020905b81548152906001019060200180831161124657829003601f168201915b5050505050815260200160038201805461127c90613d06565b80601f01602080910402602001604051908101604052809291908181526020018280546112a890613d06565b80156112f55780601f106112ca576101008083540402835291602001916112f5565b820191906000526020600020905b8154815290600101906020018083116112d857829003601f168201915b5050509190925250505090525092915050565b6000611313336126ae565b61135f5760405162461bcd60e51b815260206004820152601b60248201527f506c656173652072656769737465722061732070726f64756365720000000000604482015260640161063f565b3360009081526002602052604090206005015460ff16156113d95760405162461bcd60e51b815260206004820152602e60248201527f596f752068617665206120696e7370656374696f6e2072657175657374204f5060448201526d1153881bdc881050d0d15415115160921b606482015260840161063f565b6113e1612ad0565b50336000908152600260205260409020600501805460ff1916600190811790915590565b6001600160a01b0381166000908152600560205260408120600201805482919061142e90613d06565b9050119050919050565b6000611443336126ae565b156114905760405162461bcd60e51b815260206004820152601b60248201527f546869732070726f647563657220616c72656164792065786973740000000000604482015260640161063f565b60408051608081018252868152602080820187905281830186905260608201859052825180840184526000808252918101829052835161016081019094526004546001949192919081906114e49087613cee565b815233602082015260400185600381111561150f57634e487b7160e01b600052602160045260246000fd5b815260208082018f905260408083018f9052606083018e905260006080840181905260a0840181905260c0840181905260e08401879052610100909301879052338352600282529182902083518155908301516001820180546001600160a01b0319166001600160a01b0390921691909117808255928401519394508493919260ff60a01b1916600160a01b8360038111156115bb57634e487b7160e01b600052602160045260246000fd5b0217905550606082015180516115db9160028401916020909101906131d3565b50608082015180516115f79160038401916020909101906131d3565b5060a082015180516116139160048401916020909101906131d3565b5060c082015160058201805491151560ff1992831617905560e083015160068301556101008301516007830155610120830151805160088401556020908101516009840180549115159190931617909155610140830151805180519192600a85019261168292849201906131d3565b50602082810151805161169b92600185019201906131d3565b50604082015180516116b79160028401916020909101906131d3565b50606082015180516116d39160038401916020909101906131d3565b50506003805460018101825560009182527fc2575a0e9e593c00f959f8c92f12db2869c3395a3b0502d05e2516446f71f85b0180546001600160a01b031916331790556004805494509250905061172983613d3b565b91905055506117383385612a6f565b5060019b9a5050505050505050505050565b611752613257565b6001600160a01b038281166000908152600260209081526040918290208251610160810184528154815260018201549485169281019290925290929091830190600160a01b900460ff1660038111156117bb57634e487b7160e01b600052602160045260246000fd5b60038111156117da57634e487b7160e01b600052602160045260246000fd5b81526020016002820180546117ee90613d06565b80601f016020809104026020016040519081016040528092919081815260200182805461181a90613d06565b80156118675780601f1061183c57610100808354040283529160200191611867565b820191906000526020600020905b81548152906001019060200180831161184a57829003601f168201915b5050505050815260200160038201805461188090613d06565b80601f01602080910402602001604051908101604052809291908181526020018280546118ac90613d06565b80156118f95780601f106118ce576101008083540402835291602001916118f9565b820191906000526020600020905b8154815290600101906020018083116118dc57829003601f168201915b5050505050815260200160048201805461191290613d06565b80601f016020809104026020016040519081016040528092919081815260200182805461193e90613d06565b801561198b5780601f106119605761010080835404028352916020019161198b565b820191906000526020600020905b81548152906001019060200180831161196e57829003601f168201915b5050509183525050600582015460ff90811615156020808401919091526006840154604080850191909152600785015460608501528051808201825260088601548152600986015490931615159183019190915260808084019290925280519182019052600a8301805460a090930192829082906110c690613d06565b6000611a1333611405565b611a5f5760405162461bcd60e51b815260206004820152601b60248201527f506c656173652072656769737465722061732061637469766973740000000000604482015260640161063f565b6000838152600a6020526040902054839060011115611ac05760405162461bcd60e51b815260206004820152601c60248201527f5468697320696e7370656374696f6e20646f6e27742065786973747300000000604482015260640161063f565b611ac984612c32565b611b155760405162461bcd60e51b815260206004820152601d60248201527f416363657074207468697320696e7370656374696f6e206265666f7265000000604482015260640161063f565b6000848152600a60205260409020600201546001600160a01b03163314611b7e5760405162461bcd60e51b815260206004820181905260248201527f596f75206e6f74206163636570746564207468697320696e7370656374696f6e604482015260640161063f565b6000848152600a6020908152604080832081516101208101909252805482526001810154919290919083019060ff166003811115611bcc57634e487b7160e01b600052602160045260246000fd5b6003811115611beb57634e487b7160e01b600052602160045260246000fd5b815260018201546001600160a01b0361010090910481166020808401919091526002840154909116604080840191909152600384018054825181850281018501909352808352606090940193919290919060009084015b82821015611cae57600084815260209081902083018054604080518285028101850190915281815292830182828015611c9a57602002820191906000526020600020905b815481526020019060010190808311611c86575b505050505081526020019060010190611c42565b5050505081526020016004820154815260200160058201548152602001600682015481526020016007820154815250509050611cea8185612c71565b611cf381612d75565b60a08101516040808301516001600160a01b0316600090815260026020522060070155611d2681604001516107d0612feb565b506001949350505050565b6000611d3c33611405565b611d885760405162461bcd60e51b815260206004820152601b60248201527f506c656173652072656769737465722061732061637469766973740000000000604482015260640161063f565b6000828152600a6020526040902054829060011115611de95760405162461bcd60e51b815260206004820152601c60248201527f5468697320696e7370656374696f6e20646f6e27742065786973747300000000604482015260640161063f565b6000838152600a6020908152604080832081516101208101909252805482526001810154919290919083019060ff166003811115611e3757634e487b7160e01b600052602160045260246000fd5b6003811115611e5657634e487b7160e01b600052602160045260246000fd5b815260018201546001600160a01b0361010090910481166020808401919091526002840154909116604080840191909152600384018054825181850281018501909352808352606090940193919290919060009084015b82821015611f1957600084815260209081902083018054604080518285028101850190915281815292830182828015611f0557602002820191906000526020600020905b815481526020019060010190808311611ef1575b505050505081526020019060010190611ead565b505050908252506004820154602082015260058201546040820152600682015460608201526007909101546080909101529050600081602001516003811115611f7257634e487b7160e01b600052602160045260246000fd5b14611fbf5760405162461bcd60e51b815260206004820152601b60248201527f5468697320696e7370656374696f6e206973206e6f74204f50454e0000000000604482015260640161063f565b60036020828101828152426101008501523360608501526000878152600a9092526040909120835181559051600180830180548695919260ff199190911691849081111561201d57634e487b7160e01b600052602160045260246000fd5b02179055506040820151600182018054610100600160a81b0319166101006001600160a01b039384160217905560608301516002830180546001600160a01b03191691909216179055608082015180516120819160038401916020909101906132f3565b5060a0820151600482015560c082015160058083019190915560e083015160068301556101009092015160079091015533600090815260208290526040902001805460ff191660019081179091559250505b50919050565b6060600060045467ffffffffffffffff81111561210657634e487b7160e01b600052604160045260246000fd5b60405190808252806020026020018201604052801561213f57816020015b61212c613257565b8152602001906001900390816121245790505b50905060005b600454811015610e385760006003828154811061217257634e487b7160e01b600052603260045260246000fd5b60009182526020808320909101546001600160a01b039081168084526002835260409384902084516101608101865281548152600182015493841694810194909452909450919283019060ff600160a01b9091041660038111156121e657634e487b7160e01b600052602160045260246000fd5b600381111561220557634e487b7160e01b600052602160045260246000fd5b815260200160028201805461221990613d06565b80601f016020809104026020016040519081016040528092919081815260200182805461224590613d06565b80156122925780601f1061226757610100808354040283529160200191612292565b820191906000526020600020905b81548152906001019060200180831161227557829003601f168201915b505050505081526020016003820180546122ab90613d06565b80601f01602080910402602001604051908101604052809291908181526020018280546122d790613d06565b80156123245780601f106122f957610100808354040283529160200191612324565b820191906000526020600020905b81548152906001019060200180831161230757829003601f168201915b5050505050815260200160048201805461233d90613d06565b80601f016020809104026020016040519081016040528092919081815260200182805461236990613d06565b80156123b65780601f1061238b576101008083540402835291602001916123b6565b820191906000526020600020905b81548152906001019060200180831161239957829003601f168201915b5050509183525050600582015460ff90811615156020808401919091526006840154604080850191909152600785015460608501528051808201825260088601548152600986015490931615159183019190915260808084019290925280519182019052600a8301805460a0909301928290829061243390613d06565b80601f016020809104026020016040519081016040528092919081815260200182805461245f90613d06565b80156124ac5780601f10612481576101008083540402835291602001916124ac565b820191906000526020600020905b81548152906001019060200180831161248f57829003601f168201915b505050505081526020016001820180546124c590613d06565b80601f01602080910402602001604051908101604052809291908181526020018280546124f190613d06565b801561253e5780601f106125135761010080835404028352916020019161253e565b820191906000526020600020905b81548152906001019060200180831161252157829003601f168201915b5050505050815260200160028201805461255790613d06565b80601f016020809104026020016040519081016040528092919081815260200182805461258390613d06565b80156125d05780601f106125a5576101008083540402835291602001916125d0565b820191906000526020600020905b8154815290600101906020018083116125b357829003601f168201915b505050505081526020016003820180546125e990613d06565b80601f016020809104026020016040519081016040528092919081815260200182805461261590613d06565b80156126625780601f1061263757610100808354040283529160200191612662565b820191906000526020600020905b81548152906001019060200180831161264557829003601f168201915b5050505050815250508152505083838151811061268f57634e487b7160e01b600052603260045260246000fd5b60200260200101819052505080806126a690613d3b565b915050612145565b6001600160a01b0381166000908152600260208190526040822001805482919061142e90613d06565b60606000600b5467ffffffffffffffff81111561270457634e487b7160e01b600052604160045260246000fd5b60405190808252806020026020018201604052801561273d57816020015b61272a61334c565b8152602001906001900390816127225790505b50905060005b600b54811015610e3857600a600061275c836001613cee565b815260200190815260200160002060405180610120016040529081600082015481526020016001820160009054906101000a900460ff1660038111156127b257634e487b7160e01b600052602160045260246000fd5b60038111156127d157634e487b7160e01b600052602160045260246000fd5b815260018201546001600160a01b0361010090910481166020808401919091526002840154909116604080840191909152600384018054825181850281018501909352808352606090940193919290919060009084015b828210156128945760008481526020908190208301805460408051828502810185019091528181529283018282801561288057602002820191906000526020600020905b81548152602001906001019080831161286c575b505050505081526020019060010190612828565b5050505081526020016004820154815260200160058201548152602001600682015481526020016007820154815250508282815181106128e457634e487b7160e01b600052603260045260246000fd5b602002602001018190525080806128fa90613d3b565b915050612743565b61290a61334c565b6000828152600a602090815260409182902082516101208101909352805483526001810154909183019060ff16600381111561295657634e487b7160e01b600052602160045260246000fd5b600381111561297557634e487b7160e01b600052602160045260246000fd5b815260018201546001600160a01b0361010090910481166020808401919091526002840154909116604080840191909152600384018054825181850281018501909352808352606090940193919290919060009084015b82821015612a3857600084815260209081902083018054604080518285028101850190915281815292830182828015612a2457602002820191906000526020600020905b815481526020019060010190808311612a10575b5050505050815260200190600101906129cc565b5050505081526020016004820154815260200160058201548152602001600682015481526020016007820154815250509050919050565b6001600160a01b0382166000908152602081905260409020805482919060ff19166001836003811115612ab257634e487b7160e01b600052602160045260246000fd5b021790555060018054906000612ac783613d3b565b91905055505050565b6060600060085442612ae29190613cee565b90506000604051806101200160405280600b546001612b019190613cee565b8152602001600081523360208083018290526040808401929092526060830187905260006080840181905260a084018790524260c085015260e090930183905283518352600a815291208251815590820151600180830180549495508594909160ff1990911690836003811115612b8857634e487b7160e01b600052602160045260246000fd5b02179055506040820151600182018054610100600160a81b0319166101006001600160a01b039384160217905560608301516002830180546001600160a01b0319169190921617905560808201518051612bec9160038401916020909101906132f3565b5060a0820151600482015560c0820151600582015560e0820151600682015561010090910151600790910155600b8054906000612c2883613d3b565b9190505550505050565b600060036000838152600a602052604090206001015460ff166003811115612c6a57634e487b7160e01b600052602160045260246000fd5b1492915050565b608082018190526002602083015242610100830152612c8f82613063565b60a083015281516000908152600a602090815260409091208351815590830151600180830180548694939260ff1990911690836003811115612ce157634e487b7160e01b600052602160045260246000fd5b02179055506040820151600182018054610100600160a81b0319166101006001600160a01b039384160217905560608301516002830180546001600160a01b0319169190921617905560808201518051612d459160038401916020909101906132f3565b5060a0820151600482015560c0820151600582015560e08201516006820155610100909101516007909101555050565b60408082015160608301516001600160a01b038116600090815260056020819052938120938401805460ff19169055600690930180549293919291612db983613d3b565b90915550506001600160a01b038216600090815260026020526040812060058101805460ff19169055600601805491612df183613d3b565b90915550506001600160a01b0382166000908152600960209081526040822080546001818101835591845292829020865160089094020192835590850151828201805487949360ff1990911690836003811115612e5e57634e487b7160e01b600052602160045260246000fd5b02179055506040820151600182018054610100600160a81b0319166101006001600160a01b039384160217905560608301516002830180546001600160a01b0319169190921617905560808201518051612ec29160038401916020909101906132f3565b5060a0820151600482015560c0820151600582015560e08201516006820155610100909101516007909101556001600160a01b0381166000908152600960209081526040822080546001818101835591845292829020865160089094020192835590850151828201805487949360ff1990911690836003811115612f5657634e487b7160e01b600052602160045260246000fd5b02179055506040820151600182018054610100600160a81b0319166101006001600160a01b039384160217905560608301516002830180546001600160a01b0319169190921617905560808201518051612fba9160038401916020909101906132f3565b5060a0820151816004015560c0820151816005015560e0820151816006015561010082015181600701555050505050565b6001600160a01b03821660009081526002602052604090819020600801548151808301909252908061301d8484613cee565b8152600060209182018190526001600160a01b03959095168552600281526040909420815160088201559301516009909301805460ff1916931515939093179092555050565b6080810151600090816130758261307d565b949350505050565b6040805160a081018252600a81526005602082015260009181018290526004196060820152600919608082015281805b84518160ff161015613155576000858260ff16815181106130de57634e487b7160e01b600052603260045260246000fd5b602002602001015160018151811061310657634e487b7160e01b600052603260045260246000fd5b6020026020010151905083816005811061313057634e487b7160e01b600052603260045260246000fd5b602002015161313f9084613cad565b925050808061314d90613d56565b9150506130ad565b509392505050565b604080516101208101825260008082526020820181905290918201908152602001606081526020016060815260200160608152602001600015158152602001600081526020016131ce6040518060800160405280606081526020016060815260200160608152602001606081525090565b905290565b8280546131df90613d06565b90600052602060002090601f0160209004810192826132015760008555613247565b82601f1061321a57805160ff1916838001178555613247565b82800160010185558215613247579182015b8281111561324757825182559160200191906001019061322c565b506132539291506133ab565b5090565b60408051610160810182526000808252602082018190529091820190815260200160608152602001606081526020016060815260200160001515815260200160008152602001600081526020016132c36040518060400160405280600081526020016000151581525090565b81526020016131ce6040518060800160405280606081526020016060815260200160608152602001606081525090565b828054828255906000526020600020908101928215613340579160200282015b8281111561334057825180516133309184916020909101906133c0565b5091602001919060010190613313565b506132539291506133fa565b60408051610120810190915260008082526020820190815260200160006001600160a01b0316815260200160006001600160a01b0316815260200160608152602001600081526020016000815260200160008152602001600081525090565b5b8082111561325357600081556001016133ac565b828054828255906000526020600020908101928215613247579160200282018281111561324757825182559160200191906001019061322c565b8082111561325357600061340e8282613417565b506001016133fa565b508054600082559060005260206000209081019061343591906133ab565b50565b600082601f830112613448578081fd5b813567ffffffffffffffff81111561346257613462613d8c565b613475601f8201601f1916602001613c58565b818152846020838601011115613489578283fd5b816020850160208301379081016020019190915292915050565b6000602082840312156134b4578081fd5b81356001600160a01b03811681146134ca578182fd5b9392505050565b600080600080600080600060e0888a0312156134eb578283fd5b873567ffffffffffffffff80821115613502578485fd5b61350e8b838c01613438565b985060208a0135915080821115613523578485fd5b61352f8b838c01613438565b975060408a0135915080821115613544578485fd5b6135508b838c01613438565b965060608a0135915080821115613565578485fd5b6135718b838c01613438565b955060808a0135915080821115613586578485fd5b6135928b838c01613438565b945060a08a01359150808211156135a7578384fd5b6135b38b838c01613438565b935060c08a01359150808211156135c8578283fd5b506135d58a828b01613438565b91505092959891949750929550565b6000602082840312156135f5578081fd5b5035919050565b6000806040838503121561360e578182fd5b8235915060208084013567ffffffffffffffff81111561362c578283fd5b8401601f8101861361363c578283fd5b803561364f61364a82613c89565b613c58565b81815283810190838501865b848110156136dd57813586018b603f820112613675578889fd5b8781013561368561364a82613c89565b808282528a82019150604084018f60408d860287010111156136a5578c8dfd5b8c94505b838510156136c7578035835260019490940193918b01918b016136a9565b508752505050928601929086019060010161365b565b5096999098509650505050505050565b60008282518085526020808601955080818302840101818601855b8481101561375b57858303601f19018952815180518085529085019085850190895b818110156137465783518352928701929187019160010161372a565b50509985019993505090830190600101613708565b5090979650505050505050565b61377181613da2565b9052565b60008151808452815b8181101561379a5760208185018101518683018201520161377e565b818111156137ab5782602083870101525b50601f01601f19169290920160200192915050565b60008151608084526137d56080850182613775565b9050602083015184820360208601526137ee8282613775565b915050604083015184820360408601526138088282613775565b915050606083015184820360608601526138228282613775565b95945050505050565b600061012082518452602083015161384e60208601826001600160a01b03169052565b5060408301516138616040860182613768565b50606083015181606086015261387982860182613775565b915050608083015184820360808601526138938282613775565b91505060a083015184820360a08601526138ad8282613775565b91505060c08301516138c360c086018215159052565b5060e083015160e085015261010080840151858303828701526138e683826137c0565b9695505050505050565b600061012082518452602083015161390781613da2565b80602086015250604083015161392860408601826001600160a01b03169052565b50606083015161394360608601826001600160a01b03169052565b50608083015181608086015261395b828601826136ed565b91505060a083015160a085015260c083015160c085015260e083015160e08501526101008084015181860152508091505092915050565b60006101808251845260208301516139b560208601826001600160a01b03169052565b5060408301516139c86040860182613768565b5060608301518160608601526139e082860182613775565b915050608083015184820360808601526139fa8282613775565b91505060a083015184820360a0860152613a148282613775565b91505060c0830151613a2a60c086018215159052565b5060e0838101519085015261010080840151908501526101208084015180518287015260208101511515610140870152505061014083015184820361016086015261382282826137c0565b6000602080830181845280855180835260408601915060408482028701019250838701855b82811015613ac857603f19888603018452613ab685835161382b565b94509285019290850190600101613a9a565b5092979650505050505050565b6000602080830181845280855180835260408601915060408482028701019250838701855b82811015613ac857603f19888603018452613b168583516138f0565b94509285019290850190600101613afa565b6000602080830181845280855180835260408601915060408482028701019250838701855b82811015613ac857603f19888603018452613b69858351613992565b94509285019290850190600101613b4d565b60208101613b8883613da2565b91905290565b600060608252613ba16060830186613775565b8281036020840152613bb38186613775565b905082810360408401526138e68185613775565b600060808252613bda6080830187613775565b8281036020840152613bec8187613775565b90508281036040840152613c008186613775565b90508281036060840152613c148185613775565b979650505050505050565b6000602082526134ca602083018461382b565b6000602082526134ca60208301846138f0565b6000602082526134ca6020830184613992565b604051601f8201601f1916810167ffffffffffffffff81118282101715613c8157613c81613d8c565b604052919050565b600067ffffffffffffffff821115613ca357613ca3613d8c565b5060209081020190565b600080821280156001600160ff1b0384900385131615613ccf57613ccf613d76565b600160ff1b8390038412811615613ce857613ce8613d76565b50500190565b60008219821115613d0157613d01613d76565b500190565b600281046001821680613d1a57607f821691505b602082108114156120d357634e487b7160e01b600052602260045260246000fd5b6000600019821415613d4f57613d4f613d76565b5060010190565b600060ff821660ff811415613d6d57613d6d613d76565b60010192915050565b634e487b7160e01b600052601160045260246000fd5b634e487b7160e01b600052604160045260246000fd5b6004811061343557634e487b7160e01b600052602160045260246000fdfea264697066735822122063581c8cdf92dfe660530b19df02a4c5b75a18ba85f10f0e3ceb34d9116a6df864736f6c63430008020033",
  "immutableReferences": {},
  "source": "// SPDX-License-Identifier: GPL-3.0\npragma solidity >=0.7.0 <=0.9.0;\n\nimport \"./ProducerContract.sol\";\nimport \"./ActivistContract.sol\";\nimport \"./CategoryContract.sol\";\n\n/**\n * @title SintropContract\n * @dev Sintrop application to certificated a rural producer\n */\ncontract Sintrop is ProducerContract, ActivistContract {\n    enum InspectionStatus {\n        OPEN,\n        EXPIRED,\n        INSPECTED,\n        ACCEPTED\n    }\n    uint256 inspactionExpireIn = 604800;\n\n    struct Inspection {\n        uint256 id;\n        InspectionStatus status;\n        address producerWallet;\n        address activistWallet;\n        uint256[][] isas;\n        int256 isaPoints;\n        uint256 expiresIn;\n        uint256 createdAt;\n        uint256 updatedAt;\n    }\n    mapping(address => Inspection[]) userInspections;\n    mapping(uint256 => Inspection) inspections;\n    uint256 public inspectionsCount;\n\n    /**\n     * @dev Allows the current user producer/activist get all yours inspections with status INSPECTED\n     */\n    function getInspectionsHistory() public view returns (Inspection[] memory) {\n        return userInspections[msg.sender];\n    }\n\n    /**\n     * @dev Allows the current user (producer) request a inspection.\n     */\n    function requestInspection() public returns (bool) {\n        require(producerExists(msg.sender), \"Please register as producer\");\n        require(\n            !producers[msg.sender].recentInspection,\n            \"You have a inspection request OPEN or ACCEPTED\"\n        );\n\n        createRequest();\n        producers[msg.sender].recentInspection = true;\n\n        return true;\n    }\n\n    function createRequest() internal {\n        uint256[][] memory isas;\n        uint256 expiresIn = block.timestamp + inspactionExpireIn;\n        Inspection memory inspection = Inspection(\n            inspectionsCount + 1,\n            InspectionStatus.OPEN,\n            msg.sender,\n            msg.sender,\n            isas,\n            0,\n            expiresIn,\n            block.timestamp,\n            0\n        );\n        inspections[inspection.id] = inspection;\n        inspectionsCount++;\n    }\n\n    /**\n     * @dev Allows the current user (activist) accept a inspection.\n     * @param inspectionId The id of the inspection that the activist want accept.\n     */\n    function acceptInspection(uint256 inspectionId)\n        public\n        requireActivist\n        requireInspectionExists(inspectionId)\n        returns (bool)\n    {\n        Inspection memory inspection = inspections[inspectionId];\n\n        require(\n            inspection.status == InspectionStatus.OPEN,\n            \"This inspection is not OPEN\"\n        );\n\n        inspection.status = InspectionStatus.ACCEPTED;\n        inspection.updatedAt = block.timestamp;\n        inspection.activistWallet = msg.sender;\n        inspections[inspectionId] = inspection;\n\n        activists[msg.sender].recentInspection = true;\n\n        return true;\n    }\n\n    /**\n     * @dev Allow a activist realize a inspection and mark as INSPECTED\n     * @param inspectionId The id of the inspection to be realized\n     * @param isas The uint[][] of categoryId and isaIndex. Ex: isas = [ [categoryId, isaIndex], [categoryId, isaIndex] ]\n     */\n    function realizeInspection(uint256 inspectionId, uint256[][] memory isas)\n        public\n        requireActivist\n        requireInspectionExists(inspectionId)\n        returns (bool)\n    {\n        require(isAccepted(inspectionId), \"Accept this inspection before\");\n        require(\n            isActivistOwner(inspectionId),\n            \"You not accepted this inspection\"\n        );\n\n        Inspection memory inspection = inspections[inspectionId];\n\n        markAsRealized(inspection, isas);\n\n        afterRealizeInspection(inspection);\n\n        updateProducerIsa(inspection);\n\n        approveProducerNewTokens(inspection.producerWallet, 2000);\n\n        return true;\n    }\n\n    /**\n     * @dev Calculate the ISA of the inspection based in the category and the ISA level of the category\n     * @param inspection Receive the inspected inspection with your isas levels\n     */\n    function calculateIsa(Inspection memory inspection)\n        internal\n        pure\n        returns (int256)\n    {\n        uint256[][] memory isas = inspection.isas;\n        int256 isaPoints = sumIsaPoints(isas);\n        return isaPoints;\n    }\n\n    /**\n     * @dev Sum the ISA points\n     * @param isas The isas values as list of [[categoryId, isaIndex], [categoryId, isaIndex]]\n     */\n    function sumIsaPoints(uint256[][] memory isas)\n        internal\n        pure\n        returns (int256)\n    {\n        int256[5] memory points = [\n            int256(10),\n            int256(5),\n            int256(0),\n            int256(-5),\n            int256(-10)\n        ];\n        int256 isaPoints = 0;\n\n        for (uint8 i = 0; i < isas.length; i++) {\n            uint256 isaIndex = isas[i][1];\n            isaPoints += points[isaIndex];\n        }\n        return isaPoints;\n    }\n\n    function markAsRealized(\n        Inspection memory inspection,\n        uint256[][] memory isas\n    ) internal {\n        inspection.isas = isas;\n        inspection.status = InspectionStatus.INSPECTED;\n        inspection.updatedAt = block.timestamp;\n        inspection.isaPoints = calculateIsa(inspection);\n        inspections[inspection.id] = inspection;\n    }\n\n    function updateProducerIsa(Inspection memory inspection) internal {\n        producers[inspection.producerWallet].isaPoints = inspection.isaPoints;\n    }\n\n    /**\n     * @dev Returns a inspection by id if that exists.\n     * @param id The id of the inspection to return.\n     */\n    function getInspection(uint256 id) public view returns (Inspection memory) {\n        return inspections[id];\n    }\n\n    /**\n     * @dev Returns all requested inspections.\n     */\n    function getInspections() public view returns (Inspection[] memory) {\n        Inspection[] memory inspectionsList = new Inspection[](\n            inspectionsCount\n        );\n\n        for (uint256 i = 0; i < inspectionsCount; i++) {\n            inspectionsList[i] = inspections[i + 1];\n        }\n\n        return inspectionsList;\n    }\n\n    /**\n     * @dev Returns all inpections status string.\n     */\n    function getInspectionsStatus()\n        public\n        pure\n        returns (\n            string memory,\n            string memory,\n            string memory,\n            string memory\n        )\n    {\n        return (\"OPEN\", \"EXPIRED\", \"INSPECTED\", \"ACCEPTED\");\n    }\n\n    /**\n     * @dev Check if an inspections exists in mapping.\n     * @param id The id of the inspection that the activist want accept.\n     */\n    function inspectionExists(uint256 id) public view returns (bool) {\n        return inspections[id].id >= 1;\n    }\n\n    /**\n     * @dev Inscrement producer and activist request action and mark both as no recent open requests and inspection\n     * @param inspection the inspected inspection\n     */\n    function afterRealizeInspection(Inspection memory inspection) internal {\n        address producerWallet = inspection.producerWallet;\n        address activistWallet = inspection.activistWallet;\n\n        // Increment actvist inspections and release to carry out new inspections\n        activists[activistWallet].recentInspection = false;\n        activists[activistWallet].totalInspections++;\n\n        // Increment producer requests and release to carry out new requests\n        producers[producerWallet].recentInspection = false;\n        producers[producerWallet].totalRequests++;\n\n        userInspections[producerWallet].push(inspection);\n        userInspections[activistWallet].push(inspection);\n    }\n\n    function isActivistOwner(uint256 inspectionId)\n        internal\n        view\n        returns (bool)\n    {\n        return inspections[inspectionId].activistWallet == msg.sender;\n    }\n\n    function isAccepted(uint256 inspectionId) internal view returns (bool) {\n        return inspections[inspectionId].status == InspectionStatus.ACCEPTED;\n    }\n\n    // MODIFIERS\n    modifier requireActivist() {\n        require(activistExists(msg.sender), \"Please register as activist\");\n        _;\n    }\n\n    modifier requireInspectionExists(uint256 inspectionId) {\n        require(inspectionExists(inspectionId), \"This inspection don't exists\");\n        _;\n    }\n}\n",
  "sourcePath": "/home/everson/Documents/projetos/sintrop/SAT-core-contracts/contracts/Sintrop.sol",
  "compiler": {
    "name": "solc",
    "version": "0.8.2+commit.661d1103.Emscripten.clang"
  },
  "schemaVersion": "3.4.6",
  "updatedAt": "2022-04-02T18:06:16.876Z",
  "devdoc": {
    "details": "Sintrop application to certificated a rural producer",
    "kind": "dev",
    "methods": {
      "acceptInspection(uint256)": {
        "details": "Allows the current user (activist) accept a inspection.",
        "params": {
          "inspectionId": "The id of the inspection that the activist want accept."
        }
      },
      "activistExists(address)": {
        "details": "Check if a specific activist exists",
        "returns": {
          "_0": "a bool that represent if a activist exists or not"
        }
      },
      "addActivist(string,string,string,string,string,string,string)": {
        "details": "Allow a new register of activist",
        "params": {
          "cep": "the cep of the activist",
          "city": "the of the activist",
          "country": "the country where the activist is",
          "document": "the document of activist",
          "documentType": "the document type type of activist. CPF/CNPJ",
          "name": "the name of the activist",
          "state": "the state of the activist"
        },
        "returns": {
          "_0": "a Activist"
        }
      },
      "addProducer(string,string,string,string,string,string,string)": {
        "details": "Allow a new register of producer",
        "params": {
          "cep": "the cep of the producer",
          "city": "the of the producer",
          "country": "the country where the producer is",
          "document": "the document of producer",
          "documentType": "the document type type of producer. CPF/CNPJ",
          "name": "the name of the producer",
          "state": "the state of the producer"
        }
      },
      "getActivist(address)": {
        "details": "Return a specific activist",
        "params": {
          "addr": "the address of the activist."
        }
      },
      "getActivists()": {
        "details": "Returns all registered activists",
        "returns": {
          "_0": "Activist struct array"
        }
      },
      "getInspection(uint256)": {
        "details": "Returns a inspection by id if that exists.",
        "params": {
          "id": "The id of the inspection to return."
        }
      },
      "getInspections()": {
        "details": "Returns all requested inspections."
      },
      "getInspectionsHistory()": {
        "details": "Allows the current user producer/activist get all yours inspections with status INSPECTED"
      },
      "getInspectionsStatus()": {
        "details": "Returns all inpections status string."
      },
      "getProducer(address)": {
        "details": "Return a specific producer",
        "params": {
          "addr": "the address of the producer."
        }
      },
      "getProducers()": {
        "details": "Returns all registered producers",
        "returns": {
          "_0": "Producer struct array"
        }
      },
      "getUser(address)": {
        "details": "Returns the user type if the user is registered",
        "params": {
          "addr": "the user address that want check if exists"
        }
      },
      "getUserTypes()": {
        "details": "Returns the enum UserType of the system"
      },
      "inspectionExists(uint256)": {
        "details": "Check if an inspections exists in mapping.",
        "params": {
          "id": "The id of the inspection that the activist want accept."
        }
      },
      "producerExists(address)": {
        "details": "Check if a specific producer exists",
        "returns": {
          "_0": "a bool that represent if a producer exists or not"
        }
      },
      "realizeInspection(uint256,uint256[][])": {
        "details": "Allow a activist realize a inspection and mark as INSPECTED",
        "params": {
          "inspectionId": "The id of the inspection to be realized",
          "isas": "The uint[][] of categoryId and isaIndex. Ex: isas = [ [categoryId, isaIndex], [categoryId, isaIndex] ]"
        }
      },
      "requestInspection()": {
        "details": "Allows the current user (producer) request a inspection."
      }
    },
    "title": "SintropContract",
    "version": 1
  },
  "userdoc": {
    "kind": "user",
    "methods": {},
    "version": 1
  }
}