{
  "contractName": "Sintrop",
  "abi": [
    {
      "inputs": [
        {
          "internalType": "address",
          "name": "addr",
          "type": "address"
        }
      ],
      "name": "activistExists",
      "outputs": [
        {
          "internalType": "bool",
          "name": "",
          "type": "bool"
        }
      ],
      "stateMutability": "view",
      "type": "function"
    },
    {
      "inputs": [],
      "name": "activistsCount",
      "outputs": [
        {
          "internalType": "uint256",
          "name": "",
          "type": "uint256"
        }
      ],
      "stateMutability": "view",
      "type": "function"
    },
    {
      "inputs": [
        {
          "internalType": "string",
          "name": "name",
          "type": "string"
        },
        {
          "internalType": "string",
          "name": "document",
          "type": "string"
        },
        {
          "internalType": "string",
          "name": "documentType",
          "type": "string"
        },
        {
          "internalType": "string",
          "name": "country",
          "type": "string"
        },
        {
          "internalType": "string",
          "name": "state",
          "type": "string"
        },
        {
          "internalType": "string",
          "name": "city",
          "type": "string"
        },
        {
          "internalType": "string",
          "name": "cep",
          "type": "string"
        }
      ],
      "name": "addActivist",
      "outputs": [
        {
          "components": [
            {
              "internalType": "uint256",
              "name": "id",
              "type": "uint256"
            },
            {
              "internalType": "address",
              "name": "activistWallet",
              "type": "address"
            },
            {
              "internalType": "enum UserContract.UserType",
              "name": "userType",
              "type": "uint8"
            },
            {
              "internalType": "string",
              "name": "name",
              "type": "string"
            },
            {
              "internalType": "string",
              "name": "document",
              "type": "string"
            },
            {
              "internalType": "string",
              "name": "documentType",
              "type": "string"
            },
            {
              "internalType": "bool",
              "name": "recentInspection",
              "type": "bool"
            },
            {
              "internalType": "uint256",
              "name": "totalInspections",
              "type": "uint256"
            },
            {
              "components": [
                {
                  "internalType": "string",
                  "name": "country",
                  "type": "string"
                },
                {
                  "internalType": "string",
                  "name": "state",
                  "type": "string"
                },
                {
                  "internalType": "string",
                  "name": "city",
                  "type": "string"
                },
                {
                  "internalType": "string",
                  "name": "cep",
                  "type": "string"
                }
              ],
              "internalType": "struct ActivistContract.ActivistAddress",
              "name": "activistAddress",
              "type": "tuple"
            }
          ],
          "internalType": "struct ActivistContract.Activist",
          "name": "",
          "type": "tuple"
        }
      ],
      "stateMutability": "nonpayable",
      "type": "function"
    },
    {
      "inputs": [
        {
          "internalType": "string",
          "name": "name",
          "type": "string"
        },
        {
          "internalType": "string",
          "name": "description",
          "type": "string"
        },
        {
          "internalType": "string",
          "name": "totallySustainable",
          "type": "string"
        },
        {
          "internalType": "string",
          "name": "partiallySustainable",
          "type": "string"
        },
        {
          "internalType": "string",
          "name": "neutro",
          "type": "string"
        },
        {
          "internalType": "string",
          "name": "partiallyNotSustainable",
          "type": "string"
        },
        {
          "internalType": "string",
          "name": "totallyNotSustainable",
          "type": "string"
        }
      ],
      "name": "addCategory",
      "outputs": [
        {
          "internalType": "bool",
          "name": "",
          "type": "bool"
        }
      ],
      "stateMutability": "nonpayable",
      "type": "function"
    },
    {
      "inputs": [
        {
          "internalType": "string",
          "name": "name",
          "type": "string"
        },
        {
          "internalType": "string",
          "name": "document",
          "type": "string"
        },
        {
          "internalType": "string",
          "name": "documentType",
          "type": "string"
        },
        {
          "internalType": "string",
          "name": "country",
          "type": "string"
        },
        {
          "internalType": "string",
          "name": "state",
          "type": "string"
        },
        {
          "internalType": "string",
          "name": "city",
          "type": "string"
        },
        {
          "internalType": "string",
          "name": "cep",
          "type": "string"
        }
      ],
      "name": "addProducer",
      "outputs": [
        {
          "internalType": "bool",
          "name": "",
          "type": "bool"
        }
      ],
      "stateMutability": "nonpayable",
      "type": "function"
    },
    {
      "inputs": [
        {
          "internalType": "uint256",
          "name": "",
          "type": "uint256"
        }
      ],
      "name": "categories",
      "outputs": [
        {
          "internalType": "uint256",
          "name": "id",
          "type": "uint256"
        },
        {
          "internalType": "address",
          "name": "createdBy",
          "type": "address"
        },
        {
          "internalType": "string",
          "name": "name",
          "type": "string"
        },
        {
          "internalType": "string",
          "name": "description",
          "type": "string"
        },
        {
          "internalType": "string",
          "name": "totallySustainable",
          "type": "string"
        },
        {
          "internalType": "string",
          "name": "partiallySustainable",
          "type": "string"
        },
        {
          "internalType": "string",
          "name": "neutro",
          "type": "string"
        },
        {
          "internalType": "string",
          "name": "partiallyNotSustainable",
          "type": "string"
        },
        {
          "internalType": "string",
          "name": "totallyNotSustainable",
          "type": "string"
        },
        {
          "internalType": "uint256",
          "name": "votesCount",
          "type": "uint256"
        },
        {
          "internalType": "uint256",
          "name": "index",
          "type": "uint256"
        }
      ],
      "stateMutability": "view",
      "type": "function"
    },
    {
      "inputs": [],
      "name": "category",
      "outputs": [
        {
          "internalType": "uint256",
          "name": "id",
          "type": "uint256"
        },
        {
          "internalType": "address",
          "name": "createdBy",
          "type": "address"
        },
        {
          "internalType": "string",
          "name": "name",
          "type": "string"
        },
        {
          "internalType": "string",
          "name": "description",
          "type": "string"
        },
        {
          "internalType": "string",
          "name": "totallySustainable",
          "type": "string"
        },
        {
          "internalType": "string",
          "name": "partiallySustainable",
          "type": "string"
        },
        {
          "internalType": "string",
          "name": "neutro",
          "type": "string"
        },
        {
          "internalType": "string",
          "name": "partiallyNotSustainable",
          "type": "string"
        },
        {
          "internalType": "string",
          "name": "totallyNotSustainable",
          "type": "string"
        },
        {
          "internalType": "uint256",
          "name": "votesCount",
          "type": "uint256"
        },
        {
          "internalType": "uint256",
          "name": "index",
          "type": "uint256"
        }
      ],
      "stateMutability": "view",
      "type": "function"
    },
    {
      "inputs": [],
      "name": "categoryCounts",
      "outputs": [
        {
          "internalType": "uint256",
          "name": "",
          "type": "uint256"
        }
      ],
      "stateMutability": "view",
      "type": "function"
    },
    {
      "inputs": [
        {
          "internalType": "address",
          "name": "addr",
          "type": "address"
        }
      ],
      "name": "getActivist",
      "outputs": [
        {
          "components": [
            {
              "internalType": "uint256",
              "name": "id",
              "type": "uint256"
            },
            {
              "internalType": "address",
              "name": "activistWallet",
              "type": "address"
            },
            {
              "internalType": "enum UserContract.UserType",
              "name": "userType",
              "type": "uint8"
            },
            {
              "internalType": "string",
              "name": "name",
              "type": "string"
            },
            {
              "internalType": "string",
              "name": "document",
              "type": "string"
            },
            {
              "internalType": "string",
              "name": "documentType",
              "type": "string"
            },
            {
              "internalType": "bool",
              "name": "recentInspection",
              "type": "bool"
            },
            {
              "internalType": "uint256",
              "name": "totalInspections",
              "type": "uint256"
            },
            {
              "components": [
                {
                  "internalType": "string",
                  "name": "country",
                  "type": "string"
                },
                {
                  "internalType": "string",
                  "name": "state",
                  "type": "string"
                },
                {
                  "internalType": "string",
                  "name": "city",
                  "type": "string"
                },
                {
                  "internalType": "string",
                  "name": "cep",
                  "type": "string"
                }
              ],
              "internalType": "struct ActivistContract.ActivistAddress",
              "name": "activistAddress",
              "type": "tuple"
            }
          ],
          "internalType": "struct ActivistContract.Activist",
          "name": "",
          "type": "tuple"
        }
      ],
      "stateMutability": "view",
      "type": "function"
    },
    {
      "inputs": [],
      "name": "getActivists",
      "outputs": [
        {
          "components": [
            {
              "internalType": "uint256",
              "name": "id",
              "type": "uint256"
            },
            {
              "internalType": "address",
              "name": "activistWallet",
              "type": "address"
            },
            {
              "internalType": "enum UserContract.UserType",
              "name": "userType",
              "type": "uint8"
            },
            {
              "internalType": "string",
              "name": "name",
              "type": "string"
            },
            {
              "internalType": "string",
              "name": "document",
              "type": "string"
            },
            {
              "internalType": "string",
              "name": "documentType",
              "type": "string"
            },
            {
              "internalType": "bool",
              "name": "recentInspection",
              "type": "bool"
            },
            {
              "internalType": "uint256",
              "name": "totalInspections",
              "type": "uint256"
            },
            {
              "components": [
                {
                  "internalType": "string",
                  "name": "country",
                  "type": "string"
                },
                {
                  "internalType": "string",
                  "name": "state",
                  "type": "string"
                },
                {
                  "internalType": "string",
                  "name": "city",
                  "type": "string"
                },
                {
                  "internalType": "string",
                  "name": "cep",
                  "type": "string"
                }
              ],
              "internalType": "struct ActivistContract.ActivistAddress",
              "name": "activistAddress",
              "type": "tuple"
            }
          ],
          "internalType": "struct ActivistContract.Activist[]",
          "name": "",
          "type": "tuple[]"
        }
      ],
      "stateMutability": "view",
      "type": "function"
    },
    {
      "inputs": [],
      "name": "getCategories",
      "outputs": [
        {
          "components": [
            {
              "internalType": "uint256",
              "name": "id",
              "type": "uint256"
            },
            {
              "internalType": "address",
              "name": "createdBy",
              "type": "address"
            },
            {
              "internalType": "string",
              "name": "name",
              "type": "string"
            },
            {
              "internalType": "string",
              "name": "description",
              "type": "string"
            },
            {
              "internalType": "string",
              "name": "totallySustainable",
              "type": "string"
            },
            {
              "internalType": "string",
              "name": "partiallySustainable",
              "type": "string"
            },
            {
              "internalType": "string",
              "name": "neutro",
              "type": "string"
            },
            {
              "internalType": "string",
              "name": "partiallyNotSustainable",
              "type": "string"
            },
            {
              "internalType": "string",
              "name": "totallyNotSustainable",
              "type": "string"
            },
            {
              "internalType": "uint256",
              "name": "votesCount",
              "type": "uint256"
            },
            {
              "internalType": "uint256",
              "name": "index",
              "type": "uint256"
            }
          ],
          "internalType": "struct CategoryContract.Category[]",
          "name": "",
          "type": "tuple[]"
        }
      ],
      "stateMutability": "view",
      "type": "function"
    },
    {
      "inputs": [
        {
          "internalType": "address",
          "name": "addr",
          "type": "address"
        }
      ],
      "name": "getProducer",
      "outputs": [
        {
          "components": [
            {
              "internalType": "uint256",
              "name": "id",
              "type": "uint256"
            },
            {
              "internalType": "address",
              "name": "producer_wallet",
              "type": "address"
            },
            {
              "internalType": "enum UserContract.UserType",
              "name": "userType",
              "type": "uint8"
            },
            {
              "internalType": "string",
              "name": "name",
              "type": "string"
            },
            {
              "internalType": "string",
              "name": "document",
              "type": "string"
            },
            {
              "internalType": "string",
              "name": "documentType",
              "type": "string"
            },
            {
              "internalType": "bool",
              "name": "recentInspection",
              "type": "bool"
            },
            {
              "internalType": "uint256",
              "name": "totalRequests",
              "type": "uint256"
            },
            {
              "internalType": "int256",
              "name": "isaPoints",
              "type": "int256"
            },
            {
              "components": [
                {
                  "internalType": "uint256",
                  "name": "allowed",
                  "type": "uint256"
                },
                {
                  "internalType": "bool",
                  "name": "withdrewToken",
                  "type": "bool"
                }
              ],
              "internalType": "struct ProducerContract.TokenApprove",
              "name": "tokenApprove",
              "type": "tuple"
            },
            {
              "components": [
                {
                  "internalType": "string",
                  "name": "country",
                  "type": "string"
                },
                {
                  "internalType": "string",
                  "name": "state",
                  "type": "string"
                },
                {
                  "internalType": "string",
                  "name": "city",
                  "type": "string"
                },
                {
                  "internalType": "string",
                  "name": "cep",
                  "type": "string"
                }
              ],
              "internalType": "struct ProducerContract.PropertyAddress",
              "name": "property_address",
              "type": "tuple"
            }
          ],
          "internalType": "struct ProducerContract.Producer",
          "name": "producer",
          "type": "tuple"
        }
      ],
      "stateMutability": "view",
      "type": "function"
    },
    {
      "inputs": [
        {
          "internalType": "address",
          "name": "address_",
          "type": "address"
        }
      ],
      "name": "getProducerApprove",
      "outputs": [
        {
          "internalType": "uint256",
          "name": "",
          "type": "uint256"
        }
      ],
      "stateMutability": "view",
      "type": "function"
    },
    {
      "inputs": [],
      "name": "getProducers",
      "outputs": [
        {
          "components": [
            {
              "internalType": "uint256",
              "name": "id",
              "type": "uint256"
            },
            {
              "internalType": "address",
              "name": "producer_wallet",
              "type": "address"
            },
            {
              "internalType": "enum UserContract.UserType",
              "name": "userType",
              "type": "uint8"
            },
            {
              "internalType": "string",
              "name": "name",
              "type": "string"
            },
            {
              "internalType": "string",
              "name": "document",
              "type": "string"
            },
            {
              "internalType": "string",
              "name": "documentType",
              "type": "string"
            },
            {
              "internalType": "bool",
              "name": "recentInspection",
              "type": "bool"
            },
            {
              "internalType": "uint256",
              "name": "totalRequests",
              "type": "uint256"
            },
            {
              "internalType": "int256",
              "name": "isaPoints",
              "type": "int256"
            },
            {
              "components": [
                {
                  "internalType": "uint256",
                  "name": "allowed",
                  "type": "uint256"
                },
                {
                  "internalType": "bool",
                  "name": "withdrewToken",
                  "type": "bool"
                }
              ],
              "internalType": "struct ProducerContract.TokenApprove",
              "name": "tokenApprove",
              "type": "tuple"
            },
            {
              "components": [
                {
                  "internalType": "string",
                  "name": "country",
                  "type": "string"
                },
                {
                  "internalType": "string",
                  "name": "state",
                  "type": "string"
                },
                {
                  "internalType": "string",
                  "name": "city",
                  "type": "string"
                },
                {
                  "internalType": "string",
                  "name": "cep",
                  "type": "string"
                }
              ],
              "internalType": "struct ProducerContract.PropertyAddress",
              "name": "property_address",
              "type": "tuple"
            }
          ],
          "internalType": "struct ProducerContract.Producer[]",
          "name": "",
          "type": "tuple[]"
        }
      ],
      "stateMutability": "view",
      "type": "function"
    },
    {
      "inputs": [
        {
          "internalType": "address",
          "name": "addr",
          "type": "address"
        }
      ],
      "name": "getUser",
      "outputs": [
        {
          "internalType": "enum UserContract.UserType",
          "name": "",
          "type": "uint8"
        }
      ],
      "stateMutability": "view",
      "type": "function"
    },
    {
      "inputs": [],
      "name": "getUserTypes",
      "outputs": [
        {
          "internalType": "string",
          "name": "",
          "type": "string"
        },
        {
          "internalType": "string",
          "name": "",
          "type": "string"
        },
        {
          "internalType": "string",
          "name": "",
          "type": "string"
        }
      ],
      "stateMutability": "pure",
      "type": "function"
    },
    {
      "inputs": [],
      "name": "inspectionsCount",
      "outputs": [
        {
          "internalType": "uint256",
          "name": "",
          "type": "uint256"
        }
      ],
      "stateMutability": "view",
      "type": "function"
    },
    {
      "inputs": [
        {
          "internalType": "address",
          "name": "addr",
          "type": "address"
        }
      ],
      "name": "producerExists",
      "outputs": [
        {
          "internalType": "bool",
          "name": "",
          "type": "bool"
        }
      ],
      "stateMutability": "view",
      "type": "function"
    },
    {
      "inputs": [],
      "name": "producersCount",
      "outputs": [
        {
          "internalType": "uint256",
          "name": "",
          "type": "uint256"
        }
      ],
      "stateMutability": "view",
      "type": "function"
    },
    {
      "inputs": [
        {
          "internalType": "uint256",
          "name": "",
          "type": "uint256"
        }
      ],
      "name": "producersList",
      "outputs": [
        {
          "internalType": "uint256",
          "name": "id",
          "type": "uint256"
        },
        {
          "internalType": "address",
          "name": "producer_wallet",
          "type": "address"
        },
        {
          "internalType": "enum UserContract.UserType",
          "name": "userType",
          "type": "uint8"
        },
        {
          "internalType": "string",
          "name": "name",
          "type": "string"
        },
        {
          "internalType": "string",
          "name": "document",
          "type": "string"
        },
        {
          "internalType": "string",
          "name": "documentType",
          "type": "string"
        },
        {
          "internalType": "bool",
          "name": "recentInspection",
          "type": "bool"
        },
        {
          "internalType": "uint256",
          "name": "totalRequests",
          "type": "uint256"
        },
        {
          "internalType": "int256",
          "name": "isaPoints",
          "type": "int256"
        },
        {
          "components": [
            {
              "internalType": "uint256",
              "name": "allowed",
              "type": "uint256"
            },
            {
              "internalType": "bool",
              "name": "withdrewToken",
              "type": "bool"
            }
          ],
          "internalType": "struct ProducerContract.TokenApprove",
          "name": "tokenApprove",
          "type": "tuple"
        },
        {
          "components": [
            {
              "internalType": "string",
              "name": "country",
              "type": "string"
            },
            {
              "internalType": "string",
              "name": "state",
              "type": "string"
            },
            {
              "internalType": "string",
              "name": "city",
              "type": "string"
            },
            {
              "internalType": "string",
              "name": "cep",
              "type": "string"
            }
          ],
          "internalType": "struct ProducerContract.PropertyAddress",
          "name": "property_address",
          "type": "tuple"
        }
      ],
      "stateMutability": "view",
      "type": "function"
    },
    {
      "inputs": [],
      "name": "usersCount",
      "outputs": [
        {
          "internalType": "uint256",
          "name": "",
          "type": "uint256"
        }
      ],
      "stateMutability": "view",
      "type": "function"
    },
    {
      "inputs": [
        {
          "internalType": "uint256",
          "name": "id",
          "type": "uint256"
        }
      ],
      "name": "vote",
      "outputs": [
        {
          "internalType": "bool",
          "name": "",
          "type": "bool"
        }
      ],
      "stateMutability": "nonpayable",
      "type": "function"
    },
    {
      "inputs": [],
      "name": "getInspectionsHistory",
      "outputs": [
        {
          "components": [
            {
              "internalType": "uint256",
              "name": "id",
              "type": "uint256"
            },
            {
              "internalType": "enum Sintrop.InspectionStatus",
              "name": "status",
              "type": "uint8"
            },
            {
              "internalType": "address",
              "name": "producerWallet",
              "type": "address"
            },
            {
              "internalType": "address",
              "name": "activistWallet",
              "type": "address"
            },
            {
              "internalType": "uint256[][]",
              "name": "isas",
              "type": "uint256[][]"
            },
            {
              "internalType": "int256",
              "name": "isaPoints",
              "type": "int256"
            },
            {
              "internalType": "uint256",
              "name": "expiresIn",
              "type": "uint256"
            },
            {
              "internalType": "uint256",
              "name": "createdAt",
              "type": "uint256"
            },
            {
              "internalType": "uint256",
              "name": "updatedAt",
              "type": "uint256"
            },
            {
              "internalType": "uint256",
              "name": "index",
              "type": "uint256"
            }
          ],
          "internalType": "struct Sintrop.Inspection[]",
          "name": "",
          "type": "tuple[]"
        }
      ],
      "stateMutability": "view",
      "type": "function"
    },
    {
      "inputs": [],
      "name": "requestInspection",
      "outputs": [
        {
          "internalType": "bool",
          "name": "",
          "type": "bool"
        }
      ],
      "stateMutability": "nonpayable",
      "type": "function"
    },
    {
      "inputs": [
        {
          "internalType": "uint256",
          "name": "inspectionId",
          "type": "uint256"
        }
      ],
      "name": "acceptInspection",
      "outputs": [
        {
          "internalType": "bool",
          "name": "",
          "type": "bool"
        }
      ],
      "stateMutability": "nonpayable",
      "type": "function"
    },
    {
      "inputs": [
        {
          "internalType": "uint256",
          "name": "inspectionId",
          "type": "uint256"
        },
        {
          "internalType": "uint256[][]",
          "name": "isas",
          "type": "uint256[][]"
        }
      ],
      "name": "realizeInspection",
      "outputs": [
        {
          "internalType": "bool",
          "name": "",
          "type": "bool"
        }
      ],
      "stateMutability": "nonpayable",
      "type": "function"
    },
    {
      "inputs": [
        {
          "internalType": "uint256",
          "name": "id",
          "type": "uint256"
        }
      ],
      "name": "getInspection",
      "outputs": [
        {
          "components": [
            {
              "internalType": "uint256",
              "name": "id",
              "type": "uint256"
            },
            {
              "internalType": "enum Sintrop.InspectionStatus",
              "name": "status",
              "type": "uint8"
            },
            {
              "internalType": "address",
              "name": "producerWallet",
              "type": "address"
            },
            {
              "internalType": "address",
              "name": "activistWallet",
              "type": "address"
            },
            {
              "internalType": "uint256[][]",
              "name": "isas",
              "type": "uint256[][]"
            },
            {
              "internalType": "int256",
              "name": "isaPoints",
              "type": "int256"
            },
            {
              "internalType": "uint256",
              "name": "expiresIn",
              "type": "uint256"
            },
            {
              "internalType": "uint256",
              "name": "createdAt",
              "type": "uint256"
            },
            {
              "internalType": "uint256",
              "name": "updatedAt",
              "type": "uint256"
            },
            {
              "internalType": "uint256",
              "name": "index",
              "type": "uint256"
            }
          ],
          "internalType": "struct Sintrop.Inspection",
          "name": "",
          "type": "tuple"
        }
      ],
      "stateMutability": "view",
      "type": "function"
    },
    {
      "inputs": [],
      "name": "getInspections",
      "outputs": [
        {
          "components": [
            {
              "internalType": "uint256",
              "name": "id",
              "type": "uint256"
            },
            {
              "internalType": "enum Sintrop.InspectionStatus",
              "name": "status",
              "type": "uint8"
            },
            {
              "internalType": "address",
              "name": "producerWallet",
              "type": "address"
            },
            {
              "internalType": "address",
              "name": "activistWallet",
              "type": "address"
            },
            {
              "internalType": "uint256[][]",
              "name": "isas",
              "type": "uint256[][]"
            },
            {
              "internalType": "int256",
              "name": "isaPoints",
              "type": "int256"
            },
            {
              "internalType": "uint256",
              "name": "expiresIn",
              "type": "uint256"
            },
            {
              "internalType": "uint256",
              "name": "createdAt",
              "type": "uint256"
            },
            {
              "internalType": "uint256",
              "name": "updatedAt",
              "type": "uint256"
            },
            {
              "internalType": "uint256",
              "name": "index",
              "type": "uint256"
            }
          ],
          "internalType": "struct Sintrop.Inspection[]",
          "name": "",
          "type": "tuple[]"
        }
      ],
      "stateMutability": "view",
      "type": "function"
    },
    {
      "inputs": [],
      "name": "getInspectionsStatus",
      "outputs": [
        {
          "internalType": "string",
          "name": "",
          "type": "string"
        },
        {
          "internalType": "string",
          "name": "",
          "type": "string"
        },
        {
          "internalType": "string",
          "name": "",
          "type": "string"
        },
        {
          "internalType": "string",
          "name": "",
          "type": "string"
        }
      ],
      "stateMutability": "pure",
      "type": "function"
    },
    {
      "inputs": [
        {
          "internalType": "uint256",
          "name": "id",
          "type": "uint256"
        }
      ],
      "name": "inspectionExists",
      "outputs": [
        {
          "internalType": "bool",
          "name": "",
          "type": "bool"
        }
      ],
      "stateMutability": "view",
      "type": "function"
    }
  ],
  "bytecode": "0x608060405262093a8060165534801561001757600080fd5b506159ea80620000286000396000f3fe608060405234801561001057600080fd5b50600436106101da5760003560e01c80638cf0544211610104578063e53142e2116100a2578063ee699fc111610071578063ee699fc114610505578063ef430aa61461050d578063f283667014610515578063fe5a4fa414610535576101da565b8063e53142e2146104c1578063e7857502146104ca578063e80a7eb9146104dd578063e9e797ac146104f2576101da565b8063aab147b2116100de578063aab147b2146103e4578063b92bd2d914610404578063c6cdbe5e14610417578063dd6850c614610441576101da565b80638cf05442146103925780638ed5540d146103be578063a1c24d64146103d1576101da565b80635401c1f21161017c5780636f77926b1161014b5780636f77926b146103355780637333afcf1461036e57806386ae2fb1146103775780638c4772fc1461037f576101da565b80635401c1f2146102a757806362efeff7146102b05780636337dc1a146102c35780636ba13a821461032c576101da565b80630cc94acc116101b85780630cc94acc1461023357806340f528411461025d57806342e187dd1461027d5780634db0412c14610292576101da565b80630121b93f146101df57806309e1b1d1146102075780630bbec3c21461021e575b600080fd5b6101f26101ed366004614eff565b610559565b60405190151581526020015b60405180910390f35b61021060075481565b6040519081526020016101fe565b610226610640565b6040516101fe919061553d565b610246610241366004614eff565b610803565b6040516101fe9b9a999897969594939291906156c0565b61027061026b366004614dec565b610c83565b6040516101fe9190615687565b6102856110a2565b6040516101fe919061539a565b61029a611596565b6040516101fe91906153fa565b610210601a5481565b6102706102be366004614dbe565b611a1f565b604080518082018252600880825267282927a22aa1a2a960c11b60208084019190915283518085018552918252671050d512559254d560c21b8282015283518085018552600a8152692922a9a2a0a921a422a960b11b9181019190915292516101fe93906155f6565b61021060015481565b610361610343366004614dbe565b6001600160a01b031660009081526020819052604090205460ff1690565b6040516101fe91906155e3565b61021060135481565b6101f2611ee9565b6101f261038d366004614dbe565b611fe6565b6102106103a0366004614dbe565b6001600160a01b031660009081526003602052604090206008015490565b6101f26103cc366004614dec565b612019565b6101f26103df366004614dec565b612491565b6103f76103f2366004614dbe565b6128ea565b6040516101fe91906156ad565b6101f2610412366004614f17565b612ba8565b61042a610425366004614eff565b612edb565b6040516101fe9b9a99989796959493929190615776565b604080518082018252600481526327a822a760e11b6020808301919091528251808401845260078152661156141254915160ca1b81830152835180850185526009815268125394d41150d5115160ba1b818401528451808601865260088152671050d0d15415115160c21b9381019390935293516101fe9491929061562f565b61021060045481565b6101f26104d8366004614eff565b6132f0565b6104e56137c4565b6040516101fe9190615590565b6101f2610500366004614dbe565b613cee565b610226613d17565b61042a613ec6565b610528610523366004614eff565b613ee8565b6040516101fe919061569a565b6101f2610543366004614eff565b6000908152601960205260409020546001111590565b60008181526015602052604081205482906105bb5760405162461bcd60e51b815260206004820152601a60248201527f546869732063617465676f727920646f6e27742065786973747300000000000060448201526064015b60405180910390fd5b60008381526015602052604081206009018054916105d88361592f565b90915550506000838152601560205260409020600a015460148054909190811061061257634e487b7160e01b600052603260045260246000fd5b6000918252602082206009600b90920201018054916106308361592f565b9190505550600191505b50919050565b336000908152601860209081526040808320805482518185028101850190935280835260609492939192909184015b828210156107fa578382906000526020600020906009020160405180610140016040529081600082015481526020016001820160009054906101000a900460ff1660038111156106cf57634e487b7160e01b600052602160045260246000fd5b60038111156106ee57634e487b7160e01b600052602160045260246000fd5b815260018201546001600160a01b0361010090910481166020808401919091526002840154909116604080840191909152600384018054825181850281018501909352808352606090940193919290919060009084015b828210156107b15760008481526020908190208301805460408051828502810185019091528181529283018282801561079d57602002820191906000526020600020905b815481526020019060010190808311610789575b505050505081526020019060010190610745565b505050508152602001600482015481526020016005820154815260200160068201548152602001600782015481526020016008820154815250508152602001906001019061066f565b50505050905090565b6002818154811061081357600080fd5b60009182526020909120600e90910201805460018201546002830180549294506001600160a01b03821693600160a01b90920460ff1692610853906158fa565b80601f016020809104026020016040519081016040528092919081815260200182805461087f906158fa565b80156108cc5780601f106108a1576101008083540402835291602001916108cc565b820191906000526020600020905b8154815290600101906020018083116108af57829003601f168201915b5050505050908060030180546108e1906158fa565b80601f016020809104026020016040519081016040528092919081815260200182805461090d906158fa565b801561095a5780601f1061092f5761010080835404028352916020019161095a565b820191906000526020600020905b81548152906001019060200180831161093d57829003601f168201915b50505050509080600401805461096f906158fa565b80601f016020809104026020016040519081016040528092919081815260200182805461099b906158fa565b80156109e85780601f106109bd576101008083540402835291602001916109e8565b820191906000526020600020905b8154815290600101906020018083116109cb57829003601f168201915b5050505060058301546006840154600785015460408051808201825260088801548152600988015460ff90811615156020830152825160808101909352600a89018054989991909616979496509294909382908290610a46906158fa565b80601f0160208091040260200160405190810160405280929190818152602001828054610a72906158fa565b8015610abf5780601f10610a9457610100808354040283529160200191610abf565b820191906000526020600020905b815481529060010190602001808311610aa257829003601f168201915b50505050508152602001600182018054610ad8906158fa565b80601f0160208091040260200160405190810160405280929190818152602001828054610b04906158fa565b8015610b515780601f10610b2657610100808354040283529160200191610b51565b820191906000526020600020905b815481529060010190602001808311610b3457829003601f168201915b50505050508152602001600282018054610b6a906158fa565b80601f0160208091040260200160405190810160405280929190818152602001828054610b96906158fa565b8015610be35780601f10610bb857610100808354040283529160200191610be3565b820191906000526020600020905b815481529060010190602001808311610bc657829003601f168201915b50505050508152602001600382018054610bfc906158fa565b80601f0160208091040260200160405190810160405280929190818152602001828054610c28906158fa565b8015610c755780601f10610c4a57610100808354040283529160200191610c75565b820191906000526020600020905b815481529060010190602001808311610c5857829003601f168201915b50505050508152505090508b565b610c8b614a5c565b610c9433611fe6565b15610ce15760405162461bcd60e51b815260206004820152601b60248201527f5468697320616374697669737420616c7265616479206578697374000000000060448201526064016105b2565b60006007546001610cf291906158cb565b604080516080810182528881526020808201899052818301889052606082018790528251610120810184528481523391810191909152929350600292909160009190810184815260208082018f905260408083018f9052606083018e905260006080840181905260a0840181905260c09093018690526005805460018101825593528351600b9093027f036b6384b5eca791c62761152d0c79bb0604c104a5fb6f4eb0703f3154bb3db08101938455918401517f036b6384b5eca791c62761152d0c79bb0604c104a5fb6f4eb0703f3154bb3db190920180546001600160a01b039093166001600160a01b031990931692909217808355908401519394508493919060ff60a01b1916600160a01b836003811115610e2057634e487b7160e01b600052602160045260246000fd5b021790555060608201518051610e40916002840191602090910190614ad2565b5060808201518051610e5c916003840191602090910190614ad2565b5060a08201518051610e78916004840191602090910190614ad2565b5060c082015160058201805460ff191691151591909117905560e08201516006820155610100820151805180516007840191610eb991839160200190614ad2565b506020828101518051610ed29260018501920190614ad2565b5060408201518051610eee916002840191602090910190614ad2565b5060608201518051610f0a916003840191602090910190614ad2565b50503360009081526006602090815260409182902086518155908601516001820180546001600160a01b0319166001600160a01b0390921691909117808255928701518796509194509092509060ff60a01b1916600160a01b836003811115610f8357634e487b7160e01b600052602160045260246000fd5b021790555060608201518051610fa3916002840191602090910190614ad2565b5060808201518051610fbf916003840191602090910190614ad2565b5060a08201518051610fdb916004840191602090910190614ad2565b5060c082015160058201805460ff191691151591909117905560e0820151600682015561010082015180518051600784019161101c91839160200190614ad2565b5060208281015180516110359260018501920190614ad2565b5060408201518051611051916002840191602090910190614ad2565b506060820151805161106d916003840191602090910190614ad2565b50506007805493509150600090506110848361592f565b919050555061109333846140c0565b9b9a5050505050505050505050565b60606005805480602002602001604051908101604052809291908181526020016000905b828210156107fa5760008481526020908190206040805161012081018252600b86029092018054835260018101546001600160a01b03811694840194909452919290830190600160a01b900460ff16600381111561113457634e487b7160e01b600052602160045260246000fd5b600381111561115357634e487b7160e01b600052602160045260246000fd5b8152602001600282018054611167906158fa565b80601f0160208091040260200160405190810160405280929190818152602001828054611193906158fa565b80156111e05780601f106111b5576101008083540402835291602001916111e0565b820191906000526020600020905b8154815290600101906020018083116111c357829003601f168201915b505050505081526020016003820180546111f9906158fa565b80601f0160208091040260200160405190810160405280929190818152602001828054611225906158fa565b80156112725780601f1061124757610100808354040283529160200191611272565b820191906000526020600020905b81548152906001019060200180831161125557829003601f168201915b5050505050815260200160048201805461128b906158fa565b80601f01602080910402602001604051908101604052809291908181526020018280546112b7906158fa565b80156113045780601f106112d957610100808354040283529160200191611304565b820191906000526020600020905b8154815290600101906020018083116112e757829003601f168201915b5050509183525050600582015460ff161515602082015260068201546040808301919091528051608081019091526007830180546060909301928290829061134b906158fa565b80601f0160208091040260200160405190810160405280929190818152602001828054611377906158fa565b80156113c45780601f10611399576101008083540402835291602001916113c4565b820191906000526020600020905b8154815290600101906020018083116113a757829003601f168201915b505050505081526020016001820180546113dd906158fa565b80601f0160208091040260200160405190810160405280929190818152602001828054611409906158fa565b80156114565780601f1061142b57610100808354040283529160200191611456565b820191906000526020600020905b81548152906001019060200180831161143957829003601f168201915b5050505050815260200160028201805461146f906158fa565b80601f016020809104026020016040519081016040528092919081815260200182805461149b906158fa565b80156114e85780601f106114bd576101008083540402835291602001916114e8565b820191906000526020600020905b8154815290600101906020018083116114cb57829003601f168201915b50505050508152602001600382018054611501906158fa565b80601f016020809104026020016040519081016040528092919081815260200182805461152d906158fa565b801561157a5780601f1061154f5761010080835404028352916020019161157a565b820191906000526020600020905b81548152906001019060200180831161155d57829003601f168201915b50505050508152505081525050815260200190600101906110c6565b60606014805480602002602001604051908101604052809291908181526020016000905b828210156107fa5760008481526020908190206040805161016081018252600b86029092018054835260018101546001600160a01b0316938301939093526002830180549293929184019161160e906158fa565b80601f016020809104026020016040519081016040528092919081815260200182805461163a906158fa565b80156116875780601f1061165c57610100808354040283529160200191611687565b820191906000526020600020905b81548152906001019060200180831161166a57829003601f168201915b505050505081526020016003820180546116a0906158fa565b80601f01602080910402602001604051908101604052809291908181526020018280546116cc906158fa565b80156117195780601f106116ee57610100808354040283529160200191611719565b820191906000526020600020905b8154815290600101906020018083116116fc57829003601f168201915b50505050508152602001600482018054611732906158fa565b80601f016020809104026020016040519081016040528092919081815260200182805461175e906158fa565b80156117ab5780601f10611780576101008083540402835291602001916117ab565b820191906000526020600020905b81548152906001019060200180831161178e57829003601f168201915b505050505081526020016005820180546117c4906158fa565b80601f01602080910402602001604051908101604052809291908181526020018280546117f0906158fa565b801561183d5780601f106118125761010080835404028352916020019161183d565b820191906000526020600020905b81548152906001019060200180831161182057829003601f168201915b50505050508152602001600682018054611856906158fa565b80601f0160208091040260200160405190810160405280929190818152602001828054611882906158fa565b80156118cf5780601f106118a4576101008083540402835291602001916118cf565b820191906000526020600020905b8154815290600101906020018083116118b257829003601f168201915b505050505081526020016007820180546118e8906158fa565b80601f0160208091040260200160405190810160405280929190818152602001828054611914906158fa565b80156119615780601f1061193657610100808354040283529160200191611961565b820191906000526020600020905b81548152906001019060200180831161194457829003601f168201915b5050505050815260200160088201805461197a906158fa565b80601f01602080910402602001604051908101604052809291908181526020018280546119a6906158fa565b80156119f35780601f106119c8576101008083540402835291602001916119f3565b820191906000526020600020905b8154815290600101906020018083116119d657829003601f168201915b5050505050815260200160098201548152602001600a82015481525050815260200190600101906115ba565b611a27614a5c565b6001600160a01b038281166000908152600660209081526040918290208251610120810184528154815260018201549485169281019290925290929091830190600160a01b900460ff166003811115611a9057634e487b7160e01b600052602160045260246000fd5b6003811115611aaf57634e487b7160e01b600052602160045260246000fd5b8152602001600282018054611ac3906158fa565b80601f0160208091040260200160405190810160405280929190818152602001828054611aef906158fa565b8015611b3c5780601f10611b1157610100808354040283529160200191611b3c565b820191906000526020600020905b815481529060010190602001808311611b1f57829003601f168201915b50505050508152602001600382018054611b55906158fa565b80601f0160208091040260200160405190810160405280929190818152602001828054611b81906158fa565b8015611bce5780601f10611ba357610100808354040283529160200191611bce565b820191906000526020600020905b815481529060010190602001808311611bb157829003601f168201915b50505050508152602001600482018054611be7906158fa565b80601f0160208091040260200160405190810160405280929190818152602001828054611c13906158fa565b8015611c605780601f10611c3557610100808354040283529160200191611c60565b820191906000526020600020905b815481529060010190602001808311611c4357829003601f168201915b5050509183525050600582015460ff1615156020820152600682015460408083019190915280516080810190915260078301805460609093019282908290611ca7906158fa565b80601f0160208091040260200160405190810160405280929190818152602001828054611cd3906158fa565b8015611d205780601f10611cf557610100808354040283529160200191611d20565b820191906000526020600020905b815481529060010190602001808311611d0357829003601f168201915b50505050508152602001600182018054611d39906158fa565b80601f0160208091040260200160405190810160405280929190818152602001828054611d65906158fa565b8015611db25780601f10611d8757610100808354040283529160200191611db2565b820191906000526020600020905b815481529060010190602001808311611d9557829003601f168201915b50505050508152602001600282018054611dcb906158fa565b80601f0160208091040260200160405190810160405280929190818152602001828054611df7906158fa565b8015611e445780601f10611e1957610100808354040283529160200191611e44565b820191906000526020600020905b815481529060010190602001808311611e2757829003601f168201915b50505050508152602001600382018054611e5d906158fa565b80601f0160208091040260200160405190810160405280929190818152602001828054611e89906158fa565b8015611ed65780601f10611eab57610100808354040283529160200191611ed6565b820191906000526020600020905b815481529060010190602001808311611eb957829003601f168201915b5050509190925250505090525092915050565b6000611ef433613cee565b611f405760405162461bcd60e51b815260206004820152601b60248201527f506c656173652072656769737465722061732070726f6475636572000000000060448201526064016105b2565b3360009081526003602052604090206005015460ff1615611fba5760405162461bcd60e51b815260206004820152602e60248201527f596f752068617665206120696e7370656374696f6e2072657175657374204f5060448201526d1153881bdc881050d0d15415115160921b60648201526084016105b2565b611fc2614121565b50336000908152600360205260409020600501805460ff1916600190811790915590565b6001600160a01b0381166000908152600660205260408120600201805482919061200f906158fa565b9050119050919050565b600061202433613cee565b156120715760405162461bcd60e51b815260206004820152601b60248201527f546869732070726f647563657220616c7265616479206578697374000000000060448201526064016105b2565b6000600454600161208291906158cb565b60408051608081018252888152602080820189905281830188905260608201879052825180840184526000808252818301819052845161016081018652868152339381019390935294955060019492939092919081018581526020018e81526020018d81526020018c8152602001600015158152602001600081526020016000815260200183815260200184815250905060028190806001815401808255809150506001900390600052602060002090600e02016000909190919091506000820151816000015560208201518160010160006101000a8154816001600160a01b0302191690836001600160a01b0316021790555060408201518160010160146101000a81548160ff021916908360038111156121ae57634e487b7160e01b600052602160045260246000fd5b0217905550606082015180516121ce916002840191602090910190614ad2565b50608082015180516121ea916003840191602090910190614ad2565b5060a08201518051612206916004840191602090910190614ad2565b5060c082015160058201805491151560ff1992831617905560e083015160068301556101008301516007830155610120830151805160088401556020908101516009840180549115159190931617909155610140830151805180519192600a8501926122759284920190614ad2565b50602082810151805161228e9260018501920190614ad2565b50604082015180516122aa916002840191602090910190614ad2565b50606082015180516122c6916003840191602090910190614ad2565b50503360009081526003602081815260409283902087518155908701516001820180546001600160a01b0319166001600160a01b0390921691909117808255938801518897509195509093509160ff60a01b191690600160a01b90849081111561234057634e487b7160e01b600052602160045260246000fd5b021790555060608201518051612360916002840191602090910190614ad2565b506080820151805161237c916003840191602090910190614ad2565b5060a08201518051612398916004840191602090910190614ad2565b5060c082015160058201805491151560ff1992831617905560e083015160068301556101008301516007830155610120830151805160088401556020908101516009840180549115159190931617909155610140830151805180519192600a8501926124079284920190614ad2565b5060208281015180516124209260018501920190614ad2565b506040820151805161243c916002840191602090910190614ad2565b5060608201518051612458916003840191602090910190614ad2565b505060048054935091506000905061246f8361592f565b919050555061247e33856140c0565b5060019c9b505050505050505050505050565b60008060135460016124a391906158cb565b905060006124b26001836158e3565b60408051610160810182528481523360208083018290529282018e9052606082018d9052608082018c905260a082018b905260c082018a905260e082018990526101008201889052600061012083015261014082018490526008868155600980546001600160a01b0319169092179091558d519394509092909161253b91600a918f0190614ad2565b5060608201518051612557916003840191602090910190614ad2565b5060808201518051612573916004840191602090910190614ad2565b5060a0820151805161258f916005840191602090910190614ad2565b5060c082015180516125ab916006840191602090910190614ad2565b5060e082015180516125c7916007840191602090910190614ad2565b5061010082015180516125e4916008840191602090910190614ad2565b5061012082015160098083019190915561014090920151600a918201556014805460018101825560009190915260088054600b9092027fce6d7b5282bd9a3661ae061feed1dbda4e52ab073b1f9285be6e155d9c38d4ec810192835593547fce6d7b5282bd9a3661ae061feed1dbda4e52ab073b1f9285be6e155d9c38d4ed850180546001600160a01b0319166001600160a01b039092169190911790558254909391927fce6d7b5282bd9a3661ae061feed1dbda4e52ab073b1f9285be6e155d9c38d4ee90920191906126b7906158fa565b6126c2929190614b56565b5060038201816003019080546126d7906158fa565b6126e2929190614b56565b5060048201816004019080546126f7906158fa565b612702929190614b56565b506005820181600501908054612717906158fa565b612722929190614b56565b506006820181600601908054612737906158fa565b612742929190614b56565b506007820181600701908054612757906158fa565b612762929190614b56565b506008820181600801908054612777906158fa565b612782929190614b56565b5060098281015482820155600a9283015491830191909155600084815260156020526040902060088054825591546001820180546001600160a01b0319166001600160a01b039092169190911790558254919290916002830191906127e6906158fa565b6127f1929190614b56565b506003820181600301908054612806906158fa565b612811929190614b56565b506004820181600401908054612826906158fa565b612831929190614b56565b506005820181600501908054612846906158fa565b612851929190614b56565b506006820181600601908054612866906158fa565b612871929190614b56565b506007820181600701908054612886906158fa565b612891929190614b56565b5060088201816008019080546128a6906158fa565b6128b1929190614b56565b5060098281015490820155600a91820154910155601380549060006128d58361592f565b9091555060019b9a5050505050505050505050565b6128f2614bd1565b6001600160a01b038281166000908152600360208181526040928390208351610160810185528154815260018201549586169281019290925290939092840191600160a01b90910460ff169081111561295b57634e487b7160e01b600052602160045260246000fd5b600381111561297a57634e487b7160e01b600052602160045260246000fd5b815260200160028201805461298e906158fa565b80601f01602080910402602001604051908101604052809291908181526020018280546129ba906158fa565b8015612a075780601f106129dc57610100808354040283529160200191612a07565b820191906000526020600020905b8154815290600101906020018083116129ea57829003601f168201915b50505050508152602001600382018054612a20906158fa565b80601f0160208091040260200160405190810160405280929190818152602001828054612a4c906158fa565b8015612a995780601f10612a6e57610100808354040283529160200191612a99565b820191906000526020600020905b815481529060010190602001808311612a7c57829003601f168201915b50505050508152602001600482018054612ab2906158fa565b80601f0160208091040260200160405190810160405280929190818152602001828054612ade906158fa565b8015612b2b5780601f10612b0057610100808354040283529160200191612b2b565b820191906000526020600020905b815481529060010190602001808311612b0e57829003601f168201915b5050509183525050600582015460ff90811615156020808401919091526006840154604080850191909152600785015460608501528051808201825260088601548152600986015490931615159183019190915260808084019290925280519182019052600a8301805460a09093019282908290611ca7906158fa565b6000612bb333611fe6565b612bff5760405162461bcd60e51b815260206004820152601b60248201527f506c65617365207265676973746572206173206163746976697374000000000060448201526064016105b2565b600083815260196020526040902054839060011115612c605760405162461bcd60e51b815260206004820152601c60248201527f5468697320696e7370656374696f6e20646f6e2774206578697374730000000060448201526064016105b2565b612c69846143fe565b612cb55760405162461bcd60e51b815260206004820152601d60248201527f416363657074207468697320696e7370656374696f6e206265666f726500000060448201526064016105b2565b6000848152601960205260409020600201546001600160a01b03163314612d1e5760405162461bcd60e51b815260206004820181905260248201527f596f75206e6f74206163636570746564207468697320696e7370656374696f6e60448201526064016105b2565b600084815260196020908152604080832081516101408101909252805482526001810154919290919083019060ff166003811115612d6c57634e487b7160e01b600052602160045260246000fd5b6003811115612d8b57634e487b7160e01b600052602160045260246000fd5b815260018201546001600160a01b0361010090910481166020808401919091526002840154909116604080840191909152600384018054825181850281018501909352808352606090940193919290919060009084015b82821015612e4e57600084815260209081902083018054604080518285028101850190915281815292830182828015612e3a57602002820191906000526020600020905b815481526020019060010190808311612e26575b505050505081526020019060010190612de2565b505050508152602001600482015481526020016005820154815260200160068201548152602001600782015481526020016008820154815250509050612e94818561443d565b612e9d8161465f565b60a08101516040808301516001600160a01b0316600090815260036020522060070155612ed081604001516107d06148ea565b506001949350505050565b60156020526000908152604090208054600182015460028301805492936001600160a01b0390921692612f0d906158fa565b80601f0160208091040260200160405190810160405280929190818152602001828054612f39906158fa565b8015612f865780601f10612f5b57610100808354040283529160200191612f86565b820191906000526020600020905b815481529060010190602001808311612f6957829003601f168201915b505050505090806003018054612f9b906158fa565b80601f0160208091040260200160405190810160405280929190818152602001828054612fc7906158fa565b80156130145780601f10612fe957610100808354040283529160200191613014565b820191906000526020600020905b815481529060010190602001808311612ff757829003601f168201915b505050505090806004018054613029906158fa565b80601f0160208091040260200160405190810160405280929190818152602001828054613055906158fa565b80156130a25780601f10613077576101008083540402835291602001916130a2565b820191906000526020600020905b81548152906001019060200180831161308557829003601f168201915b5050505050908060050180546130b7906158fa565b80601f01602080910402602001604051908101604052809291908181526020018280546130e3906158fa565b80156131305780601f1061310557610100808354040283529160200191613130565b820191906000526020600020905b81548152906001019060200180831161311357829003601f168201915b505050505090806006018054613145906158fa565b80601f0160208091040260200160405190810160405280929190818152602001828054613171906158fa565b80156131be5780601f10613193576101008083540402835291602001916131be565b820191906000526020600020905b8154815290600101906020018083116131a157829003601f168201915b5050505050908060070180546131d3906158fa565b80601f01602080910402602001604051908101604052809291908181526020018280546131ff906158fa565b801561324c5780601f106132215761010080835404028352916020019161324c565b820191906000526020600020905b81548152906001019060200180831161322f57829003601f168201915b505050505090806008018054613261906158fa565b80601f016020809104026020016040519081016040528092919081815260200182805461328d906158fa565b80156132da5780601f106132af576101008083540402835291602001916132da565b820191906000526020600020905b8154815290600101906020018083116132bd57829003601f168201915b50505050509080600901549080600a015490508b565b60006132fb33611fe6565b6133475760405162461bcd60e51b815260206004820152601b60248201527f506c65617365207265676973746572206173206163746976697374000000000060448201526064016105b2565b6000828152601960205260409020548290600111156133a85760405162461bcd60e51b815260206004820152601c60248201527f5468697320696e7370656374696f6e20646f6e2774206578697374730000000060448201526064016105b2565b600083815260196020908152604080832081516101408101909252805482526001810154919290919083019060ff1660038111156133f657634e487b7160e01b600052602160045260246000fd5b600381111561341557634e487b7160e01b600052602160045260246000fd5b815260018201546001600160a01b0361010090910481166020808401919091526002840154909116604080840191909152600384018054825181850281018501909352808352606090940193919290919060009084015b828210156134d8576000848152602090819020830180546040805182850281018501909152818152928301828280156134c457602002820191906000526020600020905b8154815260200190600101908083116134b0575b50505050508152602001906001019061346c565b505050908252506004820154602082015260058201546040820152600682015460608201526007820154608082015260089091015460a090910152905060008160200151600381111561353b57634e487b7160e01b600052602160045260246000fd5b146135885760405162461bcd60e51b815260206004820152601b60248201527f5468697320696e7370656374696f6e206973206e6f74204f50454e000000000060448201526064016105b2565b6003602082810182815242610100850152336060850152600087815260199092526040909120835181559051600180830180548695919260ff19919091169184908111156135e657634e487b7160e01b600052602160045260246000fd5b02179055506040820151600182018054610100600160a81b0319166101006001600160a01b039384160217905560608301516002830180546001600160a01b031916919092161790556080820151805161364a916003840191602090910190614c6d565b5060a0820151600482015560c082015160058083019190915560e0830151600680840191909155610100840151600784015561012093840151600890930192909255336000908152602092909252604090912001805460ff191660011790558101516017805483929081106136cf57634e487b7160e01b600052603260045260246000fd5b90600052602060002090600902016000820151816000015560208201518160010160006101000a81548160ff0219169083600381111561371f57634e487b7160e01b600052602160045260246000fd5b02179055506040820151600182018054610100600160a81b0319166101006001600160a01b039384160217905560608301516002830180546001600160a01b0319169190921617905560808201518051613783916003840191602090910190614c6d565b5060a0820151600482015560c0820151600582015560e082015160068201556101008201516007820155610120909101516008909101555060019392505050565b60606002805480602002602001604051908101604052809291908181526020016000905b828210156107fa5760008481526020908190206040805161016081018252600e86029092018054835260018101546001600160a01b03811694840194909452919290830190600160a01b900460ff16600381111561385657634e487b7160e01b600052602160045260246000fd5b600381111561387557634e487b7160e01b600052602160045260246000fd5b8152602001600282018054613889906158fa565b80601f01602080910402602001604051908101604052809291908181526020018280546138b5906158fa565b80156139025780601f106138d757610100808354040283529160200191613902565b820191906000526020600020905b8154815290600101906020018083116138e557829003601f168201915b5050505050815260200160038201805461391b906158fa565b80601f0160208091040260200160405190810160405280929190818152602001828054613947906158fa565b80156139945780601f1061396957610100808354040283529160200191613994565b820191906000526020600020905b81548152906001019060200180831161397757829003601f168201915b505050505081526020016004820180546139ad906158fa565b80601f01602080910402602001604051908101604052809291908181526020018280546139d9906158fa565b8015613a265780601f106139fb57610100808354040283529160200191613a26565b820191906000526020600020905b815481529060010190602001808311613a0957829003601f168201915b5050509183525050600582015460ff90811615156020808401919091526006840154604080850191909152600785015460608501528051808201825260088601548152600986015490931615159183019190915260808084019290925280519182019052600a8301805460a09093019282908290613aa3906158fa565b80601f0160208091040260200160405190810160405280929190818152602001828054613acf906158fa565b8015613b1c5780601f10613af157610100808354040283529160200191613b1c565b820191906000526020600020905b815481529060010190602001808311613aff57829003601f168201915b50505050508152602001600182018054613b35906158fa565b80601f0160208091040260200160405190810160405280929190818152602001828054613b61906158fa565b8015613bae5780601f10613b8357610100808354040283529160200191613bae565b820191906000526020600020905b815481529060010190602001808311613b9157829003601f168201915b50505050508152602001600282018054613bc7906158fa565b80601f0160208091040260200160405190810160405280929190818152602001828054613bf3906158fa565b8015613c405780601f10613c1557610100808354040283529160200191613c40565b820191906000526020600020905b815481529060010190602001808311613c2357829003601f168201915b50505050508152602001600382018054613c59906158fa565b80601f0160208091040260200160405190810160405280929190818152602001828054613c85906158fa565b8015613cd25780601f10613ca757610100808354040283529160200191613cd2565b820191906000526020600020905b815481529060010190602001808311613cb557829003601f168201915b50505050508152505081525050815260200190600101906137e8565b6001600160a01b0381166000908152600360205260408120600201805482919061200f906158fa565b60606017805480602002602001604051908101604052809291908181526020016000905b828210156107fa578382906000526020600020906009020160405180610140016040529081600082015481526020016001820160009054906101000a900460ff166003811115613d9b57634e487b7160e01b600052602160045260246000fd5b6003811115613dba57634e487b7160e01b600052602160045260246000fd5b815260018201546001600160a01b0361010090910481166020808401919091526002840154909116604080840191909152600384018054825181850281018501909352808352606090940193919290919060009084015b82821015613e7d57600084815260209081902083018054604080518285028101850190915281815292830182828015613e6957602002820191906000526020600020905b815481526020019060010190808311613e55575b505050505081526020019060010190613e11565b5050505081526020016004820154815260200160058201548152602001600682015481526020016007820154815260200160088201548152505081526020019060010190613d3b565b60088054600954600a805492936001600160a01b0390921692612f0d906158fa565b613f5160408051610140810190915260008082526020820190815260200160006001600160a01b0316815260200160006001600160a01b031681526020016060815260200160008152602001600081526020016000815260200160008152602001600081525090565b60008281526019602090815260409182902082516101408101909352805483526001810154909183019060ff166003811115613f9d57634e487b7160e01b600052602160045260246000fd5b6003811115613fbc57634e487b7160e01b600052602160045260246000fd5b815260018201546001600160a01b0361010090910481166020808401919091526002840154909116604080840191909152600384018054825181850281018501909352808352606090940193919290919060009084015b8282101561407f5760008481526020908190208301805460408051828502810185019091528181529283018282801561406b57602002820191906000526020600020905b815481526020019060010190808311614057575b505050505081526020019060010190614013565b505050508152602001600482015481526020016005820154815260200160068201548152602001600782015481526020016008820154815250509050919050565b6001600160a01b0382166000908152602081905260409020805482919060ff1916600183600381111561410357634e487b7160e01b600052602160045260246000fd5b0217905550600180549060006141188361592f565b91905055505050565b6000601a54600161413291906158cb565b905060006141416001836158e3565b9050606060006016544261415591906158cb565b905060006040518061014001604052808681526020016000600381111561418c57634e487b7160e01b600052602160045260246000fd5b815233602080830182905260408301919091526060820186905260006080830181905260a083018690524260c084015260e08301819052610100909201879052601780546001818101835591909352835160099093027fc624b66cc0138b8fabc209247f72d758e1cf3343756d543badbf24212bed8c158101938455918401517fc624b66cc0138b8fabc209247f72d758e1cf3343756d543badbf24212bed8c1690920180549495508594909160ff19919091169083600381111561426157634e487b7160e01b600052602160045260246000fd5b02179055506040820151600182018054610100600160a81b0319166101006001600160a01b039384160217905560608301516002830180546001600160a01b03191691909216179055608082015180516142c5916003840191602090910190614c6d565b5060a0820151600482015560c0820151600582015560e0820151600682015561010082015160078201556101209091015160089091015560008581526019602090815260409091208251815590820151600180830180548594939260ff199091169083600381111561434757634e487b7160e01b600052602160045260246000fd5b02179055506040820151600182018054610100600160a81b0319166101006001600160a01b039384160217905560608301516002830180546001600160a01b03191691909216179055608082015180516143ab916003840191602090910190614c6d565b5060a0820151600482015560c0820151600582015560e08201516006820155610100820151600782015561012090910151600890910155601a80549060006143f28361592f565b91905055505050505050565b6000600360008381526019602052604090206001015460ff16600381111561443657634e487b7160e01b600052602160045260246000fd5b1492915050565b60808201819052600260208301524261010083015261445b82614962565b60a0830152815160009081526019602090815260409091208351815590830151600180830180548694939260ff19909116908360038111156144ad57634e487b7160e01b600052602160045260246000fd5b02179055506040820151600182018054610100600160a81b0319166101006001600160a01b039384160217905560608301516002830180546001600160a01b0319169190921617905560808201518051614511916003840191602090910190614c6d565b5060a0820151816004015560c0820151816005015560e08201518160060155610100820151816007015561012082015181600801559050508160178361012001518154811061457057634e487b7160e01b600052603260045260246000fd5b90600052602060002090600902016000820151816000015560208201518160010160006101000a81548160ff021916908360038111156145c057634e487b7160e01b600052602160045260246000fd5b02179055506040820151600182018054610100600160a81b0319166101006001600160a01b039384160217905560608301516002830180546001600160a01b0319169190921617905560808201518051614624916003840191602090910190614c6d565b5060a0820151600482015560c0820151600582015560e082015160068201556101008201516007820155610120909101516008909101555050565b60408082015160608301516001600160a01b03811660009081526006602081905293812060058101805460ff19169055909301805492939192916146a28361592f565b90915550506001600160a01b038216600090815260036020526040812060058101805460ff191690556006018054916146da8361592f565b90915550506001600160a01b0382166000908152601860209081526040822080546001818101835591845292829020865160099094020192835590850151828201805487949360ff199091169083600381111561474757634e487b7160e01b600052602160045260246000fd5b02179055506040820151600182018054610100600160a81b0319166101006001600160a01b039384160217905560608301516002830180546001600160a01b03191691909216179055608082015180516147ab916003840191602090910190614c6d565b5060a0820151600482015560c0820151600582015560e082015160068201556101008201516007820155610120909101516008909101556001600160a01b0381166000908152601860209081526040822080546001818101835591845292829020865160099094020192835590850151828201805487949360ff199091169083600381111561484a57634e487b7160e01b600052602160045260246000fd5b02179055506040820151600182018054610100600160a81b0319166101006001600160a01b039384160217905560608301516002830180546001600160a01b03191691909216179055608082015180516148ae916003840191602090910190614c6d565b5060a0820151816004015560c0820151816005015560e08201518160060155610100820151816007015561012082015181600801555050505050565b6001600160a01b03821660009081526003602052604090819020600801548151808301909252908061491c84846158cb565b8152600060209182018190526001600160a01b03959095168552600381526040909420815160088201559301516009909301805460ff1916931515939093179092555050565b6080810151600090816149748261497c565b949350505050565b6040805160a081018252600a81526005602082015260009181018290526004196060820152600919608082015281805b84518160ff161015614a54576000858260ff16815181106149dd57634e487b7160e01b600052603260045260246000fd5b6020026020010151600181518110614a0557634e487b7160e01b600052603260045260246000fd5b60200260200101519050838160058110614a2f57634e487b7160e01b600052603260045260246000fd5b6020020151614a3e908461588a565b9250508080614a4c9061594a565b9150506149ac565b509392505050565b60408051610120810182526000808252602082018190529091820190815260200160608152602001606081526020016060815260200160001515815260200160008152602001614acd6040518060800160405280606081526020016060815260200160608152602001606081525090565b905290565b828054614ade906158fa565b90600052602060002090601f016020900481019282614b005760008555614b46565b82601f10614b1957805160ff1916838001178555614b46565b82800160010185558215614b46579182015b82811115614b46578251825591602001919060010190614b2b565b50614b52929150614cc6565b5090565b828054614b62906158fa565b90600052602060002090601f016020900481019282614b845760008555614b46565b82601f10614b955780548555614b46565b82800160010185558215614b4657600052602060002091601f016020900482015b82811115614b46578254825591600101919060010190614bb6565b6040805161016081018252600080825260208201819052909182019081526020016060815260200160608152602001606081526020016000151581526020016000815260200160008152602001614c3d6040518060400160405280600081526020016000151581525090565b8152602001614acd6040518060800160405280606081526020016060815260200160608152602001606081525090565b828054828255906000526020600020908101928215614cba579160200282015b82811115614cba5782518051614caa918491602090910190614cdb565b5091602001919060010190614c8d565b50614b52929150614d15565b5b80821115614b525760008155600101614cc7565b828054828255906000526020600020908101928215614b465791602002820182811115614b46578251825591602001919060010190614b2b565b80821115614b52576000614d298282614d32565b50600101614d15565b5080546000825590600052602060002090810190614d509190614cc6565b50565b600082601f830112614d63578081fd5b813567ffffffffffffffff811115614d7d57614d7d615980565b614d90601f8201601f1916602001615835565b818152846020838601011115614da4578283fd5b816020850160208301379081016020019190915292915050565b600060208284031215614dcf578081fd5b81356001600160a01b0381168114614de5578182fd5b9392505050565b600080600080600080600060e0888a031215614e06578283fd5b873567ffffffffffffffff80821115614e1d578485fd5b614e298b838c01614d53565b985060208a0135915080821115614e3e578485fd5b614e4a8b838c01614d53565b975060408a0135915080821115614e5f578485fd5b614e6b8b838c01614d53565b965060608a0135915080821115614e80578485fd5b614e8c8b838c01614d53565b955060808a0135915080821115614ea1578485fd5b614ead8b838c01614d53565b945060a08a0135915080821115614ec2578384fd5b614ece8b838c01614d53565b935060c08a0135915080821115614ee3578283fd5b50614ef08a828b01614d53565b91505092959891949750929550565b600060208284031215614f10578081fd5b5035919050565b60008060408385031215614f29578182fd5b8235915060208084013567ffffffffffffffff811115614f47578283fd5b8401601f81018613614f57578283fd5b8035614f6a614f6582615866565b615835565b81815283810190838501865b84811015614ff857813586018b603f820112614f90578889fd5b87810135614fa0614f6582615866565b808282528a82019150604084018f60408d86028701011115614fc0578c8dfd5b8c94505b83851015614fe2578035835260019490940193918b01918b01614fc4565b5087525050509286019290860190600101614f76565b5096999098509650505050505050565b60008282518085526020808601955080818302840101818601855b8481101561507657858303601f19018952815180518085529085019085850190895b8181101561506157835183529287019291870191600101615045565b50509985019993505090830190600101615023565b5090979650505050505050565b61508c81615996565b9052565b60008151808452815b818110156150b557602081850181015186830182015201615099565b818111156150c65782602083870101525b50601f01601f19169290920160200192915050565b60008151608084526150f06080850182615090565b9050602083015184820360208601526151098282615090565b915050604083015184820360408601526151238282615090565b9150506060830151848203606086015261513d8282615090565b95945050505050565b600061012082518452602083015161516960208601826001600160a01b03169052565b50604083015161517c6040860182615083565b50606083015181606086015261519482860182615090565b915050608083015184820360808601526151ae8282615090565b91505060a083015184820360a08601526151c88282615090565b91505060c08301516151de60c086018215159052565b5060e083015160e0850152610100808401518583038287015261520183826150db565b9695505050505050565b60006101408251845260208301516152266020860182615083565b50604083015161524160408601826001600160a01b03169052565b50606083015161525c60608601826001600160a01b03169052565b50608083015181608086015261527482860182615008565b91505060a083015160a085015260c083015160c085015260e083015160e08501526101008084015181860152506101208084015181860152508091505092915050565b60006101808251845260208301516152da60208601826001600160a01b03169052565b5060408301516152ed6040860182615083565b50606083015181606086015261530582860182615090565b9150506080830151848203608086015261531f8282615090565b91505060a083015184820360a08601526153398282615090565b91505060c083015161534f60c086018215159052565b5060e0838101519085015261010080840151908501526101208084015180518287015260208101511515610140870152505061014083015184820361016086015261513d82826150db565b6000602080830181845280855180835260408601915060408482028701019250838701855b828110156153ed57603f198886030184526153db858351615146565b945092850192908501906001016153bf565b5092979650505050505050565b60208082528251828201819052600091906040908185019080840286018301878501865b8381101561552f57603f19898403018552815180518452878101516001600160a01b031688850152868101516101608886018190529061546082870182615090565b9150506060808301518683038288015261547a8382615090565b92505050608080830151868303828801526154958382615090565b9250505060a080830151868303828801526154b08382615090565b9250505060c080830151868303828801526154cb8382615090565b9250505060e080830151868303828801526154e68382615090565b9250505061010080830151868303828801526155028382615090565b6101208581015190890152610140948501519490970193909352505050938601939086019060010161541e565b509098975050505050505050565b6000602080830181845280855180835260408601915060408482028701019250838701855b828110156153ed57603f1988860301845261557e85835161520b565b94509285019290850190600101615562565b6000602080830181845280855180835260408601915060408482028701019250838701855b828110156153ed57603f198886030184526155d18583516152b7565b945092850192908501906001016155b5565b602081016155f083615996565b91905290565b6000606082526156096060830186615090565b828103602084015261561b8186615090565b905082810360408401526152018185615090565b6000608082526156426080830187615090565b82810360208401526156548187615090565b905082810360408401526156688186615090565b9050828103606084015261567c8185615090565b979650505050505050565b600060208252614de56020830184615146565b600060208252614de5602083018461520b565b600060208252614de560208301846152b7565b8b81526001600160a01b038b16602082015260006101806156e08c615996565b8b60408401528060608401526156f88184018c615090565b9050828103608084015261570c818b615090565b905082810360a0840152615720818a615090565b905087151560c08401528660e084015285610100840152615751610120840186805182526020908101511515910152565b82810361016084015261576481856150db565b9e9d5050505050505050505050505050565b8b81526001600160a01b038b166020820152600061016080604084015261579f8184018d615090565b905082810360608401526157b3818c615090565b905082810360808401526157c7818b615090565b905082810360a08401526157db818a615090565b905082810360c08401526157ef8189615090565b905082810360e08401526158038188615090565b90508281036101008401526158188187615090565b610120840195909552505061014001529998505050505050505050565b604051601f8201601f1916810167ffffffffffffffff8111828210171561585e5761585e615980565b604052919050565b600067ffffffffffffffff82111561588057615880615980565b5060209081020190565b600080821280156001600160ff1b03849003851316156158ac576158ac61596a565b600160ff1b83900384128116156158c5576158c561596a565b50500190565b600082198211156158de576158de61596a565b500190565b6000828210156158f5576158f561596a565b500390565b60028104600182168061590e57607f821691505b6020821081141561063a57634e487b7160e01b600052602260045260246000fd5b60006000198214156159435761594361596a565b5060010190565b600060ff821660ff8114156159615761596161596a565b60010192915050565b634e487b7160e01b600052601160045260246000fd5b634e487b7160e01b600052604160045260246000fd5b60048110614d5057634e487b7160e01b600052602160045260246000fdfea26469706673582212206f0f65edafb532255483e5f9bc4e8540dd01b29e36bf0bbbc4d2afe221da843964736f6c63430008020033",
  "immutableReferences": {},
  "source": "// SPDX-License-Identifier: GPL-3.0\npragma solidity >=0.7.0 <=0.9.0;\n\nimport \"./ProducerContract.sol\";\nimport \"./ActivistContract.sol\";\nimport \"./CategoryContract.sol\";\n\n/**\n* @title SintropContract\n* @dev Sintrop application to certificated a rural producer\n*/\ncontract Sintrop is ProducerContract, ActivistContract, CategoryContract {\n    enum InspectionStatus { OPEN, EXPIRED, INSPECTED, ACCEPTED }\n    uint inspactionExpireIn = 604800;\n\n    struct Inspection {\n        uint id;\n        InspectionStatus status;\n        address producerWallet;\n        address activistWallet;\n        uint[][] isas;\n        int isaPoints;\n        uint expiresIn;\n        uint createdAt;\n        uint updatedAt;\n        uint index;\n    }\n    Inspection[] inspectionsList;\n    mapping(address => Inspection[]) userInspections;\n    mapping(uint256 => Inspection) inspections;\n    uint256 public inspectionsCount;\n\n    /**\n   * @dev Allows the current user producer/activist get all yours inspections with status INSPECTED\n   */\n    function getInspectionsHistory() public view returns(Inspection[] memory) {\n        return userInspections[msg.sender];\n    }\n\n  /**\n   * @dev Allows the current user (producer) request a inspection.\n   */\n    function requestInspection() public returns(bool) {\n        require(producerExists(msg.sender), \"Please register as producer\");\n        require(!producers[msg.sender].recentInspection, \"You have a inspection request OPEN or ACCEPTED\");\n\n        createRequest();\n        producers[msg.sender].recentInspection = true;\n\n        return true;\n    }\n\n    function createRequest() internal{\n        uint id = inspectionsCount + 1;\n        uint index = id - 1;\n        uint[][] memory isas;\n        uint expiresIn = block.timestamp + inspactionExpireIn;\n        Inspection memory inspection = Inspection(id, InspectionStatus.OPEN, msg.sender, msg.sender, isas,\n        0, expiresIn,  block.timestamp, 0, index);\n        inspectionsList.push(inspection);\n        inspections[id] = inspection;\n        inspectionsCount++;\n    }\n\n    /**\n   * @dev Allows the current user (activist) accept a inspection.\n   * @param inspectionId The id of the inspection that the activist want accept.\n   */\n    function acceptInspection(uint inspectionId) public\n    requireActivist requireInspectionExists(inspectionId) returns(bool) {\n        Inspection memory inspection = inspections[inspectionId];\n\n        require(inspection.status == InspectionStatus.OPEN, \"This inspection is not OPEN\");\n\n        inspection.status = InspectionStatus.ACCEPTED;\n        inspection.updatedAt = block.timestamp;\n        inspection.activistWallet = msg.sender;\n        inspections[inspectionId] = inspection;\n\n        activists[msg.sender].recentInspection = true;\n\n        inspectionsList[inspection.index] = inspection;\n        return true;\n    }\n\n    /**\n     * @dev Allow a activist realize a inspection and mark as INSPECTED\n     * @param inspectionId The id of the inspection to be realized\n     * @param isas The uint[][] of categoryId and isaIndex. Ex: isas = [ [categoryId, isaIndex], [categoryId, isaIndex] ]\n     */\n    function realizeInspection(uint inspectionId, uint[][] memory isas)\n      public  requireActivist requireInspectionExists(inspectionId) returns(bool) {\n        require(isAccepted(inspectionId), \"Accept this inspection before\");\n        require(isActivistOwner(inspectionId), \"You not accepted this inspection\");\n\n        Inspection memory inspection = inspections[inspectionId];\n\n        markAsRealized(inspection, isas);\n\n        afterRealizeInspection(inspection);\n\n        updateProducerIsa(inspection);\n\n        approveProducerNewTokens(inspection.producerWallet, 2000);\n\n        return true;\n    }\n\n  /**\n   * @dev Calculate the ISA of the inspection based in the category and the ISA level of the category\n   * @param inspection Receive the inspected inspection with your isas levels\n   */\n    function calculateIsa(Inspection memory inspection) internal pure returns(int){\n        uint[][] memory isas = inspection.isas;\n        int isaPoints = sumIsaPoints(isas);\n        return isaPoints;\n    }\n\n  /**\n   * @dev Sum the ISA points\n   * @param isas The isas values as list of [[categoryId, isaIndex], [categoryId, isaIndex]]\n   */\n    function sumIsaPoints(uint[][] memory isas) internal pure returns(int) {\n        int[5] memory points = [int(10), int(5), int(0), int(-5), int(-10)];\n        int isaPoints = 0;\n\n        for (uint8 i = 0; i < isas.length; i++) {\n            uint isaIndex = isas[i][1];\n            isaPoints += points[isaIndex];\n        }\n        return isaPoints;\n    }\n\n    function markAsRealized(Inspection memory inspection, uint[][] memory isas) internal {\n        inspection.isas = isas;\n        inspection.status = InspectionStatus.INSPECTED;\n        inspection.updatedAt = block.timestamp;\n        inspection.isaPoints = calculateIsa(inspection);\n        inspections[inspection.id] = inspection;\n        inspectionsList[inspection.index] = inspection;\n    }\n\n    function updateProducerIsa(Inspection memory inspection) internal {\n        producers[inspection.producerWallet].isaPoints = inspection.isaPoints;\n    }\n\n    /**\n   * @dev Returns a inspection by id if that exists.\n   * @param id The id of the inspection to return.\n   */\n    function getInspection(uint256 id) public view returns(Inspection memory) {\n        return inspections[id];\n    }\n\n    /**\n   * @dev Returns all requested inspections.\n   */\n    function getInspections() public view returns (Inspection[] memory) {\n        return inspectionsList;\n    }\n\n    /**\n   * @dev Returns all inpections status string.\n   */\n    function getInspectionsStatus() public pure returns(string memory, string memory, string memory, string memory) {\n        return (\"OPEN\", \"EXPIRED\", \"INSPECTED\", \"ACCEPTED\");\n    }\n\n    /**\n   * @dev Check if an inspections exists in mapping.\n   * @param id The id of the inspection that the activist want accept.\n   */\n    function inspectionExists(uint256 id) public view returns(bool) {\n        return inspections[id].id >= 1;\n    }\n\n    /**\n   * @dev Inscrement producer and activist request action and mark both as no recent open requests and inspection\n   * @param inspection the inspected inspection\n   */\n    function afterRealizeInspection(Inspection memory inspection) internal {\n        address producerWallet = inspection.producerWallet;\n        address activistWallet = inspection.activistWallet;\n\n        // Increment actvist inspections and release to carry out new inspections\n        activists[activistWallet].recentInspection = false;\n        activists[activistWallet].totalInspections++;\n\n        // Increment producer requests and release to carry out new requests\n        producers[producerWallet].recentInspection = false;\n        producers[producerWallet].totalRequests++;\n\n        userInspections[producerWallet].push(inspection);\n        userInspections[activistWallet].push(inspection);\n    }\n\n    function isActivistOwner(uint inspectionId) internal view returns(bool) {\n        return inspections[inspectionId].activistWallet == msg.sender;\n    }\n\n    function isAccepted(uint inspectionId) internal view returns(bool) {\n        return inspections[inspectionId].status == InspectionStatus.ACCEPTED;\n    }\n\n    // MODIFIERS\n    modifier requireActivist() {\n        require(activistExists(msg.sender), \"Please register as activist\");\n        _;\n    }\n\n    modifier requireInspectionExists(uint inspectionId) {\n        require(inspectionExists(inspectionId), \"This inspection don't exists\");\n        _;\n    }\n}\n",
  "sourcePath": "/home/everson/projetos/afiliart/SAT-core-contracts/contracts/Sintrop.sol",
  "compiler": {
    "name": "solc",
    "version": "0.8.2+commit.661d1103.Emscripten.clang"
  },
  "schemaVersion": "3.4.4",
  "updatedAt": "2022-02-26T13:04:56.724Z",
  "devdoc": {
    "details": "Sintrop application to certificated a rural producer",
    "kind": "dev",
    "methods": {
      "acceptInspection(uint256)": {
        "details": "Allows the current user (activist) accept a inspection.",
        "params": {
          "inspectionId": "The id of the inspection that the activist want accept."
        }
      },
      "activistExists(address)": {
        "details": "Check if a specific activist exists",
        "returns": {
          "_0": "a bool that represent if a activist exists or not"
        }
      },
      "addActivist(string,string,string,string,string,string,string)": {
        "details": "Allow a new register of activist",
        "params": {
          "cep": "the cep of the activist",
          "city": "the of the activist",
          "country": "the country where the activist is",
          "document": "the document of activist",
          "documentType": "the document type type of activist. CPF/CNPJ",
          "name": "the name of the activist",
          "state": "the state of the activist"
        },
        "returns": {
          "_0": "a Activist"
        }
      },
      "addCategory(string,string,string,string,string,string,string)": {
        "details": "add a new category",
        "params": {
          "description": "the description of category",
          "name": "the name of category",
          "neutro": "the description text to this metric",
          "partiallyNotSustainable": "the description text to this metric",
          "partiallySustainable": "the description text to this metric",
          "totallyNotSustainable": "the description text to this metric",
          "totallySustainable": "the description text to this metric"
        },
        "returns": {
          "_0": "bool"
        }
      },
      "addProducer(string,string,string,string,string,string,string)": {
        "details": "Allow a new register of producer",
        "params": {
          "cep": "the cep of the producer",
          "city": "the of the producer",
          "country": "the country where the producer is",
          "document": "the document of producer",
          "documentType": "the document type type of producer. CPF/CNPJ",
          "name": "the name of the producer",
          "state": "the state of the producer"
        }
      },
      "getActivist(address)": {
        "details": "Return a specific activist",
        "params": {
          "addr": "the address of the activist."
        }
      },
      "getActivists()": {
        "details": "Returns all registered activists",
        "returns": {
          "_0": "Activist struct array"
        }
      },
      "getCategories()": {
        "details": "Returns all added categories",
        "returns": {
          "_0": "category struc array"
        }
      },
      "getInspection(uint256)": {
        "details": "Returns a inspection by id if that exists.",
        "params": {
          "id": "The id of the inspection to return."
        }
      },
      "getInspections()": {
        "details": "Returns all requested inspections."
      },
      "getInspectionsHistory()": {
        "details": "Allows the current user producer/activist get all yours inspections with status INSPECTED"
      },
      "getInspectionsStatus()": {
        "details": "Returns all inpections status string."
      },
      "getProducer(address)": {
        "details": "Return a specific producer",
        "params": {
          "addr": "the address of the producer."
        }
      },
      "getProducers()": {
        "details": "Returns all registered producers",
        "returns": {
          "_0": "Producer struct array"
        }
      },
      "getUser(address)": {
        "details": "Returns the user type if the user is registered",
        "params": {
          "addr": "the user address that want check if exists"
        }
      },
      "getUserTypes()": {
        "details": "Returns the enum UserType of the system"
      },
      "inspectionExists(uint256)": {
        "details": "Check if an inspections exists in mapping.",
        "params": {
          "id": "The id of the inspection that the activist want accept."
        }
      },
      "producerExists(address)": {
        "details": "Check if a specific producer exists",
        "returns": {
          "_0": "a bool that represent if a producer exists or not"
        }
      },
      "realizeInspection(uint256,uint256[][])": {
        "details": "Allow a activist realize a inspection and mark as INSPECTED",
        "params": {
          "inspectionId": "The id of the inspection to be realized",
          "isas": "The uint[][] of categoryId and isaIndex. Ex: isas = [ [categoryId, isaIndex], [categoryId, isaIndex] ]"
        }
      },
      "requestInspection()": {
        "details": "Allows the current user (producer) request a inspection."
      },
      "vote(uint256)": {
        "details": "Allow a user vote in a category",
        "params": {
          "id": "the id of a category that receives a vote."
        },
        "returns": {
          "_0": "category struc array"
        }
      }
    },
    "title": "SintropContract",
    "version": 1
  },
  "userdoc": {
    "kind": "user",
    "methods": {},
    "version": 1
  }
}