{
  "contractName": "Sintrop",
  "abi": [
    {
      "inputs": [
        {
          "internalType": "address",
          "name": "activistContractAddress",
          "type": "address"
        },
        {
          "internalType": "address",
          "name": "producerContractAddress",
          "type": "address"
        }
      ],
      "stateMutability": "nonpayable",
      "type": "constructor"
    },
    {
      "inputs": [],
      "name": "activistContract",
      "outputs": [
        {
          "internalType": "contract ActivistContract",
          "name": "",
          "type": "address"
        }
      ],
      "stateMutability": "view",
      "type": "function",
      "constant": true
    },
    {
      "inputs": [],
      "name": "inspectionsCount",
      "outputs": [
        {
          "internalType": "uint256",
          "name": "",
          "type": "uint256"
        }
      ],
      "stateMutability": "view",
      "type": "function",
      "constant": true
    },
    {
      "inputs": [],
      "name": "producerContract",
      "outputs": [
        {
          "internalType": "contract ProducerContract",
          "name": "",
          "type": "address"
        }
      ],
      "stateMutability": "view",
      "type": "function",
      "constant": true
    },
    {
      "inputs": [],
      "name": "getInspectionsHistory",
      "outputs": [
        {
          "components": [
            {
              "internalType": "uint256",
              "name": "id",
              "type": "uint256"
            },
            {
              "internalType": "enum InspectionStatus",
              "name": "status",
              "type": "uint8"
            },
            {
              "internalType": "address",
              "name": "createdBy",
              "type": "address"
            },
            {
              "internalType": "address",
              "name": "acceptedBy",
              "type": "address"
            },
            {
              "internalType": "uint256[][]",
              "name": "isas",
              "type": "uint256[][]"
            },
            {
              "internalType": "int256",
              "name": "isaPoints",
              "type": "int256"
            },
            {
              "internalType": "uint256",
              "name": "expiresIn",
              "type": "uint256"
            },
            {
              "internalType": "uint256",
              "name": "createdAt",
              "type": "uint256"
            },
            {
              "internalType": "uint256",
              "name": "updatedAt",
              "type": "uint256"
            }
          ],
          "internalType": "struct Inspection[]",
          "name": "",
          "type": "tuple[]"
        }
      ],
      "stateMutability": "view",
      "type": "function",
      "constant": true
    },
    {
      "inputs": [],
      "name": "requestInspection",
      "outputs": [
        {
          "internalType": "bool",
          "name": "",
          "type": "bool"
        }
      ],
      "stateMutability": "nonpayable",
      "type": "function"
    },
    {
      "inputs": [
        {
          "internalType": "uint256",
          "name": "inspectionId",
          "type": "uint256"
        }
      ],
      "name": "acceptInspection",
      "outputs": [
        {
          "internalType": "bool",
          "name": "",
          "type": "bool"
        }
      ],
      "stateMutability": "nonpayable",
      "type": "function"
    },
    {
      "inputs": [
        {
          "internalType": "uint256",
          "name": "inspectionId",
          "type": "uint256"
        },
        {
          "internalType": "uint256[][]",
          "name": "isas",
          "type": "uint256[][]"
        }
      ],
      "name": "realizeInspection",
      "outputs": [
        {
          "internalType": "bool",
          "name": "",
          "type": "bool"
        }
      ],
      "stateMutability": "nonpayable",
      "type": "function"
    },
    {
      "inputs": [
        {
          "internalType": "uint256",
          "name": "id",
          "type": "uint256"
        }
      ],
      "name": "getInspection",
      "outputs": [
        {
          "components": [
            {
              "internalType": "uint256",
              "name": "id",
              "type": "uint256"
            },
            {
              "internalType": "enum InspectionStatus",
              "name": "status",
              "type": "uint8"
            },
            {
              "internalType": "address",
              "name": "createdBy",
              "type": "address"
            },
            {
              "internalType": "address",
              "name": "acceptedBy",
              "type": "address"
            },
            {
              "internalType": "uint256[][]",
              "name": "isas",
              "type": "uint256[][]"
            },
            {
              "internalType": "int256",
              "name": "isaPoints",
              "type": "int256"
            },
            {
              "internalType": "uint256",
              "name": "expiresIn",
              "type": "uint256"
            },
            {
              "internalType": "uint256",
              "name": "createdAt",
              "type": "uint256"
            },
            {
              "internalType": "uint256",
              "name": "updatedAt",
              "type": "uint256"
            }
          ],
          "internalType": "struct Inspection",
          "name": "",
          "type": "tuple"
        }
      ],
      "stateMutability": "view",
      "type": "function",
      "constant": true
    },
    {
      "inputs": [],
      "name": "getInspections",
      "outputs": [
        {
          "components": [
            {
              "internalType": "uint256",
              "name": "id",
              "type": "uint256"
            },
            {
              "internalType": "enum InspectionStatus",
              "name": "status",
              "type": "uint8"
            },
            {
              "internalType": "address",
              "name": "createdBy",
              "type": "address"
            },
            {
              "internalType": "address",
              "name": "acceptedBy",
              "type": "address"
            },
            {
              "internalType": "uint256[][]",
              "name": "isas",
              "type": "uint256[][]"
            },
            {
              "internalType": "int256",
              "name": "isaPoints",
              "type": "int256"
            },
            {
              "internalType": "uint256",
              "name": "expiresIn",
              "type": "uint256"
            },
            {
              "internalType": "uint256",
              "name": "createdAt",
              "type": "uint256"
            },
            {
              "internalType": "uint256",
              "name": "updatedAt",
              "type": "uint256"
            }
          ],
          "internalType": "struct Inspection[]",
          "name": "",
          "type": "tuple[]"
        }
      ],
      "stateMutability": "view",
      "type": "function",
      "constant": true
    },
    {
      "inputs": [],
      "name": "getInspectionsStatus",
      "outputs": [
        {
          "internalType": "string",
          "name": "",
          "type": "string"
        },
        {
          "internalType": "string",
          "name": "",
          "type": "string"
        },
        {
          "internalType": "string",
          "name": "",
          "type": "string"
        },
        {
          "internalType": "string",
          "name": "",
          "type": "string"
        }
      ],
      "stateMutability": "pure",
      "type": "function",
      "constant": true
    },
    {
      "inputs": [
        {
          "internalType": "uint256",
          "name": "id",
          "type": "uint256"
        }
      ],
      "name": "inspectionExists",
      "outputs": [
        {
          "internalType": "bool",
          "name": "",
          "type": "bool"
        }
      ],
      "stateMutability": "view",
      "type": "function",
      "constant": true
    }
  ],
  "bytecode": "0x608060405262093a806004553480156200001857600080fd5b5060405162003d1138038062003d1183398181016040528101906200003e9190620000df565b81600260006101000a81548173ffffffffffffffffffffffffffffffffffffffff021916908373ffffffffffffffffffffffffffffffffffffffff16021790555080600360006101000a81548173ffffffffffffffffffffffffffffffffffffffff021916908373ffffffffffffffffffffffffffffffffffffffff16021790555050506200016e565b600081519050620000d98162000154565b92915050565b60008060408385031215620000f357600080fd5b60006200010385828601620000c8565b92505060206200011685828601620000c8565b9150509250929050565b60006200012d8262000134565b9050919050565b600073ffffffffffffffffffffffffffffffffffffffff82169050919050565b6200015f8162000120565b81146200016b57600080fd5b50565b613b93806200017e6000396000f3fe608060405234801561001057600080fd5b50600436106100a95760003560e01c8063b92bd2d911610071578063b92bd2d914610144578063dd6850c614610174578063e785750214610195578063ee699fc1146101c5578063f2836670146101e3578063fe5a4fa414610213576100a9565b80630bbec3c2146100ae5780632cdf0e9a146100cc5780634b026e87146100ea5780635401c1f21461010857806386ae2fb114610126575b600080fd5b6100b6610243565b6040516100c3919061331b565b60405180910390f35b6100d46104e3565b6040516100e19190613373565b60405180910390f35b6100f2610509565b6040516100ff9190613358565b60405180910390f35b61011061052f565b60405161011d91906134f1565b60405180910390f35b61012e610535565b60405161013b919061333d565b60405180910390f35b61015e60048036038101906101599190612d4c565b6107b4565b60405161016b919061333d565b60405180910390f35b61017c610c61565b60405161018c949392919061338e565b60405180910390f35b6101af60048036038101906101aa9190612d23565b610d4d565b6040516101bc919061333d565b60405180910390f35b6101cd611406565b6040516101da919061331b565b60405180910390f35b6101fd60048036038101906101f89190612d23565b611723565b60405161020a91906134cf565b60405180910390f35b61022d60048036038101906102289190612d23565b611955565b60405161023a919061333d565b60405180910390f35b60606000803373ffffffffffffffffffffffffffffffffffffffff1673ffffffffffffffffffffffffffffffffffffffff168152602001908152602001600020805480602002602001604051908101604052809291908181526020016000905b828210156104da578382906000526020600020906008020160405180610120016040529081600082015481526020016001820160009054906101000a900460ff16600381111561031c577f4e487b7100000000000000000000000000000000000000000000000000000000600052602160045260246000fd5b6003811115610354577f4e487b7100000000000000000000000000000000000000000000000000000000600052602160045260246000fd5b81526020016001820160019054906101000a900473ffffffffffffffffffffffffffffffffffffffff1673ffffffffffffffffffffffffffffffffffffffff1673ffffffffffffffffffffffffffffffffffffffff1681526020016002820160009054906101000a900473ffffffffffffffffffffffffffffffffffffffff1673ffffffffffffffffffffffffffffffffffffffff1673ffffffffffffffffffffffffffffffffffffffff16815260200160038201805480602002602001604051908101604052809291908181526020016000905b8282101561049b5783829060005260206000200180548060200260200160405190810160405280929190818152602001828054801561048757602002820191906000526020600020905b815481526020019060010190808311610473575b505050505081526020019060010190610429565b505050508152602001600482015481526020016005820154815260200160068201548152602001600782015481525050815260200190600101906102a3565b50505050905090565b600360009054906101000a900473ffffffffffffffffffffffffffffffffffffffff1681565b600260009054906101000a900473ffffffffffffffffffffffffffffffffffffffff1681565b60055481565b6000600360009054906101000a900473ffffffffffffffffffffffffffffffffffffffff1673ffffffffffffffffffffffffffffffffffffffff1663e9e797ac336040518263ffffffff1660e01b81526004016105929190613285565b60206040518083038186803b1580156105aa57600080fd5b505afa1580156105be573d6000803e3d6000fd5b505050506040513d601f19601f820116820180604052508101906105e29190612cb9565b610621576040517f08c379a00000000000000000000000000000000000000000000000000000000081526004016106189061348f565b60405180910390fd5b600360009054906101000a900473ffffffffffffffffffffffffffffffffffffffff1673ffffffffffffffffffffffffffffffffffffffff1663aab147b2336040518263ffffffff1660e01b815260040161067c9190613285565b60006040518083038186803b15801561069457600080fd5b505afa1580156106a8573d6000803e3d6000fd5b505050506040513d6000823e3d601f19601f820116820180604052508101906106d19190612ce2565b60c0015115610715576040517f08c379a000000000000000000000000000000000000000000000000000000000815260040161070c9061344f565b60405180910390fd5b61071d611978565b600360009054906101000a900473ffffffffffffffffffffffffffffffffffffffff1673ffffffffffffffffffffffffffffffffffffffff1663360912ab3360016040518363ffffffff1660e01b815260040161077b9291906132a0565b600060405180830381600087803b15801561079557600080fd5b505af11580156107a9573d6000803e3d6000fd5b505050506001905090565b6000600260009054906101000a900473ffffffffffffffffffffffffffffffffffffffff1673ffffffffffffffffffffffffffffffffffffffff16638c4772fc336040518263ffffffff1660e01b81526004016108119190613285565b60206040518083038186803b15801561082957600080fd5b505afa15801561083d573d6000803e3d6000fd5b505050506040513d601f19601f820116820180604052508101906108619190612cb9565b6108a0576040517f08c379a0000000000000000000000000000000000000000000000000000000008152600401610897906134af565b60405180910390fd5b826108aa81611955565b6108e9576040517f08c379a00000000000000000000000000000000000000000000000000000000081526004016108e0906133ef565b60405180910390fd5b836108f381611bb1565b610932576040517f08c379a00000000000000000000000000000000000000000000000000000000081526004016109299061346f565b60405180910390fd5b8461093c81611c51565b61097b576040517f08c379a00000000000000000000000000000000000000000000000000000000081526004016109729061342f565b60405180910390fd5b60006001600088815260200190815260200160002060405180610120016040529081600082015481526020016001820160009054906101000a900460ff1660038111156109f1577f4e487b7100000000000000000000000000000000000000000000000000000000600052602160045260246000fd5b6003811115610a29577f4e487b7100000000000000000000000000000000000000000000000000000000600052602160045260246000fd5b81526020016001820160019054906101000a900473ffffffffffffffffffffffffffffffffffffffff1673ffffffffffffffffffffffffffffffffffffffff1673ffffffffffffffffffffffffffffffffffffffff1681526020016002820160009054906101000a900473ffffffffffffffffffffffffffffffffffffffff1673ffffffffffffffffffffffffffffffffffffffff1673ffffffffffffffffffffffffffffffffffffffff16815260200160038201805480602002602001604051908101604052809291908181526020016000905b82821015610b7057838290600052602060002001805480602002602001604051908101604052809291908181526020018280548015610b5c57602002820191906000526020600020905b815481526020019060010190808311610b48575b505050505081526020019060010190610afe565b5050505081526020016004820154815260200160058201548152602001600682015481526020016007820154815250509050610bac8187611cbf565b610bb581611eb5565b610bbe81612442565b600360009054906101000a900473ffffffffffffffffffffffffffffffffffffffff1673ffffffffffffffffffffffffffffffffffffffff1663b08ab06182604001516107d06040518363ffffffff1660e01b8152600401610c219291906132f2565b600060405180830381600087803b158015610c3b57600080fd5b505af1158015610c4f573d6000803e3d6000fd5b50505050600194505050505092915050565b6060806060806040518060400160405280600481526020017f4f50454e000000000000000000000000000000000000000000000000000000008152506040518060400160405280600881526020017f41434345505445440000000000000000000000000000000000000000000000008152506040518060400160405280600981526020017f494e5350454354454400000000000000000000000000000000000000000000008152506040518060400160405280600781526020017f4558504952454400000000000000000000000000000000000000000000000000815250935093509350935090919293565b6000600260009054906101000a900473ffffffffffffffffffffffffffffffffffffffff1673ffffffffffffffffffffffffffffffffffffffff16638c4772fc336040518263ffffffff1660e01b8152600401610daa9190613285565b60206040518083038186803b158015610dc257600080fd5b505afa158015610dd6573d6000803e3d6000fd5b505050506040513d601f19601f82011682018060405250810190610dfa9190612cb9565b610e39576040517f08c379a0000000000000000000000000000000000000000000000000000000008152600401610e30906134af565b60405180910390fd5b81610e4381611955565b610e82576040517f08c379a0000000000000000000000000000000000000000000000000000000008152600401610e79906133ef565b60405180910390fd5b60006001600085815260200190815260200160002060405180610120016040529081600082015481526020016001820160009054906101000a900460ff166003811115610ef8577f4e487b7100000000000000000000000000000000000000000000000000000000600052602160045260246000fd5b6003811115610f30577f4e487b7100000000000000000000000000000000000000000000000000000000600052602160045260246000fd5b81526020016001820160019054906101000a900473ffffffffffffffffffffffffffffffffffffffff1673ffffffffffffffffffffffffffffffffffffffff1673ffffffffffffffffffffffffffffffffffffffff1681526020016002820160009054906101000a900473ffffffffffffffffffffffffffffffffffffffff1673ffffffffffffffffffffffffffffffffffffffff1673ffffffffffffffffffffffffffffffffffffffff16815260200160038201805480602002602001604051908101604052809291908181526020016000905b828210156110775783829060005260206000200180548060200260200160405190810160405280929190818152602001828054801561106357602002820191906000526020600020905b81548152602001906001019080831161104f575b505050505081526020019060010190611005565b5050505081526020016004820154815260200160058201548152602001600682015481526020016007820154815250509050600060038111156110e3577f4e487b7100000000000000000000000000000000000000000000000000000000600052602160045260246000fd5b81602001516003811115611120577f4e487b7100000000000000000000000000000000000000000000000000000000600052602160045260246000fd5b14611160576040517f08c379a00000000000000000000000000000000000000000000000000000000081526004016111579061340f565b60405180910390fd5b60018160200190600381111561119f577f4e487b7100000000000000000000000000000000000000000000000000000000600052602160045260246000fd5b908160038111156111d9577f4e487b7100000000000000000000000000000000000000000000000000000000600052602160045260246000fd5b81525050428161010001818152505033816060019073ffffffffffffffffffffffffffffffffffffffff16908173ffffffffffffffffffffffffffffffffffffffff168152505080600160008681526020019081526020016000206000820151816000015560208201518160010160006101000a81548160ff0219169083600381111561128f577f4e487b7100000000000000000000000000000000000000000000000000000000600052602160045260246000fd5b021790555060408201518160010160016101000a81548173ffffffffffffffffffffffffffffffffffffffff021916908373ffffffffffffffffffffffffffffffffffffffff16021790555060608201518160020160006101000a81548173ffffffffffffffffffffffffffffffffffffffff021916908373ffffffffffffffffffffffffffffffffffffffff160217905550608082015181600301908051906020019061133e92919061266f565b5060a0820151816004015560c0820151816005015560e082015181600601556101008201518160070155905050600260009054906101000a900473ffffffffffffffffffffffffffffffffffffffff1673ffffffffffffffffffffffffffffffffffffffff1663360912ab3360016040518363ffffffff1660e01b81526004016113c99291906132a0565b600060405180830381600087803b1580156113e357600080fd5b505af11580156113f7573d6000803e3d6000fd5b50505050600192505050919050565b6060600060055467ffffffffffffffff81111561144c577f4e487b7100000000000000000000000000000000000000000000000000000000600052604160045260246000fd5b60405190808252806020026020018201604052801561148557816020015b6114726126cf565b81526020019060019003908161146a5790505b50905060005b60055481101561171b57600160006001836114a69190613715565b815260200190815260200160002060405180610120016040529081600082015481526020016001820160009054906101000a900460ff166003811115611515577f4e487b7100000000000000000000000000000000000000000000000000000000600052602160045260246000fd5b600381111561154d577f4e487b7100000000000000000000000000000000000000000000000000000000600052602160045260246000fd5b81526020016001820160019054906101000a900473ffffffffffffffffffffffffffffffffffffffff1673ffffffffffffffffffffffffffffffffffffffff1673ffffffffffffffffffffffffffffffffffffffff1681526020016002820160009054906101000a900473ffffffffffffffffffffffffffffffffffffffff1673ffffffffffffffffffffffffffffffffffffffff1673ffffffffffffffffffffffffffffffffffffffff16815260200160038201805480602002602001604051908101604052809291908181526020016000905b828210156116945783829060005260206000200180548060200260200160405190810160405280929190818152602001828054801561168057602002820191906000526020600020905b81548152602001906001019080831161166c575b505050505081526020019060010190611622565b5050505081526020016004820154815260200160058201548152602001600682015481526020016007820154815250508282815181106116fd577f4e487b7100000000000000000000000000000000000000000000000000000000600052603260045260246000fd5b60200260200101819052508080611713906138ad565b91505061148b565b508091505090565b61172b6126cf565b6001600083815260200190815260200160002060405180610120016040529081600082015481526020016001820160009054906101000a900460ff16600381111561179f577f4e487b7100000000000000000000000000000000000000000000000000000000600052602160045260246000fd5b60038111156117d7577f4e487b7100000000000000000000000000000000000000000000000000000000600052602160045260246000fd5b81526020016001820160019054906101000a900473ffffffffffffffffffffffffffffffffffffffff1673ffffffffffffffffffffffffffffffffffffffff1673ffffffffffffffffffffffffffffffffffffffff1681526020016002820160009054906101000a900473ffffffffffffffffffffffffffffffffffffffff1673ffffffffffffffffffffffffffffffffffffffff1673ffffffffffffffffffffffffffffffffffffffff16815260200160038201805480602002602001604051908101604052809291908181526020016000905b8282101561191e5783829060005260206000200180548060200260200160405190810160405280929190818152602001828054801561190a57602002820191906000526020600020905b8154815260200190600101908083116118f6575b5050505050815260200190600101906118ac565b5050505081526020016004820154815260200160058201548152602001600682015481526020016007820154815250509050919050565b600060018060008481526020019081526020016000206000015410159050919050565b606060006004544261198a9190613715565b9050600060405180610120016040528060016005546119a99190613715565b8152602001600060038111156119e8577f4e487b7100000000000000000000000000000000000000000000000000000000600052602160045260246000fd5b81526020013373ffffffffffffffffffffffffffffffffffffffff1681526020013373ffffffffffffffffffffffffffffffffffffffff16815260200184815260200160008152602001838152602001428152602001600081525090508060016000836000015181526020019081526020016000206000820151816000015560208201518160010160006101000a81548160ff02191690836003811115611ab8577f4e487b7100000000000000000000000000000000000000000000000000000000600052602160045260246000fd5b021790555060408201518160010160016101000a81548173ffffffffffffffffffffffffffffffffffffffff021916908373ffffffffffffffffffffffffffffffffffffffff16021790555060608201518160020160006101000a81548173ffffffffffffffffffffffffffffffffffffffff021916908373ffffffffffffffffffffffffffffffffffffffff1602179055506080820151816003019080519060200190611b6792919061266f565b5060a0820151816004015560c0820151816005015560e08201518160060155610100820151816007015590505060056000815480929190611ba7906138ad565b9190505550505050565b600060016003811115611bed577f4e487b7100000000000000000000000000000000000000000000000000000000600052602160045260246000fd5b6001600084815260200190815260200160002060010160009054906101000a900460ff166003811115611c49577f4e487b7100000000000000000000000000000000000000000000000000000000600052602160045260246000fd5b149050919050565b60003373ffffffffffffffffffffffffffffffffffffffff166001600084815260200190815260200160002060020160009054906101000a900473ffffffffffffffffffffffffffffffffffffffff1673ffffffffffffffffffffffffffffffffffffffff16149050919050565b808260800181905250600282602001906003811115611d07577f4e487b7100000000000000000000000000000000000000000000000000000000600052602160045260246000fd5b90816003811115611d41577f4e487b7100000000000000000000000000000000000000000000000000000000600052602160045260246000fd5b815250504282610100018181525050611d59826124dc565b8260a00181815250508160016000846000015181526020019081526020016000206000820151816000015560208201518160010160006101000a81548160ff02191690836003811115611dd5577f4e487b7100000000000000000000000000000000000000000000000000000000600052602160045260246000fd5b021790555060408201518160010160016101000a81548173ffffffffffffffffffffffffffffffffffffffff021916908373ffffffffffffffffffffffffffffffffffffffff16021790555060608201518160020160006101000a81548173ffffffffffffffffffffffffffffffffffffffff021916908373ffffffffffffffffffffffffffffffffffffffff1602179055506080820151816003019080519060200190611e8492919061266f565b5060a0820151816004015560c0820151816005015560e0820151816006015561010082015181600701559050505050565b600081604001519050600082606001519050600260009054906101000a900473ffffffffffffffffffffffffffffffffffffffff1673ffffffffffffffffffffffffffffffffffffffff1663360912ab8260006040518363ffffffff1660e01b8152600401611f259291906132a0565b600060405180830381600087803b158015611f3f57600080fd5b505af1158015611f53573d6000803e3d6000fd5b50505050600260009054906101000a900473ffffffffffffffffffffffffffffffffffffffff1673ffffffffffffffffffffffffffffffffffffffff1663c19c9037826040518263ffffffff1660e01b8152600401611fb29190613285565b600060405180830381600087803b158015611fcc57600080fd5b505af1158015611fe0573d6000803e3d6000fd5b50505050600360009054906101000a900473ffffffffffffffffffffffffffffffffffffffff1673ffffffffffffffffffffffffffffffffffffffff1663360912ab8360006040518363ffffffff1660e01b81526004016120429291906132a0565b600060405180830381600087803b15801561205c57600080fd5b505af1158015612070573d6000803e3d6000fd5b50505050600360009054906101000a900473ffffffffffffffffffffffffffffffffffffffff1673ffffffffffffffffffffffffffffffffffffffff1663c19c9037836040518263ffffffff1660e01b81526004016120cf9190613285565b600060405180830381600087803b1580156120e957600080fd5b505af11580156120fd573d6000803e3d6000fd5b505050506000808373ffffffffffffffffffffffffffffffffffffffff1673ffffffffffffffffffffffffffffffffffffffff1681526020019081526020016000208390806001815401808255809150506001900390600052602060002090600802016000909190919091506000820151816000015560208201518160010160006101000a81548160ff021916908360038111156121c4577f4e487b7100000000000000000000000000000000000000000000000000000000600052602160045260246000fd5b021790555060408201518160010160016101000a81548173ffffffffffffffffffffffffffffffffffffffff021916908373ffffffffffffffffffffffffffffffffffffffff16021790555060608201518160020160006101000a81548173ffffffffffffffffffffffffffffffffffffffff021916908373ffffffffffffffffffffffffffffffffffffffff160217905550608082015181600301908051906020019061227392919061266f565b5060a0820151816004015560c0820151816005015560e08201518160060155610100820151816007015550506000808273ffffffffffffffffffffffffffffffffffffffff1673ffffffffffffffffffffffffffffffffffffffff1681526020019081526020016000208390806001815401808255809150506001900390600052602060002090600802016000909190919091506000820151816000015560208201518160010160006101000a81548160ff02191690836003811115612362577f4e487b7100000000000000000000000000000000000000000000000000000000600052602160045260246000fd5b021790555060408201518160010160016101000a81548173ffffffffffffffffffffffffffffffffffffffff021916908373ffffffffffffffffffffffffffffffffffffffff16021790555060608201518160020160006101000a81548173ffffffffffffffffffffffffffffffffffffffff021916908373ffffffffffffffffffffffffffffffffffffffff160217905550608082015181600301908051906020019061241192919061266f565b5060a0820151816004015560c0820151816005015560e0820151816006015561010082015181600701555050505050565b600360009054906101000a900473ffffffffffffffffffffffffffffffffffffffff1673ffffffffffffffffffffffffffffffffffffffff16632253eee482604001518360a001516040518363ffffffff1660e01b81526004016124a79291906132c9565b600060405180830381600087803b1580156124c157600080fd5b505af11580156124d5573d6000803e3d6000fd5b5050505050565b6000808260800151905060006124f1826124fd565b90508092505050919050565b6000806040518060a00160405280600a815260200160058152602001600081526020017ffffffffffffffffffffffffffffffffffffffffffffffffffffffffffffffffb81526020017ffffffffffffffffffffffffffffffffffffffffffffffffffffffffffffffff681525090506000805b84518160ff161015612664576000858260ff16815181106125ba577f4e487b7100000000000000000000000000000000000000000000000000000000600052603260045260246000fd5b60200260200101516001815181106125fb577f4e487b7100000000000000000000000000000000000000000000000000000000600052603260045260246000fd5b6020026020010151905083816005811061263e577f4e487b7100000000000000000000000000000000000000000000000000000000600052603260045260246000fd5b60200201518361264e9190613681565b925050808061265c906138f6565b915050612570565b508092505050919050565b8280548282559060005260206000209081019282156126be579160200282015b828111156126bd5782518290805190602001906126ad92919061277f565b509160200191906001019061268f565b5b5090506126cb91906127cc565b5090565b604051806101200160405280600081526020016000600381111561271c577f4e487b7100000000000000000000000000000000000000000000000000000000600052602160045260246000fd5b8152602001600073ffffffffffffffffffffffffffffffffffffffff168152602001600073ffffffffffffffffffffffffffffffffffffffff16815260200160608152602001600081526020016000815260200160008152602001600081525090565b8280548282559060005260206000209081019282156127bb579160200282015b828111156127ba57825182559160200191906001019061279f565b5b5090506127c891906127f0565b5090565b5b808211156127ec57600081816127e3919061280d565b506001016127cd565b5090565b5b808211156128095760008160009055506001016127f1565b5090565b508054600082559060005260206000209081019061282b91906127f0565b50565b600061284161283c84613531565b61350c565b9050808382526020820190508260005b8581101561288157813585016128678882612974565b845260208401935060208301925050600181019050612851565b5050509392505050565b600061289e6128998461355d565b61350c565b905080838252602082019050828560208602820111156128bd57600080fd5b60005b858110156128ed57816128d38882612c8f565b8452602084019350602083019250506001810190506128c0565b5050509392505050565b600061290a61290584613589565b61350c565b90508281526020810184848401111561292257600080fd5b61292d848285613849565b509392505050565b60008151905061294481613af1565b92915050565b600082601f83011261295b57600080fd5b813561296b84826020860161282e565b91505092915050565b600082601f83011261298557600080fd5b813561299584826020860161288b565b91505092915050565b6000815190506129ad81613b08565b92915050565b6000815190506129c281613b1f565b92915050565b6000815190506129d781613b2f565b92915050565b600082601f8301126129ee57600080fd5b81516129fe8482602086016128f7565b91505092915050565b60006101808284031215612a1a57600080fd5b612a2561016061350c565b90506000612a3584828501612ca4565b6000830152506020612a4984828501612935565b6020830152506040612a5d848285016129b3565b604083015250606082015167ffffffffffffffff811115612a7d57600080fd5b612a89848285016129dd565b606083015250608082015167ffffffffffffffff811115612aa957600080fd5b612ab5848285016129dd565b60808301525060a082015167ffffffffffffffff811115612ad557600080fd5b612ae1848285016129dd565b60a08301525060c0612af58482850161299e565b60c08301525060e0612b0984828501612ca4565b60e083015250610100612b1e848285016129c8565b61010083015250610120612b3484828501612c43565b6101208301525061016082015167ffffffffffffffff811115612b5657600080fd5b612b6284828501612b6f565b6101408301525092915050565b600060808284031215612b8157600080fd5b612b8b608061350c565b9050600082015167ffffffffffffffff811115612ba757600080fd5b612bb3848285016129dd565b600083015250602082015167ffffffffffffffff811115612bd357600080fd5b612bdf848285016129dd565b602083015250604082015167ffffffffffffffff811115612bff57600080fd5b612c0b848285016129dd565b604083015250606082015167ffffffffffffffff811115612c2b57600080fd5b612c37848285016129dd565b60608301525092915050565b600060408284031215612c5557600080fd5b612c5f604061350c565b90506000612c6f84828501612ca4565b6000830152506020612c838482850161299e565b60208301525092915050565b600081359050612c9e81613b46565b92915050565b600081519050612cb381613b46565b92915050565b600060208284031215612ccb57600080fd5b6000612cd98482850161299e565b91505092915050565b600060208284031215612cf457600080fd5b600082015167ffffffffffffffff811115612d0e57600080fd5b612d1a84828501612a07565b91505092915050565b600060208284031215612d3557600080fd5b6000612d4384828501612c8f565b91505092915050565b60008060408385031215612d5f57600080fd5b6000612d6d85828601612c8f565b925050602083013567ffffffffffffffff811115612d8a57600080fd5b612d968582860161294a565b9150509250929050565b6000612dac8383612ee8565b905092915050565b6000612dc083836130dd565b905092915050565b6000612dd48383613267565b60208301905092915050565b612de98161376b565b82525050565b612df88161376b565b82525050565b6000612e09826135ea565b612e13818561363d565b935083602082028501612e25856135ba565b8060005b85811015612e615784840389528151612e428582612da0565b9450612e4d83613616565b925060208a01995050600181019050612e29565b50829750879550505050505092915050565b6000612e7e826135f5565b612e88818561364e565b935083602082028501612e9a856135ca565b8060005b85811015612ed65784840389528151612eb78582612db4565b9450612ec283613623565b925060208a01995050600181019050612e9e565b50829750879550505050505092915050565b6000612ef382613600565b612efd818561365f565b9350612f08836135da565b8060005b83811015612f39578151612f208882612dc8565b9750612f2b83613630565b925050600181019050612f0c565b5085935050505092915050565b612f4f8161377d565b82525050565b612f5e816137dd565b82525050565b612f6d81613801565b82525050565b612f7c81613825565b82525050565b612f8b8161379c565b82525050565b612f9a8161379c565b82525050565b612fa981613837565b82525050565b6000612fba8261360b565b612fc48185613670565b9350612fd4818560208601613849565b612fdd816139ad565b840191505092915050565b6000612ff5601c83613670565b9150613000826139be565b602082019050919050565b6000613018601b83613670565b9150613023826139e7565b602082019050919050565b600061303b602083613670565b915061304682613a10565b602082019050919050565b600061305e601883613670565b915061306982613a39565b602082019050919050565b6000613081601d83613670565b915061308c82613a62565b602082019050919050565b60006130a4601b83613670565b91506130af82613a8b565b602082019050919050565b60006130c7601b83613670565b91506130d282613ab4565b602082019050919050565b6000610120830160008301516130f66000860182613267565b5060208301516131096020860182612f73565b50604083015161311c6040860182612de0565b50606083015161312f6060860182612de0565b50608083015184820360808601526131478282612dfe565b91505060a083015161315c60a0860182612f82565b5060c083015161316f60c0860182613267565b5060e083015161318260e0860182613267565b50610100830151613197610100860182613267565b508091505092915050565b6000610120830160008301516131bb6000860182613267565b5060208301516131ce6020860182612f73565b5060408301516131e16040860182612de0565b5060608301516131f46060860182612de0565b506080830151848203608086015261320c8282612dfe565b91505060a083015161322160a0860182612f82565b5060c083015161323460c0860182613267565b5060e083015161324760e0860182613267565b5061010083015161325c610100860182613267565b508091505092915050565b613270816137c6565b82525050565b61327f816137c6565b82525050565b600060208201905061329a6000830184612def565b92915050565b60006040820190506132b56000830185612def565b6132c26020830184612f46565b9392505050565b60006040820190506132de6000830185612def565b6132eb6020830184612f91565b9392505050565b60006040820190506133076000830185612def565b6133146020830184612fa0565b9392505050565b600060208201905081810360008301526133358184612e73565b905092915050565b60006020820190506133526000830184612f46565b92915050565b600060208201905061336d6000830184612f55565b92915050565b60006020820190506133886000830184612f64565b92915050565b600060808201905081810360008301526133a88187612faf565b905081810360208301526133bc8186612faf565b905081810360408301526133d08185612faf565b905081810360608301526133e48184612faf565b905095945050505050565b6000602082019050818103600083015261340881612fe8565b9050919050565b600060208201905081810360008301526134288161300b565b9050919050565b600060208201905081810360008301526134488161302e565b9050919050565b6000602082019050818103600083015261346881613051565b9050919050565b6000602082019050818103600083015261348881613074565b9050919050565b600060208201905081810360008301526134a881613097565b9050919050565b600060208201905081810360008301526134c8816130ba565b9050919050565b600060208201905081810360008301526134e981846131a2565b905092915050565b60006020820190506135066000830184613276565b92915050565b6000613516613527565b9050613522828261387c565b919050565b6000604051905090565b600067ffffffffffffffff82111561354c5761354b61397e565b5b602082029050602081019050919050565b600067ffffffffffffffff8211156135785761357761397e565b5b602082029050602081019050919050565b600067ffffffffffffffff8211156135a4576135a361397e565b5b6135ad826139ad565b9050602081019050919050565b6000819050602082019050919050565b6000819050602082019050919050565b6000819050602082019050919050565b600081519050919050565b600081519050919050565b600081519050919050565b600081519050919050565b6000602082019050919050565b6000602082019050919050565b6000602082019050919050565b600082825260208201905092915050565b600082825260208201905092915050565b600082825260208201905092915050565b600082825260208201905092915050565b600061368c8261379c565b91506136978361379c565b9250817f7fffffffffffffffffffffffffffffffffffffffffffffffffffffffffffffff038313600083121516156136d2576136d1613920565b5b817f800000000000000000000000000000000000000000000000000000000000000003831260008312161561370a57613709613920565b5b828201905092915050565b6000613720826137c6565b915061372b836137c6565b9250827fffffffffffffffffffffffffffffffffffffffffffffffffffffffffffffffff038211156137605761375f613920565b5b828201905092915050565b6000613776826137a6565b9050919050565b60008115159050919050565b600081905061379782613add565b919050565b6000819050919050565b600073ffffffffffffffffffffffffffffffffffffffff82169050919050565b6000819050919050565b600060ff82169050919050565b60006137e8826137ef565b9050919050565b60006137fa826137a6565b9050919050565b600061380c82613813565b9050919050565b600061381e826137a6565b9050919050565b600061383082613789565b9050919050565b6000613842826137c6565b9050919050565b60005b8381101561386757808201518184015260208101905061384c565b83811115613876576000848401525b50505050565b613885826139ad565b810181811067ffffffffffffffff821117156138a4576138a361397e565b5b80604052505050565b60006138b8826137c6565b91507fffffffffffffffffffffffffffffffffffffffffffffffffffffffffffffffff8214156138eb576138ea613920565b5b600182019050919050565b6000613901826137d0565b915060ff82141561391557613914613920565b5b600182019050919050565b7f4e487b7100000000000000000000000000000000000000000000000000000000600052601160045260246000fd5b7f4e487b7100000000000000000000000000000000000000000000000000000000600052602160045260246000fd5b7f4e487b7100000000000000000000000000000000000000000000000000000000600052604160045260246000fd5b6000601f19601f8301169050919050565b7f5468697320696e7370656374696f6e20646f6e27742065786973747300000000600082015250565b7f5468697320696e7370656374696f6e206973206e6f74204f50454e0000000000600082015250565b7f596f75206e6f74206163636570746564207468697320696e7370656374696f6e600082015250565b7f52657175657374204f50454e206f722041434345505445440000000000000000600082015250565b7f416363657074207468697320696e7370656374696f6e206265666f7265000000600082015250565b7f506c656173652072656769737465722061732070726f64756365720000000000600082015250565b7f506c656173652072656769737465722061732061637469766973740000000000600082015250565b60048110613aee57613aed61394f565b5b50565b613afa8161376b565b8114613b0557600080fd5b50565b613b118161377d565b8114613b1c57600080fd5b50565b60078110613b2c57600080fd5b50565b613b388161379c565b8114613b4357600080fd5b50565b613b4f816137c6565b8114613b5a57600080fd5b5056fea264697066735822122098e2a035868cdcdade59ce8b8594cc9d774e0304d3c395294be78131064321e764736f6c63430008020033",
  "immutableReferences": {},
  "source": "// SPDX-License-Identifier: GPL-3.0\r\npragma solidity >=0.7.0 <=0.9.0;\r\n\r\nimport \"./ProducerContract.sol\";\r\nimport \"./ActivistContract.sol\";\r\nimport \"./CategoryContract.sol\";\r\nimport \"./types/InspectionTypes.sol\";\r\n\r\n/**\r\n * @title SintropContract\r\n * @dev Sintrop application to certificated a rural producer\r\n */\r\ncontract Sintrop {\r\n  mapping(address => Inspection[]) internal userInspections;\r\n  mapping(uint256 => Inspection) internal inspections;\r\n\r\n  ActivistContract public activistContract;\r\n  ProducerContract public producerContract;\r\n\r\n  uint256 internal inspactionExpireIn = 604800;\r\n  uint256 public inspectionsCount;\r\n\r\n  constructor(address activistContractAddress, address producerContractAddress) {\r\n    activistContract = ActivistContract(activistContractAddress);\r\n    producerContract = ProducerContract(producerContractAddress);\r\n  }\r\n\r\n  /**\r\n   * @dev Allows the current user producer/activist get all yours inspections with status INSPECTED\r\n   */\r\n  function getInspectionsHistory() public view returns (Inspection[] memory) {\r\n    return userInspections[msg.sender];\r\n  }\r\n\r\n  /**\r\n   * @dev Allows the current user (producer) request a inspection.\r\n   */\r\n  function requestInspection()\r\n    public\r\n    producerMustExist\r\n    mustBeAbleToRequest\r\n    returns (bool) {\r\n    createRequest();\r\n    producerContract.recentInspection(msg.sender, true);\r\n\r\n    return true;\r\n  }\r\n\r\n  function createRequest() internal {\r\n    uint256[][] memory isas;\r\n    uint256 expiresIn = block.timestamp + inspactionExpireIn;\r\n    Inspection memory inspection = Inspection(\r\n      inspectionsCount + 1,\r\n      InspectionStatus.OPEN,\r\n      msg.sender,\r\n      msg.sender,\r\n      isas,\r\n      0,\r\n      expiresIn,\r\n      block.timestamp,\r\n      0\r\n    );\r\n    inspections[inspection.id] = inspection;\r\n    inspectionsCount++;\r\n  }\r\n\r\n  /**\r\n   * @dev Allows the current user (activist) accept a inspection.\r\n   * @param inspectionId The id of the inspection that the activist want accept.\r\n   */\r\n  function acceptInspection(uint256 inspectionId)\r\n    public\r\n    requireActivist\r\n    requireInspectionExists(inspectionId)\r\n    returns (bool)\r\n  {\r\n    Inspection memory inspection = inspections[inspectionId];\r\n\r\n    require(inspection.status == InspectionStatus.OPEN, \"This inspection is not OPEN\");\r\n\r\n    inspection.status = InspectionStatus.ACCEPTED;\r\n    inspection.updatedAt = block.timestamp;\r\n    inspection.acceptedBy = msg.sender;\r\n    inspections[inspectionId] = inspection;\r\n\r\n    activistContract.recentInspection(msg.sender, true);\r\n\r\n    return true;\r\n  }\r\n\r\n  /**\r\n   * @dev Allow a activist realize a inspection and mark as INSPECTED\r\n   * @param inspectionId The id of the inspection to be realized\r\n   * @param isas The uint[][] of categoryId and isaIndex. Ex: isas = [ [categoryId, isaIndex], [categoryId, isaIndex] ]\r\n   */\r\n  function realizeInspection(uint256 inspectionId, uint256[][] memory isas)\r\n    public\r\n    requireActivist\r\n    requireInspectionExists(inspectionId)\r\n    requireInspectionAccepted(inspectionId)\r\n    requireInspectionOwner(inspectionId)\r\n    returns (bool)\r\n  {\r\n    Inspection memory inspection = inspections[inspectionId];\r\n\r\n    markAsRealized(inspection, isas);\r\n\r\n    afterRealizeInspection(inspection);\r\n\r\n    updateProducerIsa(inspection);\r\n\r\n    producerContract.approveProducerNewTokens(inspection.createdBy, 2000);\r\n\r\n    return true;\r\n  }\r\n\r\n  /**\r\n   * @dev Calculate the ISA of the inspection based in the category and the ISA level of the category\r\n   * @param inspection Receive the inspected inspection with your isas levels\r\n   */\r\n  function calculateIsa(Inspection memory inspection) internal pure returns (int256) {\r\n    uint256[][] memory isas = inspection.isas;\r\n    int256 isaPoints = sumIsaPoints(isas);\r\n    return isaPoints;\r\n  }\r\n\r\n  /**\r\n   * @dev Sum the ISA points\r\n   * @param isas The isas values as list of [[categoryId, isaIndex], [categoryId, isaIndex]]\r\n   */\r\n  function sumIsaPoints(uint256[][] memory isas) internal pure returns (int256) {\r\n    int256[5] memory points = [int256(10), int256(5), int256(0), int256(-5), int256(-10)];\r\n    int256 isaPoints = 0;\r\n\r\n    for (uint8 i = 0; i < isas.length; i++) {\r\n      uint256 isaIndex = isas[i][1];\r\n      isaPoints += points[isaIndex];\r\n    }\r\n    return isaPoints;\r\n  }\r\n\r\n  function markAsRealized(Inspection memory inspection, uint256[][] memory isas) internal {\r\n    inspection.isas = isas;\r\n    inspection.status = InspectionStatus.INSPECTED;\r\n    inspection.updatedAt = block.timestamp;\r\n    inspection.isaPoints = calculateIsa(inspection);\r\n    inspections[inspection.id] = inspection;\r\n  }\r\n\r\n  function updateProducerIsa(Inspection memory inspection) internal {\r\n    producerContract.updateIsaPoints(inspection.createdBy, inspection.isaPoints);\r\n  }\r\n\r\n  /**\r\n   * @dev Returns a inspection by id if that exists.\r\n   * @param id The id of the inspection to return.\r\n   */\r\n  function getInspection(uint256 id) public view returns (Inspection memory) {\r\n    return inspections[id];\r\n  }\r\n\r\n  /**\r\n   * @dev Returns all requested inspections.\r\n   */\r\n  function getInspections() public view returns (Inspection[] memory) {\r\n    Inspection[] memory inspectionsList = new Inspection[](inspectionsCount);\r\n\r\n    for (uint256 i = 0; i < inspectionsCount; i++) {\r\n      inspectionsList[i] = inspections[i + 1];\r\n    }\r\n\r\n    return inspectionsList;\r\n  }\r\n\r\n  /**\r\n   * @dev Returns all inpections status string.\r\n   */\r\n  function getInspectionsStatus()\r\n    public\r\n    pure\r\n    returns (\r\n      string memory,\r\n      string memory,\r\n      string memory,\r\n      string memory\r\n    )\r\n  {\r\n    return (\"OPEN\", \"ACCEPTED\", \"INSPECTED\", \"EXPIRED\" );\r\n  }\r\n\r\n  /**\r\n   * @dev Check if an inspections exists in mapping.\r\n   * @param id The id of the inspection that the activist want accept.\r\n   */\r\n  function inspectionExists(uint256 id) public view returns (bool) {\r\n    return inspections[id].id >= 1;\r\n  }\r\n\r\n  /**\r\n   * @dev Inscrement producer and activist request action and mark both as no recent open requests and inspection\r\n   * @param inspection the inspected inspection\r\n   */\r\n  function afterRealizeInspection(Inspection memory inspection) internal {\r\n    address createdBy = inspection.createdBy;\r\n    address acceptedBy = inspection.acceptedBy;\r\n\r\n    // Increment actvist inspections and release to carry out new inspections\r\n    activistContract.recentInspection(acceptedBy, false);\r\n    activistContract.incrementRequests(acceptedBy);\r\n\r\n    // Increment producer requests and release to carry out new requests\r\n    producerContract.recentInspection(createdBy, false);\r\n    producerContract.incrementRequests(createdBy);\r\n\r\n    userInspections[createdBy].push(inspection);\r\n    userInspections[acceptedBy].push(inspection);\r\n  }\r\n\r\n  function isActivistOwner(uint256 inspectionId) internal view returns (bool) {\r\n    return inspections[inspectionId].acceptedBy == msg.sender;\r\n  }\r\n\r\n  function isAccepted(uint256 inspectionId) internal view returns (bool) {\r\n    return inspections[inspectionId].status == InspectionStatus.ACCEPTED;\r\n  }\r\n\r\n  // MODIFIERS\r\n\r\n  modifier requireActivist() {\r\n    require(activistContract.activistExists(msg.sender), \"Please register as activist\");\r\n    _;\r\n  }\r\n\r\n  modifier requireInspectionExists(uint256 inspectionId) {\r\n    require(inspectionExists(inspectionId), \"This inspection don't exists\");\r\n    _;\r\n  }\r\n\r\n  modifier producerMustExist() {\r\n    require(producerContract.producerExists(msg.sender), \"Please register as producer\");\r\n    _;\r\n  }\r\n\r\n  modifier mustBeAbleToRequest() {\r\n    require(!producerContract.getProducer(msg.sender).recentInspection, \"Request OPEN or ACCEPTED\");\r\n    _;\r\n  }\r\n\r\n  modifier requireInspectionAccepted(uint256 inspectionId) {\r\n    require(isAccepted(inspectionId), \"Accept this inspection before\");\r\n    _;\r\n  }\r\n\r\n  modifier requireInspectionOwner(uint256 inspectionId) {\r\n    require(isActivistOwner(inspectionId), \"You not accepted this inspection\");\r\n    _;\r\n  }\r\n}\r\n",
  "sourcePath": "/app/contracts/Sintrop.sol",
  "compiler": {
    "name": "solc",
    "version": "0.8.2+commit.661d1103.Emscripten.clang"
  },
  "schemaVersion": "3.4.7",
  "updatedAt": "2022-06-14T21:44:41.106Z",
  "networkType": "ethereum",
  "devdoc": {
    "details": "Sintrop application to certificated a rural producer",
    "kind": "dev",
    "methods": {
      "acceptInspection(uint256)": {
        "details": "Allows the current user (activist) accept a inspection.",
        "params": {
          "inspectionId": "The id of the inspection that the activist want accept."
        }
      },
      "getInspection(uint256)": {
        "details": "Returns a inspection by id if that exists.",
        "params": {
          "id": "The id of the inspection to return."
        }
      },
      "getInspections()": {
        "details": "Returns all requested inspections."
      },
      "getInspectionsHistory()": {
        "details": "Allows the current user producer/activist get all yours inspections with status INSPECTED"
      },
      "getInspectionsStatus()": {
        "details": "Returns all inpections status string."
      },
      "inspectionExists(uint256)": {
        "details": "Check if an inspections exists in mapping.",
        "params": {
          "id": "The id of the inspection that the activist want accept."
        }
      },
      "realizeInspection(uint256,uint256[][])": {
        "details": "Allow a activist realize a inspection and mark as INSPECTED",
        "params": {
          "inspectionId": "The id of the inspection to be realized",
          "isas": "The uint[][] of categoryId and isaIndex. Ex: isas = [ [categoryId, isaIndex], [categoryId, isaIndex] ]"
        }
      },
      "requestInspection()": {
        "details": "Allows the current user (producer) request a inspection."
      }
    },
    "title": "SintropContract",
    "version": 1
  },
  "userdoc": {
    "kind": "user",
    "methods": {},
    "version": 1
  }
}