{
  "contractName": "Sintrop",
  "abi": [
    {
      "inputs": [
        {
          "internalType": "address",
          "name": "addr",
          "type": "address"
        }
      ],
      "name": "activistExists",
      "outputs": [
        {
          "internalType": "bool",
          "name": "",
          "type": "bool"
        }
      ],
      "stateMutability": "view",
      "type": "function",
      "constant": true
    },
    {
      "inputs": [],
      "name": "activistsCount",
      "outputs": [
        {
          "internalType": "uint256",
          "name": "",
          "type": "uint256"
        }
      ],
      "stateMutability": "view",
      "type": "function",
      "constant": true
    },
    {
      "inputs": [
        {
          "internalType": "string",
          "name": "name",
          "type": "string"
        },
        {
          "internalType": "string",
          "name": "document",
          "type": "string"
        },
        {
          "internalType": "string",
          "name": "documentType",
          "type": "string"
        },
        {
          "internalType": "string",
          "name": "country",
          "type": "string"
        },
        {
          "internalType": "string",
          "name": "state",
          "type": "string"
        },
        {
          "internalType": "string",
          "name": "city",
          "type": "string"
        },
        {
          "internalType": "string",
          "name": "cep",
          "type": "string"
        }
      ],
      "name": "addActivist",
      "outputs": [
        {
          "components": [
            {
              "internalType": "uint256",
              "name": "id",
              "type": "uint256"
            },
            {
              "internalType": "address",
              "name": "activistWallet",
              "type": "address"
            },
            {
              "internalType": "enum UserContract.UserType",
              "name": "userType",
              "type": "uint8"
            },
            {
              "internalType": "string",
              "name": "name",
              "type": "string"
            },
            {
              "internalType": "string",
              "name": "document",
              "type": "string"
            },
            {
              "internalType": "string",
              "name": "documentType",
              "type": "string"
            },
            {
              "internalType": "bool",
              "name": "recentInspection",
              "type": "bool"
            },
            {
              "internalType": "uint256",
              "name": "totalInspections",
              "type": "uint256"
            },
            {
              "components": [
                {
                  "internalType": "string",
                  "name": "country",
                  "type": "string"
                },
                {
                  "internalType": "string",
                  "name": "state",
                  "type": "string"
                },
                {
                  "internalType": "string",
                  "name": "city",
                  "type": "string"
                },
                {
                  "internalType": "string",
                  "name": "cep",
                  "type": "string"
                }
              ],
              "internalType": "struct ActivistContract.ActivistAddress",
              "name": "activistAddress",
              "type": "tuple"
            }
          ],
          "internalType": "struct ActivistContract.Activist",
          "name": "",
          "type": "tuple"
        }
      ],
      "stateMutability": "nonpayable",
      "type": "function"
    },
    {
      "inputs": [
        {
          "internalType": "string",
          "name": "name",
          "type": "string"
        },
        {
          "internalType": "string",
          "name": "description",
          "type": "string"
        },
        {
          "internalType": "string",
          "name": "totallySustainable",
          "type": "string"
        },
        {
          "internalType": "string",
          "name": "partiallySustainable",
          "type": "string"
        },
        {
          "internalType": "string",
          "name": "neutro",
          "type": "string"
        },
        {
          "internalType": "string",
          "name": "partiallyNotSustainable",
          "type": "string"
        },
        {
          "internalType": "string",
          "name": "totallyNotSustainable",
          "type": "string"
        }
      ],
      "name": "addCategory",
      "outputs": [
        {
          "internalType": "bool",
          "name": "",
          "type": "bool"
        }
      ],
      "stateMutability": "nonpayable",
      "type": "function"
    },
    {
      "inputs": [
        {
          "internalType": "string",
          "name": "name",
          "type": "string"
        },
        {
          "internalType": "string",
          "name": "document",
          "type": "string"
        },
        {
          "internalType": "string",
          "name": "documentType",
          "type": "string"
        },
        {
          "internalType": "string",
          "name": "country",
          "type": "string"
        },
        {
          "internalType": "string",
          "name": "state",
          "type": "string"
        },
        {
          "internalType": "string",
          "name": "city",
          "type": "string"
        },
        {
          "internalType": "string",
          "name": "cep",
          "type": "string"
        }
      ],
      "name": "addProducer",
      "outputs": [
        {
          "internalType": "bool",
          "name": "",
          "type": "bool"
        }
      ],
      "stateMutability": "nonpayable",
      "type": "function"
    },
    {
      "inputs": [],
      "name": "category",
      "outputs": [
        {
          "internalType": "uint256",
          "name": "id",
          "type": "uint256"
        },
        {
          "internalType": "address",
          "name": "createdBy",
          "type": "address"
        },
        {
          "internalType": "string",
          "name": "name",
          "type": "string"
        },
        {
          "internalType": "string",
          "name": "description",
          "type": "string"
        },
        {
          "internalType": "string",
          "name": "totallySustainable",
          "type": "string"
        },
        {
          "internalType": "string",
          "name": "partiallySustainable",
          "type": "string"
        },
        {
          "internalType": "string",
          "name": "neutro",
          "type": "string"
        },
        {
          "internalType": "string",
          "name": "partiallyNotSustainable",
          "type": "string"
        },
        {
          "internalType": "string",
          "name": "totallyNotSustainable",
          "type": "string"
        },
        {
          "internalType": "uint256",
          "name": "votesCount",
          "type": "uint256"
        },
        {
          "internalType": "uint256",
          "name": "index",
          "type": "uint256"
        }
      ],
      "stateMutability": "view",
      "type": "function",
      "constant": true
    },
    {
      "inputs": [],
      "name": "categoryCounts",
      "outputs": [
        {
          "internalType": "uint256",
          "name": "",
          "type": "uint256"
        }
      ],
      "stateMutability": "view",
      "type": "function",
      "constant": true
    },
    {
      "inputs": [
        {
          "internalType": "address",
          "name": "addr",
          "type": "address"
        }
      ],
      "name": "getActivist",
      "outputs": [
        {
          "components": [
            {
              "internalType": "uint256",
              "name": "id",
              "type": "uint256"
            },
            {
              "internalType": "address",
              "name": "activistWallet",
              "type": "address"
            },
            {
              "internalType": "enum UserContract.UserType",
              "name": "userType",
              "type": "uint8"
            },
            {
              "internalType": "string",
              "name": "name",
              "type": "string"
            },
            {
              "internalType": "string",
              "name": "document",
              "type": "string"
            },
            {
              "internalType": "string",
              "name": "documentType",
              "type": "string"
            },
            {
              "internalType": "bool",
              "name": "recentInspection",
              "type": "bool"
            },
            {
              "internalType": "uint256",
              "name": "totalInspections",
              "type": "uint256"
            },
            {
              "components": [
                {
                  "internalType": "string",
                  "name": "country",
                  "type": "string"
                },
                {
                  "internalType": "string",
                  "name": "state",
                  "type": "string"
                },
                {
                  "internalType": "string",
                  "name": "city",
                  "type": "string"
                },
                {
                  "internalType": "string",
                  "name": "cep",
                  "type": "string"
                }
              ],
              "internalType": "struct ActivistContract.ActivistAddress",
              "name": "activistAddress",
              "type": "tuple"
            }
          ],
          "internalType": "struct ActivistContract.Activist",
          "name": "",
          "type": "tuple"
        }
      ],
      "stateMutability": "view",
      "type": "function",
      "constant": true
    },
    {
      "inputs": [],
      "name": "getActivists",
      "outputs": [
        {
          "components": [
            {
              "internalType": "uint256",
              "name": "id",
              "type": "uint256"
            },
            {
              "internalType": "address",
              "name": "activistWallet",
              "type": "address"
            },
            {
              "internalType": "enum UserContract.UserType",
              "name": "userType",
              "type": "uint8"
            },
            {
              "internalType": "string",
              "name": "name",
              "type": "string"
            },
            {
              "internalType": "string",
              "name": "document",
              "type": "string"
            },
            {
              "internalType": "string",
              "name": "documentType",
              "type": "string"
            },
            {
              "internalType": "bool",
              "name": "recentInspection",
              "type": "bool"
            },
            {
              "internalType": "uint256",
              "name": "totalInspections",
              "type": "uint256"
            },
            {
              "components": [
                {
                  "internalType": "string",
                  "name": "country",
                  "type": "string"
                },
                {
                  "internalType": "string",
                  "name": "state",
                  "type": "string"
                },
                {
                  "internalType": "string",
                  "name": "city",
                  "type": "string"
                },
                {
                  "internalType": "string",
                  "name": "cep",
                  "type": "string"
                }
              ],
              "internalType": "struct ActivistContract.ActivistAddress",
              "name": "activistAddress",
              "type": "tuple"
            }
          ],
          "internalType": "struct ActivistContract.Activist[]",
          "name": "",
          "type": "tuple[]"
        }
      ],
      "stateMutability": "view",
      "type": "function",
      "constant": true
    },
    {
      "inputs": [],
      "name": "getCategories",
      "outputs": [
        {
          "components": [
            {
              "internalType": "uint256",
              "name": "id",
              "type": "uint256"
            },
            {
              "internalType": "address",
              "name": "createdBy",
              "type": "address"
            },
            {
              "internalType": "string",
              "name": "name",
              "type": "string"
            },
            {
              "internalType": "string",
              "name": "description",
              "type": "string"
            },
            {
              "internalType": "string",
              "name": "totallySustainable",
              "type": "string"
            },
            {
              "internalType": "string",
              "name": "partiallySustainable",
              "type": "string"
            },
            {
              "internalType": "string",
              "name": "neutro",
              "type": "string"
            },
            {
              "internalType": "string",
              "name": "partiallyNotSustainable",
              "type": "string"
            },
            {
              "internalType": "string",
              "name": "totallyNotSustainable",
              "type": "string"
            },
            {
              "internalType": "uint256",
              "name": "votesCount",
              "type": "uint256"
            },
            {
              "internalType": "uint256",
              "name": "index",
              "type": "uint256"
            }
          ],
          "internalType": "struct CategoryContract.Category[]",
          "name": "",
          "type": "tuple[]"
        }
      ],
      "stateMutability": "view",
      "type": "function",
      "constant": true
    },
    {
      "inputs": [
        {
          "internalType": "address",
          "name": "addr",
          "type": "address"
        }
      ],
      "name": "getProducer",
      "outputs": [
        {
          "components": [
            {
              "internalType": "uint256",
              "name": "id",
              "type": "uint256"
            },
            {
              "internalType": "address",
              "name": "producer_wallet",
              "type": "address"
            },
            {
              "internalType": "enum UserContract.UserType",
              "name": "userType",
              "type": "uint8"
            },
            {
              "internalType": "string",
              "name": "name",
              "type": "string"
            },
            {
              "internalType": "string",
              "name": "document",
              "type": "string"
            },
            {
              "internalType": "string",
              "name": "documentType",
              "type": "string"
            },
            {
              "internalType": "bool",
              "name": "recentInspection",
              "type": "bool"
            },
            {
              "internalType": "uint256",
              "name": "totalRequests",
              "type": "uint256"
            },
            {
              "internalType": "int256",
              "name": "isaPoints",
              "type": "int256"
            },
            {
              "components": [
                {
                  "internalType": "uint256",
                  "name": "allowed",
                  "type": "uint256"
                },
                {
                  "internalType": "bool",
                  "name": "withdrewToken",
                  "type": "bool"
                }
              ],
              "internalType": "struct ProducerContract.TokenApprove",
              "name": "tokenApprove",
              "type": "tuple"
            },
            {
              "components": [
                {
                  "internalType": "string",
                  "name": "country",
                  "type": "string"
                },
                {
                  "internalType": "string",
                  "name": "state",
                  "type": "string"
                },
                {
                  "internalType": "string",
                  "name": "city",
                  "type": "string"
                },
                {
                  "internalType": "string",
                  "name": "cep",
                  "type": "string"
                }
              ],
              "internalType": "struct ProducerContract.PropertyAddress",
              "name": "property_address",
              "type": "tuple"
            }
          ],
          "internalType": "struct ProducerContract.Producer",
          "name": "producer",
          "type": "tuple"
        }
      ],
      "stateMutability": "view",
      "type": "function",
      "constant": true
    },
    {
      "inputs": [
        {
          "internalType": "address",
          "name": "address_",
          "type": "address"
        }
      ],
      "name": "getProducerApprove",
      "outputs": [
        {
          "internalType": "uint256",
          "name": "",
          "type": "uint256"
        }
      ],
      "stateMutability": "view",
      "type": "function",
      "constant": true
    },
    {
      "inputs": [],
      "name": "getProducers",
      "outputs": [
        {
          "components": [
            {
              "internalType": "uint256",
              "name": "id",
              "type": "uint256"
            },
            {
              "internalType": "address",
              "name": "producer_wallet",
              "type": "address"
            },
            {
              "internalType": "enum UserContract.UserType",
              "name": "userType",
              "type": "uint8"
            },
            {
              "internalType": "string",
              "name": "name",
              "type": "string"
            },
            {
              "internalType": "string",
              "name": "document",
              "type": "string"
            },
            {
              "internalType": "string",
              "name": "documentType",
              "type": "string"
            },
            {
              "internalType": "bool",
              "name": "recentInspection",
              "type": "bool"
            },
            {
              "internalType": "uint256",
              "name": "totalRequests",
              "type": "uint256"
            },
            {
              "internalType": "int256",
              "name": "isaPoints",
              "type": "int256"
            },
            {
              "components": [
                {
                  "internalType": "uint256",
                  "name": "allowed",
                  "type": "uint256"
                },
                {
                  "internalType": "bool",
                  "name": "withdrewToken",
                  "type": "bool"
                }
              ],
              "internalType": "struct ProducerContract.TokenApprove",
              "name": "tokenApprove",
              "type": "tuple"
            },
            {
              "components": [
                {
                  "internalType": "string",
                  "name": "country",
                  "type": "string"
                },
                {
                  "internalType": "string",
                  "name": "state",
                  "type": "string"
                },
                {
                  "internalType": "string",
                  "name": "city",
                  "type": "string"
                },
                {
                  "internalType": "string",
                  "name": "cep",
                  "type": "string"
                }
              ],
              "internalType": "struct ProducerContract.PropertyAddress",
              "name": "property_address",
              "type": "tuple"
            }
          ],
          "internalType": "struct ProducerContract.Producer[]",
          "name": "",
          "type": "tuple[]"
        }
      ],
      "stateMutability": "view",
      "type": "function",
      "constant": true
    },
    {
      "inputs": [
        {
          "internalType": "address",
          "name": "addr",
          "type": "address"
        }
      ],
      "name": "getUser",
      "outputs": [
        {
          "internalType": "enum UserContract.UserType",
          "name": "",
          "type": "uint8"
        }
      ],
      "stateMutability": "view",
      "type": "function",
      "constant": true
    },
    {
      "inputs": [],
      "name": "getUserTypes",
      "outputs": [
        {
          "internalType": "string",
          "name": "",
          "type": "string"
        },
        {
          "internalType": "string",
          "name": "",
          "type": "string"
        },
        {
          "internalType": "string",
          "name": "",
          "type": "string"
        }
      ],
      "stateMutability": "pure",
      "type": "function",
      "constant": true
    },
    {
      "inputs": [
        {
          "internalType": "address",
          "name": "addr",
          "type": "address"
        }
      ],
      "name": "producerExists",
      "outputs": [
        {
          "internalType": "bool",
          "name": "",
          "type": "bool"
        }
      ],
      "stateMutability": "view",
      "type": "function",
      "constant": true
    },
    {
      "inputs": [],
      "name": "producersCount",
      "outputs": [
        {
          "internalType": "uint256",
          "name": "",
          "type": "uint256"
        }
      ],
      "stateMutability": "view",
      "type": "function",
      "constant": true
    },
    {
      "inputs": [
        {
          "internalType": "uint256",
          "name": "",
          "type": "uint256"
        }
      ],
      "name": "producersList",
      "outputs": [
        {
          "internalType": "uint256",
          "name": "id",
          "type": "uint256"
        },
        {
          "internalType": "address",
          "name": "producer_wallet",
          "type": "address"
        },
        {
          "internalType": "enum UserContract.UserType",
          "name": "userType",
          "type": "uint8"
        },
        {
          "internalType": "string",
          "name": "name",
          "type": "string"
        },
        {
          "internalType": "string",
          "name": "document",
          "type": "string"
        },
        {
          "internalType": "string",
          "name": "documentType",
          "type": "string"
        },
        {
          "internalType": "bool",
          "name": "recentInspection",
          "type": "bool"
        },
        {
          "internalType": "uint256",
          "name": "totalRequests",
          "type": "uint256"
        },
        {
          "internalType": "int256",
          "name": "isaPoints",
          "type": "int256"
        },
        {
          "components": [
            {
              "internalType": "uint256",
              "name": "allowed",
              "type": "uint256"
            },
            {
              "internalType": "bool",
              "name": "withdrewToken",
              "type": "bool"
            }
          ],
          "internalType": "struct ProducerContract.TokenApprove",
          "name": "tokenApprove",
          "type": "tuple"
        },
        {
          "components": [
            {
              "internalType": "string",
              "name": "country",
              "type": "string"
            },
            {
              "internalType": "string",
              "name": "state",
              "type": "string"
            },
            {
              "internalType": "string",
              "name": "city",
              "type": "string"
            },
            {
              "internalType": "string",
              "name": "cep",
              "type": "string"
            }
          ],
          "internalType": "struct ProducerContract.PropertyAddress",
          "name": "property_address",
          "type": "tuple"
        }
      ],
      "stateMutability": "view",
      "type": "function",
      "constant": true
    },
    {
      "inputs": [],
      "name": "usersCount",
      "outputs": [
        {
          "internalType": "uint256",
          "name": "",
          "type": "uint256"
        }
      ],
      "stateMutability": "view",
      "type": "function",
      "constant": true
    },
    {
      "inputs": [
        {
          "internalType": "uint256",
          "name": "id",
          "type": "uint256"
        }
      ],
      "name": "vote",
      "outputs": [
        {
          "internalType": "bool",
          "name": "",
          "type": "bool"
        }
      ],
      "stateMutability": "nonpayable",
      "type": "function"
    },
    {
      "inputs": [],
      "name": "getInspectionsHistory",
      "outputs": [
        {
          "components": [
            {
              "internalType": "uint256",
              "name": "id",
              "type": "uint256"
            },
            {
              "internalType": "enum Sintrop.InspectionStatus",
              "name": "status",
              "type": "uint8"
            },
            {
              "internalType": "address",
              "name": "producerWallet",
              "type": "address"
            },
            {
              "internalType": "address",
              "name": "activistWallet",
              "type": "address"
            },
            {
              "internalType": "uint256[][]",
              "name": "isas",
              "type": "uint256[][]"
            },
            {
              "internalType": "int256",
              "name": "isaPoints",
              "type": "int256"
            },
            {
              "internalType": "uint256",
              "name": "expiresIn",
              "type": "uint256"
            },
            {
              "internalType": "uint256",
              "name": "createdAt",
              "type": "uint256"
            },
            {
              "internalType": "uint256",
              "name": "updatedAt",
              "type": "uint256"
            },
            {
              "internalType": "uint256",
              "name": "index",
              "type": "uint256"
            }
          ],
          "internalType": "struct Sintrop.Inspection[]",
          "name": "",
          "type": "tuple[]"
        }
      ],
      "stateMutability": "view",
      "type": "function",
      "constant": true
    },
    {
      "inputs": [],
      "name": "requestInspection",
      "outputs": [
        {
          "internalType": "bool",
          "name": "",
          "type": "bool"
        }
      ],
      "stateMutability": "nonpayable",
      "type": "function"
    },
    {
      "inputs": [
        {
          "internalType": "uint256",
          "name": "inspectionId",
          "type": "uint256"
        }
      ],
      "name": "acceptInspection",
      "outputs": [
        {
          "internalType": "bool",
          "name": "",
          "type": "bool"
        }
      ],
      "stateMutability": "nonpayable",
      "type": "function"
    },
    {
      "inputs": [
        {
          "internalType": "uint256",
          "name": "inspectionId",
          "type": "uint256"
        },
        {
          "internalType": "uint256[][]",
          "name": "isas",
          "type": "uint256[][]"
        }
      ],
      "name": "realizeInspection",
      "outputs": [
        {
          "internalType": "bool",
          "name": "",
          "type": "bool"
        }
      ],
      "stateMutability": "nonpayable",
      "type": "function"
    },
    {
      "inputs": [
        {
          "internalType": "uint256",
          "name": "id",
          "type": "uint256"
        }
      ],
      "name": "getInspection",
      "outputs": [
        {
          "components": [
            {
              "internalType": "uint256",
              "name": "id",
              "type": "uint256"
            },
            {
              "internalType": "enum Sintrop.InspectionStatus",
              "name": "status",
              "type": "uint8"
            },
            {
              "internalType": "address",
              "name": "producerWallet",
              "type": "address"
            },
            {
              "internalType": "address",
              "name": "activistWallet",
              "type": "address"
            },
            {
              "internalType": "uint256[][]",
              "name": "isas",
              "type": "uint256[][]"
            },
            {
              "internalType": "int256",
              "name": "isaPoints",
              "type": "int256"
            },
            {
              "internalType": "uint256",
              "name": "expiresIn",
              "type": "uint256"
            },
            {
              "internalType": "uint256",
              "name": "createdAt",
              "type": "uint256"
            },
            {
              "internalType": "uint256",
              "name": "updatedAt",
              "type": "uint256"
            },
            {
              "internalType": "uint256",
              "name": "index",
              "type": "uint256"
            }
          ],
          "internalType": "struct Sintrop.Inspection",
          "name": "",
          "type": "tuple"
        }
      ],
      "stateMutability": "view",
      "type": "function",
      "constant": true
    },
    {
      "inputs": [],
      "name": "getInspections",
      "outputs": [
        {
          "components": [
            {
              "internalType": "uint256",
              "name": "id",
              "type": "uint256"
            },
            {
              "internalType": "enum Sintrop.InspectionStatus",
              "name": "status",
              "type": "uint8"
            },
            {
              "internalType": "address",
              "name": "producerWallet",
              "type": "address"
            },
            {
              "internalType": "address",
              "name": "activistWallet",
              "type": "address"
            },
            {
              "internalType": "uint256[][]",
              "name": "isas",
              "type": "uint256[][]"
            },
            {
              "internalType": "int256",
              "name": "isaPoints",
              "type": "int256"
            },
            {
              "internalType": "uint256",
              "name": "expiresIn",
              "type": "uint256"
            },
            {
              "internalType": "uint256",
              "name": "createdAt",
              "type": "uint256"
            },
            {
              "internalType": "uint256",
              "name": "updatedAt",
              "type": "uint256"
            },
            {
              "internalType": "uint256",
              "name": "index",
              "type": "uint256"
            }
          ],
          "internalType": "struct Sintrop.Inspection[]",
          "name": "",
          "type": "tuple[]"
        }
      ],
      "stateMutability": "view",
      "type": "function",
      "constant": true
    },
    {
      "inputs": [],
      "name": "getInspectionsStatus",
      "outputs": [
        {
          "internalType": "string",
          "name": "",
          "type": "string"
        },
        {
          "internalType": "string",
          "name": "",
          "type": "string"
        },
        {
          "internalType": "string",
          "name": "",
          "type": "string"
        },
        {
          "internalType": "string",
          "name": "",
          "type": "string"
        }
      ],
      "stateMutability": "pure",
      "type": "function",
      "constant": true
    },
    {
      "inputs": [
        {
          "internalType": "uint256",
          "name": "id",
          "type": "uint256"
        }
      ],
      "name": "inspectionExists",
      "outputs": [
        {
          "internalType": "bool",
          "name": "",
          "type": "bool"
        }
      ],
      "stateMutability": "view",
      "type": "function",
      "constant": true
    }
  ],
  "bytecode": "0x608060405262093a8060165534801561001757600080fd5b5061590d80620000286000396000f3fe608060405234801561001057600080fd5b50600436106101c45760003560e01c80638cf05442116100f9578063e785750211610097578063ee699fc111610071578063ee699fc1146104bc578063ef430aa6146104c4578063f2836670146104e3578063fe5a4fa414610503576101c4565b8063e785750214610481578063e80a7eb914610494578063e9e797ac146104a9576101c4565b8063aab147b2116100d3578063aab147b2146103c5578063b92bd2d9146103e5578063dd6850c6146103f8578063e53142e214610478576101c4565b80638cf05442146103735780638ed5540d1461039f578063a1c24d64146103b2576101c4565b806362efeff7116101665780636f77926b116101405780636f77926b146103165780637333afcf1461034f57806386ae2fb1146103585780638c4772fc14610360576101c4565b806362efeff7146102915780636337dc1a146102a45780636ba13a821461030d576101c4565b80630cc94acc116101a25780630cc94acc1461021d57806340f528411461024757806342e187dd146102675780634db0412c1461027c576101c4565b80630121b93f146101c957806309e1b1d1146101f15780630bbec3c214610208575b600080fd5b6101dc6101d7366004614dd3565b610527565b60405190151581526020015b60405180910390f35b6101fa60075481565b6040519081526020016101e8565b61021061060e565b6040516101e89190615411565b61023061022b366004614dd3565b6107d1565b6040516101e89b9a999897969594939291906155e3565b61025a610255366004614cc0565b610c51565b6040516101e891906155aa565b61026f61101a565b6040516101e8919061526e565b61028461150e565b6040516101e891906152ce565b61025a61029f366004614c92565b611997565b604080518082018252600880825267282927a22aa1a2a960c11b60208084019190915283518085018552918252671050d512559254d560c21b8282015283518085018552600a8152692922a9a2a0a921a422a960b11b9181019190915292516101e893906154ca565b6101fa60015481565b610342610324366004614c92565b6001600160a01b031660009081526020819052604090205460ff1690565b6040516101e891906154b7565b6101fa60135481565b6101dc611e61565b6101dc61036e366004614c92565b611fb9565b6101fa610381366004614c92565b6001600160a01b031660009081526003602052604090206008015490565b6101dc6103ad366004614cc0565b611fec565b6101dc6103c0366004614cc0565b61240d565b6103d86103d3366004614c92565b612866565b6040516101e891906155d0565b6101dc6103f3366004614deb565b612b24565b604080518082018252600481526327a822a760e11b6020808301919091528251808401845260078152661156141254915160ca1b81830152835180850185526009815268125394d41150d5115160ba1b818401528451808601865260088152671050d0d15415115160c21b9381019390935293516101e894919290615503565b6101fa60045481565b6101dc61048f366004614dd3565b612dbd565b61049c6131fd565b6040516101e89190615464565b6101dc6104b7366004614c92565b613727565b610210613750565b6104cc6138ff565b6040516101e89b9a99989796959493929190615699565b6104f66104f1366004614dd3565b613d04565b6040516101e891906155bd565b6101dc610511366004614dd3565b6000908152601960205260409020546001111590565b60008181526015602052604081205482906105895760405162461bcd60e51b815260206004820152601a60248201527f546869732063617465676f727920646f6e27742065786973747300000000000060448201526064015b60405180910390fd5b60008381526015602052604081206009018054916105a683615852565b90915550506000838152601560205260409020600a01546014805490919081106105e057634e487b7160e01b600052603260045260246000fd5b6000918252602082206009600b90920201018054916105fe83615852565b9190505550600191505b50919050565b336000908152601860209081526040808320805482518185028101850190935280835260609492939192909184015b828210156107c8578382906000526020600020906009020160405180610140016040529081600082015481526020016001820160009054906101000a900460ff16600381111561069d57634e487b7160e01b600052602160045260246000fd5b60038111156106bc57634e487b7160e01b600052602160045260246000fd5b815260018201546001600160a01b0361010090910481166020808401919091526002840154909116604080840191909152600384018054825181850281018501909352808352606090940193919290919060009084015b8282101561077f5760008481526020908190208301805460408051828502810185019091528181529283018282801561076b57602002820191906000526020600020905b815481526020019060010190808311610757575b505050505081526020019060010190610713565b505050508152602001600482015481526020016005820154815260200160068201548152602001600782015481526020016008820154815250508152602001906001019061063d565b50505050905090565b600281815481106107e157600080fd5b60009182526020909120600e90910201805460018201546002830180549294506001600160a01b03821693600160a01b90920460ff16926108219061581d565b80601f016020809104026020016040519081016040528092919081815260200182805461084d9061581d565b801561089a5780601f1061086f5761010080835404028352916020019161089a565b820191906000526020600020905b81548152906001019060200180831161087d57829003601f168201915b5050505050908060030180546108af9061581d565b80601f01602080910402602001604051908101604052809291908181526020018280546108db9061581d565b80156109285780601f106108fd57610100808354040283529160200191610928565b820191906000526020600020905b81548152906001019060200180831161090b57829003601f168201915b50505050509080600401805461093d9061581d565b80601f01602080910402602001604051908101604052809291908181526020018280546109699061581d565b80156109b65780601f1061098b576101008083540402835291602001916109b6565b820191906000526020600020905b81548152906001019060200180831161099957829003601f168201915b5050505060058301546006840154600785015460408051808201825260088801548152600988015460ff90811615156020830152825160808101909352600a89018054989991909616979496509294909382908290610a149061581d565b80601f0160208091040260200160405190810160405280929190818152602001828054610a409061581d565b8015610a8d5780601f10610a6257610100808354040283529160200191610a8d565b820191906000526020600020905b815481529060010190602001808311610a7057829003601f168201915b50505050508152602001600182018054610aa69061581d565b80601f0160208091040260200160405190810160405280929190818152602001828054610ad29061581d565b8015610b1f5780601f10610af457610100808354040283529160200191610b1f565b820191906000526020600020905b815481529060010190602001808311610b0257829003601f168201915b50505050508152602001600282018054610b389061581d565b80601f0160208091040260200160405190810160405280929190818152602001828054610b649061581d565b8015610bb15780601f10610b8657610100808354040283529160200191610bb1565b820191906000526020600020905b815481529060010190602001808311610b9457829003601f168201915b50505050508152602001600382018054610bca9061581d565b80601f0160208091040260200160405190810160405280929190818152602001828054610bf69061581d565b8015610c435780601f10610c1857610100808354040283529160200191610c43565b820191906000526020600020905b815481529060010190602001808311610c2657829003601f168201915b50505050508152505090508b565b610c596148a5565b60006007546001610c6a91906157ee565b604080516080810182528881526020808201899052818301889052606082018790528251610120810184528481523391810191909152929350600292909160009190810184815260208082018f905260408083018f9052606083018e905260006080840181905260a0840181905260c09093018690526005805460018101825593528351600b9093027f036b6384b5eca791c62761152d0c79bb0604c104a5fb6f4eb0703f3154bb3db08101938455918401517f036b6384b5eca791c62761152d0c79bb0604c104a5fb6f4eb0703f3154bb3db190920180546001600160a01b039093166001600160a01b031990931692909217808355908401519394508493919060ff60a01b1916600160a01b836003811115610d9857634e487b7160e01b600052602160045260246000fd5b021790555060608201518051610db891600284019160209091019061491b565b5060808201518051610dd491600384019160209091019061491b565b5060a08201518051610df091600484019160209091019061491b565b5060c082015160058201805460ff191691151591909117905560e08201516006820155610100820151805180516007840191610e319183916020019061491b565b506020828101518051610e4a926001850192019061491b565b5060408201518051610e6691600284019160209091019061491b565b5060608201518051610e8291600384019160209091019061491b565b50503360009081526006602090815260409182902086518155908601516001820180546001600160a01b0319166001600160a01b0390921691909117808255928701518796509194509092509060ff60a01b1916600160a01b836003811115610efb57634e487b7160e01b600052602160045260246000fd5b021790555060608201518051610f1b91600284019160209091019061491b565b5060808201518051610f3791600384019160209091019061491b565b5060a08201518051610f5391600484019160209091019061491b565b5060c082015160058201805460ff191691151591909117905560e08201516006820155610100820151805180516007840191610f949183916020019061491b565b506020828101518051610fad926001850192019061491b565b5060408201518051610fc991600284019160209091019061491b565b5060608201518051610fe591600384019160209091019061491b565b5050600780549350915060009050610ffc83615852565b919050555061100b3384613edc565b9b9a5050505050505050505050565b60606005805480602002602001604051908101604052809291908181526020016000905b828210156107c85760008481526020908190206040805161012081018252600b86029092018054835260018101546001600160a01b03811694840194909452919290830190600160a01b900460ff1660038111156110ac57634e487b7160e01b600052602160045260246000fd5b60038111156110cb57634e487b7160e01b600052602160045260246000fd5b81526020016002820180546110df9061581d565b80601f016020809104026020016040519081016040528092919081815260200182805461110b9061581d565b80156111585780601f1061112d57610100808354040283529160200191611158565b820191906000526020600020905b81548152906001019060200180831161113b57829003601f168201915b505050505081526020016003820180546111719061581d565b80601f016020809104026020016040519081016040528092919081815260200182805461119d9061581d565b80156111ea5780601f106111bf576101008083540402835291602001916111ea565b820191906000526020600020905b8154815290600101906020018083116111cd57829003601f168201915b505050505081526020016004820180546112039061581d565b80601f016020809104026020016040519081016040528092919081815260200182805461122f9061581d565b801561127c5780601f106112515761010080835404028352916020019161127c565b820191906000526020600020905b81548152906001019060200180831161125f57829003601f168201915b5050509183525050600582015460ff16151560208201526006820154604080830191909152805160808101909152600783018054606090930192829082906112c39061581d565b80601f01602080910402602001604051908101604052809291908181526020018280546112ef9061581d565b801561133c5780601f106113115761010080835404028352916020019161133c565b820191906000526020600020905b81548152906001019060200180831161131f57829003601f168201915b505050505081526020016001820180546113559061581d565b80601f01602080910402602001604051908101604052809291908181526020018280546113819061581d565b80156113ce5780601f106113a3576101008083540402835291602001916113ce565b820191906000526020600020905b8154815290600101906020018083116113b157829003601f168201915b505050505081526020016002820180546113e79061581d565b80601f01602080910402602001604051908101604052809291908181526020018280546114139061581d565b80156114605780601f1061143557610100808354040283529160200191611460565b820191906000526020600020905b81548152906001019060200180831161144357829003601f168201915b505050505081526020016003820180546114799061581d565b80601f01602080910402602001604051908101604052809291908181526020018280546114a59061581d565b80156114f25780601f106114c7576101008083540402835291602001916114f2565b820191906000526020600020905b8154815290600101906020018083116114d557829003601f168201915b505050505081525050815250508152602001906001019061103e565b60606014805480602002602001604051908101604052809291908181526020016000905b828210156107c85760008481526020908190206040805161016081018252600b86029092018054835260018101546001600160a01b031693830193909352600283018054929392918401916115869061581d565b80601f01602080910402602001604051908101604052809291908181526020018280546115b29061581d565b80156115ff5780601f106115d4576101008083540402835291602001916115ff565b820191906000526020600020905b8154815290600101906020018083116115e257829003601f168201915b505050505081526020016003820180546116189061581d565b80601f01602080910402602001604051908101604052809291908181526020018280546116449061581d565b80156116915780601f1061166657610100808354040283529160200191611691565b820191906000526020600020905b81548152906001019060200180831161167457829003601f168201915b505050505081526020016004820180546116aa9061581d565b80601f01602080910402602001604051908101604052809291908181526020018280546116d69061581d565b80156117235780601f106116f857610100808354040283529160200191611723565b820191906000526020600020905b81548152906001019060200180831161170657829003601f168201915b5050505050815260200160058201805461173c9061581d565b80601f01602080910402602001604051908101604052809291908181526020018280546117689061581d565b80156117b55780601f1061178a576101008083540402835291602001916117b5565b820191906000526020600020905b81548152906001019060200180831161179857829003601f168201915b505050505081526020016006820180546117ce9061581d565b80601f01602080910402602001604051908101604052809291908181526020018280546117fa9061581d565b80156118475780601f1061181c57610100808354040283529160200191611847565b820191906000526020600020905b81548152906001019060200180831161182a57829003601f168201915b505050505081526020016007820180546118609061581d565b80601f016020809104026020016040519081016040528092919081815260200182805461188c9061581d565b80156118d95780601f106118ae576101008083540402835291602001916118d9565b820191906000526020600020905b8154815290600101906020018083116118bc57829003601f168201915b505050505081526020016008820180546118f29061581d565b80601f016020809104026020016040519081016040528092919081815260200182805461191e9061581d565b801561196b5780601f106119405761010080835404028352916020019161196b565b820191906000526020600020905b81548152906001019060200180831161194e57829003601f168201915b5050505050815260200160098201548152602001600a8201548152505081526020019060010190611532565b61199f6148a5565b6001600160a01b038281166000908152600660209081526040918290208251610120810184528154815260018201549485169281019290925290929091830190600160a01b900460ff166003811115611a0857634e487b7160e01b600052602160045260246000fd5b6003811115611a2757634e487b7160e01b600052602160045260246000fd5b8152602001600282018054611a3b9061581d565b80601f0160208091040260200160405190810160405280929190818152602001828054611a679061581d565b8015611ab45780601f10611a8957610100808354040283529160200191611ab4565b820191906000526020600020905b815481529060010190602001808311611a9757829003601f168201915b50505050508152602001600382018054611acd9061581d565b80601f0160208091040260200160405190810160405280929190818152602001828054611af99061581d565b8015611b465780601f10611b1b57610100808354040283529160200191611b46565b820191906000526020600020905b815481529060010190602001808311611b2957829003601f168201915b50505050508152602001600482018054611b5f9061581d565b80601f0160208091040260200160405190810160405280929190818152602001828054611b8b9061581d565b8015611bd85780601f10611bad57610100808354040283529160200191611bd8565b820191906000526020600020905b815481529060010190602001808311611bbb57829003601f168201915b5050509183525050600582015460ff1615156020820152600682015460408083019190915280516080810190915260078301805460609093019282908290611c1f9061581d565b80601f0160208091040260200160405190810160405280929190818152602001828054611c4b9061581d565b8015611c985780601f10611c6d57610100808354040283529160200191611c98565b820191906000526020600020905b815481529060010190602001808311611c7b57829003601f168201915b50505050508152602001600182018054611cb19061581d565b80601f0160208091040260200160405190810160405280929190818152602001828054611cdd9061581d565b8015611d2a5780601f10611cff57610100808354040283529160200191611d2a565b820191906000526020600020905b815481529060010190602001808311611d0d57829003601f168201915b50505050508152602001600282018054611d439061581d565b80601f0160208091040260200160405190810160405280929190818152602001828054611d6f9061581d565b8015611dbc5780601f10611d9157610100808354040283529160200191611dbc565b820191906000526020600020905b815481529060010190602001808311611d9f57829003601f168201915b50505050508152602001600382018054611dd59061581d565b80601f0160208091040260200160405190810160405280929190818152602001828054611e019061581d565b8015611e4e5780601f10611e2357610100808354040283529160200191611e4e565b820191906000526020600020905b815481529060010190602001808311611e3157829003601f168201915b5050509190925250505090525092915050565b6000611e6c33613727565b611ecf5760405162461bcd60e51b815260206004820152602e60248201527f596f7520617265206e6f7420612070726f64756365722120506c65617365207260448201526d65676973746572206173206f6e6560901b6064820152608401610580565b3360009081526003602052604090206005015460ff1615611f8d5760405162461bcd60e51b815260206004820152606660248201527f596f752068617665206120696e7370656374696f6e2072657175657374204f5060448201527f454e206f7220414343455054454421205761697420612061637469766973742060648201527f7265616c697a6520696e7370656374696f6e206f7220796f752063616e20636c6084820152651bdcd9481a5d60d21b60a482015260c401610580565b611f95613f3d565b50336000908152600360205260409020600501805460ff1916600190811790915590565b6001600160a01b03811660009081526006602052604081206002018054829190611fe29061581d565b9050119050919050565b6000806004546001611ffe91906157ee565b60408051608081018252888152602080820189905281830188905260608201879052825180840184526000808252818301819052845161016081018652868152339381019390935294955060019492939092919081018581526020018e81526020018d81526020018c8152602001600015158152602001600081526020016000815260200183815260200184815250905060028190806001815401808255809150506001900390600052602060002090600e02016000909190919091506000820151816000015560208201518160010160006101000a8154816001600160a01b0302191690836001600160a01b0316021790555060408201518160010160146101000a81548160ff0219169083600381111561212a57634e487b7160e01b600052602160045260246000fd5b02179055506060820151805161214a91600284019160209091019061491b565b506080820151805161216691600384019160209091019061491b565b5060a0820151805161218291600484019160209091019061491b565b5060c082015160058201805491151560ff1992831617905560e083015160068301556101008301516007830155610120830151805160088401556020908101516009840180549115159190931617909155610140830151805180519192600a8501926121f1928492019061491b565b50602082810151805161220a926001850192019061491b565b506040820151805161222691600284019160209091019061491b565b506060820151805161224291600384019160209091019061491b565b50503360009081526003602081815260409283902087518155908701516001820180546001600160a01b0319166001600160a01b0390921691909117808255938801518897509195509093509160ff60a01b191690600160a01b9084908111156122bc57634e487b7160e01b600052602160045260246000fd5b0217905550606082015180516122dc91600284019160209091019061491b565b50608082015180516122f891600384019160209091019061491b565b5060a0820151805161231491600484019160209091019061491b565b5060c082015160058201805491151560ff1992831617905560e083015160068301556101008301516007830155610120830151805160088401556020908101516009840180549115159190931617909155610140830151805180519192600a850192612383928492019061491b565b50602082810151805161239c926001850192019061491b565b50604082015180516123b891600284019160209091019061491b565b50606082015180516123d491600384019160209091019061491b565b50506004805493509150600090506123eb83615852565b91905055506123fa3385613edc565b5060019c9b505050505050505050505050565b600080601354600161241f91906157ee565b9050600061242e600183615806565b60408051610160810182528481523360208083018290529282018e9052606082018d9052608082018c905260a082018b905260c082018a905260e082018990526101008201889052600061012083015261014082018490526008868155600980546001600160a01b0319169092179091558d51939450909290916124b791600a918f019061491b565b50606082015180516124d391600384019160209091019061491b565b50608082015180516124ef91600484019160209091019061491b565b5060a0820151805161250b91600584019160209091019061491b565b5060c0820151805161252791600684019160209091019061491b565b5060e0820151805161254391600784019160209091019061491b565b50610100820151805161256091600884019160209091019061491b565b5061012082015160098083019190915561014090920151600a918201556014805460018101825560009190915260088054600b9092027fce6d7b5282bd9a3661ae061feed1dbda4e52ab073b1f9285be6e155d9c38d4ec810192835593547fce6d7b5282bd9a3661ae061feed1dbda4e52ab073b1f9285be6e155d9c38d4ed850180546001600160a01b0319166001600160a01b039092169190911790558254909391927fce6d7b5282bd9a3661ae061feed1dbda4e52ab073b1f9285be6e155d9c38d4ee90920191906126339061581d565b61263e92919061499f565b5060038201816003019080546126539061581d565b61265e92919061499f565b5060048201816004019080546126739061581d565b61267e92919061499f565b5060058201816005019080546126939061581d565b61269e92919061499f565b5060068201816006019080546126b39061581d565b6126be92919061499f565b5060078201816007019080546126d39061581d565b6126de92919061499f565b5060088201816008019080546126f39061581d565b6126fe92919061499f565b5060098281015482820155600a9283015491830191909155600084815260156020526040902060088054825591546001820180546001600160a01b0319166001600160a01b039092169190911790558254919290916002830191906127629061581d565b61276d92919061499f565b5060038201816003019080546127829061581d565b61278d92919061499f565b5060048201816004019080546127a29061581d565b6127ad92919061499f565b5060058201816005019080546127c29061581d565b6127cd92919061499f565b5060068201816006019080546127e29061581d565b6127ed92919061499f565b5060078201816007019080546128029061581d565b61280d92919061499f565b5060088201816008019080546128229061581d565b61282d92919061499f565b5060098281015490820155600a918201549101556013805490600061285183615852565b9091555060019b9a5050505050505050505050565b61286e614a1a565b6001600160a01b038281166000908152600360208181526040928390208351610160810185528154815260018201549586169281019290925290939092840191600160a01b90910460ff16908111156128d757634e487b7160e01b600052602160045260246000fd5b60038111156128f657634e487b7160e01b600052602160045260246000fd5b815260200160028201805461290a9061581d565b80601f01602080910402602001604051908101604052809291908181526020018280546129369061581d565b80156129835780601f1061295857610100808354040283529160200191612983565b820191906000526020600020905b81548152906001019060200180831161296657829003601f168201915b5050505050815260200160038201805461299c9061581d565b80601f01602080910402602001604051908101604052809291908181526020018280546129c89061581d565b8015612a155780601f106129ea57610100808354040283529160200191612a15565b820191906000526020600020905b8154815290600101906020018083116129f857829003601f168201915b50505050508152602001600482018054612a2e9061581d565b80601f0160208091040260200160405190810160405280929190818152602001828054612a5a9061581d565b8015612aa75780601f10612a7c57610100808354040283529160200191612aa7565b820191906000526020600020905b815481529060010190602001808311612a8a57829003601f168201915b5050509183525050600582015460ff90811615156020808401919091526006840154604080850191909152600785015460608501528051808201825260088601548152600986015490931615159183019190915260808084019290925280519182019052600a8301805460a09093019282908290611c1f9061581d565b6000612b2f33611fb9565b612b4b5760405162461bcd60e51b81526004016105809061555b565b600083815260196020526040902054839060011115612bac5760405162461bcd60e51b815260206004820152601c60248201527f5468697320696e7370656374696f6e20646f6e277420657869737473000000006044820152606401610580565b612bb58461421a565b612bc25760009150612db6565b6000848152601960205260409020600201546001600160a01b03163314612bec5760009150612db6565b600084815260196020908152604080832081516101408101909252805482526001810154919290919083019060ff166003811115612c3a57634e487b7160e01b600052602160045260246000fd5b6003811115612c5957634e487b7160e01b600052602160045260246000fd5b815260018201546001600160a01b0361010090910481166020808401919091526002840154909116604080840191909152600384018054825181850281018501909352808352606090940193919290919060009084015b82821015612d1c57600084815260209081902083018054604080518285028101850190915281815292830182828015612d0857602002820191906000526020600020905b815481526020019060010190808311612cf4575b505050505081526020019060010190612cb0565b505050508152602001600482015481526020016005820154815260200160068201548152602001600782015481526020016008820154815250509050612d628185614259565b612d6b8561447b565b60a081015160008681526019602090815260408083206001015461010090046001600160a01b031683526003909152902060070155612db081604001516107d0614733565b60019250505b5092915050565b6000612dc833611fb9565b612de45760405162461bcd60e51b81526004016105809061555b565b600082815260196020526040902054829060011115612e455760405162461bcd60e51b815260206004820152601c60248201527f5468697320696e7370656374696f6e20646f6e277420657869737473000000006044820152606401610580565b600083815260196020908152604080832081516101408101909252805482526001810154919290919083019060ff166003811115612e9357634e487b7160e01b600052602160045260246000fd5b6003811115612eb257634e487b7160e01b600052602160045260246000fd5b815260018201546001600160a01b0361010090910481166020808401919091526002840154909116604080840191909152600384018054825181850281018501909352808352606090940193919290919060009084015b82821015612f7557600084815260209081902083018054604080518285028101850190915281815292830182828015612f6157602002820191906000526020600020905b815481526020019060010190808311612f4d575b505050505081526020019060010190612f09565b505050908252506004820154602082015260058201546040820152600682015460608201526007820154608082015260089091015460a0909101529050600081602001516003811115612fd857634e487b7160e01b600052602160045260246000fd5b14612fe7576000925050610608565b6003602082810182815242610100850152336060850152600087815260199092526040909120835181559051600180830180548695919260ff199190911691849081111561304557634e487b7160e01b600052602160045260246000fd5b02179055506040820151600182018054610100600160a81b0319166101006001600160a01b039384160217905560608301516002830180546001600160a01b03191691909216179055608082015180516130a9916003840191602090910190614ab6565b5060a0820151816004015560c0820151816005015560e08201518160060155610100820151816007015561012082015181600801559050508060178261012001518154811061310857634e487b7160e01b600052603260045260246000fd5b90600052602060002090600902016000820151816000015560208201518160010160006101000a81548160ff0219169083600381111561315857634e487b7160e01b600052602160045260246000fd5b02179055506040820151600182018054610100600160a81b0319166101006001600160a01b039384160217905560608301516002830180546001600160a01b03191691909216179055608082015180516131bc916003840191602090910190614ab6565b5060a0820151600482015560c0820151600582015560e082015160068201556101008201516007820155610120909101516008909101555060019392505050565b60606002805480602002602001604051908101604052809291908181526020016000905b828210156107c85760008481526020908190206040805161016081018252600e86029092018054835260018101546001600160a01b03811694840194909452919290830190600160a01b900460ff16600381111561328f57634e487b7160e01b600052602160045260246000fd5b60038111156132ae57634e487b7160e01b600052602160045260246000fd5b81526020016002820180546132c29061581d565b80601f01602080910402602001604051908101604052809291908181526020018280546132ee9061581d565b801561333b5780601f106133105761010080835404028352916020019161333b565b820191906000526020600020905b81548152906001019060200180831161331e57829003601f168201915b505050505081526020016003820180546133549061581d565b80601f01602080910402602001604051908101604052809291908181526020018280546133809061581d565b80156133cd5780601f106133a2576101008083540402835291602001916133cd565b820191906000526020600020905b8154815290600101906020018083116133b057829003601f168201915b505050505081526020016004820180546133e69061581d565b80601f01602080910402602001604051908101604052809291908181526020018280546134129061581d565b801561345f5780601f106134345761010080835404028352916020019161345f565b820191906000526020600020905b81548152906001019060200180831161344257829003601f168201915b5050509183525050600582015460ff90811615156020808401919091526006840154604080850191909152600785015460608501528051808201825260088601548152600986015490931615159183019190915260808084019290925280519182019052600a8301805460a090930192829082906134dc9061581d565b80601f01602080910402602001604051908101604052809291908181526020018280546135089061581d565b80156135555780601f1061352a57610100808354040283529160200191613555565b820191906000526020600020905b81548152906001019060200180831161353857829003601f168201915b5050505050815260200160018201805461356e9061581d565b80601f016020809104026020016040519081016040528092919081815260200182805461359a9061581d565b80156135e75780601f106135bc576101008083540402835291602001916135e7565b820191906000526020600020905b8154815290600101906020018083116135ca57829003601f168201915b505050505081526020016002820180546136009061581d565b80601f016020809104026020016040519081016040528092919081815260200182805461362c9061581d565b80156136795780601f1061364e57610100808354040283529160200191613679565b820191906000526020600020905b81548152906001019060200180831161365c57829003601f168201915b505050505081526020016003820180546136929061581d565b80601f01602080910402602001604051908101604052809291908181526020018280546136be9061581d565b801561370b5780601f106136e05761010080835404028352916020019161370b565b820191906000526020600020905b8154815290600101906020018083116136ee57829003601f168201915b5050505050815250508152505081526020019060010190613221565b6001600160a01b03811660009081526003602052604081206002018054829190611fe29061581d565b60606017805480602002602001604051908101604052809291908181526020016000905b828210156107c8578382906000526020600020906009020160405180610140016040529081600082015481526020016001820160009054906101000a900460ff1660038111156137d457634e487b7160e01b600052602160045260246000fd5b60038111156137f357634e487b7160e01b600052602160045260246000fd5b815260018201546001600160a01b0361010090910481166020808401919091526002840154909116604080840191909152600384018054825181850281018501909352808352606090940193919290919060009084015b828210156138b6576000848152602090819020830180546040805182850281018501909152818152928301828280156138a257602002820191906000526020600020905b81548152602001906001019080831161388e575b50505050508152602001906001019061384a565b5050505081526020016004820154815260200160058201548152602001600682015481526020016007820154815260200160088201548152505081526020019060010190613774565b60088054600954600a805492936001600160a01b03909216926139219061581d565b80601f016020809104026020016040519081016040528092919081815260200182805461394d9061581d565b801561399a5780601f1061396f5761010080835404028352916020019161399a565b820191906000526020600020905b81548152906001019060200180831161397d57829003601f168201915b5050505050908060030180546139af9061581d565b80601f01602080910402602001604051908101604052809291908181526020018280546139db9061581d565b8015613a285780601f106139fd57610100808354040283529160200191613a28565b820191906000526020600020905b815481529060010190602001808311613a0b57829003601f168201915b505050505090806004018054613a3d9061581d565b80601f0160208091040260200160405190810160405280929190818152602001828054613a699061581d565b8015613ab65780601f10613a8b57610100808354040283529160200191613ab6565b820191906000526020600020905b815481529060010190602001808311613a9957829003601f168201915b505050505090806005018054613acb9061581d565b80601f0160208091040260200160405190810160405280929190818152602001828054613af79061581d565b8015613b445780601f10613b1957610100808354040283529160200191613b44565b820191906000526020600020905b815481529060010190602001808311613b2757829003601f168201915b505050505090806006018054613b599061581d565b80601f0160208091040260200160405190810160405280929190818152602001828054613b859061581d565b8015613bd25780601f10613ba757610100808354040283529160200191613bd2565b820191906000526020600020905b815481529060010190602001808311613bb557829003601f168201915b505050505090806007018054613be79061581d565b80601f0160208091040260200160405190810160405280929190818152602001828054613c139061581d565b8015613c605780601f10613c3557610100808354040283529160200191613c60565b820191906000526020600020905b815481529060010190602001808311613c4357829003601f168201915b505050505090806008018054613c759061581d565b80601f0160208091040260200160405190810160405280929190818152602001828054613ca19061581d565b8015613cee5780601f10613cc357610100808354040283529160200191613cee565b820191906000526020600020905b815481529060010190602001808311613cd157829003601f168201915b50505050509080600901549080600a015490508b565b613d6d60408051610140810190915260008082526020820190815260200160006001600160a01b0316815260200160006001600160a01b031681526020016060815260200160008152602001600081526020016000815260200160008152602001600081525090565b60008281526019602090815260409182902082516101408101909352805483526001810154909183019060ff166003811115613db957634e487b7160e01b600052602160045260246000fd5b6003811115613dd857634e487b7160e01b600052602160045260246000fd5b815260018201546001600160a01b0361010090910481166020808401919091526002840154909116604080840191909152600384018054825181850281018501909352808352606090940193919290919060009084015b82821015613e9b57600084815260209081902083018054604080518285028101850190915281815292830182828015613e8757602002820191906000526020600020905b815481526020019060010190808311613e73575b505050505081526020019060010190613e2f565b505050508152602001600482015481526020016005820154815260200160068201548152602001600782015481526020016008820154815250509050919050565b6001600160a01b0382166000908152602081905260409020805482919060ff19166001836003811115613f1f57634e487b7160e01b600052602160045260246000fd5b021790555060018054906000613f3483615852565b91905055505050565b6000601a546001613f4e91906157ee565b90506000613f5d600183615806565b90506060600060165442613f7191906157ee565b9050600060405180610140016040528086815260200160006003811115613fa857634e487b7160e01b600052602160045260246000fd5b815233602080830182905260408301919091526060820186905260006080830181905260a083018690524260c084015260e08301819052610100909201879052601780546001818101835591909352835160099093027fc624b66cc0138b8fabc209247f72d758e1cf3343756d543badbf24212bed8c158101938455918401517fc624b66cc0138b8fabc209247f72d758e1cf3343756d543badbf24212bed8c1690920180549495508594909160ff19919091169083600381111561407d57634e487b7160e01b600052602160045260246000fd5b02179055506040820151600182018054610100600160a81b0319166101006001600160a01b039384160217905560608301516002830180546001600160a01b03191691909216179055608082015180516140e1916003840191602090910190614ab6565b5060a0820151600482015560c0820151600582015560e0820151600682015561010082015160078201556101209091015160089091015560008581526019602090815260409091208251815590820151600180830180548594939260ff199091169083600381111561416357634e487b7160e01b600052602160045260246000fd5b02179055506040820151600182018054610100600160a81b0319166101006001600160a01b039384160217905560608301516002830180546001600160a01b03191691909216179055608082015180516141c7916003840191602090910190614ab6565b5060a0820151600482015560c0820151600582015560e08201516006820155610100820151600782015561012090910151600890910155601a805490600061420e83615852565b91905055505050505050565b6000600360008381526019602052604090206001015460ff16600381111561425257634e487b7160e01b600052602160045260246000fd5b1492915050565b608082018190526002602083015242610100830152614277826147ab565b60a0830152815160009081526019602090815260409091208351815590830151600180830180548694939260ff19909116908360038111156142c957634e487b7160e01b600052602160045260246000fd5b02179055506040820151600182018054610100600160a81b0319166101006001600160a01b039384160217905560608301516002830180546001600160a01b031916919092161790556080820151805161432d916003840191602090910190614ab6565b5060a0820151816004015560c0820151816005015560e08201518160060155610100820151816007015561012082015181600801559050508160178361012001518154811061438c57634e487b7160e01b600052603260045260246000fd5b90600052602060002090600902016000820151816000015560208201518160010160006101000a81548160ff021916908360038111156143dc57634e487b7160e01b600052602160045260246000fd5b02179055506040820151600182018054610100600160a81b0319166101006001600160a01b039384160217905560608301516002830180546001600160a01b0319169190921617905560808201518051614440916003840191602090910190614ab6565b5060a0820151600482015560c0820151600582015560e082015160068201556101008201516007820155610120909101516008909101555050565b600081815260196020908152604080832060018101546002909101546001600160a01b0390811680865260069485905292852060058101805460ff19169055909301805461010090920490931693919290916144d683615852565b90915550506001600160a01b038216600090815260036020526040812060058101805460ff1916905560060180549161450e83615852565b90915550506001600160a01b03821660009081526018602090815260408083208684526019835290832081546001818101845592855292909320835460099093020191825580830154828201805460ff90921692909160ff19169083600381111561458957634e487b7160e01b600052602160045260246000fd5b021790555060018281015490820180546001600160a01b03610100938490048116909302610100600160a81b031990911617905560028084015490830180546001600160a01b03191691909216179055600380830180546145ed9284019190614b0f565b50600482810154908201556005808301549082015560068083015490820155600780830154908201556008918201549101556001600160a01b03811660009081526018602090815260408083208684526019835290832081546001818101845592855292909320835460099093020191825580830154828201805460ff90921692909160ff19169083600381111561469557634e487b7160e01b600052602160045260246000fd5b021790555060018281015490820180546001600160a01b03610100938490048116909302610100600160a81b031990911617905560028084015490830180546001600160a01b03191691909216179055600380830180546146f99284019190614b0f565b5060048201548160040155600582015481600501556006820154816006015560078201548160070155600882015481600801555050505050565b6001600160a01b03821660009081526003602052604090819020600801548151808301909252908061476584846157ee565b8152600060209182018190526001600160a01b03959095168552600381526040909420815160088201559301516009909301805460ff1916931515939093179092555050565b6080810151600090816147bd826147c5565b949350505050565b6040805160a081018252600a81526005602082015260009181018290526004196060820152600919608082015281805b84518160ff16101561489d576000858260ff168151811061482657634e487b7160e01b600052603260045260246000fd5b602002602001015160018151811061484e57634e487b7160e01b600052603260045260246000fd5b6020026020010151905083816005811061487857634e487b7160e01b600052603260045260246000fd5b602002015161488790846157ad565b92505080806148959061586d565b9150506147f5565b509392505050565b604080516101208101825260008082526020820181905290918201908152602001606081526020016060815260200160608152602001600015158152602001600081526020016149166040518060800160405280606081526020016060815260200160608152602001606081525090565b905290565b8280546149279061581d565b90600052602060002090601f016020900481019282614949576000855561498f565b82601f1061496257805160ff191683800117855561498f565b8280016001018555821561498f579182015b8281111561498f578251825591602001919060010190614974565b5061499b929150614b5b565b5090565b8280546149ab9061581d565b90600052602060002090601f0160209004810192826149cd576000855561498f565b82601f106149de578054855561498f565b8280016001018555821561498f57600052602060002091601f016020900482015b8281111561498f5782548255916001019190600101906149ff565b6040805161016081018252600080825260208201819052909182019081526020016060815260200160608152602001606081526020016000151581526020016000815260200160008152602001614a866040518060400160405280600081526020016000151581525090565b81526020016149166040518060800160405280606081526020016060815260200160608152602001606081525090565b828054828255906000526020600020908101928215614b03579160200282015b82811115614b035782518051614af3918491602090910190614b70565b5091602001919060010190614ad6565b5061499b929150614baa565b828054828255906000526020600020908101928215614b035760005260206000209182015b82811115614b03578254614b4b9083908590614bc7565b5091600101919060010190614b34565b5b8082111561499b5760008155600101614b5c565b82805482825590600052602060002090810192821561498f579160200282018281111561498f578251825591602001919060010190614974565b8082111561499b576000614bbe8282614c06565b50600101614baa565b82805482825590600052602060002090810192821561498f5760005260206000209182018281111561498f5782548255916001019190600101906149ff565b5080546000825590600052602060002090810190614c249190614b5b565b50565b600082601f830112614c37578081fd5b813567ffffffffffffffff811115614c5157614c516158a3565b614c64601f8201601f1916602001615758565b818152846020838601011115614c78578283fd5b816020850160208301379081016020019190915292915050565b600060208284031215614ca3578081fd5b81356001600160a01b0381168114614cb9578182fd5b9392505050565b600080600080600080600060e0888a031215614cda578283fd5b873567ffffffffffffffff80821115614cf1578485fd5b614cfd8b838c01614c27565b985060208a0135915080821115614d12578485fd5b614d1e8b838c01614c27565b975060408a0135915080821115614d33578485fd5b614d3f8b838c01614c27565b965060608a0135915080821115614d54578485fd5b614d608b838c01614c27565b955060808a0135915080821115614d75578485fd5b614d818b838c01614c27565b945060a08a0135915080821115614d96578384fd5b614da28b838c01614c27565b935060c08a0135915080821115614db7578283fd5b50614dc48a828b01614c27565b91505092959891949750929550565b600060208284031215614de4578081fd5b5035919050565b60008060408385031215614dfd578182fd5b8235915060208084013567ffffffffffffffff811115614e1b578283fd5b8401601f81018613614e2b578283fd5b8035614e3e614e3982615789565b615758565b81815283810190838501865b84811015614ecc57813586018b603f820112614e64578889fd5b87810135614e74614e3982615789565b808282528a82019150604084018f60408d86028701011115614e94578c8dfd5b8c94505b83851015614eb6578035835260019490940193918b01918b01614e98565b5087525050509286019290860190600101614e4a565b5096999098509650505050505050565b60008282518085526020808601955080818302840101818601855b84811015614f4a57858303601f19018952815180518085529085019085850190895b81811015614f3557835183529287019291870191600101614f19565b50509985019993505090830190600101614ef7565b5090979650505050505050565b614f60816158b9565b9052565b60008151808452815b81811015614f8957602081850181015186830182015201614f6d565b81811115614f9a5782602083870101525b50601f01601f19169290920160200192915050565b6000815160808452614fc46080850182614f64565b905060208301518482036020860152614fdd8282614f64565b91505060408301518482036040860152614ff78282614f64565b915050606083015184820360608601526150118282614f64565b95945050505050565b600061012082518452602083015161503d60208601826001600160a01b03169052565b5060408301516150506040860182614f57565b50606083015181606086015261506882860182614f64565b915050608083015184820360808601526150828282614f64565b91505060a083015184820360a086015261509c8282614f64565b91505060c08301516150b260c086018215159052565b5060e083015160e085015261010080840151858303828701526150d58382614faf565b9695505050505050565b60006101408251845260208301516150fa6020860182614f57565b50604083015161511560408601826001600160a01b03169052565b50606083015161513060608601826001600160a01b03169052565b50608083015181608086015261514882860182614edc565b91505060a083015160a085015260c083015160c085015260e083015160e08501526101008084015181860152506101208084015181860152508091505092915050565b60006101808251845260208301516151ae60208601826001600160a01b03169052565b5060408301516151c16040860182614f57565b5060608301518160608601526151d982860182614f64565b915050608083015184820360808601526151f38282614f64565b91505060a083015184820360a086015261520d8282614f64565b91505060c083015161522360c086018215159052565b5060e083810151908501526101008084015190850152610120808401518051828701526020810151151561014087015250506101408301518482036101608601526150118282614faf565b6000602080830181845280855180835260408601915060408482028701019250838701855b828110156152c157603f198886030184526152af85835161501a565b94509285019290850190600101615293565b5092979650505050505050565b60208082528251828201819052600091906040908185019080840286018301878501865b8381101561540357603f19898403018552815180518452878101516001600160a01b031688850152868101516101608886018190529061533482870182614f64565b9150506060808301518683038288015261534e8382614f64565b92505050608080830151868303828801526153698382614f64565b9250505060a080830151868303828801526153848382614f64565b9250505060c0808301518683038288015261539f8382614f64565b9250505060e080830151868303828801526153ba8382614f64565b9250505061010080830151868303828801526153d68382614f64565b610120858101519089015261014094850151949097019390935250505093860193908601906001016152f2565b509098975050505050505050565b6000602080830181845280855180835260408601915060408482028701019250838701855b828110156152c157603f198886030184526154528583516150df565b94509285019290850190600101615436565b6000602080830181845280855180835260408601915060408482028701019250838701855b828110156152c157603f198886030184526154a585835161518b565b94509285019290850190600101615489565b602081016154c4836158b9565b91905290565b6000606082526154dd6060830186614f64565b82810360208401526154ef8186614f64565b905082810360408401526150d58185614f64565b6000608082526155166080830187614f64565b82810360208401526155288187614f64565b9050828103604084015261553c8186614f64565b905082810360608401526155508185614f64565b979650505050505050565b6020808252602f908201527f596f75206d75737420626520616e2061637469766973742120506c656173652060408201526e7265676973746572206173206f6e6560881b606082015260800190565b600060208252614cb9602083018461501a565b600060208252614cb960208301846150df565b600060208252614cb9602083018461518b565b8b81526001600160a01b038b16602082015260006101806156038c6158b9565b8b604084015280606084015261561b8184018c614f64565b9050828103608084015261562f818b614f64565b905082810360a0840152615643818a614f64565b905087151560c08401528660e084015285610100840152615674610120840186805182526020908101511515910152565b8281036101608401526156878185614faf565b9e9d5050505050505050505050505050565b8b81526001600160a01b038b16602082015260006101608060408401526156c28184018d614f64565b905082810360608401526156d6818c614f64565b905082810360808401526156ea818b614f64565b905082810360a08401526156fe818a614f64565b905082810360c08401526157128189614f64565b905082810360e08401526157268188614f64565b905082810361010084015261573b8187614f64565b610120840195909552505061014001529998505050505050505050565b604051601f8201601f1916810167ffffffffffffffff81118282101715615781576157816158a3565b604052919050565b600067ffffffffffffffff8211156157a3576157a36158a3565b5060209081020190565b600080821280156001600160ff1b03849003851316156157cf576157cf61588d565b600160ff1b83900384128116156157e8576157e861588d565b50500190565b600082198211156158015761580161588d565b500190565b6000828210156158185761581861588d565b500390565b60028104600182168061583157607f821691505b6020821081141561060857634e487b7160e01b600052602260045260246000fd5b60006000198214156158665761586661588d565b5060010190565b600060ff821660ff8114156158845761588461588d565b60010192915050565b634e487b7160e01b600052601160045260246000fd5b634e487b7160e01b600052604160045260246000fd5b60048110614c2457634e487b7160e01b600052602160045260246000fdfea2646970667358221220c4bc41ce70ecde58751120c3e11835dea8b0661f2c3809e7d4880bd6ba32fb5964736f6c63430008020033",
  "immutableReferences": {},
  "source": "// SPDX-License-Identifier: GPL-3.0\npragma solidity >=0.7.0 <=0.9.0;\n\nimport './ProducerContract.sol';\nimport './ActivistContract.sol';\nimport './CategoryContract.sol';\n\n/**\n* @title SintropContract\n* @dev Sintrop application to certificated a rural producer\n*/\ncontract Sintrop is ProducerContract, ActivistContract, CategoryContract {\n    enum InspectionStatus { OPEN, EXPIRED, INSPECTED, ACCEPTED } \n    uint inspactionExpireIn = 604800;\n    \n    struct Inspection {\n        uint id;\n        InspectionStatus status;\n        address producerWallet;\n        address activistWallet;\n        uint[][] isas;\n        int isaPoints;\n        uint expiresIn;\n        uint createdAt;\n        uint updatedAt;\n        uint index;\n    }\n    Inspection[] inspectionsList;\n    mapping(address => Inspection[]) userInspections;\n    mapping(uint256 => Inspection) inspections;\n    uint256 inspectionsCount;\n\n    /**\n   * @dev Allows the current user producer/activist get all yours inspections with status INSPECTED\n   */\n    function getInspectionsHistory() public view returns(Inspection[] memory) {\n        return userInspections[msg.sender];\n    }\n\n  /**\n   * @dev Allows the current user (producer) request a inspection.\n   */\n    function requestInspection() public returns(bool) {\n        require(producerExists(msg.sender), \"You are not a producer! Please register as one\");\n        require(producers[msg.sender].recentInspection == false, \"You have a inspection request OPEN or ACCEPTED! Wait a activist realize inspection or you can close it\");\n        \n        createRequest();\n        producers[msg.sender].recentInspection = true;\n        \n        return true;\n    }     \n    \n    function createRequest() internal{\n        uint id = inspectionsCount + 1;\n        uint index = id - 1;\n        uint[][] memory isas;\n        uint expiresIn = block.timestamp + inspactionExpireIn;\n        Inspection memory inspection = Inspection(id, InspectionStatus.OPEN, msg.sender, msg.sender, \n                                                  isas,  0, expiresIn,  block.timestamp, 0, index);\n        inspectionsList.push(inspection);\n        inspections[id] = inspection;\n        inspectionsCount++;\n    }\n    \n    /**\n   * @dev Allows the current user (activist) accept a inspection.\n   * @param inspectionId The id of the inspection that the activist want accept.\n   */\n    function acceptInspection(uint inspectionId) public requireActivist requireInspectionExists(inspectionId) returns(bool) {\n        Inspection memory inspection = inspections[inspectionId];\n        if (inspection.status != InspectionStatus.OPEN) return false;\n\n        inspection.status = InspectionStatus.ACCEPTED;\n        inspection.updatedAt = block.timestamp;\n        inspection.activistWallet = msg.sender;\n        inspections[inspectionId] = inspection;\n\n        inspectionsList[inspection.index] = inspection;\n        return true;\n    }  \n    \n    /**\n     * @dev Allow a activist realize a inspection and mark as INSPECTED\n     * @param inspectionId The id of the inspection to be realized\n     * @param isas The uint[][] of categoryId and isaIndex. Ex: isas = [ [categoryId, isaIndex], [categoryId, isaIndex] ]\n     */ \n    function realizeInspection(uint inspectionId, uint[][] memory isas) public  requireActivist requireInspectionExists(inspectionId) returns(bool) {\n        if (!isAccepted(inspectionId)) return false;\n        if (!isActivistOwner(inspectionId)) return false;\n\n        Inspection memory inspection = inspections[inspectionId];\n\n        markAsRealized(inspection, isas);\n\n        afterRealizeInspection(inspectionId);\n\n        updateProducerIsa(inspectionId, inspection.isaPoints);\n\n        approveProducerNewTokens(inspection.producerWallet, 2000); \n\n        return true;\n    }\n\n  /**\n   * @dev Calculate the ISA of the inspection based in the category and the ISA level of the category\n   * @param inspection Receive the inspected inspection with your isas levels\n   */\n    function calculateIsa(Inspection memory inspection) internal pure returns(int){ \n        uint[][] memory isas = inspection.isas;\n        int isaPoints = sumIsaPoints(isas);\n        return isaPoints;\n    }\n\n  /**\n   * @dev Sum the ISA points\n   * @param isas The isas values as list of [[categoryId, isaIndex], [categoryId, isaIndex]]\n   */\n    function sumIsaPoints(uint[][] memory isas) internal pure returns(int) {\n        int[5] memory points = [int(10), int(5), int(0), int(-5), int(-10)];\n        int isaPoints = 0;\n\n        for (uint8 i = 0; i < isas.length; i++) {\n            uint isaIndex = isas[i][1];\n            isaPoints += points[isaIndex];\n        }\n        return isaPoints;\n    }\n\n    function markAsRealized(Inspection memory inspection, uint[][] memory isas) internal {   \n        inspection.isas = isas;\n        inspection.status = InspectionStatus.INSPECTED;\n        inspection.updatedAt = block.timestamp;\n        inspection.isaPoints = calculateIsa(inspection);\n        inspections[inspection.id] = inspection;\n        inspectionsList[inspection.index] = inspection;\n    }\n\n    function updateProducerIsa(uint inspectionId, int isaPoints) internal {\n        address producerAddress = inspections[inspectionId].producerWallet;\n        producers[producerAddress].isaPoints = isaPoints;\n    }\n\n    /**\n   * @dev Returns a inspection by id if that exists.\n   * @param id The id of the inspection to return.\n   */\n    function getInspection(uint256 id) public view returns(Inspection memory) {\n        return inspections[id];\n    }\n    \n    /**\n   * @dev Returns all requested inspections.\n   */\n    function getInspections() public view returns (Inspection[] memory) {\n        return inspectionsList;\n    }\n\n    /**\n   * @dev Returns all inpections status string.\n   */\n    function getInspectionsStatus() public pure returns(string memory, string memory, string memory, string memory) {\n        return (\"OPEN\", \"EXPIRED\", \"INSPECTED\", \"ACCEPTED\");\n    }\n    \n    /**\n   * @dev Check if an inspections exists in mapping.\n   * @param id The id of the inspection that the activist want accept.\n   */\n    function inspectionExists(uint256 id) public view returns(bool) {\n        return inspections[id].id >= 1;\n    }\n    \n    /**\n   * @dev Inscrement producer and activist request action and mark both as no recent open requests and inspection\n   * @param inspectionId The id of the inspection\n   */\n    function afterRealizeInspection(uint inspectionId) internal {\n        address producerWallet = inspections[inspectionId].producerWallet;\n        address activistWallet = inspections[inspectionId].activistWallet;\n        \n        // Increment actvist inspections and release to carry out new inspections\n        activists[activistWallet].recentInspection = false;\n        activists[activistWallet].totalInspections++;\n        \n        // Increment producer requests and release to carry out new requests\n        producers[producerWallet].recentInspection = false;\n        producers[producerWallet].totalRequests++;\n        \n        userInspections[producerWallet].push(inspections[inspectionId]);\n        userInspections[activistWallet].push(inspections[inspectionId]);\n    }\n    \n    function isActivistOwner(uint inspectionId) internal view returns(bool) {\n        return inspections[inspectionId].activistWallet == msg.sender;\n    }\n \n    function isAccepted(uint inspectionId) internal view returns(bool) {\n        return inspections[inspectionId].status == InspectionStatus.ACCEPTED;\n    }\n    \n    // MODIFIERS\n    modifier requireActivist() {\n        require(activistExists(msg.sender), \"You must be an activist! Please register as one\");\n        _;\n    }\n    \n    modifier requireInspectionExists(uint inspectionId) {\n        require(inspectionExists(inspectionId), \"This inspection don't exists\");\n        _;\n    }\n    \n}\n",
  "sourcePath": "/home/everson/projetos/afiliart/SAT-core-contracts/contracts/Sintrop.sol",
  "compiler": {
    "name": "solc",
    "version": "0.8.2+commit.661d1103.Emscripten.clang"
  },
  "schemaVersion": "3.4.4",
  "updatedAt": "2022-02-04T00:33:36.444Z",
  "networkType": "ethereum",
  "devdoc": {
    "details": "Sintrop application to certificated a rural producer",
    "kind": "dev",
    "methods": {
      "acceptInspection(uint256)": {
        "details": "Allows the current user (activist) accept a inspection.",
        "params": {
          "inspectionId": "The id of the inspection that the activist want accept."
        }
      },
      "activistExists(address)": {
        "details": "Check if a specific activist exists",
        "returns": {
          "_0": "a bool that represent if a activist exists or not"
        }
      },
      "addActivist(string,string,string,string,string,string,string)": {
        "details": "Allow a new register of activist",
        "params": {
          "cep": "the cep of the activist",
          "city": "the of the activist",
          "country": "the country where the activist is",
          "document": "the document of activist",
          "documentType": "the document type type of activist. CPF/CNPJ",
          "name": "the name of the activist",
          "state": "the state of the activist"
        },
        "returns": {
          "_0": "a Activist"
        }
      },
      "addCategory(string,string,string,string,string,string,string)": {
        "details": "add a new category",
        "params": {
          "description": "the description of category",
          "name": "the name of category",
          "neutro": "the description text to this metric",
          "partiallyNotSustainable": "the description text to this metric",
          "partiallySustainable": "the description text to this metric",
          "totallyNotSustainable": "the description text to this metric",
          "totallySustainable": "the description text to this metric"
        },
        "returns": {
          "_0": "bool"
        }
      },
      "addProducer(string,string,string,string,string,string,string)": {
        "details": "Allow a new register of producer",
        "params": {
          "cep": "the cep of the producer",
          "city": "the of the producer",
          "country": "the country where the producer is",
          "document": "the document of producer",
          "documentType": "the document type type of producer. CPF/CNPJ",
          "name": "the name of the producer",
          "state": "the state of the producer"
        }
      },
      "getActivist(address)": {
        "details": "Return a specific activist",
        "params": {
          "addr": "the address of the activist."
        }
      },
      "getActivists()": {
        "details": "Returns all registered activists",
        "returns": {
          "_0": "Activist struct array"
        }
      },
      "getCategories()": {
        "details": "Returns all added categories",
        "returns": {
          "_0": "category struc array"
        }
      },
      "getInspection(uint256)": {
        "details": "Returns a inspection by id if that exists.",
        "params": {
          "id": "The id of the inspection to return."
        }
      },
      "getInspections()": {
        "details": "Returns all requested inspections."
      },
      "getInspectionsHistory()": {
        "details": "Allows the current user producer/activist get all yours inspections with status INSPECTED"
      },
      "getInspectionsStatus()": {
        "details": "Returns all inpections status string."
      },
      "getProducer(address)": {
        "details": "Return a specific producer",
        "params": {
          "addr": "the address of the producer."
        }
      },
      "getProducers()": {
        "details": "Returns all registered producers",
        "returns": {
          "_0": "Producer struct array"
        }
      },
      "getUser(address)": {
        "details": "Returns the user type if the user is registered",
        "params": {
          "addr": "the user address that want check if exists"
        }
      },
      "getUserTypes()": {
        "details": "Returns the enum UserType of the system"
      },
      "inspectionExists(uint256)": {
        "details": "Check if an inspections exists in mapping.",
        "params": {
          "id": "The id of the inspection that the activist want accept."
        }
      },
      "producerExists(address)": {
        "details": "Check if a specific producer exists",
        "returns": {
          "_0": "a bool that represent if a producer exists or not"
        }
      },
      "realizeInspection(uint256,uint256[][])": {
        "details": "Allow a activist realize a inspection and mark as INSPECTED",
        "params": {
          "inspectionId": "The id of the inspection to be realized",
          "isas": "The uint[][] of categoryId and isaIndex. Ex: isas = [ [categoryId, isaIndex], [categoryId, isaIndex] ]"
        }
      },
      "requestInspection()": {
        "details": "Allows the current user (producer) request a inspection."
      },
      "vote(uint256)": {
        "details": "Allow a user vote in a category",
        "params": {
          "id": "the id of a category that receives a vote."
        },
        "returns": {
          "_0": "category struc array"
        }
      }
    },
    "title": "SintropContract",
    "version": 1
  },
  "userdoc": {
    "kind": "user",
    "methods": {},
    "version": 1
  }
}