{
  "contractName": "UserContract",
  "abi": [
    {
      "inputs": [],
      "name": "usersCount",
      "outputs": [
        {
          "internalType": "uint256",
          "name": "",
          "type": "uint256"
        }
      ],
      "stateMutability": "view",
      "type": "function"
    },
    {
      "inputs": [
        {
          "internalType": "address",
          "name": "addr",
          "type": "address"
        }
      ],
      "name": "getUser",
      "outputs": [
        {
          "internalType": "enum UserContract.UserType",
          "name": "",
          "type": "uint8"
        }
      ],
      "stateMutability": "view",
      "type": "function"
    },
    {
      "inputs": [],
      "name": "getUserTypes",
      "outputs": [
        {
          "internalType": "string",
          "name": "",
          "type": "string"
        },
        {
          "internalType": "string",
          "name": "",
          "type": "string"
        },
        {
          "internalType": "string",
          "name": "",
          "type": "string"
        }
      ],
      "stateMutability": "pure",
      "type": "function"
    }
  ],
  "bytecode": "0x608060405234801561001057600080fd5b50610222806100206000396000f3fe608060405234801561001057600080fd5b50600436106100415760003560e01c80636337dc1a146100465780636ba13a82146100b85780636f77926b146100cf575b600080fd5b604080518082018252600880825267282927a22aa1a2a960c11b60208084019190915283518085018552918252671050d512559254d560c21b8282015283518085018552600a8152692922a9a2a0a921a422a960b11b9181019190915292516100af93906101a9565b60405180910390f35b6100c160015481565b6040519081526020016100af565b6100fb6100dd366004610108565b6001600160a01b031660009081526020819052604090205460ff1690565b6040516100af9190610181565b600060208284031215610119578081fd5b81356001600160a01b038116811461012f578182fd5b9392505050565b60008151808452815b8181101561015b5760208185018101518683018201520161013f565b8181111561016c5782602083870101525b50601f01601f19169290920160200192915050565b60208101600483106101a357634e487b7160e01b600052602160045260246000fd5b91905290565b6000606082526101bc6060830186610136565b82810360208401526101ce8186610136565b905082810360408401526101e28185610136565b969550505050505056fea26469706673582212202b3f2766bf33e4526c89fef210fbb8594ed0b3494acfa2c32492908b2400dcae64736f6c63430008020033",
  "immutableReferences": {},
  "source": "// SPDX-License-Identifier: GPL-3.0\npragma solidity >=0.7.0 <=0.9.0;\n\n/**\n * @title UserContract\n * @dev This contract work as a centralized user's system, where all users has your userType here\n */\ncontract UserContract {\n    enum UserType {\n        UNDEFINED,\n        PRODUCER,\n        ACTIVIST,\n        RESEARCHER\n    }\n\n    mapping(address => UserType) users;\n    uint256 public usersCount;\n\n    /**\n     * @dev Add new user in the system\n     * @param addr The address of the user\n     * @param userType The type of the user - enum UserType\n     */\n    function addUser(address addr, UserType userType) internal {\n        users[addr] = userType;\n        usersCount++;\n    }\n\n    /**\n     * @dev Returns the user type if the user is registered\n     * @param addr the user address that want check if exists\n     */\n    function getUser(address addr) public view returns (UserType) {\n        return users[addr];\n    }\n\n    /**\n     * @dev Returns the enum UserType of the system\n     */\n    function getUserTypes()\n        public\n        pure\n        returns (\n            string memory,\n            string memory,\n            string memory\n        )\n    {\n        return (\"PRODUCER\", \"ACTIVIST\", \"RESEARCHER\");\n    }\n}\n",
  "sourcePath": "/home/everson/Documents/projetos/sintrop/SAT-core-contracts/contracts/UserContract.sol",
  "compiler": {
    "name": "solc",
    "version": "0.8.2+commit.661d1103.Emscripten.clang"
  },
  "schemaVersion": "3.4.6",
  "updatedAt": "2022-04-02T18:06:16.886Z",
  "devdoc": {
    "details": "This contract work as a centralized user's system, where all users has your userType here",
    "kind": "dev",
    "methods": {
      "getUser(address)": {
        "details": "Returns the user type if the user is registered",
        "params": {
          "addr": "the user address that want check if exists"
        }
      },
      "getUserTypes()": {
        "details": "Returns the enum UserType of the system"
      }
    },
    "title": "UserContract",
    "version": 1
  },
  "userdoc": {
    "kind": "user",
    "methods": {},
    "version": 1
  }
}