{
  "contractName": "UserContract",
  "abi": [
    {
      "anonymous": false,
      "inputs": [
        {
          "indexed": true,
          "internalType": "address",
          "name": "previousOwner",
          "type": "address"
        },
        {
          "indexed": true,
          "internalType": "address",
          "name": "newOwner",
          "type": "address"
        }
      ],
      "name": "OwnershipTransferred",
      "type": "event"
    },
    {
      "inputs": [
        {
          "internalType": "address",
          "name": "",
          "type": "address"
        }
      ],
      "name": "allowedCaller",
      "outputs": [
        {
          "internalType": "bool",
          "name": "",
          "type": "bool"
        }
      ],
      "stateMutability": "view",
      "type": "function",
      "constant": true
    },
    {
      "inputs": [
        {
          "internalType": "address",
          "name": "allowed",
          "type": "address"
        }
      ],
      "name": "newAllowedCaller",
      "outputs": [],
      "stateMutability": "nonpayable",
      "type": "function"
    },
    {
      "inputs": [],
      "name": "owner",
      "outputs": [
        {
          "internalType": "address",
          "name": "",
          "type": "address"
        }
      ],
      "stateMutability": "view",
      "type": "function",
      "constant": true
    },
    {
      "inputs": [],
      "name": "renounceOwnership",
      "outputs": [],
      "stateMutability": "nonpayable",
      "type": "function"
    },
    {
      "inputs": [
        {
          "internalType": "address",
          "name": "newOwner",
          "type": "address"
        }
      ],
      "name": "transferOwnership",
      "outputs": [],
      "stateMutability": "nonpayable",
      "type": "function"
    },
    {
      "inputs": [],
      "name": "usersCount",
      "outputs": [
        {
          "internalType": "uint256",
          "name": "",
          "type": "uint256"
        }
      ],
      "stateMutability": "view",
      "type": "function",
      "constant": true
    },
    {
      "inputs": [
        {
          "internalType": "address",
          "name": "addr",
          "type": "address"
        },
        {
          "internalType": "enum UserType",
          "name": "userType",
          "type": "uint8"
        }
      ],
      "name": "addUser",
      "outputs": [],
      "stateMutability": "nonpayable",
      "type": "function"
    },
    {
      "inputs": [
        {
          "internalType": "address",
          "name": "addr",
          "type": "address"
        }
      ],
      "name": "getUser",
      "outputs": [
        {
          "internalType": "enum UserType",
          "name": "",
          "type": "uint8"
        }
      ],
      "stateMutability": "view",
      "type": "function",
      "constant": true
    },
    {
      "inputs": [],
      "name": "userTypes",
      "outputs": [
        {
          "internalType": "string",
          "name": "",
          "type": "string"
        },
        {
          "internalType": "string",
          "name": "",
          "type": "string"
        },
        {
          "internalType": "string",
          "name": "",
          "type": "string"
        },
        {
          "internalType": "string",
          "name": "",
          "type": "string"
        },
        {
          "internalType": "string",
          "name": "",
          "type": "string"
        },
        {
          "internalType": "string",
          "name": "",
          "type": "string"
        },
        {
          "internalType": "string",
          "name": "",
          "type": "string"
        }
      ],
      "stateMutability": "pure",
      "type": "function",
      "constant": true
    }
  ],
  "bytecode": "0x608060405234801561001057600080fd5b5061002d61002261003260201b60201c565b61003a60201b60201c565b6100fe565b600033905090565b60008060009054906101000a900473ffffffffffffffffffffffffffffffffffffffff169050816000806101000a81548173ffffffffffffffffffffffffffffffffffffffff021916908373ffffffffffffffffffffffffffffffffffffffff1602179055508173ffffffffffffffffffffffffffffffffffffffff168173ffffffffffffffffffffffffffffffffffffffff167f8be0079c531659141344cd1fd0a4f28419497f9722a3daafe3b4186f6b6457e060405160405180910390a35050565b610dad8061010d6000396000f3fe608060405234801561001057600080fd5b50600436106100935760003560e01c806372eb8caf1161006657806372eb8caf146101145780638da5cb5b146101445780638f93716f146101625780639c3eead91461017e578063f2fde38b1461019a57610093565b80632fadee0a146100985780636ba13a82146100bc5780636f77926b146100da578063715018a61461010a575b600080fd5b6100a06101b6565b6040516100b39796959493929190610a0c565b60405180910390f35b6100c4610352565b6040516100d19190610b0c565b60405180910390f35b6100f460048036038101906100ef9190610878565b610358565b60405161010191906109f1565b60405180910390f35b6101126103ae565b005b61012e60048036038101906101299190610878565b610436565b60405161013b91906109d6565b60405180910390f35b61014c610456565b60405161015991906109bb565b60405180910390f35b61017c60048036038101906101779190610878565b61047f565b005b610198600480360381019061019391906108a1565b610555565b005b6101b460048036038101906101af9190610878565b61068a565b005b60608060608060608060606040518060400160405280600881526020017f50524f44554345520000000000000000000000000000000000000000000000008152506040518060400160405280600881526020017f41435449564953540000000000000000000000000000000000000000000000008152506040518060400160405280600a81526020017f52455345415243484552000000000000000000000000000000000000000000008152506040518060400160405280600981526020017f444556454c4f50455200000000000000000000000000000000000000000000008152506040518060400160405280600781526020017f41445649534552000000000000000000000000000000000000000000000000008152506040518060400160405280600b81526020017f434f4e5452494255544f520000000000000000000000000000000000000000008152506040518060400160405280600881526020017f494e564553544f52000000000000000000000000000000000000000000000000815250965096509650965096509650965090919293949596565b60035481565b6000600260008373ffffffffffffffffffffffffffffffffffffffff1673ffffffffffffffffffffffffffffffffffffffff16815260200190815260200160002060009054906101000a900460ff169050919050565b6103b6610782565b73ffffffffffffffffffffffffffffffffffffffff166103d4610456565b73ffffffffffffffffffffffffffffffffffffffff161461042a576040517f08c379a000000000000000000000000000000000000000000000000000000000815260040161042190610acc565b60405180910390fd5b610434600061078a565b565b60016020528060005260406000206000915054906101000a900460ff1681565b60008060009054906101000a900473ffffffffffffffffffffffffffffffffffffffff16905090565b610487610782565b73ffffffffffffffffffffffffffffffffffffffff166104a5610456565b73ffffffffffffffffffffffffffffffffffffffff16146104fb576040517f08c379a00000000000000000000000000000000000000000000000000000000081526004016104f290610acc565b60405180910390fd5b60018060008373ffffffffffffffffffffffffffffffffffffffff1673ffffffffffffffffffffffffffffffffffffffff16815260200190815260200160002060006101000a81548160ff02191690831515021790555050565b600160003373ffffffffffffffffffffffffffffffffffffffff1673ffffffffffffffffffffffffffffffffffffffff16815260200190815260200160002060009054906101000a900460ff166105e1576040517f08c379a00000000000000000000000000000000000000000000000000000000081526004016105d890610aec565b60405180910390fd5b80600260008473ffffffffffffffffffffffffffffffffffffffff1673ffffffffffffffffffffffffffffffffffffffff16815260200190815260200160002060006101000a81548160ff02191690836006811115610669577f4e487b7100000000000000000000000000000000000000000000000000000000600052602160045260246000fd5b02179055506003600081548092919061068190610be3565b91905055505050565b610692610782565b73ffffffffffffffffffffffffffffffffffffffff166106b0610456565b73ffffffffffffffffffffffffffffffffffffffff1614610706576040517f08c379a00000000000000000000000000000000000000000000000000000000081526004016106fd90610acc565b60405180910390fd5b600073ffffffffffffffffffffffffffffffffffffffff168173ffffffffffffffffffffffffffffffffffffffff161415610776576040517f08c379a000000000000000000000000000000000000000000000000000000000815260040161076d90610aac565b60405180910390fd5b61077f8161078a565b50565b600033905090565b60008060009054906101000a900473ffffffffffffffffffffffffffffffffffffffff169050816000806101000a81548173ffffffffffffffffffffffffffffffffffffffff021916908373ffffffffffffffffffffffffffffffffffffffff1602179055508173ffffffffffffffffffffffffffffffffffffffff168173ffffffffffffffffffffffffffffffffffffffff167f8be0079c531659141344cd1fd0a4f28419497f9722a3daafe3b4186f6b6457e060405160405180910390a35050565b60008135905061085d81610d50565b92915050565b60008135905061087281610d67565b92915050565b60006020828403121561088a57600080fd5b60006108988482850161084e565b91505092915050565b600080604083850312156108b457600080fd5b60006108c28582860161084e565b92505060206108d385828601610863565b9150509250929050565b6108e681610b43565b82525050565b6108f581610b55565b82525050565b61090481610b9e565b82525050565b600061091582610b27565b61091f8185610b32565b935061092f818560208601610bb0565b61093881610c8a565b840191505092915050565b6000610950602683610b32565b915061095b82610c9b565b604082019050919050565b6000610973602083610b32565b915061097e82610cea565b602082019050919050565b6000610996601283610b32565b91506109a182610d13565b602082019050919050565b6109b581610b94565b82525050565b60006020820190506109d060008301846108dd565b92915050565b60006020820190506109eb60008301846108ec565b92915050565b6000602082019050610a0660008301846108fb565b92915050565b600060e0820190508181036000830152610a26818a61090a565b90508181036020830152610a3a818961090a565b90508181036040830152610a4e818861090a565b90508181036060830152610a62818761090a565b90508181036080830152610a76818661090a565b905081810360a0830152610a8a818561090a565b905081810360c0830152610a9e818461090a565b905098975050505050505050565b60006020820190508181036000830152610ac581610943565b9050919050565b60006020820190508181036000830152610ae581610966565b9050919050565b60006020820190508181036000830152610b0581610989565b9050919050565b6000602082019050610b2160008301846109ac565b92915050565b600081519050919050565b600082825260208201905092915050565b6000610b4e82610b74565b9050919050565b60008115159050919050565b6000819050610b6f82610d3c565b919050565b600073ffffffffffffffffffffffffffffffffffffffff82169050919050565b6000819050919050565b6000610ba982610b61565b9050919050565b60005b83811015610bce578082015181840152602081019050610bb3565b83811115610bdd576000848401525b50505050565b6000610bee82610b94565b91507fffffffffffffffffffffffffffffffffffffffffffffffffffffffffffffffff821415610c2157610c20610c2c565b5b600182019050919050565b7f4e487b7100000000000000000000000000000000000000000000000000000000600052601160045260246000fd5b7f4e487b7100000000000000000000000000000000000000000000000000000000600052602160045260246000fd5b6000601f19601f8301169050919050565b7f4f776e61626c653a206e6577206f776e657220697320746865207a65726f206160008201527f6464726573730000000000000000000000000000000000000000000000000000602082015250565b7f4f776e61626c653a2063616c6c6572206973206e6f7420746865206f776e6572600082015250565b7f4e6f7420616c6c6f7765642063616c6c65720000000000000000000000000000600082015250565b60078110610d4d57610d4c610c5b565b5b50565b610d5981610b43565b8114610d6457600080fd5b50565b60078110610d7457600080fd5b5056fea2646970667358221220a732d69d416f5776809b8c4a81379f6482a286db3696a112991be1b3152e45c264736f6c63430008020033",
  "immutableReferences": {},
  "source": "// SPDX-License-Identifier: GPL-3.0\r\npragma solidity >=0.7.0 <=0.9.0;\r\n\r\nimport \"@openzeppelin/contracts/access/Ownable.sol\";\r\nimport \"./types/UserTypes.sol\";\r\nimport \"./Callable.sol\";\r\n\r\n/**\r\n * @title UserContract\r\n * @dev This contract work as a centralized user's system, where all users has your userType here\r\n */\r\ncontract UserContract is Ownable, Callable {\r\n  mapping(address => UserType) internal users;\r\n\r\n  uint256 public usersCount;\r\n\r\n  /**\r\n   * @dev Add new user in the system\r\n   * @param addr The address of the user\r\n   * @param userType The type of the user - enum UserType\r\n   */\r\n  function addUser(address addr, UserType userType) public mustBeAllowedCaller {\r\n    users[addr] = userType;\r\n    usersCount++;\r\n  }\r\n\r\n  /**\r\n   * @dev Returns the user type if the user is registered\r\n   * @param addr the user address that want check if exists\r\n   */\r\n  function getUser(address addr) public view returns (UserType) {\r\n    return users[addr];\r\n  }\r\n\r\n  /**\r\n   * @dev Returns the enum UserType of the system\r\n   */\r\n  function userTypes()\r\n    public\r\n    pure\r\n    returns (\r\n      string memory,\r\n      string memory,\r\n      string memory,\r\n      string memory,\r\n      string memory,\r\n      string memory,\r\n      string memory\r\n    )\r\n  {\r\n    return (\r\n      \"PRODUCER\",\r\n      \"ACTIVIST\",\r\n      \"RESEARCHER\",\r\n      \"DEVELOPER\",\r\n      \"ADVISER\",\r\n      \"CONTRIBUTOR\",\r\n      \"INVESTOR\"\r\n    );\r\n  }\r\n}\r\n",
  "sourcePath": "/app/contracts/UserContract.sol",
  "compiler": {
    "name": "solc",
    "version": "0.8.2+commit.661d1103.Emscripten.clang"
  },
  "schemaVersion": "3.4.7",
  "updatedAt": "2022-06-14T21:44:41.231Z",
  "networkType": "ethereum",
  "devdoc": {
    "details": "This contract work as a centralized user's system, where all users has your userType here",
    "kind": "dev",
    "methods": {
      "addUser(address,uint8)": {
        "details": "Add new user in the system",
        "params": {
          "addr": "The address of the user",
          "userType": "The type of the user - enum UserType"
        }
      },
      "getUser(address)": {
        "details": "Returns the user type if the user is registered",
        "params": {
          "addr": "the user address that want check if exists"
        }
      },
      "owner()": {
        "details": "Returns the address of the current owner."
      },
      "renounceOwnership()": {
        "details": "Leaves the contract without owner. It will not be possible to call `onlyOwner` functions anymore. Can only be called by the current owner. NOTE: Renouncing ownership will leave the contract without an owner, thereby removing any functionality that is only available to the owner."
      },
      "transferOwnership(address)": {
        "details": "Transfers ownership of the contract to a new account (`newOwner`). Can only be called by the current owner."
      },
      "userTypes()": {
        "details": "Returns the enum UserType of the system"
      }
    },
    "title": "UserContract",
    "version": 1
  },
  "userdoc": {
    "kind": "user",
    "methods": {},
    "version": 1
  }
}